:0C0000000C9438000C9400000C940000DC
:10000C000C9400000C9400000C9400000C94000064
:10001C000C9400000C9400000C9400000C94000054
:10002C000C9400000C9400000C9400000C94000044
:10003C000C9400000C9400000C9400000C94000034
:10004C000C9400000C9400000C9400000C94000024
:10005C000C9400000C9400000C9400000C94000014
:10006C000C940000F894EE27ECBBF1E0FBBFEBBF67
:10007C00E5BFE6BFF8E1F1BDE1BD8DE0A2E0BB2735
:10008C00ED938A95E9F780E094E0A0E0B1E0ED9380
:10009C000197E9F7EFEFEDBFE4E0EEBFC0E0D2E08F
:1000AC000C945800E0E0EBBBE0EDEABBE0E0E8BB11
:1000BC00E7BBE5BBEFEFE4BBE0E0E2BBECEFE1BBA1
:1000CC00E0E0E3BFE2BFECBFEFBDEEBDEDBDECBDCC
:1000DC00E7BDE6BDEBBDEABDE9BDE8BDE2BDE5BDF2
:1000EC00E4BDE3BDE5BFE4BFE9BFE0E8E8B9E0E0AB
:1000FC00E0BFAE98AF9AE8EEF3E0FA93EA930E9471
:10010C008A00F7CF0000FECFE991F991309639F0D3
:10011C0088EE93E00197F1F7A8953197C9F7089508
:00000001FF
