:0C0000000C94DA010C9400000C94000039
:10000C000C9400000C9400000C9400000C94000064
:10001C000C9400000C9400000C9400000C94000054
:10002C000C948F050C9400000C9400000C940000B0
:10003C000C9400000C9400000C9400000C94000034
:10004C000C9400000C94000020222A2B2C5B3D5DAC
:10005C007C7F0000FF00203C002020007C7C003EC8
:10006C0000207C2000202020002B002D002A2000C6
:10007C005341554C4553204B4F4C454B544F522EEE
:10008C000056414C44494B4C49532056312E30209C
:10009C00200043204B4F4C2E54454D502E004320F6
:1000AC00424F494C2E54454D500043204B4F4C2E43
:1000BC004953454A2E0043204B4F4C2E49454A4943
:1000CC004D00432054454D502E534B495254002063
:1000DC002020204B45495354493F2D2D3E2A2000CA
:1000EC004C2F4D494E205352415554415300202022
:1000FC0039354320415053415547412020200020A1
:10010C00204E4553555645494B5553492020200008
:10011C002D2D53555645494B4520203935432D2D12
:10012C00002D2D2D2D415053415547412D2D2D2D59
:10013C002D0057204D4F4D454E54494E4520002023
:10014C002020202047414C49412020202020200005
:10015C006B576800454E4552472E534B4149544905
:10016C004B4C495300454E4552472E20504552208A
:10017C004449454E41004D414B532E4449454E4F49
:10018C00532E54454D500043202020202020005455
:10019C0052494E414D413A2030303025202020002C
:1001AC0050414C41554B4954452E2E2E2020202099
:1001BC00002020202049535452494E5441202020E5
:1001CC00200053564152425553204956594B4941F0
:1001DC00493A005045525A4955524554493F2D2DE4
:1001EC003E2A200053555645494B4520393543206E
:1001FC00200041544B5249544F20393543202000A4
:10020C0044494E474F204954414D504120004E45E2
:10021C005241204956594B494F202000432053410D
:10022C00554C2E004320424F494C2E005452494EFF
:10023C005449204952415355533F202000203C7CC7
:10024C007C3E202020544149503D3E2A00444154DC
:10025C00413A20004E55535441545954493F202D96
:10026C002D3E2A20004C41494B41533A20004D4130
:10027C0054554F4A413A20424F494C45522E004D5D
:10028C004154554F4A413A20532E49454A492E0074
:10029C004D4154554F4A413A20532E4953454A2E0D
:1002AC00004D4154554F4A413A202D2D2D2D2D2DC9
:1002BC00200054454D503A202020200041545354E6
:1002CC004154595449205649534B413F002020205A
:1002DC002020202020544149503D3E2A200020203F
:1002EC00204154535441544F4D4120202020002094
:1002FC00202050414C41554B495445202020200092
:10030C0049534A554E4B4954452049522056454C69
:10031C0020494A554E4B4954452056414C44494B73
:10032C004C49004B4F4441533A2000202020204C94
:10033C0041494B4153202020202020002020202008
:10034C0042414947455349202020202000202020AD
:10035C0020204B4F444153202020202020002020DF
:10036C002054454953494E4741532020202000201A
:10037C00204E4554454953494E47415320202000B7
:10038C0001004641540080C0110060027C00110045
:10039C0071028D0001006C036000010083038C036B
:1003AC0002008D0392030000F894EE27ECBBF1E001
:1003BC00FBBFEBBFE5BFF8E1F1BDE1BD8DE0A2E015
:1003CC00BB27ED938A95E9F780E098E0A0E6ED93E2
:1003DC000197E9F7E4E9F3E085919591009761F0D5
:1003EC00A591B59105901590BF01F00105900D9266
:1003FC000197E1F7FB01F0CFEFE5EDBFE8E0EEBFD1
:10040C00C0E6D2E00C940006E881E064E7B98BE129
:10041C008A95F1F7369A349BFECF349AE4B1F5B154
:10042C006BC00E948A20E0E0EA93EEDF8F01065A4F
:10043C001040F801EE0FFF1FEF5CF0409F01D80158
:10044C00E3E0F0E00E94FA1F2E0F3F1FF9010E941B
:10045C00912024960895E881E03011F4E0E34CC03B
:10046C00A881A13011F4E1E347C0A881A23011F4B6
:10047C00E2E342C0A881A33011F4E3E33DC0A881BC
:10048C00A43011F4E4E338C0A881A53011F4E5E3FD
:10049C0033C0A881A63011F4E6E32EC0A881A730A2
:1004AC0011F4E7E329C0A881A83011F4E8E324C0D3
:1004BC00A881A93011F4E9E31FC0A881AA3011F476
:1004CC00E1E61AC0A881AB3011F4E2E615C0A881B0
:1004DC00AC3011F4E3E610C0A881AD3011F4E4E6C1
:1004EC000BC0A881AE3011F4E5E606C0A881AF3090
:1004FC0011F4E6E601C0EDE221960895A881A13041
:10050C0061F0A33051F0A53041F0A73031F0A830A4
:10051C0021F0AA3011F0AC3011F4EFE12AC0A8811F
:10052C00A43031F0A63021F0A93011F0AB3011F429
:10053C00EEE11FC0A881A230D9F42297EB81FC8197
:10054C000E94A01FE883F983A881B981E4E00E948E
:10055C00D71FE883F983EB81FC81A881B981EA1765
:10056C00FB0719F4EDE1229604C0ECE1229601C0E0
:10057C00E0E023960895A0E0B0E00E944E20EB3D11
:10058C00A7E0FA0740F0A0E0B0E00E944E20E03176
:10059C00A7E2FA0730F0A0E0B0E0EBEDF7E00E9444
:1005AC006620A2E0B0E00E945220ED3024F0A2E0E0
:1005BC00B0E0ECE009C0A2E0B0E00E945220E130D3
:1005CC002CF4A2E0B0E0E1E00E946E20A3E0B0E0E9
:1005DC000E945220EF93A0E0B0E00E944E20FA93CC
:1005EC00EA93A2E0B0E00E945220EA9387DFAF9139
:1005FC00B0E0A7FDBFEFF0E0EA17FB077CF4A0E04A
:10060C00B0E00E944E20FA93EA93A2E0B0E00E9480
:10061C005220EA9373DFA3E0B0E009C0A3E0B0E09E
:10062C000E945220E1302CF4A3E0B0E0E1E00E9403
:10063C006E200895A0E0B0E00E944E20E05DF740EF
:10064C000F01A2E0B0E00E945220F0E0E7FDFFEFC6
:10065C00D0010E94AF1F0F01A3E0B0E00E94522016
:10066C00F0E0E7FDFFEFD0010E94AF1F0895A7E077
:10067C00B0E00E945220E03011F4E9E50895A7E0C3
:10068C00B0E00E945220F0E031970895AA85A13085
:10069C0010F40C94A6042597E1E0E983E0E0EA83EA
:1006AC00EB83EC83E883EF85F0E03197A881B0E031
:1006BC00AE17BF0794F4E981FA816B817C81AAE0C3
:1006CC00B0E080E090E00E94B71FE983FA836B836F
:1006DC007C83E881EF5FE883E6CFE889E03011F0B6
:1006EC000C9403042597EE85FF8568897989E98345
:1006FC00FA836B837C83AB89A13021F4EBE2EA9320
:10070C000E94E81EA981BA818B819C81EE81FF81B8
:10071C0068857985AAE0B0E080E090E00E94B71F80
:10072C00DF01CB01E981FA816B817C810E948320FE
:10073C0090F4EE81FF8168857985AAE0B0E080E0D5
:10074C0090E00E94B71FE150F04060407040E98398
:10075C00FA836B837C83E0E0ED83EC89AD81AE178B
:10076C0010F00C940004EA89E03071F0AC89BB27DE
:10077C00F0E0AE1BBF0BED81F0E0EA17FB0721F4B4
:10078C00EEE2EA930E94E81EEE81FF81688579858E
:10079C00A981BA818B819C810E94FF1FE883EA9317
:1007AC005ADEEA930E94E81EA881BB27EE81FF81E6
:1007BC00688579850E94AA1F0E94B71FA981BA81FA
:1007CC008B819C810E948F1FA983BA838B839C830E
:1007DC00AE81BF8188859985EAE0F0E060E070E049
:1007EC000E94FF1FEE83FF8368877987ED81EF5F9F
:1007FC00ED83B3CFE1E02A96A4C0A889A13011F013
:10080C000C94A5042597EA85FB856C857D85E98389
:10081C00FA836B837C83AB89A13049F4AC81AA2326
:10082C0012F0EBE201C0EDE2EA930E94E81EAC810B
:10083C00AA2372F4E981FA816B817C81AFEFBFEF5F
:10084C008FEF9FEF0E94E21FE983FA836B837C8317
:10085C00EE81FF8168857985AAE0B0E080E090E0C8
:10086C000E94B71FDF01CB01E981FA816B817C818A
:10087C000E94832090F4EE81FF8168857985AAE03F
:10088C00B0E080E090E00E94B71FE150F040604083
:10089C007040E983FA836B837C83E0E0ED83EC8921
:1008AC00AD81AE1710F00C94A204EA89E03071F01F
:1008BC00AC89BB27F0E0AE1BBF0BED81F0E0EA1773
:1008CC00FB0721F4EEE2EA930E94E81EEE81FF8121
:1008DC0068857985A981BA818B819C810E94FF1FD3
:1008EC00E883EA93B8DDEA930E94E81EA881BB274F
:1008FC00EE81FF81688579850E94AA1F0E94B71F2F
:10090C00A981BA818B819C810E948F1FA983BA8394
:10091C008B839C83AE81BF8188859985EAE0F0E06A
:10092C0060E070E00E94FF1FEE83FF836887798789
:10093C00ED81EF5FED83B3CFE1E02A9602C02596FF
:10094C00E0E02C9608950E948820EE81FF81FA93B6
:10095C00EA930E94431EAF01ED85EA93ED85EA937D
:10096C000E94BC1E00E010E0EA85FB850E171F07F5
:10097C0018F5A885B985A00FB11FAE1BBF0B9D0143
:10098C0033239AF02417350750F4F901AE81BF8157
:10099C00EA0FFB1FE491EA930E94E81E05C0002EAB
:1009AC00012A11F4E1E009C004C0E0E2EA930E94DC
:1009BC00E81E0F5F1F4FD8CFE0E00E948F202E96CD
:1009CC0008950E94811EE981EA93E981EA930E94CD
:1009DC00BC1E0E94811EEEE0EA930E949C1EE1E088
:1009EC0022960895E0919002E03009F5E1E0E09361
:1009FC009002EA81E0939102E981E0939202E8810E
:100A0C00E0939302ED81E0939402EC81E0939502E4
:100A1C00EB81E0939602E3E6E0939702E0E0E0934B
:100A2C009802E0939902E0939A02E1E001C0E0E0C1
:100A3C0026960895A885A13019F4E2E6F0E002C0EC
:100A4C00E5E6F0E0FA93EA930E941C1FAB81A1301B
:100A5C0019F4E8E6F0E002C0E5E6F0E0FA93EA9378
:100A6C000E941C1FAF81A13019F4EBE6F0E002C02C
:100A7C00E6E6F0E0FA93EA930E941C1FAA81A130EB
:100A8C0019F4EDE6F0E002C0E1E7F0E0FA93EA9346
:100A9C000E941C1FAE81A13019F4E5E7F0E002C002
:100AAC00E6E6F0E0FA93EA930E941C1FA981A130BC
:100ABC0019F4E8E6F0E002C0E5E6F0E0FA93EA9318
:100ACC000E941C1FAD81A13019F4E7E7F0E002C0D1
:100ADC00E6E6F0E0FA93EA930E941C1FA881A1308D
:100AEC0019F4E8E6F0E002C0E5E6F0E0FA93EA93E8
:100AFC000E941C1FAC81A13019F4E9E7F0E002C0A0
:100B0C00E5E6F0E0FA93EA930E941C1FE1E02996D7
:100B1C0008950A921A92FA926A937A938A939A9304
:100B2C00AA93BA93EA93FA93EFB7EA93A3E6B3E0E6
:100B3C00ED91FD913196FE93EE933197A091630365
:100B4C00B0916403AF3EE1E0BE0724F1E0918F0267
:100B5C00EF5FE0938F02E0E0E0936303E0936403C4
:100B6C00A5E6B3E0ED91FD913196FE93EE93A09145
:100B7C006503B0916603A83EE3E0BE075CF0E2E3D8
:100B8C00F0E0E0936303F0936403E0E0E09365032B
:100B9C00E0936603A7E6B3E0ED91FD913196FE93E9
:100BAC00EE93A0916703B0916803549738F0E0E09E
:100BBC00E0936703E0936803E1E05E2EE091690344
:100BCC00EF5FE0936903A0916903A53028F00E94C0
:100BDC004E1EE0E0E0936903E991EFBFF991E991D2
:100BEC00B991A9919991899179916991F9901990FB
:100BFC0009901895E0E0EBBBEEE8EABBE0E0E8BB5F
:100C0C00E3E0E7BBE0E0E5BBE4BBE2BBE1BBE3E078
:100C1C00E3BFE0E0E2BFECBFEFBDEEBDEDBDECBD70
:100C2C00E7BDE6BDEBBDEABDE9BDE8BDE2BDE5BD96
:100C3C00E4BDE3BDE5BFE4BFE1E0E9BFE0E8E8B94E
:100C4C00E0E0E0BFE0E4E7B9E7EAE6B9E0B7EF716E
:100C5C00E0BFE0E1EA930E943D1F789408DDF0E0EC
:100C6C00EC5DFD4FDF010E945220E33669F4FFDC9E
:100C7C00F0E0EC5DFD4FDF01E3E00E946E20F7DC5D
:100C8C00A7E0B0E00E946E20A6EEB3E00E944E20DA
:100C9C00E436A0E0FA0724F4DF010E947F2034F050
:100CAC00A6EEB3E0E4E1F0E00E946620A0EFB3E032
:100CBC00EEE5F1E00E946620A2EFB3E00E944E2028
:100CCC00DF01F2972CF0FD01EB3FA0E0FA0734F0C6
:100CDC00A2EFB3E0E4E6F0E00E946620A4EFB3E0FC
:100CEC000E944E200F01DF01E8E1FCEFEA17FB0741
:100CFC002CF4F001E83EA3E0FA0734F0A4EFB3E0E3
:100D0C00E0E0F0E00E946620ACEEB3E00E944A20E6
:100D1C00EF3FAFEFFA07AFEF6A07AFEF7A0741F497
:100D2C00ACEEB3E0E0E0F0E060E070E00E945E204A
:100D3C00A8EEB3E00E944A20EF3FAFEFFA07AFEF07
:100D4C006A07AFEF7A0741F4A8EEB3E0E0E0F0E019
:100D5C0060E070E00E945E20A4E0B0E00E945220AF
:100D6C00E03074F0E83164F4A5E0B0E00E94522069
:100D7C00E03034F0A5E0B0E00E945220EC334CF0AF
:100D8C00A4E0B0E0E0E00E946E20A5E0B0E00E949C
:100D9C006E20F1DBDF9A0E94D01EE0E6F2E0FA93BF
:100DAC00EA930E940F1FE1E7F2E0FA93EA930E94A4
:100DBC000F1FE8EEF3E0FA93EA930E947E1F879BE5
:100DCC001CC0E0916A03E030B9F4E1E0E0936A03FF
:100DDC00E4E0F0E0E0938602F0938702E8E8F2E0CA
:100DEC00A0E0B0E0A083B183EAE8F2E0A083B18395
:100DFC00C19AC09AE5E04E2E03C0E0E0E0936A038E
:100E0C00A0918F02A13010F40C94BB07E1E0E093A9
:100E1C006B03E0918F02E150E0938F02A6E0B0E00B
:100E2C000E945220EB3310F40C94A107A6E0B0E022
:100E3C00E0E00E946E20A5E0B0E00E945220EB336F
:100E4C0014F40C949807A5E0B0E0E0E00E946E204A
:100E5C00A4E0B0E00E945220E73114F40C948F0708
:100E6C00A4E0B0E0E0E00E946E20E0918C02F091F2
:100E7C008D02A4EFB3E00E946620ACEEB3E0E0E09C
:100E8C00F0E060E070E00E945E20A0E0B0E00E9424
:100E9C004E20FA93EA93A2E0B0E00E945220EA932B
:100EAC002DDB0E2EA3E0B0E00E945220A02DB0E06E
:100EBC00F0E0E7FDFFEFEA17FB0714F1A3E0B0E069
:100ECC00E1E00E946E20A2E0B0E00E945220EC30E3
:100EDC0074F0A2E0B0E0E1E00E946E20A0E0B0E08F
:100EEC000E944E2031960E946620319708C0A2E0E5
:100EFC00B0E00E945220EF5F0E946E20E15008C0CB
:100F0C00A3E0B0E00E945220EF5F0E946E20E150FF
:100F1C0008C0A4E0B0E00E945220EF5F0E946E2057
:100F2C00E15008C0A5E0B0E00E945220EF5F0E94A3
:100F3C006E20E15008C0A6E0B0E00E945220EF5FA6
:100F4C000E946E20E150A0919702A13028F0E09110
:100F5C009702E150E0939702A0918E02A83728F4F3
:100F6C00E0918E02EF5FE0938E02A0916B03A130B3
:100F7C0011F00C943F08A0916C03AF3F09F471C0C1
:100F8C00A0916C03AA3089F44CDA5F01E7EEF3E030
:100F9C00EA15FB050CF405C0E9E1FCEFAE16BF0643
:100FAC000CF45F01D998DA9A5EC0A0916C03A4315D
:100FBC00F9F4360136DA6F01E7EEF3E0EC15FD05D6
:100FCC000CF405C0E9E1FCEFCE16DF060CF46F0162
:100FDC00A4EFB3E00E944E20EC15FD052CF4F601B5
:100FEC00A4EFB3E00E946620D998DA98DB9A3CC053
:100FFC00A0916C03AE31C1F5E0E0E0936C038090FE
:10100C008C0290908D020DDAE0938C02F0938D029D
:10101C00A0918C02B0918D02A83EE3E0BE071CF0BB
:10102C00E7EEF3E00AC0A0918C02B0918D02A931D9
:10103C00ECEFBE0734F4E9E1FCEFE0938C02F093A3
:10104C008D02A4EFB3E00E944E20DF01E0918C02F0
:10105C00F0918D02AE17BF0724F4A4EFB3E00E9409
:10106C006620D99ADA98DB98E0916C03EF5FE093F5
:10107C006C03A0916B03A13011F00C949308A09118
:10108C008C02B0918D028A169B062CF4E5E04E166C
:10109C0008F4439404C0E0E0E41508F44A94A2EF89
:1010AC00B3E00E944E20EA0DFB1DA0918C02B09182
:1010BC008D02EA17FB0724F4C09AE5E04E2E01C01E
:1010CC00C098E5E04E1678F0A0EFB3E00E944E20F9
:1010DC00A0918C02B0918D02AE17BF0714F0C19A8B
:1010EC0001C0C19803C0442009F4C198A0918C029E
:1010FC00B0918D02A235E3E0BE072CF4E2E5F3E0FB
:10110C00CE16DF0624F0C19AC09AE5E04E2E879BDE
:10111C0004C0C19AC09AE5E04E2EA0916B03A13099
:10112C0011F00C941D09E0916D03EF5FE0936D03DA
:10113C00A0916D03AE3110F40C941D092697D601C5
:10114C00A60DB71DE2E0F0E00E94FA1FEC83FD83D0
:10115C00A0918C02B0918D02A80DB91DE2E0F0E0D7
:10116C000E94FA1FEA83FB83AC81BD81EA1BFB0B57
:10117C00E883F983A881B9810E947F2014F00C9434
:10118C001409C19B45C02297A6EEB3E00E944E20E5
:10119C00AA81BB810E94DD1FDF01EAEAF0E00E9418
:1011AC00FA1FE883F983A8EEB3E00E944A20DF011E
:1011BC00CB01E881F981662777270E948A1FA8EE68
:1011CC00B3E00E945E20ACEEB3E00E944A20DF0147
:1011DC00CB01E881F981662777270E948A1FACEE44
:1011EC00B3E00E945E20A6EEB3E00E944E20AA81DE
:1011FC00BB810E94DD1FDF01E3E0F0E00E94FA1FDB
:10120C00EE0FFF1FE0936E03F0936F03229605C061
:10121C00E0E0E0936E03E0936F0305C0E0E0E09341
:10122C006E03E0936F03E0E0E0936D032696E0918C
:10123C007003E03011F00C949D09879B78C02197C6
:10124C0016DAE883E1E0E0937003E881A8E0B0E00F
:10125C00F0E0EE0FFF1FEA0FFB1F0F01A0E0B0E064
:10126C000E944E20D0010E946620E881F0E0E454F8
:10127C00FF4F0F01A2E0B0E00E945220D0010E946B
:10128C006E20E881F0E0EA5EFE4F0F01A3E0B0E0D3
:10129C000E945220D0010E946E20E881F0E0E059BB
:1012AC00FE4F0F01A4E0B0E00E945220D0010E943A
:1012BC006E20E881F0E0E653FE4F0F01A5E0B0E0B0
:1012CC000E945220D0010E946E20A881B0E0AC5D3B
:1012DC00BD4FE1E00E946E20E881AEE7B2E0F0E0A5
:1012EC00EE0FFF1FEA0FFB1FBF01A0918C02B09104
:1012FC008D02EAE0F0E00E94FA1FDB010E946620FA
:10130C00E881A2E3B3E0F0E0EE0FFF1FEA0FFB1F52
:10131C00BF01D501EAE0F0E00E94FA1FDB010E9458
:10132C006620E881A7E0B0E00E946E202196A09193
:10133C007003A13011F00C941D0A879978C0219785
:10134C0096D9E883E0E0E0937003E881A8E0B0E090
:10135C00F0E0EE0FFF1FEA0FFB1F0F01A0E0B0E063
:10136C000E944E20D0010E946620E881F0E0E454F7
:10137C00FF4F0F01A2E0B0E00E945220D0010E946A
:10138C006E20E881F0E0EA5EFE4F0F01A3E0B0E0D2
:10139C000E945220D0010E946E20E881F0E0E059BA
:1013AC00FE4F0F01A4E0B0E00E945220D0010E9439
:1013BC006E20E881F0E0E653FE4F0F01A5E0B0E0AF
:1013CC000E945220D0010E946E20A881B0E0AC5D3A
:1013DC00BD4FE2E00E946E20E881AEE7B2E0F0E0A3
:1013EC00EE0FFF1FEA0FFB1FBF01A0918C02B09103
:1013FC008D02EAE0F0E00E94FA1FDB010E946620F9
:10140C00E881A2E3B3E0F0E0EE0FFF1FEA0FFB1F51
:10141C00BF01D501EAE0F0E00E94FA1FDB010E9457
:10142C006620E881A7E0B0E00E946E202196A09192
:10143C006B03A13011F00C94960A219718D9E8830C
:10144C00E0E0E0937003E881A8E0B0E0F0E0EE0F9C
:10145C00FF1FEA0FFB1F0F01A0E0B0E00E944E201F
:10146C00D0010E946620E881F0E0E454FF4F0F01A8
:10147C00A2E0B0E00E945220D0010E946E20E881D0
:10148C00F0E0EA5EFE4F0F01A3E0B0E00E945220B4
:10149C00D0010E946E20E881F0E0E059FE4F0F0170
:1014AC00A4E0B0E00E945220D0010E946E20E8819E
:1014BC00F0E0E653FE4F0F01A5E0B0E00E94522091
:1014CC00D0010E946E20A881B0E0AC5DBD4FE3E678
:1014DC000E946E20E881AEE7B2E0F0E0EE0FFF1F55
:1014EC00EA0FFB1FBF01A0918C02B0918D02EAE0C4
:1014FC00F0E00E94FA1FDB010E946620E881A2E363
:10150C00B3E0F0E0EE0FFF1FEA0FFB1FBF01D501A8
:10151C00EAE0F0E00E94FA1FDB010E9466202196AF
:10152C00869B11C0E0E0E0938E02A0917F03A43172
:10153C0048F4A0917603A43128F4E0917603EF5F90
:10154C00E09376030FC0A0917603A43128F0E1E07C
:10155C00E09371035E2E03C0E0E0E0937103E0E0E2
:10156C00E0937603869B02C0859901C00FC0E0E032
:10157C00E0937603E0937703A0917F03A43128F4E2
:10158C00E0917F03EF5FE0937F031AC0A0E08699A0
:10159C00A1E0A03029F4A0E08599A1E0A03009F0E9
:1015AC000FC0A0917F03A43128F0E1E0E0937B030E
:1015BC005E2E03C0E0E0E0937B03E0E0E0937F036A
:1015CC00859B11C0E0E0E0938E02A0917F03A431D3
:1015DC0048F4A0917703A43128F4E0917703EF5FEE
:1015EC00E09377030FC0A0917703A43128F0E1E0DA
:1015FC00E09372035E2E03C0E0E0E0937203E0E040
:10160C00E0937703859B02C0849901C00FC0E0E092
:10161C00E0937703E0937803A0918003A43128F43E
:10162C00E0918003EF5FE09380031AC0A0E08599FE
:10163C00A1E0A03029F4A0E08499A1E0A03009F049
:10164C000FC0A0918003A43128F0E1E0E0937C036B
:10165C005E2E03C0E0E0E0937C03E0E0E0938003C7
:10166C00849B0DC0E0E0E0938E02A0917803A4313E
:10167C0028F4E0917803EF5FE09378030FC0A0911A
:10168C007803A43128F0E1E0E09373035E2E03C0ED
:10169C00E0E0E0937303E0E0E0937803849B02C006
:1016AC00839901C00FC0E0E0E0937803E0937903E5
:1016BC00A0918103A43128F4E0918103EF5FE093C2
:1016CC0081031AC0A0E08499A1E0A03029F4A0E025
:1016DC008399A1E0A03009F00FC0A0918103A4313F
:1016EC0028F0E1E0E0937D035E2E03C0E0E0E093A0
:1016FC007D03E0E0E0938103839B0DC0E0E0E09389
:10170C008E02A0917903A43128F4E0917903EF5F64
:10171C00E09379030FC0A0917903A43128F0E1E0A4
:10172C00E09374035E2E03C0E0E0E0937403E0E00A
:10173C00E0937903839B02C0829901C00FC0E0E063
:10174C00E0937903E0937A03A0918203A43128F407
:10175C00E0918203EF5FE09382031AC0A0E08399CB
:10176C00A1E0A03029F4A0E08299A1E0A03009F01A
:10177C000FC0A0918203A43128F0E1E0E0937E0336
:10178C005E2E03C0E0E0E0937E03E0E0E093820392
:10179C00829B0DC0E0E0E0938E02A0917A03A4310D
:1017AC0028F4E0917A03EF5FE0937A030FC0A091E5
:1017BC007A03A43128F0E1E0E09375035E2E03C0B8
:1017CC00E0E0E0937503E0E0E0937A03879B15C0BB
:1017DC00A0918E02AE3180F0E4E0F0E0E09386025E
:1017EC00F0938702E8E8F2E0A0E0B0E0A083B183D8
:1017FC00EAE8F2E0A083B18313C0A0918E02A8376F
:10180C0078F0E0E0E0938602E0938702E8E8F2E00B
:10181C00A0E0B0E0A083B183EAE8F2E0A083B1835A
:10182C00E0918802F0918902309711F00C946D0CC4
:10183C00E0918A02F0918B02309711F00C946D0CB0
:10184C00A0917B03A13071F4879906C0E0E0E0938E
:10185C008602E093870206C0E3E0F0E0E0938602A4
:10186C00F0938702A0917103A130C1F4A09186027C
:10187C00B09187020E947F2054F4A6E8B2E0ED916B
:10188C00FD913197FE93EE93E1E05E2E06C0EDE004
:10189C00F0E0E0938602F093870219C0A0917203E6
:1018AC00A130A9F4A0918602B09187021D9754F43F
:1018BC00A6E8B2E0ED91FD913196FE93EE93E1E056
:1018CC005E2E05C0E0E0E0938602E0938702E1E043
:1018DC00E51531F40E94811E0E94D01E0E94811ECB
:1018EC00E0919002E03011F00C94581BE0918602CC
:1018FC00F0918702309711F00C94C50CE09188029E
:10190C00F09189023097C9F5E1E0E515B1F5EA935C
:10191C00E3E0EA93E1E0EA93EA93E0E0F0E060E0F0
:10192C0070E00E944520E0918C02F0918D020E94A3
:10193C00A51F0E9445200E944C03EEE9F0E0FA93AB
:10194C00EA930E941C1FE1E0EA93E3E0EA93E1E0F2
:10195C00EA93EA93E0E0F0E060E070E00E9445205A
:10196C00F5010E94A51F0E9445200E944C03EAEA43
:10197C00F0E0FA93EA930E941C1F0C94571BA09161
:10198C008602B0918702119711F00C940E0DE09124
:10199C008802F09189023097C9F5E1E0E515B1F5BF
:1019AC00EA93E3E0EA93E1E0EA93EA93E0E0F0E023
:1019BC0060E070E00E944520E0918C02F0918D0275
:1019CC000E94A51F0E9445200E944C03E6EBF0E00C
:1019DC00FA93EA930E941C1FE1E0EA93E3E0EA9396
:1019EC00E1E0EA93EA93E0E0F0E060E070E00E946E
:1019FC004520F6010E94A51F0E9445200E944C0321
:101A0C00E2ECF0E0FA93EA930E941C1F0C94571B33
:101A1C00A0918602B0918702129711F00C94D40E0B
:101A2C00E1E0E515F1F4E0E0EA93E3E0EA93E0E0CD
:101A3C00EA93E1E0EA93A2EFB3E00E944E200E9409
:101A4C00A51F0E944520E0E0F0E060E070E00E94FD
:101A5C0045200E944C03EEECF0E0FA93EA930E94CE
:101A6C001C1FE0918802F09189023097A1F4E1E00B
:101A7C00E51531F4EBEDF0E0FA93EA930E941C1FAC
:101A8C00A0917503A13031F4E8E8F2E0A1E0B0E0F8
:101A9C00A083B18381C1E0918802F0918902E13089
:101AAC00A0E0FA0711F00C94D30DE1E0E51591F5E7
:101ABC00A2EFB3E00E944E20E739A0E0FA0734F021
:101ACC00E0E0EA93E1E0EA93E0E013C0A2EFB3E0D8
:101ADC000E944E20E639A0E0FA073CF4E0E0EA93DD
:101AEC00E1E0EA93EA93E0E006C0E0E0EA93E1E0AB
:101AFC00EA93EA93E1E0EA93E1E0EA93E0E0EA9327
:101B0C00EA93EA93EA930E942005E0E0EA93EA93D1
:101B1C000E94E704A0917203A13039F4A8E8B2E066
:101B2C00ED91FD913196FE93EE93A0917503A1304A
:101B3C0031F4E8E8F2E0A0E0B0E0A083B183A0913A
:101B4C007303A13099F4A2EFB3E00E944E20E73961
:101B5C00A0E0FA0754F4A2EFB3E00E944E20EC5937
:101B6C00FF4FA2EFB3E00E94662016C0A091740351
:101B7C00A13091F4A2EFB3E00E944E20E639A0E030
:101B8C00FA0754F0A2EFB3E00E944E20E456F04066
:101B9C00A2EFB3E00E946620FFC0E0918802F091B2
:101BAC008902E230A0E0FA0711F00C94570EE1E044
:101BBC00E51571F5A2EFB3E00E944E20E13FA0E0E5
:101BCC00FA072CF0E1E0EA93EA93E0E00FC0A2EF11
:101BDC00B3E00E944E20FC9734F4E1E0EA93EA93E0
:101BEC00EA93E0E005C0E1E0EA93EA93EA93E1E0EE
:101BFC00EA93E1E0EA93E0E0EA93EA93EA93EA936A
:101C0C000E942005E1E0EA93E0E0EA930E94E704F9
:101C1C00A0917103A13031F4A8E8B2E0ED91FD91EF
:101C2C00319709C0A0917203A13039F4A8E8B2E051
:101C3C00ED91FD913196FE93EE93A0917503A13039
:101C4C0031F4E8E8F2E0A0E0B0E0A083B183A09129
:101C5C007303A13091F4A2EFB3E00E944E20E13F58
:101C6C00A0E0FA074CF4A2EFB3E00E944E203A96A3
:101C7C00A2EFB3E00E94662013C0A0917403A130C0
:101C8C0079F4A2EFB3E00E944E20FC974CF0A2EF47
:101C9C00B3E00E944E203A97A2EFB3E00E94662078
:101CAC007BC0E0918802F0918902E330A0E0FA0752
:101CBC0011F00C94D20EE1E0E51591F5A2EFB3E032
:101CCC000E944E20EA3FA0E0FA072CF0E1E0EA93F4
:101CDC00E0E0EA9313C0A2EFB3E00E944E20F3972A
:101CEC0044F4E1E0EA93E0E0EA93E1E0EA93E0E037
:101CFC0007C0E1E0EA93E0E0EA93E1E0EA93E1E097
:101D0C00EA93E1E0EA93E0E0EA93EA93EA93EA9358
:101D1C000E942005E3E0EA93E0E0EA930E94E704E6
:101D2C00A0917103A13039F4A8E8B2E0ED91FD91D6
:101D3C003197FE93EE93A0917503A13031F4E8E84E
:101D4C00F2E0A0E0B0E0A083B183A0917303A130D6
:101D5C0089F4A2EFB3E00E944E20EA3FA0E0FA071C
:101D6C0044F4A2EFB3E00E944E2031960E9466200C
:101D7C00319712C0A0917403A13071F4A2EFB3E0BB
:101D8C000E944E20F39744F0A2EFB3E00E944E2045
:101D9C0031970E94662031960C94571BA0918602B5
:101DAC00B0918702139711F00C946E10E0918A0297
:101DBC00F0918B023097C1F4E0918802F091890286
:101DCC00309789F4A0917503A13069F4E3E0EA93AC
:101DDC00E0E0EA93EA93E3E0EA93E0E0EA93E1E0FF
:101DEC00EA930E94F8049AC0A0917503A13051F4B3
:101DFC00E8E8F2E0A0E0B0E0A083B183EAE8F2E02A
:101E0C00A083B183A0917103A13071F4A0918A02D7
:101E1C00B0918B0212973CF0AAE8B2E0ED91FD91E3
:101E2C003197FE93EE9311C0A0917203A13069F427
:101E3C00A0918A02B0918B0212973CF4AAE8B2E00E
:101E4C00ED91FD913196FE93EE93A0917303A13029
:101E5C0099F5E0918A02F0918B02E130A0E0FA074B
:101E6C0091F4A6EEB3E00E944E20EA35A0E0FA070A
:101E7C004CF4A6EEB3E00E944E203A96A6EEB3E0E8
:101E8C000E94662018C0E0918A02F0918B02E23029
:101E9C00A0E0FA0781F4A6EEB3E00E944E20E336F0
:101EAC00A0E0FA0744F4A6EEB3E00E944E2031966F
:101EBC000E946620319732C0A0917403A13071F555
:101ECC00E0918A02F0918B02E130A0E0FA0781F4F4
:101EDC00A6EEB3E00E944E203B974CF0A6EEB3E08A
:101EEC000E944E203A97A6EEB3E00E94662016C0E0
:101EFC00E0918A02F0918B02E230A0E0FA0771F4D3
:101F0C00A6EEB3E00E944E20329744F0A6EEB3E06A
:101F1C000E944E2031970E9466203196E1E0E51533
:101F2C0011F00C946C10E0918A02F0918B023097B6
:101F3C0059F5E0918802F0918902309721F5E0E0A3
:101F4C00EA93E2E0EA93E0E0EA93E1E0EA93A6EEBA
:101F5C00B3E00E944E200E94A51F0E944520E0E0A5
:101F6C00F0E060E070E00E9445200E944C03ECEE33
:101F7C00F0E0FA93EA930E941C1FEBEDF0E0FA9369
:101F8C00EA930E941C1FA2C0E0E0EA93E2E0EA930D
:101F9C00E0E0EA93E1E0EA93A6EEB3E00E944E2083
:101FAC000E94A51F0E944520E0E0F0E060E070E098
:101FBC000E9445200E944C03ECEEF0E0FA93EA9369
:101FCC000E941C1FE0918A02F0918B02E130A0E08C
:101FDC00FA0791F5E0E0EA93E1E0EA930E94BC1E77
:101FEC00A6EEB3E00E944E20EA35A0E0FA0734F0EA
:101FFC00E0E0EA93E1E0EA93E0E011C0A6EEB3E0A2
:10200C000E944E203B973CF4E0E0EA93E1E0EA9337
:10201C00EA93E0E006C0E0E0EA93E1E0EA93EA93B9
:10202C00E1E0EA93E1E0EA93E0E0EA93EA93EA93F1
:10203C00EA930E94200532C0E0E0EA93E1E0EA93E3
:10204C000E94BC1EA6EEB3E00E944E20E336A0E038
:10205C00FA072CF0E1E0EA93E0E0EA9313C0A6EE75
:10206C00B3E00E944E20329744F4E1E0EA93E0E0C2
:10207C00EA93E1E0EA93E0E007C0E1E0EA93E0E014
:10208C00EA93E1E0EA93E1E0EA93E1E0EA93E0E04D
:10209C00EA93EA93EA93EA930E942005E0918A027C
:1020AC00F0918B02E130A0E0FA0711F4E0E009C0F6
:1020BC00E0918A02F0918B02E230A0E0FA0731F451
:1020CC00E2E0EA93E0E0EA930E94E7040C94571BE9
:1020DC00A0918602B09187021497E1F4E1E0E51536
:1020EC00B9F4879909C0EAEFF0E0FA93EA930E94F9
:1020FC001C1FEBE0F1E008C0ECE1F1E0FA93EA938D
:10210C000E941C1FEDE2F1E0FA93EA930E941C1F5F
:10211C000C94571BA0918602B0918702159711F071
:10212C000C94E010E0918802F0918902309711F044
:10213C000C94DE10E1E0E515D9F5A0916E03B09199
:10214C006F03A031E7E2BE073CF0EFE0F7E2E0936B
:10215C006E03F0936F0309C0A0916F03AA232AF4B6
:10216C00E0E0E0936E03E0936F03E0E0EA93E4E0D9
:10217C00EA93E0E0EA93EA93E0916E03F0916F0347
:10218C000E94A51F0E944520E0E0F0E060E070E0B6
:10219C000E9445200E944C03EEE3F1E0FA93EA938F
:1021AC000E941C1FEBE4F1E0FA93EA930E941C1FBF
:1021BC000C94571BA0918602B0918702169799F543
:1021CC00E0918802F0918902309759F5E1E0E5152C
:1021DC0041F5E5E6F0E0FA93EA930E941C1FE0E07B
:1021EC00EA93EAE0EA93E0E0EA93E3E0EA93A8EE0C
:1021FC00B3E00E944A200E944520E0E0F0E060E05D
:10220C0070E00E9445200E944C03ECE5F1E0FA934B
:10221C00EA930E941C1FE0E6F1E0FA93EA930E9415
:10222C001C1F0C94571BA0918602B0918702179724
:10223C0099F5E0918802F0918902309759F5E1E027
:10224C00E51541F5E5E6F0E0FA93EA930E941C1FD0
:10225C00E0E0EA93EAE0EA93E0E0EA93E3E0EA9371
:10226C00ACEEB3E00E944A200E944520E0E0F0E092
:10227C0060E070E00E9445200E944C03ECE5F1E028
:10228C00FA93EA930E941C1FE1E7F1E0FA93EA93B8
:10229C000E941C1F0C94571BA0918602B0918702C0
:1022AC001897A1F5E0918802F0918902309761F5B9
:1022BC00E1E0E51549F5E2E8F1E0FA93EA930E94D2
:1022CC001C1FE7E5F1E0FA93EA930E941C1FE1E082
:1022DC00EA93E3E0EA93E1E0EA93EA93E0E0F0E0EA
:1022EC0060E070E00E944520A4EFB3E00E944E2015
:1022FC000E94A51F0E9445200E944C03E3E9F1E0D7
:10230C00FA93EA930E941C1F0C94571BA09186020F
:10231C00B0918702199711F00C944015E091880246
:10232C00F0918902309789F4E0918A02F0918B0246
:10233C00309751F4A0917503A13031F4E8E8F2E044
:10234C00A1E0B0E0A083B183A4C1E0918802F09138
:10235C008902EB35A0E0FA0711F40C944E12E091CF
:10236C008A02F0918B02309711F00C942B12A091F1
:10237C007B03A13031F4E8E8F2E0A0E0B0E0A08308
:10238C00B183A0917103A130A9F4A0918802B091FE
:10239C008902129744F0A8E8B2E0ED91FD913197D3
:1023AC00FE93EE9306C0E8E8F2E0ABE5B0E0A08364
:1023BC00B1831AC0A0917203A130B1F4A09188022C
:1023CC00B0918902AB35E0E0BE0744F4A8E8B2E076
:1023DC00ED91FD913196FE93EE9306C0E8E8F2E0A4
:1023EC00A1E0B0E0A083B183A0917503A13061F5A9
:1023FC002297A7E0B0E00E945220F0E0DF01E091CC
:10240C008802F0918902AE0FBF1F1197A883B98380
:10241C00AA35E0E0BE0734F0E881F981EA55F040D6
:10242C00E883F983A881B981AC5DBD4F0E9452202D
:10243C00E13010F0E33308F006C0EAE8F2E0A1E086
:10244C00B0E0A083B183229622C0A0917B03A1307F
:10245C0031F4EAE8F2E0A0E0B0E0A083B183A0910F
:10246C007503A130A1F4A0918A02B0918B0214974C
:10247C0044F4AAE8B2E0ED91FD913196FE93EE930F
:10248C0006C0EAE8F2E0A0E0B0E0A083B18301C1AD
:10249C00E0918A02F0918B02309711F00C94A61205
:1024AC00A0917B03A13031F4E8E8F2E0A0E0B0E0C9
:1024BC00A083B183A0917103A130A9F4A0918802EB
:1024CC00B0918902129744F0A8E8B2E0ED91FD9129
:1024DC003197FE93EE9306C0E8E8F2E0A1E0B0E09D
:1024EC00A083B1831AC0A0917203A130B1F4A09162
:1024FC008802B0918902AB35E0E0BE0744F4A8E84D
:10250C00B2E0ED91FD913196FE93EE9306C0E8E8B2
:10251C00F2E0A1E0B0E0A083B183A0917503A130FB
:10252C0071F4E9E0EA93EBE5EA93E0E0EA93E9E0A1
:10253C00EA93EBE5EA93E1E0EA930E94F804A9C080
:10254C002297A7E0B0E0E0E00E946E200E94D01E2F
:10255C00EBE9F1E0FA93EA930E941C1FECEAF1E03C
:10256C00FA93EA930E941C1FE0E0E883E983A881B8
:10257C00B981AA35E0E0BE0710F00C94361322970F
:10258C00EA81FB81A8E0B0E0EE0FFF1FAE0FBF1F8A
:10259C00E0E0F0E00E946620AA81BB81A454BF4F0A
:1025AC000E946E20AA81BB81AA5EBE4F0E946E2043
:1025BC00AA81BB81A059BE4F0E946E20AA81BB810B
:1025CC00A653BE4F0E946E20AA81BB81AC5DBD4F4D
:1025DC000E946E20EA81FB81AEE7B2E0EE0FFF1F96
:1025EC00AE0FBF1FE0E0F0E00E946620EA81FB81A5
:1025FC00A2E3B3E0EE0FFF1FAE0FBF1FE0E0F0E071
:10260C000E946620AA81BB81E4E60E94D71FDF01ED
:10261C00EAE5F0E00E94E71FE883F983E9E0EA933A
:10262C00E0E0EA930E94BC1EE0E0EA93E3E0EA9368
:10263C00E0E0EA93EA93EC81FD81662777270E941C
:10264C004520E0E0F0E060E070E00E9445200E9450
:10265C004C032296E881F9813196E883F98387CF80
:10266C00E8E8F2E0A0E0B0E0A083B183EAE8F2E0B1
:10267C00A083B1830E94D01EEDEBF1E0FA93EA93B4
:10268C000E941C1FE8EEF3E0FA93EA930E947E1F6F
:10269C002296E1E0E51511F00C943F15E0918802CB
:1026AC00F0918902309749F4EEECF1E0FA93EA9359
:1026BC000E941C1FEFEDF1E0D8C1E0918802F0916F
:1026CC008902EB35A0E0FA0711F40C942D15229732
:1026DC00A7E0B0E00E945220F0E0DF01E091880218
:1026EC00F0918902AE0FBF1F1197A883B983AA3549
:1026FC00E0E0BE0734F0E881F981EA55F040E88368
:10270C00F983A0918802B09189021A9764F0A09184
:10271C008802B0918902EAE0F0E00E94FA1FEA9385
:10272C000E94310201C0E0E2EA930E94E81EA091EF
:10273C008802B0918902EAE0F0E00E94FA1FAAE058
:10274C00B0E00E94DD1FA0918802B0918902AE1BFF
:10275C00BF0BAA930E943102EA930E94E81EEEE29C
:10276C00EA930E94E81EE0918A02F0918B02309766
:10277C0011F00C9409142197E1E0E883A981BA8146
:10278C00AC5DBD4F0E945220E13019F4E0EFF1E056
:10279C001AC0A981BA81AC5DBD4F0E945220E230B3
:1027AC0019F4EEEFF1E00FC0A981BA81AC5DBD4F19
:1027BC000E945220E33019F4ECE0F2E004C0E0E0B7
:1027CC00E883EAE1F2E0FA93EA930E941C1FA881E5
:1027DC00A13041F4E1E0EA93EA93E0E0EA93EA9372
:1027EC00E1E006C0E1E0EA93EA93E0E0EA93EA93E1
:1027FC00EA93E1E0EA93E0E0EA93EA93EA930E9439
:10280C002005219622C1E0918A02EA930E943102AE
:10281C00EA930E94E81EEEE2EA930E94E81EE0E2D0
:10282C00EA930E94E81EE0918A02F0918B02E1305B
:10283C00A0E0FA0711F00C947D14E0E0EA93E4E0D8
:10284C00EA93E0E0EA93EA93EC81FD81A8E0B0E042
:10285C00EE0FFF1FAE0FBF1F0E944E20662777277B
:10286C000E944520E0E0F0E060E070E00E9445202E
:10287C000E944C03EEE2EA930E94E81EE0E0EA9329
:10288C00E2E0EA93E0E0EA93EA93AC81BD81A454E0
:10289C00BF4F0E945220F0E00E94A51F0E944520CD
:1028AC00E0E0F0E060E070E00E9445200E944C0304
:1028BC00EEE2EA930E94E81EE0E0EA93E2E0EA939B
:1028CC00E0E0EA93EA93AC81BD81AA5EBE4F0E9420
:1028DC005220F0E00E94A51F0E944520E0E0F0E0AD
:1028EC0060E070E00E9445200E944C03A0C0E09183
:1028FC008A02F0918B02E230A0E0FA0711F00C94FE
:10290C00C814E5E6F0E0FA93EA930E941C1FE0E09D
:10291C00EA93E2E0EA93E0E0EA93EA93AC81BD81CA
:10292C00A059BE4F0E945220F0E00E94A51F0E94A9
:10293C004520E0E0F0E060E070E00E9445200E945D
:10294C004C03EAE3EA930E94E81EE0E0EA93E2E03B
:10295C00EA93E0E0EA93EA93AC81BD81A653BE4FC3
:10296C000E945220F0E00E94A51F0E944520E0E04A
:10297C00F0E060E070E00E9445200E944C03E1E72B
:10298C00F0E051C0E0918A02F0918B02E330A0E0BC
:10299C00FA0709F5E1E0EA93E2E0EA93E1E0EA9371
:1029AC00E0E0EA93E0E0F0E060E070E00E944520B7
:1029BC00E885F985AEE7B2E0EE0FFF1FAE0FBF1F43
:1029CC000E944E200E94A51F0E9445200E944C038D
:1029DC00E8E2F2E028C0E0918A02F0918B02E43048
:1029EC00A0E0FA0721F5E1E0EA93E2E0EA93E1E006
:1029FC00EA93E0E0EA93E0E0F0E060E070E00E944F
:102A0C004520E885F985A2E3B3E0EE0FFF1FAE0F7A
:102A1C00BF1F0E944E200E94A51F0E9445200E94AD
:102A2C004C03E0E3F2E0FA93EA930E941C1FE0E00F
:102A3C00EA93EA93EA93EA93E1E0EA93EA93E0E01B
:102A4C00EA93EA93EA930E942005229612C0E09141
:102A5C008A02F0918B02309761F4E8E3F2E0FA938A
:102A6C00EA930E941C1FE9E4F2E0FA93EA930E94B5
:102A7C001C1F17C6A0918602B09187021A9711F0FD
:102A8C000C943518E0918802F0918902309759F432
:102A9C00A0917503A13031F4E8E8F2E0A1E0B0E0D8
:102AAC00A083B1830DC2A0917103A130A1F4A8E859
:102ABC00B2E0ED91FD913197FE93EE93A0918802D7
:102ACC00B0918902119734F4E8E8F2E0A8E0B0E0A4
:102ADC00A083B18317C0A0917203A13099F4A8E828
:102AEC00B2E0ED91FD913196FE93EE93A0918802A8
:102AFC00B0918902199734F0E8E8F2E0A1E0B0E077
:102B0C00A083B183A0917303A13011F00C948116B2
:102B1C00E0918802F0918902E130A0E0FA0799F483
:102B2C00A0E0B0E00E944E20E832A3E2FA0750F495
:102B3C00A0E0B0E00E944E20E851FC4FA0E0B0E0D5
:102B4C000E946620D7C0E0918802F0918902E230A1
:102B5C00A0E0FA0799F4A0E0B0E00E944E20EC3A15
:102B6C00A6E2FA0750F4A0E0B0E00E944E20EC5927
:102B7C00FF4FA0E0B0E00E946620BCC0E09188024C
:102B8C00F0918902E330A0E0FA0791F4A0E0B0E004
:102B9C000E944E20E630A7E2FA0748F4A0E0B0E02D
:102BAC000E944E203A96A0E0B0E00E946620A2C09F
:102BBC00E0918802F0918902E430A0E0FA0791F4E8
:102BCC00A0E0B0E00E944E20EF30A7E2FA0748F4F4
:102BDC00A0E0B0E00E944E203196A0E0B0E00E9450
:102BEC00662088C0E0918802F0918902E530A0E06F
:102BFC00FA0781F4A2E0B0E00E945220E3304CF4DA
:102C0C00A2E0B0E00E945220E65FA2E0B0E00E9499
:102C1C006E2070C0E0918802F0918902E630A0E04D
:102C2C00FA0781F4A2E0B0E00E945220EC304CF4A0
:102C3C00A2E0B0E00E945220EF5FA2E0B0E00E9460
:102C4C006E2058C0E0918802F0918902E730A0E034
:102C5C00FA0729F5A3E0B0E00E945220EF93A0E020
:102C6C00B0E00E944E20FA93EA93A2E0B0E00E94FA
:102C7C005220EA930E948402F0E03A97AF91B0E0C0
:102C8C00A7FDBFEFEA17FB074CF0A3E0B0E00E94F2
:102C9C005220E65FA3E0B0E00E946E202BC0E091D2
:102CAC008802F0918902E830A0E0FA0719F5A3E058
:102CBC00B0E00E945220EF93A0E0B0E00E944E20C2
:102CCC00FA93EA93A2E0B0E00E945220EA930E94A9
:102CDC008402AF91B0E0A7FDBFEFF0E0AE17BF07E5
:102CEC004CF4A3E0B0E00E945220EF5FA3E0B0E010
:102CFC000E946E20DBC0A0917403A13011F00C94E3
:102D0C005C17E0918802F0918902E130A0E0FA07AB
:102D1C0099F4A0E0B0E00E944E20E33CABE0FA074F
:102D2C0050F0A0E0B0E00E944E20E85EF340A0E03E
:102D3C00B0E00E946620BAC0E0918802F09189024E
:102D4C00E230A0E0FA0799F4A0E0B0E00E944E2037
:102D5C00EF33A8E0FA0750F0A0E0B0E00E944E205C
:102D6C00E456F040A0E0B0E00E9466209FC0E091E5
:102D7C008802F0918902E330A0E0FA0791F4A0E018
:102D8C00B0E00E944E20E53EA7E0FA0748F0A0E034
:102D9C00B0E00E944E203A97A0E0B0E00E9466207E
:102DAC0085C0E0918802F0918902E430A0E0FA0736
:102DBC0091F4A0E0B0E00E944E20EC3DA7E0FA07B1
:102DCC0048F0A0E0B0E00E944E203197A0E0B0E0C7
:102DDC000E9466206BC0E0918802F0918902E53078
:102DEC00A0E0FA0799F4A2E0B0E00E945220EB3088
:102DFC0064F0A2E0B0E00E945220F0E0E7FDFFEFAB
:102E0C003A97A2E0B0E00E946E2050C0E091880298
:102E1C00F0918902E630A0E0FA0799F4A2E0B0E064
:102E2C000E945220E23064F0A2E0B0E00E945220F6
:102E3C00F0E0E7FDFFEF3197A2E0B0E00E946E20DA
:102E4C0035C0E0918802F0918902E730A0E0FA07E2
:102E5C0099F4A3E0B0E00E945220EB3064F0A3E0C0
:102E6C00B0E00E945220F0E0E7FDFFEF3A97A3E0BC
:102E7C00B0E00E946E201AC0E0918802F0918902A5
:102E8C00E830A0E0FA0791F4A3E0B0E00E945220F1
:102E9C00E23064F0A3E0B0E00E945220F0E0E7FDE5
:102EAC00FFEF3197A3E0B0E00E946E20A091750374
:102EBC00A13031F4E8E8F2E0A0E0B0E0A083B18307
:102ECC00E1E0E51511F00C9434180E94C102E9E51B
:102EDC00F2E0FA93EA930E941C1FE0E0EA93E4E02C
:102EEC00EA93E0E0EA93EA93A0E0B0E00E944E207F
:102EFC00662777270E944520E0E0F0E060E070E074
:102F0C000E9445200E944C03EEE2EA930E94E81EC8
:102F1C00E0E0EA93E2E0EA93E0E0EA93EA93A2E0ED
:102F2C00B0E00E945220F0E0E7FDFFEF0E94A51FE9
:102F3C000E944520E0E0F0E060E070E00E94452057
:102F4C000E944C03EEE2EA930E94E81EE0E0EA9352
:102F5C00E2E0EA93E0E0EA93EA93A3E0B0E00E94B7
:102F6C005220F0E0E7FDFFEF0E94A51F0E944520D4
:102F7C00E0E0F0E060E070E00E9445200E944C032D
:102F8C00E0918802F0918902309739F4E0E6F2E0A2
:102F9C00FA93EA930E941C1F61C0E1E0EA93EA9362
:102FAC00EA93EA93EA93E0E0EA93EA93EA93EA93EA
:102FBC000E942005E0918802F0918902E130A0E0A6
:102FCC00FA0711F4E6E045C0E0918802F09189021D
:102FDC00E230A0E0FA0711F4E7E03BC0E091880290
:102FEC00F0918902E330A0E0FA0711F4E8E031C077
:102FFC00E0918802F0918902E430A0E0FA0711F424
:10300C00E9E027C0E0918802F0918902E530A0E068
:10301C00FA0711F4EBE01DC0E0918802F0918902EF
:10302C00E630A0E0FA0711F4ECE013C0E09188025E
:10303C00F0918902E730A0E0FA0711F4EEE009C044
:10304C00E0918802F0918902E830A0E0FA0731F4AF
:10305C00EFE0EA93E0E0EA930E94E70422C3A09138
:10306C008602B09187021B9711F00C940B1AE09119
:10307C008802F0918902309759F4A0917503A13020
:10308C0031F4E8E8F2E0A1E0B0E0A083B1830CC138
:10309C00A0917103A130B9F4E0918802F0918902FA
:1030AC00E130A0E0FA0739F4E8E8F2E0A4E0B0E09F
:1030BC00A083B18307C0A8E8B2E0ED91FD913197F0
:1030CC00FE93EE931AC0A0917203A130B1F4E0917B
:1030DC008802F0918902E430A0E0FA0739F4E8E8BC
:1030EC00F2E0A1E0B0E0A083B18307C0A8E8B2E0B1
:1030FC00ED91FD913196FE93EE93A0917303A13067
:10310C0011F00C94E718E0918802F0918902E130FB
:10311C00A0E0FA0781F4A4E0B0E00E945220EE3067
:10312C004CF4A4E0B0E00E945220E65FA4E0B0E0D2
:10313C000E946E2045C0E0918802F0918902E23035
:10314C00A0E0FA0779F4A4E0B0E00E945220E73145
:10315C0044F4A4E0B0E00E945220EF5F0E946E2085
:10316C00E1502EC0E0918802F0918902E330A0E09A
:10317C00FA0781F4A5E0B0E00E945220E2334CF44F
:10318C00A5E0B0E00E945220E65FA5E0B0E00E940E
:10319C006E2016C0E0918802F0918902E430A0E024
:1031AC00FA0771F4A5E0B0E00E945220EB3344F42E
:1031BC00A5E0B0E00E945220EF5F0E946E20E1502B
:1031CC0069C0A0917403A13011F00C945019E091D6
:1031DC008802F0918902E130A0E0FA0799F4A4E0AA
:1031EC00B0E00E945220EA3064F0A4E0B0E00E940B
:1031FC005220F0E0E7FDFFEF3A97A4E0B0E00E9428
:10320C006E2048C0E0918802F0918902E230A0E083
:10321C00FA0779F4A4E0B0E00E945220E13044F0C7
:10322C00A4E0B0E00E945220E1500E946E20EF5FBB
:10323C0031C0E0918802F0918902E330A0E0FA07F6
:10324C0099F4A5E0B0E00E945220EA3064F0A5E0C9
:10325C00B0E00E945220F0E0E7FDFFEF3A97A5E0C6
:10326C00B0E00E946E2016C0E0918802F0918902B5
:10327C00E430A0E0FA0771F4A5E0B0E00E9452201F
:10328C00E13044F0A5E0B0E00E945220E1500E94F1
:10329C006E20EF5FA0917503A13031F4E8E8F2E005
:1032AC00A0E0B0E0A083B183E1E0E51511F00C944F
:1032BC000A1AE1E7F2E0FA93EA930E941C1FE0E09D
:1032CC00EA93E2E0EA93E0E0EA93EA93A4E0B0E068
:1032DC000E945220F0E0E7FDFFEF0E94A51F0E9424
:1032EC004520E0E0F0E060E070E00E9445200E94A4
:1032FC004C03EAE3EA930E94E81EE0E0EA93E2E082
:10330C00EA93E0E0EA93EA93A5E0B0E00E94522051
:10331C00F0E0E7FDFFEF0E94A51F0E944520E0E0D2
:10332C00F0E060E070E00E9445200E944C03E091C8
:10333C008802F0918902309719F5EAE3EA930E942A
:10334C00E81EE0E0EA93E2E0EA93E0E0EA93EA9335
:10335C00A6E0B0E00E945220F0E00E94A51F0E945F
:10336C004520E0E0F0E060E070E00E9445200E9423
:10337C004C03E0E6F2E0FA93EA930E941C1F44C06F
:10338C00A6E0B0E0E0E00E946E20E1E7F0E0FA9306
:10339C00EA930E941C1FE1E0EA93EA93EA93EA9312
:1033AC00EA93E0E0EA93EA93EA93EA930E94200519
:1033BC00E0918802F0918902E130A0E0FA0711F463
:1033CC00E8E01DC0E0918802F0918902E230A0E0B3
:1033DC00FA0711F4E9E013C0E0918802F091890238
:1033EC00E330A0E0FA0711F4EBE009C0E0918802A9
:1033FC00F0918902E430A0E0FA0731F4ECE0EA93B2
:10340C00E0E0EA930E94E7044CC1A0918602B091DF
:10341C0087021C9711F00C94681AE1E0E51511F085
:10342C000C94671AA0916C03B0E0A7FDBFEFEAE023
:10343C00F0E00E94FA1F309719F4EAE7F2E022C09C
:10344C00A0916C03B0E0A7FDBFEFEAE0F0E00E94B2
:10345C00FA1FE130A0E0FA0719F4EBE8F2E012C031
:10346C00A0916C03B0E0A7FDBFEFEAE0F0E00E9492
:10347C00FA1FE230A0E0FA0719F4ECE9F2E002C01E
:10348C00EDEAF2E0FA93EA930E941C1FEEEBF2E0F5
:10349C00FA93EA930E941C1FE1E0EA93E3E0EA93BB
:1034AC00E1E0EA93EA93E0E0F0E060E070E00E9493
:1034BC0045200E9417020E94A51F0E9445200E94D1
:1034CC004C03EFC0A0918602B09187021D9711F0BA
:1034DC000C94571BE0918802F0918902309709F502
:1034EC00E1E0E51561F4E8ECF2E0FA93EA930E946E
:1034FC001C1FE9EDF2E0FA93EA930E941C1FA091C5
:10350C007503A13069F4EDE0EA93E0E0EA93EA9305
:10351C00EDE0EA93E1E0EA93E0E0EA930E94F8043C
:10352C00C0C02197A7E0B0E0E0E00E946E200E94AE
:10353C00D01EEAEEF2E0FA93EA930E941C1FEBEF26
:10354C00F2E0FA93EA930E941C1FA0E0B0E0E0E0E6
:10355C00F0E00E946620A2E0B0E00E946E20A3E0A2
:10356C00B0E00E946E20A4E0B0E00E946E20A5E0C6
:10357C00B0E00E946E20A6EEB3E0E4E1F0E00E9421
:10358C006620A8EEB3E0E0E0F0E060E070E00E94BE
:10359C005E20ACEEB3E00E945E20A0EFB3E0EEE55F
:1035AC00F1E00E946620A2EFB3E0E4E6F0E00E94B6
:1035BC006620A4EFB3E0E0E0F0E00E946620E88330
:1035CC00A881AA3510F00C94311BE881A8E0B0E07A
:1035DC00F0E0EE0FFF1FAE0FBF1FE0E0F0E00E9427
:1035EC006620A881B0E0A454BF4F0E946E20A88131
:1035FC00B0E0AA5EBE4F0E946E20A881B0E0A05938
:10360C00BE4F0E946E20A881B0E0A653BE4F0E9410
:10361C006E20A881B0E0AC5DBD4F0E946E20E881A9
:10362C00AEE7B2E0F0E0EE0FFF1FAE0FBF1FE0E021
:10363C00F0E00E946620E881A2E3B3E0F0E0EE0F38
:10364C00FF1FAE0FBF1FE0E0F0E00E946620E88194
:10365C00EF5FE883B5CF21972197E981EF5FE9838D
:10366C000E94D01EE0E0EA93EA93E0E1F0E0FA93E6
:10367C00EA93ED81F0E0FA93EA93ECE0F3E0FA934D
:10368C00EA930E94A904E883A881A13011F4E0E038
:10369C00E983ECE2F1E0FA93EA930E947E1F219613
:1036AC00DBCFDBC2E1E0E51511F00C940C1C22978A
:1036BC00EFE2F3E0FA93EA930E941C1FE091980268
:1036CC00F0919902E883F983E0919A02E03051F489
:1036DC00A881B981E8EEF3E00E94E71FEA930E940B
:1036EC00310201C0EAE2EA930E94E81EA881B98186
:1036FC00E8EEF3E00E94E71FA8EEB3E00E94AF1FD4
:10370C00A881B981AE1BBF0BA883B983A0919A0283
:10371C00A13051F4A881B981E4E6F0E00E94E71FE2
:10372C00EA930E94310201C0EAE2EA930E94E81E89
:10373C00A881B981E4E6F0E00E94E71FA4E6B0E0BE
:10374C000E94AF1FA881B981AE1BBF0BA883B983A0
:10375C00A0919A02A23051F4A881B981EAE0F0E07C
:10376C000E94E71FEA930E94310201C0EAE2EA9349
:10377C000E94E81EA881B981EAE0F0E00E94E71FF0
:10378C00AAE0B0E00E94AF1FA881B981AE1BBF0BAD
:10379C00A883B983A0919A02A33029F4E881EA9313
:1037AC000E94310201C0EAE2EA930E94E81EE1E7BE
:1037BC00F0E0FA93EA930E941C1FE0919702F0E06C
:1037CC00E883F983A881B981EAE0F0E00E94E71F61
:1037DC00EA930E943102EA930E94E81EA881B98103
:1037EC00EAE0F0E00E94E71FAAE0B0E00E94AF1F01
:1037FC00A881B981AE1BBF0BA883B983E881EA937A
:10380C000E943102EA930E94E81E2296E0919A02ED
:10381C00E03011F00C94601CE1E0E515A1F4E0E05F
:10382C00EA93E1E0EA93EA93EA93EA93EA93E0E01D
:10383C00EA93EA93EA930E942005E7E0EA93E0E03A
:10384C00EA930E94E704A0917203A13029F4E0915D
:10385C009A02EF5FE0939A02A0917303A13099F45E
:10386C00A0919802B0919902A832E3E2BE0750F4FD
:10387C00E0919802F0919902E851FC4FE093980284
:10388C00F093990216C0A0917403A13091F4A09109
:10389C009802B0919902A83EE3E0BE0750F0E09187
:1038AC009802F0919902E85EF340E0939802F0934D
:1038BC00990200C1A0919A02A13011F00C94BA1C8B
:1038CC00E1E0E51591F4EA93EA93EA93EA93EA933B
:1038DC00EA93E0E0EA93EA93EA930E942005E8E099
:1038EC00EA93E0E0EA930E94E704A0917103A1300F
:1038FC0021F4E0919A02E15007C0A0917203A1302B
:10390C0029F4E0919A02EF5FE0939A02A09173037D
:10391C00A13099F4A0919802B0919902AC3AE6E2E8
:10392C00BE0750F4E0919802F0919902EC59FF4FC8
:10393C00E0939802F093990216C0A0917403A13001
:10394C0091F4A0919802B0919902A436E0E0BE07E0
:10395C0050F0E0919802F0919902E456F040E09317
:10396C009802F0939902A6C0A0919A02A23011F08D
:10397C000C94111DE1E0E51591F4EA93EA93EA93B6
:10398C00EA93EA93EA93E0E0EA93EA93EA930E94DB
:10399C002005E9E0EA93E0E0EA930E94E704A091B5
:1039AC007103A13029F4E0919A02E150E0939A025C
:1039BC00A0917203A13029F4E0919A02EF5FE09399
:1039CC009A02A0917303A13091F4A0919802B09146
:1039DC009902A630E7E2BE0748F4E0919802F09114
:1039EC0099023A96E0939802F093990213C0A09131
:1039FC007403A13079F4A0919802B09199021A97AE
:103A0C0048F0E0919802F09199023A97E09398026D
:103A1C00F09399024FC0A0919A02A33011F00C942C
:103A2C00601DE1E0E515A1F4EA93E0E0EA93E1E042
:103A3C00EA93EA93EA93EA93E0E0EA93EA93EA934F
:103A4C000E942005EAE0EA93E0E0EA930E94E70492
:103A5C00A0917103A13029F4E0919A02E150E09316
:103A6C009A02A0917303A13091F4A0919802B091A5
:103A7C009902AF30E7E2BE0748F4E0919802F0916A
:103A8C0099023196E0939802F093990213C0A09199
:103A9C007403A13079F4A0919802B0919902119716
:103AAC0048F0E0919802F09199023197E0939802D6
:103ABC00F0939902E0919702E03011F00C94A01D64
:103ACC00E0919402F0E0E0938602F0938702A8E87C
:103ADC00B2E0E0919502F0E0ED93FC93AAE8B2E03D
:103AEC00E0919602F0E0ED93FC93E0E0E09390021D
:103AFC00E0939802E0939902E0939A02E093970284
:103B0C00E0939102E0939202E09393020E94D01E04
:103B1C00E7E3F3E0FA93EA930E941C1FE8E4F3E076
:103B2C00FA93EA930E941C1FE8EEF3E0FA93EA93EF
:103B3C000E947E1FA0917B03A13031F5E09194028D
:103B4C00F0E0E0938602F0938702A8E8B2E0E091FF
:103B5C009502F0E0ED93FC93AAE8B2E0E0919602B6
:103B6C00F0E0ED93FC93E0E0E0939002E093980298
:103B7C00E0939902E0939A02E0939702E09391020A
:103B8C00E0939202E0939302A0917503A13011F09F
:103B9C000C94331E0E942003A0919802B0919902BC
:103BAC00EA17FB0701F5E0919102F0E0E093860241
:103BBC00F0938702A8E8B2E0E0919202F0E0ED9376
:103BCC00FC93AAE8B2E0E0919302F0E0ED93FC9351
:103BDC000E94D01EE9E5F3E0FA93EA930E941C1FC1
:103BEC00EAE6F3E01FC0E0919402F0E0E093860275
:103BFC00F0938702A8E8B2E0E0919502F0E0ED9333
:103C0C00FC93AAE8B2E0E0919602F0E0ED93FC930D
:103C1C000E94D01EE9E5F3E0FA93EA930E941C1F80
:103C2C00EBE7F3E0FA93EA930E941C1FE8EEF3E053
:103C3C00FA93EA930E947E1FE0E0E0939002E093F7
:103C4C009802E0939902E0939A02E0939702E09332
:103C5C009102E0939202E0939302E1E0E51509F4FE
:103C6C005524E0E0E0936B03E1E0F0E0FA93EA9393
:103C7C000E947E1F0C94E506FFCFAA27BB27E99173
:103C8C00F9910590002011F01196FBCFFD010895DC
:103C9C001A930A9310918403103019F01150109359
:103CAC00840310918503103019F011501093850383
:103CBC0010918703E6B3E870AE2FE6B3E470EA2BFD
:103CCC00E0938703E11781F400918303E87011F00E
:103CDC00046001C00B7FE0918703E47011F0036076
:103CEC0001C00D7F00938303099119910895FFE0A2
:103CFC00FA95F1F70895A4B3AF70A4BBA99AA8984C
:103D0C00F6DFAA9AF4DFA3B3AA98F1DFAA9AEFDF41
:103D1C00AA98A7FDF5CF0895A07FAB2BA5BBAA9AB7
:103D2C000E947D1EAA980E947D1E0895A998A4B396
:103D3C00A76FA4BBB5B3BF70A881EEDFA881A29515
:103D4C00EBDFA99A0C947C1FAA9A0E947D1EE3B308
:103D5C00AA980E947D1EE07F08950E947D1EF4DFCC
:103D6C00AE2FF2DFA998E295EA2B08950E94811EEE
:103D7C00E881F0E0E357FC4FE081A981EA0FEA9378
:103D8C000E949C1EE981E0939103E881E0939203E9
:103D9C00229608950E94811EE2E0EA930E949C1EE6
:103DAC000E94811EECE0EA930E949C1E0E94811EE0
:103DBC00E1E0EA930E949C1EE0E0E0939203E09322
:103DCC0091030895EF93FF93A8816894AA3039F07A
:103DDC00E894E0919303A0919103AE1760F0E09109
:103DEC009203EF5FE0939203E0E0EA93E091920399
:103DFC00EA93BCDF56F0E0919103EF5FE0939103FF
:103E0C007ADFA89AA881AA9391DFFF91EF910C9485
:103E1C007C1F1A93A981BA81ED91A983BA831E2FB5
:103E2C00E03019F01A93CEDFF5CF0EC01A93E9816A
:103E3C00FA813196E983FA833197E4911E2FE030B1
:103E4C0019F01A93BFDFF3CF188123960895AA2790
:103E5C00BB271197F1F70895A998A4B3A76FA4BB3A
:103E6C00B5B3BF70A8810E94921EA99A3FC0AA98B0
:103E7C00A898E881E0939303E058E0938F03E881DE
:103E8C00E054E0939003E3DFE0E3EA93E5DFDFDF68
:103E9C00E0E3EA93E1DFDBDFE0E3EA93DDDFD7DFAA
:103EAC00E0E2EA93D9DFD3DFE8E2EA930E949C1EBA
:103EBC00CEDFE4E0EA930E949C1EC9DFE5E8EA93BA
:103ECC000E949C1EC4DFA4B3AF70A4BBA99A0E942D
:103EDC00B31EE53011F0E0E009C00E94811EE6E05F
:103EEC00EA930E949C1E0E94D01EE1E02196089548
:103EFC00E991F991309639F080ED97E00197F1F75F
:103F0C00A8953197C9F70895EA0FFB1F681F791F11
:103F1C000895AE1BBF0B860B970B0895F195E19599
:103F2C00F0400895F09560957095E195FF4F6F4FB7
:103F3C007F4F0895F695E795F695E79508956F2FC1
:103F4C00660F660B762F08958B2F880F880B982F92
:103F5C000895FA9FF02DEB9FF00DEA9FE02DF10DE7
:103F6C0008957A9F702D6B9F700DF89F700DE99FCF
:103F7C00700D6A9F602D710DFB9F600D711DE89F88
:103F8C00600D711D8827FA9FF02D610D781FEB9F36
:103F9C00F00D611D781FEA9FE02DF10D681F781F51
:103FAC0008956E2F6A9FF0016B9FF00D089546D017
:103FBC00D0DF0EF4B3DF08954FD0D3DF0EF4B2DFB1
:103FCC0008950024112490E1AA0FBB1F001C111CA2
:103FDC000E1A1F0A18F40E0E1F1E01C0A1609A952E
:103FEC0099F7FD01D001089529D0EBDF0EF496DF8F
:103FFC0008953F934F935F93002411244427552732
:10400C0030E2AA0FBB1F881F991F001C111C441FF4
:10401C00551F0E1A1F0A460B570B28F40E0E1F1EA7
:10402C00461F571F01C0A1603A9559F7FD01BC010D
:10403C00D001CA015F914F913F910895E894F7FF29
:10404C0002C06CDF6894B7FF06C0A095B0951196BE
:10405C0000F8039400FA0895E89477FF02C062DF39
:10406C00689497FF0BC00024A095B095809590950F
:10407C001196801D901D00F8039400FA08957A9310
:10408C006A93FA93EA930895129602D0BF0112979D
:10409C00119602D0FE2F1197E199FECFFF93FFB737
:1040AC00F894AEBBBFBBE09AEDB3FFBFFF91089590
:1040BC0007D012960F01FB0103D0F001129708955F
:1040CC0007D01196EF93EF2F03D0EF91119708952E
:1040DC00E19B02C0A895FCCF9FB7F894AEBBBFBBC9
:1040EC00E09A8DB3E81719F0EDBBE29AE19A9FBF05
:1040FC00089500240A160B060895AE17BF0786070D
:10410C00970708955A934A933A932A931A930A93CA
:10411C0008955D814C813B812A8119810881089524
:00000001FF
