:060000000C9471010C9448
:1000060000000C9400000C9400000C9400000C946A
:1000160000000C9400000C9400000C9400000C945A
:1000260000000C9400000C9400000C9400000C944A
:1000360000000C9400000C9400000C9400000C943A
:1000460000000C9400000C9400000C94000020208A
:100056002020202020202020202020202054002086
:1000660020202020202020202020202020546F0027
:1000760020202020202020202020202020546F6DAA
:1000860000202020202020202020202020546F6DBA
:1000960061002020202020202020202020546F6D69
:1000A60061730020202020202020202020546F6D06
:1000B60061732000202020202020202020546F6DF6
:1000C60061732056002020202020202020546F6DB0
:1000D60061732056610020202020202020546F6D5F
:1000E60061732056616E00202020202020546F6D01
:1000F60061732056616E61002020202020546F6DB0
:1001060061732056616E61670020202020546F6D58
:1001160061732056616E61676100202020546F6D07
:1001260061732056616E61676173002020546F6DA4
:1001360061732056616E61676173200020546F6D94
:1001460061732056616E61676173202000546F6D84
:1001560061732056616E61676173202020006F6DA8
:1001660061732056616E6167617320202020006DE7
:1001760061732056616E6167617320202020200024
:1001860061732056616E61676173202020202020F4
:1001960000732056616E6167617320202020202045
:1001A60020002056616E6167617320202020202088
:1001B60020200056616E6167617320202020202078
:1001C60020202000616E616761732020202020209E
:1001D60020202020006E61676173202020202020CF
:1001E600202020202000616761732020202020200D
:1001F600202020202020006761732020202020203E
:100206002020202020202000617320202020202074
:1002160020202020202020200073202020202020A5
:100226002020202020202020200080C011006001F6
:100236005400110071016500110082017600110061
:10024600930187001100A40198001100B501A900CF
:100256001100C601BA001100D701CB001100E80158
:10026600DC001100F901ED0011000A02FE00110088
:100276001B020F0111002C02200111003D02310169
:1002860011004E02420111005F025301110070027B
:1002960064011100810275011100920286011100AC
:1002A600A30297011100B402A8011100C502B90109
:1002B6001100D602CA011100E702DB011100F802A3
:1002C600EC0111000903FD0111001A030E021100D1
:1002D6002B031F0202003C0330020000F894EE27B5
:1002E600ECBBF1E0FBBFEBBFE5BFF8E1F1BDE1BD63
:1002F6008DE0A2E0BB27ED938A95E9F780E094E0D4
:10030600A0E6ED930197E9F7E2E3F2E08591959196
:10031600009761F0A591B59105901590BF01F00188
:1003260005900D920197E1F7FB01F0CFEFE5EDBFE8
:10033600E4E0EEBFC0E6D1E00C94A101E0E0EBBB47
:10034600EABBE8BBE7BBE5BBE4BBE2BBE1BBE3BFA3
:10035600E2BFECBFEFBDEEBDEDBDECBDE7BDE6BD5A
:10036600EBBDEABDE9BDE8BDE2BDE5BDE4BDE3BD6B
:10037600E5BFE4BFE9BFE0E8E8B9E0E0E0BFE0E1FF
:10038600EA930E9435032197F20131962F01D2019B
:10039600E8ECF0E00E948A03E883E8EAF6E14E160C
:1003A6005F0610F044245524A881B0E0E8ECF0E0A4
:1003B6000E9485034E165F0611F00C948F020E9470
:1003C600E702A881A13019F4E0E6F1E0A1C0A88116
:1003D600A23019F4E1E7F1E09BC0A881A33019F43B
:1003E600E2E8F1E095C0A881A43019F4E3E9F1E070
:1003F6008FC0A881A53019F4E4EAF1E089C0A8818C
:10040600A63019F4E5EBF1E083C0A881A73019F412
:10041600E6ECF1E07DC0A881A83019F4E7EDF1E043
:1004260077C0A881A93019F4E8EEF1E071C0A8817F
:10043600AA3019F4E9EFF1E06BC0A881AB3019F4EA
:10044600EAE0F2E065C0A881AC3019F4EBE1F2E035
:100456005FC0A881AD3019F4ECE2F2E059C0A88182
:10046600AE3019F4EDE3F2E053C0A881AF3019F4D1
:10047600EEE4F2E04DC0A881A03119F4EFE5F2E018
:1004860047C0A881A13119F4E0E7F2E041C0A88194
:10049600A23119F4E1E8F2E03BC0A881A33119F4D6
:1004A600E2E9F2E035C0A881A43119F4E3EAF2E00A
:1004B6002FC0A881A53119F4E4EBF2E029C0A88188
:1004C600A63119F4E5ECF2E023C0A881A73119F4AE
:1004D600E6EDF2E01DC0A881A83119F4E7EEF2E0DE
:1004E60017C0A881A93119F4E8EFF2E011C0A8817C
:1004F600AA3119F4E9E0F3E00BC0A881AB3119F495
:10050600EAE1F3E005C0A881AC3131F4EBE2F3E0B7
:10051600FA93EA930E941603E1E0F0E0FA93EA9375
:100526000E946D0321962FCFFFCFFFE0FA95F1F7DA
:100536000895A4B3AF70A4BBA99AA898F6DFAA9AA7
:10054600F4DFA3B3AA98F1DFAA9AEFDFAA98A7FD72
:10055600F5CF0895A07FAB2BA5BBAA9A0E9498025F
:10056600AA980E9498020895A998A4B3A76FA4BB5D
:10057600B5B3BF70A881EEDFA881A295EBDFA99A7B
:100586000C946103AA9A0E949802E3B3AA980E9467
:100596009802E07F08950E949802F4DFAE2FF2DF02
:1005A600A998E295EA2B08950E949C02E881F0E062
:1005B600E45CFC4FE081A981EA0FEA930E94B7024E
:1005C60079806880229608950E949C02E2E0EA9370
:1005D6000E94B7020E949C02ECE0EA930E94B702D6
:1005E6000E949C02E1E0EA930E94B702E0E06E2ED0
:1005F6007E2E0895EF93FF93A8816894AA3019F090
:10060600E894791430F06394E0E0EA936A92CCDFE0
:1006160036F073948EDFA89AA881AA93A5DFFF917E
:10062600EF910C9461031A93A981BA81ED91A98384
:10063600BA831E2FE03019F01A93DCDFF5CF18814C
:1006460023960895AA27BB271197F1F70895A9982D
:10065600A4B3A76FA4BBB5B3BF70A8810E94AD02B7
:10066600A99A2CC0AA98A8989880E881E058E093A7
:100676003E03E881E054E0933F0322D021D020D00E
:10068600E1DFE0E2EA93E3DFDDDFE8E21ED0E4E06B
:100696001CD0E5E81AD0A4B3AF70A4BBA99A0E94F7
:1006A600CE02E53011F0E0E009C00E949C02E6E0CF
:1006B600EA930E94B7020E94E702E1E021960895BC
:1006C6000E942503E0E3EA93C2CFEA930E94B702B1
:1006D6000C942503E991F991309639F080ED97E075
:1006E6000197F1F7A8953197C9F70895F195E19526
:1006F600F0400895FA9FF02DEB9FF00DEA9FE02D54
:10070600F10D089517D0F6DF0EF4F0DF08950024FA
:10071600112490E1AA0FBB1F001C111C0E1A1F0A00
:1007260018F40E0E1F1E01C0A1609A9599F7FD01DF
:10073600D0010895E894F7FF02C0D8DF6894B7FFA8
:1007460006C0A095B095119600F8039400FA089596
:00000001FF
