:020000000C945E
:1000020042000C9400000C9400000C9400000C942C
:1000120000000C9400000C9400000C9400000C945E
:1000220000000C94FE040C9400000C9400000C944C
:1000320000000C9400000C9400000C9400000C943E
:1000420000000C9400000C9400000C9400000C942E
:10005200000048454C4C4F00646953636841724745
:10006200696E47006241747445725920466F754C3F
:10007200740063416E74206469536368417247453A
:100082000000F894EE27ECBBF1E0FBBFEBBFE5BF4D
:10009200F8E1F1BDE1BD8DE0A2E0BB27ED938A95C9
:1000A200E9F780E094E0A0E6ED930197E9F7EFE548
:1000B200EDBFE4E0EEBFC0E6D1E00C942105E8819B
:1000C200E064E7B98BE18A95F1F7369A349BFECF6B
:1000D200349AE4B1F5B133C0E881E03011F4E0E3E1
:1000E2002EC0A881A13011F4E1E329C0A881A23079
:1000F20011F4E2E324C0A881A33011F4E3E31FC0AA
:10010200A881A43011F4E4E31AC0A881A53011F447
:10011200E5E315C0A881A63011F4E6E310C0A8817A
:10012200A73011F4E7E30BC0A881A83011F4E8E38B
:1001320006C0A881A93011F4E9E301C0E0E02196EC
:100142000895F20131962F01EFE0F0E04E165F06BE
:1001520014F04424552400C4042C052811F4E0E0D2
:100162000895E4E0F0E0E415F50509F4F5C3E8E0EC
:10017200F0E0E415F50511F4E2E00895ECE0F0E0BA
:10018200E415F50511F4E3E00895EFEF0895E2E0D8
:10019200E61511F4939A01C09398E1E0E81511F481
:1001A200969A01C096988824E1E0EB1511F4959A8D
:1001B20001C09598BB24E1E0EA1511F4949A01C0BC
:1001C2009498AA24C9C31A930A93C6DF0E2FA02FAC
:1001D200EFEFB0E0FFEFEA17FB0711F40C94F50321
:1001E2002897E0E0E983EA83EB83EC83ED83EE83F7
:1001F200EF83E02FF0E0EC59FE4FE081E88300301E
:1002020029F4AF9ADE98DF98DC9814C0013029F403
:10021200AF98DE9ADF98DC980DC0023029F4AF98CF
:10022200DE98DF9ADC9806C0033021F4AF98DE989E
:10023200DF98DC9AA881A03339F4E1E0EF83EE8302
:10024200ED83EC83EB8397C2A881A13339F4E0E01C
:10025200EF83E1E0EE83ED83E0E089C2A881A2337F
:1002620061F4E1E0EF83EE83E0E0ED83E1E0EC8333
:10027200EB83E0E0EA83E1E080C2A881A33351F49A
:10028200E1E0EF83EE83ED83EC83E0E0EB83EA834E
:10029200E1E073C2A881A43359F4E0E0EF83E1E026
:1002A200EE83ED83E0E0EC83EB83E1E0EA8365C279
:1002B200A881A53361F4E1E0EF83E0E0EE83E1E0C1
:1002C200ED83EC83E0E0EB83E1E0EA8356C2A881B0
:1002D200A63351F4E1E0EF83E0E0EE83E1E0ED8369
:1002E200EC83EB83EA8349C2A881A73331F4E1E0CE
:1002F200EF83EE83ED83E0E03AC2A881A83341F4B4
:10030200E1E0EF83EE83ED83EC83EB83EA8335C296
:10031200A881A93351F4E1E0EF83EE83ED83EC830E
:10032200E0E0EB83E1E0EA8328C2A881A13629F468
:10033200E0E0EF83EE83ED831AC2A881A13451F489
:10034200E1E0EF83EE83ED83E0E0EC83E1E0EB8339
:10035200EA8313C2A881A23649F4E0E0EF83EE8378
:10036200E1E0ED83EC83EB83EA8307C2A881A23448
:1003720029F4E0E0EF83EE83ED83F9C1A881A3368F
:1003820059F4E0E0EF83EE83ED83E1E0EC83EB836D
:10039200E0E0EA83E1E0F1C1A881A33451F4E1E0B5
:1003A200EF83E0E0EE83ED83E1E0EC83EB83EA832D
:1003B200E4C1A881A43659F4E0E0EF83E1E0EE83E2
:1003C200ED83EC83EB83E0E0EA83E1E0D6C1A88130
:1003D200A43429F4E0E0EF83EE83ED83C8C1A88161
:1003E200A53629F4E0E0EF83EE83ED83C0C1A88156
:1003F200A53451F4E1E0EF83E0E0EE83ED83E1E048
:10040200EC83EB83EA83B9C1A881A63629F4E0E044
:10041200EF83EE83ED83ABC1A881A63451F4E1E012
:10042200EF83E0E0EE83ED83EC83E1E0EB83EA83AC
:10043200A4C1A881A73629F4E0E0EF83EE83ED831F
:1004420096C1A881A73449F4E1E0EF83E0E0EE83AE
:10045200E1E0ED83EC83EB838EC1A881A83659F4E9
:10046200E0E0EF83EE83E1E0ED83E0E0EC83E1E0C6
:10047200EB83EA8382C1A881A83459F4E0E0EF83D8
:10048200E1E0EE83ED83E0E0EC83E1E0EB83EA83FD
:1004920074C1A881A93639F4E0E0EF83EE83E1E08C
:1004A200ED83E0E064C1A881A93439F4E0E0EF8390
:1004B200E1E0EE83ED83E0E05AC1A881AA3629F497
:1004C200E0E0EF83EE83ED8352C1A881AA3429F4E0
:1004D200E0E0EF83E1E0EE8348C1A881AB3629F486
:1004E200E0E0EF83EE83ED8342C1A881AB3429F4CF
:1004F200E0E0EF83EE83ED833AC1A881AC3629F4C4
:10050200E0E0EF83EE83ED8332C1A881AC3441F4A5
:10051200E0E0EF83EE83ED83E1E0EC83EB832BC13C
:10052200A881AD3629F4E0E0EF83EE83ED831FC1AD
:10053200A881AD3429F4E0E0EF83EE83ED8317C1A7
:10054200A881AE3669F4E0E0EF83EE83E1E0ED836B
:10055200E0E0EC83E1E0EB83E0E0EA83E1E00DC17F
:10056200A881AE3429F4E0E0EF83EE83ED83FFC08F
:10057200A881AF3659F4E0E0EF83EE83E1E0ED834A
:10058200EC83EB83E0E0EA83E1E0F7C0A881AF34DB
:1005920039F4E1E0EF83EE83ED83EC83EB83EBC090
:1005A200A881A03729F4E0E0EF83EE83ED83DFC07A
:1005B200A881A03551F4E1E0EF83EE83E0E0ED8322
:1005C200EC83E1E0EB83EA83D8C0A881A13729F468
:1005D200E0E0EF83EE83ED83CAC0A881A13529F460
:1005E200E0E0EF83EE83ED83C2C0A881A23759F425
:1005F200E0E0EF83EE83ED83EC83E1E0EB83E0E088
:10060200EA83E1E0BAC0A881A23529F4E0E0EF83F1
:10061200EE83ED83ACC0A881A33729F4E0E0EF8339
:10062200EE83ED83A4C0A881A33561F4E1E0EF83FA
:10063200E0E0EE83E1E0ED83EC83E0E0EB83E1E0F8
:10064200EA839BC0A881A43749F4E0E0EF83EE83FC
:10065200ED83E1E0EC83EB83EA838FC0A881A435CC
:1006620029F4E0E0EF83EE83ED8381C0A881A53712
:1006720039F4E0E0EF83EE83E1E0ED83EC8379C0CF
:10068200A881A53541F4E0E0EF83E1E0EE83ED835C
:10069200EC83EB8370C0A881A63729F4E0E0EF83F6
:1006A200EE83ED8364C0A881A63529F4E0E0EF83F0
:1006B200EE83ED835CC0A881A73729F4E0E0EF83E5
:1006C200EE83ED8354C0A881A73529F4E0E0EF83DF
:1006D200EE83ED834CC0A881A83729F4E0E0EF83D4
:1006E200EE83ED8344C0A881A83529F4E0E0EF83CE
:1006F200EE83ED833CC0A881A93729F4E0E0EF83C3
:10070200EE83ED8334C0A881A93559F4E0E0EF838C
:10071200E1E0EE83ED83E0E0EC83EB83E1E0EA836A
:100722002CC0A881AA3729F4E0E0EF83EE83ED83A1
:100732001EC0A881AA3529F4E0E0EF83EE83ED83A1
:1007420016C0A881AD3359F4E0E0EF83EE83ED8368
:10075200E1E0EC83E0E0EB83EA83E1E00EC0A88114
:10076200AF3561F4E0E0EF83EE83ED83E1E0EC830B
:10077200E0E0EB83E0E0EA83E0E0E983AF81A130EF
:1007820011F4AE9801C0AE9AAE81A13011F4AC98CA
:1007920001C0AC9AAD81A13011F4A99801C0A99A07
:1007A200AC81A13011F4AB9801C0AB9AAB81A130FE
:1007B20011F4979801C0979AAA81A13011F4AD98CB
:1007C20001C0AD9AA981A13011F4A89801C0A89ADC
:1007D200E02FF0E0E859FE4FA081A13011F4AA9871
:1007E20001C0AA9A28960CC0AE9AAC9AA99AAB9A62
:1007F200979AAD9AA89AAA9AAF98DE98DF98DC9851
:1008020010E0143068F4E12FF0E0EC59FE4FA0E064
:10081200A083E12FF0E0E859FE4FA0831F5FF1CFE4
:10082200E1E0099119910895C89902C0E1E001C07F
:10083200E0E0E0936001C99902C0E1E001C0E0E0BC
:10084200E0936101CA9902C0E1E001C0E0E0E093F7
:100852006201CB9902C0E1E001C0E0E0E0936301F4
:100862007BC0ABE9B1E0ED91FD913196FE93EE9341
:10087200A0919B01B0919C01AA3FE0E0BE0710F459
:100882000C94AD042797E0E0E983EA83E5E0EA937C
:1008920016DCED83FE83AD81BE81E5E0F0E00E94CF
:1008A200970EBF01AD81BE81EAE5F0E00E94970E8E
:1008B200DB01AE1BBF0BAB83BC83E9E0E883A881FD
:1008C200A130D8F0E881A5E8B1E0F0E0EE0FFF1F1B
:1008D200EA0FFB1F0F01E881F0E03197A5E8B1E0D4
:1008E200EE0FFF1FAE0FBF1F0E94AA0ED001ED93A5
:1008F200FC93E881E150E883E2CFEB81FC81E09355
:100902008501F0938601E0E0E883A881AA30A0F493
:10091200E881A5E8B1E0F0E0EE0FFF1FAE0FBF1FC8
:100922000E94AA0EA981BA81EA0FFB1FE983FA830A
:10093200E881EF5FE883E9CFA981BA81EAE0F0E0DC
:100942000E94970EE0938301F0938401E0E0E0932C
:100952009B01E0939C012796E1E008950E94DB0E43
:10096200EE81FF81FA93EA930E94780E8F0120E0D4
:1009720030E02430E0E03E0704F5E885F985E20F37
:10098200F31F3497AF015523AAF04017510768F4BB
:10099200F901EC59FE4F0F01FA01AE81BF81EA0F56
:1009A200FB1FE491D001EC9305C0022E032A11F43F
:1009B200E1E004C02F5F3F4FDCCFE0E00E94E20E97
:1009C2002A960895E881F0E0E0939D01F0939E015C
:1009D200E981A9E0B0E0F0E00E94BE0E6A817727CB
:1009E200AB81E8E1EA02F001E60FF71FABE0B0E00D
:1009F2000E94BE0EE1E024960895AA93BA93EA9368
:100A0200FA93EFB7EA93AFE9B1E0ED91FD91319638
:100A1200FE93EE93A0919F01B091A001AF3EE1E061
:100A2200BE0738F0E1E0DE2EE0E0E0939F01E093C4
:100A3200A001E991EFBFF991E991B991A9911895B6
:100A4200E0E0EBBBE0EDEABBE0E0E8BBE7BBE5BB27
:100A5200EFEFE4BBE0E0E2BBECEFE1BBE3E0E3BFDE
:100A6200E0E0E2BFECBFEFBDEEBDEDBDECBDE7BD2A
:100A7200E6BDEBBDEABDE9BDE8BDE2BDE4BDE3BD57
:100A8200E5BFE4BFE1E0E9BFE0E8E8B9E0E0E0BFEC
:100A9200E0E4E7B9E7EAE6B9E0B7EF71E0BF7894DE
:100AA200A1E0B0E00E94AE0EEF3FAFEFFA0741F0D7
:100AB200A3E0B0E00E94AE0EEF3FAFEFFA0751F4B1
:100AC200A1E0B0E0E0E0F0E00E94BE0EA3E0B0E002
:100AD2000E94BE0EA0E0B0E00E94B20EEF3F29F4E9
:100AE200A0E0B0E0E0E00E94C60EABE0B0E00E9401
:100AF200AE0EE93AA0E0FA0734F4ACE0B0E00E94AE
:100B0200B20EEE233AF4E7E0EA93E0E0EA93EA93E6
:100B1200EA9358DFA5E0B0E00E94AE0EEF3FAFEFE0
:100B2200FA0731F4A5E0B0E0E2E9F0E00E94BE0E7F
:100B3200A7E0B0E00E94AE0EEF3FAFEFFA0731F44C
:100B4200A7E0B0E0EEE6F0E00E94BE0EE1E06E2E1D
:100B5200A091A101B091A201A03DE7E0BE0700F57E
:100B62002197E8ECF0E00E94970EE883EADAA1EA26
:100B7200B1E0ED91FD913196FE93EE93E881F0E0C4
:100B8200FA93EA93E4E5F0E0FA93EA93E7DE1BDBFB
:100B9200E1E0F0E0FA93EA930E94830E2196D8CF27
:100BA200D0DA5FDEE1E0ED1511F00C946D06E2E0C3
:100BB200E61511F40C943A06A0919D01B0919E01A4
:100BC2000E94D70E84F0A9E0B0E00E94AE0EDF01D1
:100BD2000E94D70E44F0ABE0B0E00E94AE0EDF01FF
:100BE2000E94D70E74F5ADE9B1E0ED91FD91319718
:100BF200FE93EE93A0919E01AA2312F5EBE3F0E09F
:100C0200E0939D01F0939E01A9E0B0E00E94AE0E38
:100C120031970E94BE0E3196AAE0B0E00E94B20E59
:100C2200EE2372F4A9E0B0E0EBE3F0E00E94BE0E26
:100C3200ABE0B0E00E94AE0E31970E94BE0E31963C
:100C420018C0662071F4772019F4E2E06E2E08C015
:100C5200E0E0EA93EA93EEE1EA93E0E0EA93B2DEBF
:100C620008C0E0E0EA93EA93EEE1EA93E0E0EA9377
:100C7200A9DEE2E0E61579F5AEE6B1E0ED91FD918F
:100C82003196FE93EE93E0E0E0938001E0938101E0
:100C9200A0916E01B0916F01DC97E8F0E0936E01D4
:100CA200E0936F01A0E7B1E0ED91FD913196FE93E3
:100CB200EE93A0917001B0917101DC9760F0E0E0D9
:100CC200E0937001E0937101A2E7B1E0ED91FD9133
:100CD2003196FE93EE93DD24829B06C0772019F4B1
:100CE200E1E07E2E6E2E01C07724662011F00C9476
:100CF200CA062197ACE6B1E0ED91FD913196FE93E3
:100D0200EE933197A0916C01B0916D01A83BEBE09D
:100D1200BE0728F0E0E0E0936C01E0936D01A09142
:100D22006C01B0916D01E4EFF1E00E94970EE8834F
:100D3200E03021F4E1E0E09368011DC0A881A13018
:100D4200B9F0A23021F4E1E0E0936A0114C0A88175
:100D5200A33021F4E1E0E0936B010DC0A881A4303F
:100D620021F4E1E0E0936A0106C0A881A53019F4FC
:100D7200E1E0E0936901A7E0B0E00E94AE0EA0912D
:100D82008301B0918401EA17FB0710F0E1E06E2EB7
:100D9200F7C0E1E0E61511F00C942107E91539F0EE
:100DA200E0E0E0937801E09379018824BB24A8E78E
:100DB200B1E0ED91FD913196FE93EE93A091780111
:100DC200B0917901A033E5E7BE0728F0E0E0E093B7
:100DD2007801E0937901A0917801B091790110979F
:100DE20020F0A83BEBE0BE0708F00EC0E1E0BE2E0B
:100DF2008824ECE4E0936401EFE6E0936501E1E42A
:100E0200E0936601E4E60DC0BB24E1E08E2EE3E64A
:100E1200E0936401E8E6E0936501E1E4E0936601B2
:100E2200E2E7E0936701A5E0B0E00E94AE0EA09178
:100E32008301B0918401AE17BF0708F06624A1C0F8
:100E4200E2E0E61511F00C94C2072197A0E8B1E0A8
:100E5200ED91FD913196FE93EE93E2E0E91569F092
:100E6200E0E0E0936E01E0936F01E0937001E093A4
:100E72007101E0937201E0937301AEE7B1E0ED918D
:100E8200FD913196FE93EE93A0917E01B0917F0188
:100E9200AC34EDE1BE0728F0E0E0E0937E01E093A0
:100EA2007F01A0917E01B0917F01E4EFF1E00E9409
:100EB200970EE883F0E0FA93EA93EAE5F0E0FA931A
:100EC200EA934CDDAA24A0916E01B0916F011A97AA
:100ED20071F4E0917001F0917101309741F4E09169
:100EE2007201F0917301309711F4E1E0AE2EA7E0A8
:100EF200B0E00E94AE0EA0918301B0918401EA1786
:100F0200FB07C8F1AAE7B1E0ED91FD913196FE939E
:100F1200EE93A0917A01B0917B01A838E3E1BE077C
:100F220048F1E1E06E2EE0E0E0937A01E0937B018C
:100F3200E0917001F0917101A1E0B0E00E94BE0E5B
:100F4200E0917201F0917301A3E0B0E00E94BE0E45
:100F5200E7E0EA93E0E0EA93EA93EA9333DDA3E081
:100F6200B0E00E94AE0E339728F4A0E0B0E0E1E0DA
:100F72000E94C60E05C0E0E0E0937A01E0937B0197
:100F82002196E1E0E91511F4E61509F407C0E0E065
:100F9200E0937801E09379018824BB24E2E0E9152B
:100FA20011F4E61509F412C0AA24E0E0E0936E0100
:100FB200E0936F01E0937001E0937101E09372019D
:100FC200E0937301E0937A01E0937B01962CA0E019
:100FD200B0E00E94B20EE13091F5662081F52197D2
:100FE200A3EAB1E0ED91FD913196FE93EE93A091CB
:100FF200A301B091A401A834EDE0BE0728F0E0E01F
:10100200E093A301E093A401A091A301B091A401F4
:10101200E8ECF0E00E94970EE883F0E0FA93EA939E
:10102200E6E6F0E0FA93EA9399DCE0E0E093680107
:10103200E0936901E0936A01E0936B012196A0912C
:101042006001A13061F4A0916101A03041F4A0914E
:101052006201A03021F4A0916301A03009F004C024
:10106200662011F4E1E06E2EA0916001A03061F4DF
:10107200A0916101A13041F4A0916201A03021F45C
:10108200A0916301A03009F02BC0E2E0E61549F41B
:10109200E1E06E2EE7E0EA93E0E0EA93EA93EA9376
:1010A20091DCA0E0B0E00E94B20EE130C1F4A4E70E
:1010B200B1E0ED91FD913196FE93EE93A091740112
:1010C200B0917501A03DE7E0BE0748F0A0E0B0E0B6
:1010D200E0E00E94C60EE0937401E093750105C042
:1010E200E0E0E0937401E0937501A0916001A0300B
:1010F20061F4A0916101A03041F4A0916201A1309C
:1011020021F4A0916301A03009F053C0662011F0D0
:101112000C94D9087720E1F4A6E7B1E0ED91FD91B6
:101122003196FE93EE933197A0917601B0917701BB
:10113200A13DE7E0BE0758F0E2E06E2EE0E0E0936A
:101142007601E0937701A0E0B0E00E94C60E30C0C5
:101152002297ACE7B1E0ED91FD913196FE93EE93CB
:10116200A0917C01B0917D01A031EEE0BE0728F094
:10117200E0E0E0937C01E0937D01A0917C01B091DD
:101182007D01E8ECF0E00E94970EE883F983FA9380
:10119200EA93E4E7F0E0FA93EA93E0DBE0E0E0933D
:1011A2006801E0936901E0936A01E0936B01229682
:1011B20009C0E0E0E0937601E0937701E0937C01DF
:1011C200E0937D01A0916301A13011F00C94390EDE
:1011D200A0916201A13069F4E0918201E03041F412
:1011E200E1E0E0938201C394E4E0EC1508F4CC243E
:1011F20003C0E0E0E0938201CC2011F00C947D0A60
:10120200E2E0E61511F00C942A0AA0917201B09165
:1012120073011A9710F40C945D09A0917201B091B8
:101222007301EAE0F0E00E94970EEA930E946D00DB
:10123200E0936401A0917201B0917301EAE0F0E0E1
:101242000E94970EAAE0B0E00E948F0EA091720158
:10125200B0917301AE1BBF0BAA930E946D00E09385
:101262006501A0917001B0917101EAE0F0E00E9485
:10127200970EEA930E946D00E0936601A0917001BF
:10128200B0917101EAE0F0E00E94970EAAE0B0E0AE
:101292000E948F0EA0917001B0917101AE1BBF0B25
:1012A200AA930E946D00E0936701E0E0E093680179
:1012B200E1E0E0936901C6C0E0917201F09173012F
:1012C200309711F00C94BE09A0917001B091710198
:1012D200EAE0F0E00E94970EEA930E946D00E0932C
:1012E2006401A0917001B0917101EAE0F0E00E9406
:1012F200970EAAE0B0E00E948F0EA0917001B0910B
:101302007101AE1BBF0BAA930E946D00E0936501B1
:10131200A0916E01B0916F01EAE0F0E00E94970E99
:10132200EA930E946D00E0936601A0916E01B09174
:101332006F01EAE0F0E00E94970EAAE0B0E00E949E
:101342008F0EA0916E01B0916F01AE1BBF0BAA93DD
:101352000E946D00E0936701E0E0E0936801A091D4
:101362008001B0918101AD32E1E0BE0710F4E1E00D
:1013720001C0E0E0E093690165C0A0917201B09103
:101382007301119730F0A0917201B09173011A9715
:1013920008F05EC0A0917201B0917301EAE0F0E042
:1013A2000E94970EAAE0B0E00E948F0EA0917201F7
:1013B200B0917301AE1BBF0BAA930E946D00E09324
:1013C2006401A0917001B0917101EAE0F0E00E9425
:1013D200970EEA930E946D00E0936501A09170015F
:1013E200B0917101EAE0F0E00E94970EAAE0B0E04D
:1013F2000E948F0EA0917001B0917101AE1BBF0BC4
:10140200AA930E946D00E0936601A0916E01B091D3
:101412006F01EAE0F0E00E94970EEA930E946D00ED
:10142200E0936701E1E0E0936801E0E0E0936901A5
:10143200A0918001B0918101AD32E1E0BE0710F4CC
:10144200E1E001C0E0E0E0936A01E0E0E0936B01DB
:1014520053C0A3E0B0E00E94AE0EDF01EAE0F0E08C
:101462000E94970EEA930E946D00E0936401A3E04C
:10147200B0E00E94AE0EBF01DF01EAE0F0E00E94A0
:10148200970EAAE0B0E00E948F0EDB01AE1BBF0BED
:10149200AA930E946D00E0936501A1E0B0E00E9472
:1014A200AE0EDF01EAE0F0E00E94970EEA930E949E
:1014B2006D00E0936601A1E0B0E00E94AE0EBF01B4
:1014C200DF01EAE0F0E00E94970EAAE0B0E00E949D
:1014D2008F0EDB01AE1BBF0BAA930E946D00E0933F
:1014E2006701E0E0E0936801E1E0E0936901E0E098
:1014F200E0936A01E0936B01E1E0EC1511F00C94CA
:10150200600B2197A091A501B091A601AD3DE5E048
:10151200BE0738F4A5EAB1E0ED91FD913196FE9354
:10152200EE93A091A501B091A601ECE2F1E00E9438
:10153200970EE883E0E0E0936801E0936901E093AD
:101542006A01E0936B01A881A13049F4E0E2E093E3
:101552006401E0936501E0936601E5E5ACC0A88112
:10156200A23051F4E0E2E0936401E0936501E5E525
:10157200E0936601EDE39FC0A881A330A9F4E0E205
:10158200E0936401E5E5E0936501EDE3E093660134
:10159200A0918301B0918401E4E6F0E00E94970EED
:1015A200EA930E946D0087C0A881A43091F5E5E519
:1015B200E0936401EDE3E0936501A0918301B091B2
:1015C2008401E4E6F0E00E94970EEA930E946D0027
:1015D200E0936601A0918301B0918401E4E6F0E01A
:1015E2000E94970EA4E6B0E00E948F0EA0918301A4
:1015F200B0918401AE1BBF0BEAE0F0E00E94970EAF
:10160200EA930E946D00E0936701E1E0E0936B01D1
:1016120054C0A881A53011F00C94550BEDE3E09372
:101622006401A0918301B0918401E4E6F0E00E949C
:10163200970EEA930E946D00E0936501A0918301E9
:10164200B0918401E4E6F0E00E94970EA4E6B0E0D7
:101652000E948F0EA0918301B0918401AE1BBF0B3B
:10166200EAE0F0E00E94970EEA930E946D00E09398
:101672006601A0918301B0918401EAE0F0E00E944A
:10168200970EAAE0B0E00E948F0EA0918301B09164
:101692008401AE1BBF0BAA930E946D00E093670109
:1016A200E1E0E0936A0109C0E0E2E0936401E093C3
:1016B2006501E0936601E0936701219605C0E0E0D1
:1016C200E093A501E093A601E2E0EC1511F00C9481
:1016D200D60C2197A091A701B091A801A53EECE0FC
:1016E200BE0738F4A7EAB1E0ED91FD913196FE9381
:1016F200EE93A091A701B091A801ECE2F1E00E9463
:10170200970EE883E0E0E0936801E0936901E093DB
:101712006A01E0936B01A881A13049F4E0E2E09311
:101722006401E0936501E0936601E6E4FDC0A881EF
:10173200A23051F4E0E2E0936401E0936501E6E453
:10174200E0936601ECE4F0C0A881A33059F4E0E232
:10175200E0936401E6E4E0936501ECE4E093660162
:10176200EFE6E2C0A881A43051F4E6E4E09364011C
:10177200ECE4E0936501EFE6E0936601D5C0A88151
:10178200A53051F4ECE4E0936401EFE6E0936501E7
:10179200E0936601E2E7C8C0A881A63051F4EFE603
:1017A200E0936401E0936501E2E7E0936601EFE50F
:1017B200BBC0A881A73059F4EFE6E0936401E2E7E9
:1017C200E0936501EFE5E0936601E5E5ADC0A88130
:1017D200A83059F4E2E7E0936401EFE5E093650194
:1017E200E5E5E0936601EDE39FC0A881A930B1F47D
:1017F200EFE5E0936401E5E5E0936501EDE3E09355
:101802006601A7E0B0E00E94AE0EDF01E4E6F0E080
:101812000E94970EEA930E946D0086C0A881AA30AA
:1018220091F5E5E5E0936401EDE3E0936501A7E05E
:10183200B0E00E94AE0EDF01E4E6F0E00E94970EF7
:10184200EA930E946D00E0936601A7E0B0E00E9477
:10185200AE0EBF01DF01E4E6F0E00E94970EA4E6BF
:10186200B0E00E948F0EDB01AE1BBF0BEAE0F0E09E
:101872000E94970EEA930E946D00E0936701E1E0F7
:10188200E0936B0153C0A881AB3011F00C948E0C25
:10189200EDE3E0936401A7E0B0E00E94AE0EDF0149
:1018A200E4E6F0E00E94970EEA930E946D00E09356
:1018B2006501A7E0B0E00E94AE0EBF01DF01E4E6E1
:1018C200F0E00E94970EA4E6B0E00E948F0EDB01CA
:1018D200AE1BBF0BEAE0F0E00E94970EEA930E9473
:1018E2006D00E0936601A7E0B0E00E94AE0EBF017A
:1018F200DF01EAE0F0E00E94970EAAE0B0E00E9469
:101902008F0EDB01AE1BBF0BAA930E946D00E0930A
:101912006701E1E0E0936A0109C0E0E2E09364015B
:10192200E0936501E0936601E0936701A091600195
:10193200A03041F4A0916101A13021F4A091620193
:10194200A03009F010C0E0919901E03059F4A7E00D
:10195200B0E00E94AE0E31960E94BE0E3197E1E0D9
:10196200E093990120C0A0916001A13041F4A091BF
:101972006101A03021F4A0916201A03009F010C0F1
:10198200E0919901E03059F4A7E0B0E00E94AE0E78
:1019920031970E94BE0E3196E1E0E093990103C0B7
:1019A200E0E0E0939901219605C0E0E0E093A70111
:1019B200E093A801E3E0EC1511F00C94330E2197AB
:1019C200A091A901B091AA01AD38EAE0BE0738F4AE
:1019D200A9EAB1E0ED91FD913196FE93EE93A091CB
:1019E200A901B091AA01ECE2F1E00E94970EE8830E
:1019F200E0E0E0936801E0936901E0936A01E0931B
:101A02006B01A881A13049F4E0E2E0936401E09324
:101A12006501E0936601E4E7E4C0A881A23051F4D5
:101A2200E0E2E0936401E0936501E4E7E09366019C
:101A3200EFE6D7C0A881A33059F4E0E2E093640155
:101A4200E4E7E0936501EFE6E0936601E0E5C9C0F3
:101A5200A881A43059F4E4E7E0936401EFE6E0934F
:101A62006501E0E5E0936601EFE5BBC0A881A53022
:101A720059F4EFE6E0936401E0E5E0936501EFE5F8
:101A8200E0936601E5E5ADC0A881A63059F4E0E532
:101A9200E0936401EFE5E0936501E5E5E09366011B
:101AA200EDE39FC0A881A730B1F4EFE5E0936401B4
:101AB200E5E5E0936501EDE3E0936601A5E0B0E0C2
:101AC2000E94AE0EDF01E4E6F0E00E94970EEA9378
:101AD2000E946D0086C0A881A83091F5E5E5E093EB
:101AE2006401EDE3E0936501A5E0B0E00E94AE0E73
:101AF200DF01E4E6F0E00E94970EEA930E946D0097
:101B0200E0936601A5E0B0E00E94AE0EBF01DF01E6
:101B1200E4E6F0E00E94970EA4E6B0E00E948F0E89
:101B2200DB01AE1BBF0BEAE0F0E00E94970EEA93E6
:101B32000E946D00E0936701E1E0E0936B0153C006
:101B4200A881A93011F00C94EB0DEDE3E093640150
:101B5200A5E0B0E00E94AE0EDF01E4E6F0E00E94F4
:101B6200970EEA930E946D00E0936501A5E0B0E054
:101B72000E94AE0EBF01DF01E4E6F0E00E94970E84
:101B8200A4E6B0E00E948F0EDB01AE1BBF0BEAE0C1
:101B9200F0E00E94970EEA930E946D00E0936601C6
:101BA200A5E0B0E00E94AE0EBF01DF01EAE0F0E086
:101BB2000E94970EAAE0B0E00E948F0EDB01AE1BDE
:101BC200BF0BAA930E946D00E0936701E1E0E093EE
:101BD2006A0109C0E0E2E0936401E0936501E093E9
:101BE2006601E0936701A0916001A03041F4A091E9
:101BF2006101A13021F4A0916201A03009F010C06E
:101C0200E0919A01E03059F4A5E0B0E00E94AE0EF6
:101C120031960E94BE0E3197E1E0E0939A0120C016
:101C2200A0916001A13041F4A0916101A03021F4A2
:101C3200A0916201A03009F010C0E0919A01E03059
:101C420059F4A5E0B0E00E94AE0E31970E94BE0E9C
:101C52003196E1E0E0939A0103C0E0E0E0939A015B
:101C6200219605C0E0E0E093A901E093AA0101C03A
:101C7200CC24A0916001A13061F4A0916101A03057
:101C820041F4A0916201A03021F4A0916301A1303E
:101C920009F01BC0E1E0E61591F4ABEAB1E0ED9189
:101CA200FD913196FE93EE933197A091AB01B091E5
:101CB200AC01A838E3E1BE0708F0662405C0E0E005
:101CC200E093AB01E093AC0105C0E0E0E093AB012F
:101CD200E093AC010E94C8000E9415040E94E40037
:101CE20088E097E00197F1F70C94D105FFCFAA277E
:101CF200BB27E991F9910590002011F01196FBCFD5
:101D0200FD010895E991F991309639F080ED97E05F
:101D12000197F1F7A8953197C9F70895FA9FF02D29
:101D2200EB9FF00DEA9FE02DF10D089500241124A0
:101D320090E1AA0FBB1F001C111C0E1A1F0A18F4F7
:101D42000E0E1F1E01C0A1609A9599F7FD01D001E8
:101D52000895ED91FC9111970895119602D0FE2FEE
:101D62001197E199FECFFF93FFB7F894AEBBBFBBCB
:101D7200E09AEDB3FFBFFF91089507D01196EF935C
:101D8200EF2F03D0EF9111970895E19B02C0A89520
:101D9200FCCF9FB7F894AEBBBFBBE09A8DB3E817F8
:101DA20019F0EDBBE29AE19A9FBF089500240A164A
:101DB2000B0608955A934A933A932A931A930A93D5
:101DC20008955D814C813B812A81198108810895A2
:00000001FF
