:100000000428FF3FFF3FFF3F0230031383168500A4
:10001000860118308C0083128501860111308C0016
:100020004720AF209C2013308C0047207B209C2051
:1000300012308C0047207B209C2014308C004720FD
:100040007B209C2017308C0047207B209C20153083
:100050008C0047207B209C2016308C0047207B2082
:100060009C200C308C0047207B209C200A308C0088
:1000700047207B209C200D308C0047207B209C203B
:100080000B308C0047207B209C200E284628013016
:10009000031383120C05C00000304018023006061E
:1000A0000239860600308C180130C100003041183A
:1000B000103006061039860600300C190130C100D8
:1000C00000304118043006060439860600308C19C9
:1000D0000130C10000304118203006062039860664
:1000E00000300C1A0130C1000030411840300606C3
:1000F000403986060800063003138312CC00FF3017
:10010000CB00FF30CA00CC0B86288D28CB0B89286A
:100110008C28CA0B8928862883281A30CB00FF3008
:10012000CA00CB0B94289728CA0B942891284230F8
:10013000CA00CA0B992808000030031383128518DF
:100140000130C1004108013A03199C28003085188C
:100150000130C1004108003A0319A6280800031322
:10016000831286177B2086130800FF3FFF3FFF3F67
:02400E00F93F78
:00000001FF
