:0C0000000C946B000C9400000C940000A9
:10000C000C9400000C9400000C9400000C94000064
:10001C000C9400000C9400000C9400000C94000054
:10002C000C9400000C9400000C9400000C94000044
:10003C000C94AB010C9400000C9400000C94000088
:10004C000C9400000C94AA000C9400000C9400007A
:10005C000C94A9000C9400000C9400000C9400006B
:10006C000C9400000C9400000C9400000C94000004
:10007C000C9400000C9400000C9400000C940000F4
:10008C000C9400000C9400000C9400000C940000E4
:10009C000C9400000C9400000C9400000C940000D4
:1000AC000C9400000C9400000C9400000C940000C4
:1000BC000C9400000C9400000C9400000C940000B4
:1000CC0080C002000706CC000000F894EE27EFBBBE
:1000DC00F1E0F5BFE5BFE0937400E0937500F8E143
:1000EC00A895A4B7A77FA4BFF0936000E09360002D
:1000FC008DE0A2E0BB27ED938A95E9F780E090E2D2
:10010C00A0E0B2E0ED930197E9F7EEECF0E0859119
:10011C009591009761F0A591B59105901590BF014F
:10012C00F00105900D920197E1F7FB01F0CF8BBF29
:10013C008CBFE0E0EEBBEFEFEDBFE1E2EEBFC0E065
:10014C00D6E00C94AC011895AA93EA93FA93EFB706
:10015C00EA93F20131962F01E6E9F0E04E165F06C4
:10016C0010F40C94830144245524E0910006EF5FB5
:10017C00E0930006A0910006AC3018F0E0E0E093AC
:10018C000006E0910006E03029F40E946C020E9407
:10019C00720295C0A0910006A13041F40E94780231
:1001AC000E947202E1E0E093010689C0A091000672
:1001BC00A23061F40E947802E09302060E947C0255
:1001CC00E0930106E1E0E09305067FC0A0910006F4
:1001DC00A33061F40E947802E09302060E9483022D
:1001EC00E0930506E1E0E09306066FC0A0910006DF
:1001FC00A43061F40E947802E0930206E0E0E09300
:10020C0005060E948302E09306065FC0A0910006DB
:10021C00A53049F40E947802E09305060E948302FF
:10022C000E948A0252C0A0910006A63039F40E94A6
:10023C006C020E9490020E948A0247C0A0910006A4
:10024C00A73051F40E9497020E949002E09304069A
:10025C00E1E00E948A0239C0A0910006A83061F446
:10026C000E949702E09305060E947C02E09304062C
:10027C00E1E0E093020629C0A0910006A93041F408
:10028C000E9497020E949B02E1E0E09302061AC0D2
:10029C00A0910006AA3041F40E949702E093020656
:1002AC00E0E00E949B020EC0A0910006AB3069F406
:1002BC000E9497020E947202E1E0E0930406E1E0E2
:1002CC00E0930506E1E0E0930306A0910406A1305B
:1002DC0019F44598449A01C04498A0910506A130A0
:1002EC0019F44398429A01C04298A0910606A13095
:1002FC0019F44198409A01C04098F30131963F019E
:10030C00EAE0F0E06E167F0610F066247724E5E054
:10031C00F0E0E615F70580F0A0910106A13009F494
:10032C00459AA0910206A13009F4439AA0910306C4
:10033C00A13009F4419A03C0459843984198E9913A
:10034C00EFBFF991E991A99118951895E0E0E5B9FD
:10035C00E4B9E8B9EFE3E7B9E0E0EBB9EAB9E3E017
:10036C00E0938000ECE1E0938100E0E0E093850015
:10037C00E0938400E0938700E0938600E09389008B
:10038C00E0938800E0938B00E0938A00E5BFE0E8FF
:10039C00E0BFE4E1EA930E943D027894FFCFFFCFE7
:1003AC00FFE0FA95F1F70895A1B3AF70A1BB919A54
:1003BC009098F6DF929AF4DFA0B39298F1DF929ABC
:1003CC00EFDF9298A7FDF5CF0895A07FAB2BA2BBD2
:1003DC00929A0E94D60192980E94D6010895919803
:1003EC00A1B3A76FA1BBB2B3BF70A881EEDFA88188
:1003FC00A295EBDF919A0C946A02929A0E94D60114
:10040C00E0B392980E94D601E07F08950E94D60135
:10041C00F4DFAE2FF2DF9198E295EA2B08950E945B
:10042C00DA01E2E0EA930E94F5010E94DA01ECE0C5
:10043C00EA930E94F5010E94DA01E1E0EA930E943E
:10044C00F501E0E0E0930C06E0930B060895AA2773
:10045C00BB271197F1F708959198A1B3A76FA1BB92
:10046C00B2B3BF70A8810E94EB01919A2DC09298F3
:10047C009098E881E0930D06E058E0930906E88136
:10048C00E054E0930A065AD059D058D0E0DFE0E2AD
:10049C00EA93E2DFDCDFE8E256D0E4E054D0E5E8B2
:1004AC0052D0A1B3AF70A1BB919A0E940C02E5305F
:1004BC0011F0E0E009C00E94DA01E6E0EA930E9444
:1004CC00F5010E941502E1E021960895E0E0E09329
:1004DC000106E09304060895E0930206E0E0E09341
:1004EC0006060895E0E0E09304060895E0E0E0934A
:1004FC000306E0930606E1E00895E0E0E0930306CE
:10050C00E1E0E09301060895E0930206E1E0E09358
:10051C0006060895E0930506E0E0E0930306E1E0AB
:10052C000895E0E0E09301060895E0930506E0E00D
:10053C00E0930606E1E0E093040608950E942D0284
:10054C00E0E3EA9389CFEA930E94F5010C942D0223
:00000001FF
