:020000000C945E
:10000200DA000C9400000C9400000C9400000C9494
:1000120000000C9400000C9400000C9400000C945E
:1000220000000C9400000C9400000C94AC020C94A0
:1000320000000C9400000C9400000C9400000C943E
:1000420000000C9400000C9400000C9400000C942E
:1000520000004552524F523A004352454154494ED4
:1000620047204D454E5520524F57204641494C4559
:10007200442E002050414752494E44494E49532094
:100082004D454E495500312E4C41494B41533A2082
:1000920030303A303000322E444154413A2032302E
:1000A20031312E31312E313800332E534B414D42F6
:1000B200454A494D414900342E4E555354415459F5
:1000C2004D414900203C002020007C7C003E002065
:1000D2007C2000202020002B002D002A20004C41F3
:1000E200494B41533A2000444154413A00202020D8
:1000F2002000534B414D42454A494D414920202061
:100102002020202020004E5553544154594D41493E
:1001120020202020202020202000312E56454C591E
:100122004B55204C41494B415300322E4B414C45DB
:100132004455204C41494B415300332E45494C49CB
:100142004E4953204C41494B2E004B4F4441533AA8
:100152002000202020204C41494B415320202020C8
:100162002020002020202042414947455349202099
:100172002020200020202020204B4F4441532020CB
:10018200202020200020202054454953494E474139
:1001920053202020200020204E4554454953494EEB
:1001A200474153202020000080C002009102AA0192
:1001B2000000F894EE27ECBBF1E0FBBFEBBFE5BF1C
:1001C200F8E1F1BDE1BD8DE0A2E0BB27ED938A9598
:1001D200E9F780E098E0A0E6ED930197E9F7ECEA11
:1001E200F1E085919591009761F0A591B591059007
:1001F2001590BF01F00105900D920197E1F7FB0107
:10020200F0CFEFE5EDBFE8E0EEBFC0E6D2E00C9440
:10021200F302E881E03011F4E0E32EC0A881A130BE
:1002220011F4E1E329C0A881A23011F4E2E324C071
:10023200A881A33011F4E3E31FC0A881A43011F414
:10024200E4E31AC0A881A53011F4E5E315C0A88142
:10025200A63011F4E6E310C0A881A73011F4E7E359
:100262000BC0A881A83011F4E8E306C0A881A93028
:1002720011F4E9E301C0EDE221960895A881A130CD
:1002820061F0A33051F0A53041F0A73031F0A83031
:1002920021F0AA3011F0AC3011F4EFE12AC0A881AC
:1002A200A43031F0A63021F0A93011F0AB3011F4B6
:1002B200EEE11FC0A881A230D9F42297EB81FC8124
:1002C2000E94E90AE883F983A881B981E4E00E94E7
:1002D200200BE883F983EB81FC81A881B981EA17BD
:1002E200FB0719F4EDE1229604C0ECE1229601C06D
:1002F200E0E0239608950E947809E05DF7400F013F
:100302000E947D090E9482090F010E9489090E94B0
:1003120082090895AA85A13010F40C942B02259726
:10032200E1E0E983E0E0EA83EB83EC83E883EF85B5
:10033200F0E03197A881B0E0AE17BF0754F40E94F5
:100342008E090E9493090E949A09E881EF5FE8836F
:10035200EECFE889E030A1F52597EE85FF85688923
:1003620079890E949A09AB89A13021F4EBE2EA93E0
:100372000E9401090E949F090E94A4090E94A909E2
:1003820020F40E94A4090E94AF09E0E0ED83EC8909
:10039200AD81AE1790F4EA89E03039F00E94B409D9
:1003A20021F4EEE2EA930E9401090E94BF090E9431
:1003B200C409ED81EF5FED83EACFE1E02A964BC0FD
:1003C200A889A13011F00C942A022597EA85FB85B1
:1003D2006C857D850E949A09AB89A13049F4AC8174
:1003E200AA2312F0EBE201C0EDE2EA930E940109B6
:1003F200AC81AA2352F40E948E09AFEFBFEF8FEFB8
:100402009FEF0E94260B0E949A090E94A4090E9453
:10041200A90920F40E94A4090E94AF09E0E0ED833B
:10042200EC89AD81AE1790F4EA89E03039F00E9490
:10043200B40921F4EEE2EA930E9401090E94BF0985
:100442000E94C409ED81EF5FED83EACFE1E02A96D5
:1004520002C02596E0E02C960895E981EA93E981AD
:10046200EA930E94D5080E949A08EEE0EA930E945D
:10047200B508E1E022960895A885A13019F4E6ECCA
:10048200F0E002C0E9ECF0E0FA93EA930E94280956
:10049200AB81A13019F4ECECF0E002C0E9ECF0E041
:1004A200FA93EA930E942809AF81A13019F4EFEC84
:1004B200F0E002C0EAECF0E0FA93EA930E94280925
:1004C200AA81A13019F4E1EDF0E002C0E5EDF0E01F
:1004D200FA93EA930E942809AE81A13019F4E9ED5A
:1004E200F0E002C0EAECF0E0FA93EA930E942809F5
:1004F200A981A13019F4ECECF0E002C0E9ECF0E0E3
:10050200FA93EA930E942809AD81A13019F4EBED28
:10051200F0E002C0EAECF0E0FA93EA930E942809C4
:10052200A881A13019F4ECECF0E002C0E9ECF0E0B3
:10053200FA93EA930E942809AC81A13019F4EDEDF7
:10054200F0E002C0E9ECF0E0FA93EA930E94280995
:10055200E1E029960895AA93BA93EA93FA93EFB742
:10056200EA93A8E7B2E00E94EB09A0917802B09169
:100572007902AF3EE1E0BE07ECF06394E0E0E09385
:100582007802E0937902AAE7B2E00E94EB09A09117
:100592007A02B0917B02A83EE3E0BE075CF0E5E0A0
:1005A200F0E0E0937802F0937902E0E0E0937A02DF
:1005B200E0937B02ACE7B2E00E94EB09A0917C02DF
:1005C200B0917D02549738F0E0E0E0937C02E09332
:1005D2007D02E1E04E2EE991EFBFF991E991B991E7
:1005E200A9911895E0E0EBBBEABBE8BBE7BBE5BB32
:1005F200E4BBE2BBE1BBE3E0E3BFE0E0E2BFECBFB0
:10060200EFBDEEBDEDBDECBDE7BDE6BDEBBDEABDA8
:10061200E9BDE8BDE2BDE5BDE4BDE3BDE5BFE4BFC4
:10062200E1E0E9BFE0E8E8B9E0E0E0BFE4E1EA9355
:100632000E9449097894E1E06E1610F40C94880344
:10064200E0937E026A94EBE35E1610F40C947A0354
:1006520055240E94F109EB3314F40C947503A5E0C0
:10066200B0E0E0E00E94930B0E94F609E731BCF192
:10067200A4E0B0E0E0E00E94930B0E947809FA93B4
:10068200EA930E947D09EA93F9DD0E2E0E94890900
:10069200A02DB0E0F0E0E7FDFFEFEA17FB07D4F092
:1006A200A3E0B0E0E1E00E94930B0E947D09EC30F0
:1006B20064F0A2E0B0E0E1E00E94930B0E947809AE
:1006C20031960E948B0B319704C00E947D090E94D3
:1006D200FB0904C00E9489090E94FB0904C00E9410
:1006E200F6090E94FB0904C00E94F1090E94FB095D
:1006F20001C05394A0917402A13028F0E0917402D9
:10070200E150E0937402E8E77E1608F47394869B46
:100712000FC07724A0918D02A43148F4A0918402E5
:10072200A43128F4E0918402EF5FE09384020FC0C9
:10073200A0918402A43128F0E1E0E0937F024E2EE2
:1007420003C0E0E0E0937F02E0E0E0938402869B56
:1007520002C0859901C00FC0E0E0E0938402E093FB
:100762008502A0918D02A43128F4E0918D02EF5F01
:10077200E0938D021AC0A0E08699A1E0A03029F48E
:10078200A0E08599A1E0A03009F00FC0A0918D02F0
:10079200A43128F0E1E0E09389024E2E03C0E0E0AC
:1007A200E0938902E0E0E0938D02859B0FC07724FD
:1007B200A0918D02A43148F4A0918502A43128F4BD
:1007C200E0918502EF5FE09385020FC0A091850260
:1007D200A43128F0E1E0E09380024E2E03C0E0E075
:1007E200E0938002E0E0E0938502859B02C0849959
:1007F20001C00FC0E0E0E0938502E0938602A09181
:100802008E02A43128F4E0918E02EF5FE0938E0213
:100812001AC0A0E08599A1E0A03029F4A0E0849953
:10082200A1E0A03009F00FC0A0918E02A43128F0FF
:10083200E1E0E0938A024E2E03C0E0E0E0938A02F8
:10084200E0E0E0938E02849B0BC07724A0918602A5
:10085200A43128F4E0918602EF5FE09386020FC094
:10086200A0918602A43128F0E1E0E09381024E2EAD
:1008720003C0E0E0E0938102E0E0E0938602849B23
:1008820002C0839901C00FC0E0E0E0938602E093CA
:100892008702A0918F02A43128F4E0918F02EF5FCA
:1008A200E0938F021AC0A0E08499A1E0A03029F45D
:1008B200A0E08399A1E0A03009F00FC0A0918F02BF
:1008C200A43128F0E1E0E0938B024E2E03C0E0E079
:1008D200E0938B02E0E0E0938F02839B0BC07724CE
:1008E200A0918702A43128F4E0918702EF5FE093A0
:1008F20087020FC0A0918702A43128F0E1E0E093C3
:1009020082024E2E03C0E0E0E0938202E0E0E09338
:100912008702839B02C0829901C00FC0E0E0E0938E
:100922008702E0938802A0919002A43128F4E0911A
:100932009002EF5FE09390021AC0A0E08399A1E0D9
:10094200A03029F4A0E08299A1E0A03009F00FC004
:10095200A0919002A43128F0E1E0E0938C024E2EA7
:1009620003C0E0E0E0938C02E0E0E0939002829B1F
:100972000BC07724A0918802A43128F4E091880268
:10098200EF5FE09388020FC0A0918802A43128F0A3
:10099200E1E0E09383024E2E03C0E0E0E0938302A5
:1009A200E0E0E0938802E0916102E03091F5E091AD
:1009B2006202E03071F5A0918902A13019F4E0E001
:1009C200E0936002A0917F02A13081F4A0916002C5
:1009D200A13044F0E0916002E150E0936002E1E076
:1009E2004E2E03C0EDE0E093600213C0A09180029E
:1009F200A13079F4A0916002AD3044F4E09160023C
:100A0200EF5FE0936002E1E04E2E03C0E0E0E0938E
:100A12006002E1E0E41511F40E94E908E0916D0240
:100A2200E03011F00C94EB06E0916002E03011F03E
:100A32000C947406E1E0E41511F00C94F605E0EE76
:100A4200F0E00E94000A0E94F6090E940C0A0E942D
:100A5200F1090E940C0AE52DF0E00E941E0A0E9494
:100A62002A0AE0916102E03019F4E7ECF0E002C0FA
:100A7200EAECF0E0FA93EA930E942809E9EEF0E04A
:100A82000E94300AE0E0EA93E4E00E94340A0E9405
:100A92007809662777270E94760BE0E0F0E060E0B5
:100AA20070E00E94760B36DCE3E7F0E00E94000A79
:100AB2000E947D09F0E0E7FDFFEF0E941E0AE3E7D6
:100AC200F0E00E94000A0E948909F0E0E7FDFFEFD2
:100AD2000E941E0AEFEEF0E00E94300AA09161022D
:100AE200A13019F4E7ECF0E002C0EAECF0E0FA938E
:100AF200EA930E942809E4EFF0E00E94300AA091F4
:100B02006102A23019F4E7ECF0E002C0EAECF0E096
:100B1200FA93EA930E942809E8E0F1E00E94300A81
:100B2200A0916102A33019F4E7ECF0E002C0EAEC14
:100B3200F0E0FA93EA930E942809E0916102E03022
:100B4200D9F4A0916202A13011F4E8E011C0A091A1
:100B52006202A23011F4E9E00BC0A0916202A3305C
:100B620011F4EBE005C0A0916202A43021F4ECE0A4
:100B7200EA930E94390A39C0A0916102A130A9F515
:100B8200A0916202A13011F4E5E011C0A0916202CD
:100B9200A23011F4E6E00BC0A0916202A33011F47E
:100BA200E7E005C0A0916202A43029F4E8E0EA93EC
:100BB200E1E0EA9352DCA0916202A53011F4EAE08E
:100BC20011C0A0916202A63011F4EBE00BC0A0911B
:100BD2006202A73011F4EDE005C0A0916202A830D4
:100BE20021F4EEE0EA930E94390AE0916202E030D9
:100BF20011F00C944006A0917F02A13039F4A0912B
:100C02006102A13014F00E943D0A0AC0A091800244
:100C1200A13031F4A0916102A33014F40E94430A7E
:100C2200A0918302A13051F5E0916102E03031F4EC
:100C3200E0E00E94490AE1E0E0936202A0916102D1
:100C4200A13041F4E0E0E0936002E1E0E093610270
:100C5200E0936202A0916102A23031F4E1E00E94CD
:100C6200490AE0E0E0936202A0916102A33031F40C
:100C7200E2E00E94490AE0E0E093620233C0A09100
:100C82006102A130B1F4A0917F02A13039F4A091A8
:100C92006102A13014F00E943D0A0AC0A0918002B4
:100CA200A13031F4A0916102A43014F40E94430AED
:100CB20019C0A0916102A230A9F4A0917F02A130D3
:100CC20039F4A0916102A13014F00E943D0A0AC0D9
:100CD200A0918002A13031F4A0916102A83014F4F5
:100CE2000E94430A76C0A0916002A13011F00C94D8
:100CF200EA06E1E0E41599F5ECE1F1E00E94300A40
:100D0200E0916102E03019F4E7ECF0E002C0EAECB5
:100D1200F0E0FA93EA930E942809ECE2F1E00E94E3
:100D2200300AA0916102A13019F4E7ECF0E002C0B0
:100D3200EAECF0E0FA93EA930E942809ECE3F1E08E
:100D42000E94300AA0916102A23019F4E7ECF0E0AF
:100D520002C0EAECF0E0FA93EA930E942809E091DB
:100D62006202E030B1F5A0917F02A13039F4A09186
:100D72006102A13014F00E943D0A0AC0A0918002D3
:100D8200A13031F4A0916102A23014F40E94430A0E
:100D9200A0918302A130E9F4E0916102E03029F4EC
:100DA200E1E0E09360020E944F0AA0916102A1304B
:100DB20031F4E1E0E0936002E2E00E944F0AA09188
:100DC2006102A23031F4E1E0E0936002E3E00E94CC
:100DD2004F0A9CC1E1E0E41511F00C9453072297ED
:100DE200ECE4F1E00E94300A0E94550AE883F9839C
:100DF200E0917702E03029F40E945A0AEA9309DA74
:100E020001C0EAE2EA930E9401090E945A0AA8EE8E
:100E1200B3E00E94610AA13029F40E946C0AEA93AD
:100E2200F8D901C0EAE2EA930E9401090E946C0A21
:100E3200A4E6B0E00E94610AA23029F40E94730A7B
:100E4200EA93E7D901C0EAE2EA930E9401090E940B
:100E5200730AAAE0B0E00E94610AA33021F4E8819B
:100E6200EA93D7D901C0EAE2EA930E9401090E94FB
:100E72002A0AE0917402F0E0E883F9830E94730A7F
:100E82000E947A0A0E94730AAAE0B0E00E94F80A5D
:100E9200A881B981AE1BBF0BA883B983E8810E94E8
:100EA2007A0A2296E0917702E030D1F5E1E0E4158A
:100EB20061F40E94800AEA93E1E00E94340A0E94EF
:100EC200860AE7E0EA930E94390AA0918002A130E3
:100ED20029F4E0917702EF5FE0937702A09181021B
:100EE200A13069F40E948B0AA832E3E2BE0730F413
:100EF2000E94550AE851FC4F0E94900A10C0A0912E
:100F02008202A13061F40E948B0AA83EE3E0BE0790
:100F120030F00E94550AE85EF3400E94900AB9C080
:100F2200A0917702A130F1F5E1E0E41541F40E94CD
:100F3200950A0E94860AE8E0EA930E94390AA09183
:100F42007F02A13021F4E0917702E15007C0A09125
:100F52008002A13029F4E0917702EF5FE0937702FB
:100F6200A0918102A13069F40E948B0AAC3AE6E2B8
:100F7200BE0730F40E94550AEC59FF4F0E94900AB6
:100F820010C0A0918202A13061F40E948B0AA436A3
:100F9200E0E0BE0730F00E94550AE456F0400E949D
:100FA200900A77C0A0917702A230D9F5E1E0E4156A
:100FB20041F40E94950A0E94860AE9E0EA930E949F
:100FC200390AA0917F02A13029F4E0917702E15021
:100FD200E0937702A0918002A13029F4E091770298
:100FE200EF5FE0937702A0918102A13061F40E9449
:100FF2008B0AA630E7E2BE0728F40E94550A3A9609
:101002000E94900A0DC0A0918202A13049F40E9470
:101012008B0A1A9728F00E94550A3A970E94900A62
:1010220038C0A0917702A330A1F5E1E0E41559F4AC
:10103200EA930E94800A0E94340A0E94860AEAE029
:10104200EA930E94390AA0917F02A13029F4E0912B
:101052007702E150E0937702A0918102A13061F41E
:101062000E948B0AAF30E7E2BE0728F40E94550ABD
:1010720031960E94900A0DC0A0918202A13049F4DB
:101082000E948B0A119728F00E94550A31970E94FC
:10109200900AE0917402E03081F40E949B0A0E945F
:1010A200A80A0E94E908E4E5F1E00E94300AE5E6B8
:1010B200F1E00E94300A0E94BA0AA0918302A13094
:1010C20029F519D90E948B0AEA17FB0789F4E091E6
:1010D2006E02E0936002E0916F02E0936102E091A0
:1010E2007002E09362020E94C00AE7E8F1E006C0E3
:1010F2000E949B0A0E94C00AE8E9F1E0FA93EA938F
:101102000E9428090E94BA0A0E94A80AE1E0E41596
:1011120009F44424E0E0E0937E02E1E0F0E0FA9397
:10112200EA930E94D00A87CAFFCFFFE0FA95F1F74F
:101132000895A4B3AF70A4BBA99AA898F6DFAA9A9F
:10114200F4DFA3B3AA98F1DFAA9AEFDFAA98A7FD6A
:10115200F5CF0895A07FAB2BA5BBAA9A0E94960853
:10116200AA980E9496080895A998A4B3A76FA4BB51
:10117200B5B3BF70A881EEDFA881A295EBDFA99A73
:101182000C947609AA9A0E949608E3B3AA980E9440
:101192009608E07F08950E949608F4DFAE2FF2DFF2
:1011A200A998E295EA2B08950E949A08E881F0E056
:1011B200EF56FD4FE081A981EA0FEA930E94B5083C
:1011C200E981E0939502E881E093960222960895E0
:1011D2000E949A08E2E0EA930E94B5080E949A08E7
:1011E200ECE0EA930E94B5080E949A08E1E0EA93D3
:1011F2000E94B508E0E0E0939602E093950208951C
:10120200EF93FF93A8816894AA3039F0E894E091B3
:101212009702A0919502AE1760F0E0919602EF5FFF
:10122200E0939602E0E0EA93E0919602EA93BCDF53
:1012320056F0E0919502EF5FE09395027ADFA89A6B
:10124200A881AA9391DFFF91EF910C9476091A93EA
:10125200E981FA813196E983FA833197E4911E2F6D
:10126200E03019F01A93CCDFF3CF1881239608955A
:10127200AA27BB271197F1F70895A998A4B3A76FDE
:10128200A4BBB5B3BF70A8810E94AB08A99A2DC0B8
:10129200AA98A898E881E0939702E058E093930215
:1012A200E881E054E09394026FD16ED16DD1E0DF1A
:1012B200E0E2EA93E2DFDCDFE8E26CD1E4E06AD16B
:1012C200E5E868D1A4B3AF70A4BBA99A0E94CC0888
:1012D200E53011F0E0E009C00E949A08E6E0EA93E6
:1012E2000E94B5080E94E908E1E021960895A0E075
:1012F200B0E00E947B0B0895A2E0B0E00E947F0B59
:101302000895F0E0E7FDFFEFD0010E94F80A08958A
:10131200A3E0B0E00E947F0B0895E981FA816B811E
:101322007C810895AAE0B0E080E090E00E94000B8A
:101332000895E983FA836B837C830895A981BA8136
:101342008B819C810895EE81FF8168857985EACF42
:10135200DF01CB01E2DF0E94A40B0895E150F040CF
:1013620060407040E6CFAC89BB27EA89F0E0AE1B53
:10137200BF0BED81F0E0EA17FB070895EE81FF81D4
:10138200688579850895DADF0E943E0BE883EA9347
:101392000E940A01EA930E940109A881BB27EEDF9D
:1013A2000E94F30A0E94000BC9DF0E94DC0AA98393
:1013B200BA838B839C83AE81BF8188859985EAE05D
:1013C200F0E060E070E00E943E0BEE83FF836887EE
:1013D20079870895ED91FD913196FE93EE930895EC
:1013E200A5E0B0E00E947F0B0895A4E0B0E00E9467
:1013F2007F0B0895EF5F0E94930BE1500895FA93DB
:10140200EA930E942809E0E0EA93E2E0EA93E0E04E
:10141200EA93EA930895F0E0E7FDFFEF0E94EE0AF7
:101422000E94760BE0E0F0E060E070E00E94760B54
:101432000E948B01E9E5F0E0E2CF0E94EE0A0E94F1
:10144200760BE0E0F0E060E070E00E94760B0C9436
:101452008B01E5EDF0E0FA93EA930C942809FA93F4
:10146200EA930C942809EA93E0E0EA93EA93089558
:10147200E0E0EA930C942E02E0916102E150E093E5
:1014820061020895E0916102EF5FE09361020895C5
:10149200E0936002E0E0E09361020895E09361026C
:1014A200E0E0E09362020895E0917502F091760225
:1014B2000895A881B981E8EEF3E00E942B0B08950C
:1014C2000E94F80AA881B981AE1BBF0BA883B98319
:1014D200A09177020895A881B981E4E6F0E00E9424
:1014E2002B0B0895A881B981EAE0F0E00E942B0B52
:1014F2000895EA930E940A01EA930C940109E0E03C
:10150200EA93E1E0EA93EA930895E0E0EA93EA934A
:101512000C943D02A0917502B09176020895E09379
:101522007502F09376020895E1E0EA93EA93EA9372
:10153200EA9399CFE0917102E0936002E091720226
:10154200E0936102E0917302E09362020895E0E0A9
:10155200E0936D02E0937502E0937602E0937702E6
:10156200E0937402E0936E02E0936F02E0937002E4
:101572000895E8EEF3E0FA93EA930C94D00A0E94FD
:10158200E908E6E7F1E06BCF0E943909E0E3EA936C
:101592000C943E09EA930E94B5080C943909E9912A
:1015A200F991309639F088EE93E00197F1F7A8951A
:1015B2003197C9F70895AE1BBF0B860B970B0895A1
:1015C200F09560957095E195FF4F6F4F7F4F0895AD
:1015D200F695E795F695E79508956F2F660F660BDA
:1015E200762F08958B2F880F880B982F0895FA9FD6
:1015F200F02DEB9FF00DEA9FE02DF10D08957A9FFB
:10160200702D6B9F700DF89F700DE99F700D6A9F92
:10161200602D710DFB9F600D711DE89F600D711DA6
:101622008827FA9FF02D610D781FEB9FF00D611D49
:10163200781FEA9FE02DF10D681F781F08956E2F25
:101642006A9FF0016B9FF00D08953CD0D8DF0EF435
:10165200B7DF08950024112490E1AA0FBB1F001CDC
:10166200111C0E1A1F0A18F40E0E1F1E01C0A160D3
:101672009A9599F7FD01D00108953F934F935F9397
:10168200002411244427552730E2AA0FBB1F881FCC
:10169200991F001C111C441F551F0E1A1F0A460BCE
:1016A200570B28F40E0E1F1E461F571F01C0A160C4
:1016B2003A9559F7FD01BC01D001CA015F914F91E2
:1016C2003F910895E89477FF02C07ADF689497FF0C
:1016D2000BC00024A095B095809590951196801D21
:1016E200901D00F8039400FA08957A936A93FA938E
:1016F200EA930895119602D0FE2F1197E199FECF39
:10170200FF93FFB7F894AEBBBFBBE09AEDB3FFBF48
:10171200FF91089507D01196EF93EF2F03D0EF9129
:1017220011970895E19B02C0A895FCCF9FB7F8944A
:10173200AEBBBFBBE09A8DB3E81719F0EDBBE29ADE
:10174200E19A9FBF0895AE17BF07860797070895CE
:00000001FF
