:020000005D2879
:0C000600831214088A001308820008000E
:1000120083120313C801C9011030CC00410DC80D71
:10002200C90D4408C8024508031C450FC90203183C
:1000320021284408C80745080318450FC9070310BB
:0A004200C00DC10DCC0B0F28080003
:10004C0083120313CB01CA01C9018030C800C10C53
:10005C00C00C031C3A284408C90745080318450F6F
:10006C00CA070318CB0A0310C01F42284408CA074A
:10007C0045080318450FCB07CB0CCA0CC90CC80C90
:10008C00031C2D284B08C3004A08C2004908C100B4
:06009C004808C000080046
:1000A20003208A110A128000840A930A0319940A0F
:0800B200C003031D51280800E2
:1000BA00013083168500143086008312850186017B
:1000CA00960195018D018E018C01910192018F019A
:1000DA0090019F01A0019D019E01A301A401A1011C
:1000EA00A20199019A01970198010B301E02031D82
:1000FA008028B8301D02031885289D0A03199E0A14
:10010A00061EBD280C08003A031DAF2800301C0645
:10011A00031D912800301B06031DA7282008003C58
:10012A00031D99281F08003C0318A7281008003C43
:10013A00031DA1280F08003C0318A7280F089700E1
:10014A00100898009B019C011D089F001E08A00032
:10015A009D019E0101308C0001301202031DB72857
:10016A00F43011020318BC28910A0319920ACC2808
:10017A001208003C031DC3281108003C0318CB28B1
:10018A0011088F0012089000910192018C01003031
:10019A001C06031DD22800301B06031D0229200855
:1001AA00003C031DDA281F08003C03180229100826
:1001BA00003C031DE2280F08003C031802291230F4
:1001CA00C4000030C5001F08C0002008C100092073
:1001DA000D08C4000E08C500262041081E02031D92
:1001EA00F82840081D02031C02290F08970010086E
:1001FA00980001309B0000309C001808003C031D49
:10020A0008291708003C031810298617013097029D
:10021A00031C980311298613051C25291608003A80
:10022A00031D24290130960000300E02031D1F29E8
:10023A0011300D02031824298D0A03198E0A262962
:10024A009601061D3B291508003A031D3A2901307B
:10025A0095000E08003C031D34290D08003C0318C4
:10026A003A2901308D02031C8E033C299501003086
:10027A000E02031D422902300D0203184A290617ED
:10028A008610851105118510B92900300E02031D4B
:10029A00502904300D0203185829061786148511AF
:1002AA0005118510B92900300E02031D5E2906309A
:1002BA000D02031866290613861485110511851087
:1002CA00B92900300E02031D6C2908300D020318EB
:1002DA00742906138614851505118510B92900306D
:1002EA000E02031D7A290A300D0203188229061309
:1002FA008610851505118510B92900300E02031DD7
:10030A0088290C300D0203189029061386108515CA
:10031A0005158510B92900300E02031D96290E30E5
:10032A000D0203189E2906138610851105158510DE
:10033A00B92900300E02031DA42910300D0203183A
:10034A00AC2906138610851105158514B9290030C4
:10035A000E02031DB22912300D020318B929061321
:10036A0086108511051185140230CC006F30CD003E
:0C037A00CD0BBD29CC0BBD297A28C2296F
:02400E00FA3F77
:00000001FF
