:060000000C94E0000C94DA
:1000060000000C9400000C9400000C94F5010C9474
:1000160000000C9400000C94F4010C94F3010C9471
:10002600F2010C9400000C9400000C9400000C9457
:1000360000000C9400000C9400000C9400000C943A
:1000460000000C9400000C9400000C940000001AB0
:10005600354E677F95AABDCEDCE8F2F9FDFFFDF9C6
:10006600F2E8DCCEBDAA957F674E351A0000000087
:10007600000000000000000000000000000000007A
:10008600001A354E677F95AABDCEDCE8F2F9FDFF72
:10009600FDF9F2E8DCCEBDAA957F674E351ADCCEB7
:1000A600BDAA957F674E351A0000000000000000CB
:1000B600000000000000000000000000000000003A
:1000C600000000000000001A354E677F95AABDCEDD
:1000D600DCE8F2F9FDFFFDF9F2E82B3E002D2D3E9E
:1000E600002D2B003C2B003C2D2D002B2D0020201D
:1000F600546F70456E6572676120494742542020EF
:100106000020202020205445535445524953202096
:10011600202020002D3D3D3D53494D554C4941433E
:10012600494A413D3D3D2D200050574D3A002F3262
:10013600353520207C204F4E20207C0044415A4EED
:1001460049533A0020487A202D2D2D2D2D00535449
:10015600455055502050574D3A20002F3235350026
:1001660050574D3A3030302F32353520207C204FD5
:100176004646207C0044415A4E49533A303030209E
:10018600487A202D2D2D2D2D2000535445505550A5
:100196002050574D3A203030302F3235350080C050
:1001A6001E006001540032009C0172003C00D80120
:1001B600A4000200D102A4010000F894EE27ECBBD3
:1001C600F1E0FBBFEBBFE5BFF8E1F1BDE1BD8DE0BE
:1001D600A2E0BB27ED938A95E9F780E094E0A0E6DC
:1001E600ED930197E9F7E6EAF1E08591959100979D
:1001F60061F0A591B59105901590BF01F0010590AC
:100206000D920197E1F7FB01F0CFEFE5EDBFE4E0DA
:10021600EEBFC0E6D1E00C94C302E881E03019F4E9
:10022600E0E30C949205A881A13019F4E1E30C9463
:100236009205A881A23019F4E2E30C949205A881F4
:10024600A33019F4E3E30C949205A881A43019F4C1
:10025600E4E30C949205A881A53019F4E5E30C9427
:100266009205A881A63019F4E6E30C949205A881BC
:10027600A73019F4E7E30C949205A881A83019F485
:10028600E8E30C949205A881A93019F4E9E30C94EB
:100296009205EDE20C949205AA85A13010F40C9417
:1002A600EF012597E1E0E983E0E0EA83EB83EC8365
:1002B600E883EF85F0E03197A881B0E0AE17BF077D
:1002C60054F40E9494050E9499050E94A005E881B5
:1002D600EF5FE883EECFE889E030A1F52597EE855C
:1002E600FF85688979890E94A005AB89A13021F430
:1002F600EBE2EA930E941D050E94A5050E94AA054D
:100306000E94AF0520F40E94AA050E94B505E0E010
:10031600ED83EC89AD81AE1790F4EA89E03039F0CF
:100326000E94BA0521F4EEE2EA930E941D050E949E
:10033600C5050E94CA05ED81EF5FED83EACFE1E0D6
:100346002A964BC0A889A13011F00C94EE0125978E
:10035600EA85FB856C857D850E94A005AB89A13069
:1003660049F4AC81AA2312F0EBE201C0EDE2EA9374
:100376000E941D05AC81AA2352F40E949405AFEF9A
:10038600BFEF8FEF9FEF0E94AF060E94A0050E946D
:10039600AA050E94AF0520F40E94AA050E94B50591
:1003A600E0E0ED83EC89AD81AE1790F4EA89E030A8
:1003B60039F00E94BA0521F4EEE2EA930E941D0587
:1003C6000E94C5050E94CA05ED81EF5FED83EACF65
:1003D600E1E02A9602C02596E0E02C96089518954D
:1003E60018951895AA93BA93EA93FA93EFB7EA93F6
:1003F600F50131965F01E1E2F6E0EA15FB05E9F465
:10040600AA24BB24E1E08E2EF60131966F01EAE0C4
:10041600F0E0CE16DF068CF0E1E08E2EE0911902B8
:10042600F0911A02E0931702F0931802CC24DD240F
:10043600E0E0E0931902E0931A026394691410F461
:100446000C94AF026624E1E0E71511F00C94AD02BE
:100456004394ECE34E1648F04424A9E1B2E0ED9152
:10046600FD913196FE93EE933197E1E0E51511F09B
:100476000C94AA020E94F105E05AFE4FA081A13019
:1004860020F09098E0E0E09314020E94F105E55E0A
:10049600FD4FE081ECBF0E94F105E05AFE4FE0817E
:1004A600E03049F4A0911402A13011F4909A03C0EF
:1004B600E1E0E09314020E94F105E456FE4FA081AC
:1004C600A13020F09198E0E0E0931502A7E5B2E0B4
:1004D600EE27A40DBE1FEC91F0E0FBBDEABD0E9425
:1004E600F105E456FE4FE081E03049F4A091150293
:1004F600A13011F4919A03C0E1E0E09315020E9445
:10050600F105E852FE4FA081A13020F09298E0E07C
:10051600E0931602A3E9B2E0EE27A40DBE1FEC910C
:10052600E3BD0E94F105E852FE4FE081E03049F458
:10053600A0911602A13011F4929A03C0E1E0E09373
:100546001602E091CF02F0E0F9BDE8BD02C00E94BC
:10055600F40502C00E94F405E991EFBFF991E99113
:10056600B991A9911895E881E066E7B98BE18A957A
:10057600F1F7369A349BFECF349AE5B10C94920586
:10058600E0E0EBBBEABBE8BBE8E0E7BBE0E0E5BBED
:10059600E4BBE2BBE7EFE1BBE1E6E3BFE0E0E2BFDD
:1005A600ECBFE1EAEFBDE1E0EEBDE0E0EDBDECBDA4
:1005B600E7BDE6BDEBBDEABDE9BDE8BDE2BDE1E6EE
:1005C600E5BDE0E0E4BDE3BDE5BFE4BFE5E4E9BFCA
:1005D600E0E8E8B9E0E0E0BFE0E6E7B9E7E8E6B979
:1005E6007894E4E1EA930E946505A091D002AC32CA
:1005F60010F00C94D4030E940505E091D002E0307F
:1006060051F40E9401060E9407060E940E060E94EF
:100616001306EEE5A4C0A091D002A13059F4E0E0A3
:10062600EA930E940E060E941306E0EEF0E00E9496
:10063600170698C0A091D002A23010F0A43108F09D
:100646000CC0E091D002F0E03297EA930E941306C4
:10065600E3EEF0E00E94170685C0A091D002A43117
:1006660061F4E2E1EA930E941306E7EEF0E00E94ED
:1006760017060E941B06E6E772C0A091D002A531BC
:1006860071F4E3E1EA930E9413060E9421060E9498
:100696001B060E9421060E942506E6E760C0A0917F
:1006A600D002A63169F40E941B060E9421060E9410
:1006B60025060E942106E3E10E942B06E6E74FC0CD
:1006C600A091D002A73161F40E9425060E9421065E
:1006D600E2E10E942B06EAEEF0E00E94170642C015
:1006E600A091D002A83110F0AA3208F00FC0E09114
:1006F600D002F0E0A1E1B0E00E943006E85E0E9480
:100706002B06EDEEF0E00E9417062CC0A091D00259
:10071600AA3271F40E940106EEE5EA930E941D05D5
:10072600E0E00E942B06E1EFF0E00E9417061AC0F7
:10073600A091D002AB32B1F4E0E0EA93E1E0EA93B3
:100746000E94F104EEE5EA930E941D050E9401064F
:100756000E940706E3E0EA930E94F104EFE2EA93BF
:100766000E941D05E1E0EA93EA930E94F104E4EF9A
:10077600F0E00E941706E1E0EA93E2E0EA930E94C5
:10078600F104E7E0F1E00E941706E8E2F0E0FA93F0
:10079600EA930E946806E091D002EF5FE093D002F0
:1007A60024CF0E940505E1E07E2E5E2EE1E0E815ED
:1007B60011F00C94B004229788240E9405050E942B
:1007C60035060E94F104EAE1F1E00E941706E1E035
:1007D600E515B9F5EFE2F1E00E9417060E94390629
:1007E600E1E00E943E06E4E3F1E00E9417060E9463
:1007F6000106E2E4F1E00E9417060E943906E09144
:100806001702F09118020E9485060E941207E0E086
:10081600F0E060E070E00E9412073EDDEAE4F1E0FD
:100826000E941706E0E00E942B06E4E5F1E00E9434
:1008360017060E943906E2E00E943E06E1E6F1E074
:100846000AC0E6E6F1E00E941706EBE7F1E00E9437
:100856001706E0E9F1E0FA93EA930E944405E1E025
:100866000E944E060E941707EA1BE883E0E00E94FA
:100876004E060E9430063196DF01E8E0F0E00E9465
:10088600C7069E2EE2E0EA936EDEE093CF02E0E03A
:10089600E983A981AC3310F00C94AF040E9455068D
:1008A600E05AFE4FE081A881AE1770F40E9455060B
:1008B600DF01E55EFD4FBF01FD01E05AFE4F0E94DC
:1008C6005806DB01EC9306C00E945506E55EFD4F17
:1008D600A0E0A0830E945506E456FE4FE081A88161
:1008E600AE1778F4A7E5B2E00E945506EA0FFB1FA3
:1008F600BF010E945506E456FE4F0E945806DB01D2
:1009060007C0A7E5B2E00E945506AE0FBF1FE0E0A4
:10091600EC930E945506E852FE4FE081A881AE177F
:1009260078F4A3E9B2E00E945506EA0FFB1FBF0167
:100936000E945506E852FE4F0E945806DB0107C08A
:10094600A3E9B2E00E945506AE0FBF1FE0E0EC93AC
:10095600E981EF5FE9839DCF229628CFFFCFFFE0A5
:10096600FA95F1F70895A4B3AF70A4BBA99AA89815
:10097600F6DFAA9AF4DFA3B3AA98F1DFAA9AEFDF0B
:10098600AA98A7FDF5CF0895A07FAB2BA5BBAA9A81
:100996000E94B204AA980E94B2040895A998A4B32A
:1009A600A76FA4BBB5B3BF70A881EEDFA881A295DF
:1009B600EBDFA99A0C949205AA9A0E94B204E3B3BB
:1009C600AA980E94B204E07F08950E94B204F4DF60
:1009D600AE2FF2DFA998E295EA2B08950E94B6049D
:1009E600E881F0E0EF52FD4FE081A981EA0FEA933A
:1009F6000E94D104E981E093D502E881E093D60212
:100A0600229608950E94B604E2E0EA930E94D10479
:100A16000E94B604ECE0EA930E94D1040E94B60458
:100A2600E1E0EA930E94D104E0E0E093D602E0938D
:100A3600D5020895EF93FF93A8816894AA3039F000
:100A4600E894E091D702A091D502AE1760F0E0914C
:100A5600D602EF5FE093D602E0E0EA93E091D60299
:100A6600EA93BCDF56F0E091D502EF5FE093D50242
:100A76007ADFA89AA881AA9391DFFF91EF910C944F
:100A860092051A93E981FA813196E983FA833197BF
:100A9600E4911E2FE03019F01A93CCDFF3CF1881C2
:100AA60023960895AA27BB271197F1F70895A998C9
:100AB600A4B3A76FA4BBB5B3BF70A8810E94C70437
:100AC600A99A2DC0AA98A898E881E093D702E05881
:100AD600E093D302E881E054E093D402EBD0EAD06D
:100AE600E9D0E0DFE0E2EA93E2DFDCDFE8E2E8D04B
:100AF600E4E0E6D0E5E8E4D0A4B3AF70A4BBA99ADD
:100B06000E94E804E53011F0E0E009C00E94B60456
:100B1600E6E0EA930E94D1040E940505E1E02196F1
:100B26000895E981FA816B817C810895AAE0B0E09D
:100B360080E090E00E948F060895E983FA836B8334
:100B46007C830895A981BA818B819C810895EE8169
:100B5600FF8168857985EACFDF01CB01E2DF0E945C
:100B66001E070895E150F04060407040E6CFAC8922
:100B7600BB27EA89F0E0AE1BBF0BED81F0E0EA1778
:100B8600FB070895EE81FF81688579850895DADF90
:100B96000E94CC06E883EA930E941001EA930E9421
:100BA6001D05A881BB27EEDF0E948A060E948F06DC
:100BB600C9DF0E947406A983BA838B839C83AE81A6
:100BC600BF8188859985EAE0F0E060E070E00E94E8
:100BD600CC06EE83FF83688779870895E42DF0E0DD
:100BE6000895909891989298E0E0ECBFE0E0F0E0EC
:100BF600FBBDEABDF9BDE8BDE3BD0895E0E0EA93BB
:100C0600E2E0EA930C94F104EFE2EA930E941D05F8
:100C1600E0E0EA930895E1E0EA930E94F104F4CF5C
:100C2600E0E0EA930C94F104FA93EA930C944405F9
:100C3600E3E1EA93E1E0EA930C94F104EFE2EA934C
:100C46000C941D05E3E1EA93E2E0EA930C94F104C7
:100C5600EA93E3E0EA930C94F1040E941707EA1B77
:100C6600FB0B0895E0E0EA93EA930895E0E0EA9347
:100C7600E3E0EA93F7CFEA930E94B602FF276627DE
:100C860077270E941207E0E0F0E060E070E00E9443
:100C960012070C944F01EA930E94B602F0E0AFEF00
:100CA600B0E00895E981F0E00895A081B0E0E88120
:100CB600F0E0D3CF0E945505E0E3EA930C945A0581
:100CC600EA930E94D1040C945505E991F991309666
:100CD60039F080ED97E00197F1F7A8953197C9F7BC
:100CE6000895AE1BBF0B860B970B0895F195E19502
:100CF600F0400895F09560957095E195FF4F6F4F20
:100D06007F4F08956F2F660F660B762F08958B2FF2
:100D1600880F880B982F08957A9F702D6B9F700D02
:100D2600F89F700DE99F700D6A9F602D710DFB9FF6
:100D3600600D711DE89F600D711D8827FA9FF02DCB
:100D4600610D781FEB9FF00D611D781FEA9FE02D66
:100D5600F10D681F781F08954FD0DEDF0EF4CADF4D
:100D660008950024112490E1AA0FBB1F001C111C3A
:100D76000E1A1F0A18F40E0E1F1E01C0A1609A95C6
:100D860099F7FD01D001089529D0EBDF0EF4AEDF0F
:100D960008953F934F935F930024112444275527CA
:100DA60030E2AA0FBB1F881F991F001C111C441F8D
:100DB600551F0E1A1F0A460B570B28F40E0E1F1E40
:100DC600461F571F01C0A1603A9559F7FD01BC01A6
:100DD600D001CA015F914F913F910895E894F7FFC2
:100DE60002C084DF6894B7FF06C0A095B09511963F
:100DF60000F8039400FA0895E89477FF02C07ADFBA
:100E0600689497FF0BC00024A095B09580959095A7
:100E16001196801D901D00F8039400FA08957A93A8
:100E26006A93FA93EA9308951B2EBF2FF12D1A2E7B
:100E3600AE2FE12D0895AE17BF07860797070895D1
:00000001FF
