:0E0000000C942A000C9400000C9400000C9448
:10000E0000000C9400000C9400000C9400000C9462
:10001E0000000C9400000C9400000C9400000C9452
:10002E0000000C9400000C9400000C9400000C9442
:10003E0000000C9400000C9400000C9400000C9432
:10004E0000000C940000F894EE27ECBBF1E0FBBF2F
:10005E00EBBFE5BFF8E1F1BDE1BD8DE0A2E0BB274E
:10006E00ED938A95E9F780E098E0A0E6ED9301978D
:10007E00E9F7EFE5EDBFE8E0EEBFC0E6D2E00C94A5
:10008E004800E0E0EBBBE8E9EABBE0E0E8BBEFEFFD
:10009E00E7BBE0E0E5BBEEEFE4BBE0E0E2BBEFEF99
:1000AE00E1BBE0E0E3BFE2BFECBFEFBDEEBDEDBDF7
:1000BE00ECBDE7BDE6BDEBBDEABDE9BDE8BDE2BD09
:1000CE00E5BDE4BDE3BDE5BFE4BFE9BFE8B9E0BF10
:1000DE00A0E0B0E00E947417A1E0B0E0E8E00E945A
:1000EE007417A2E0B0E0E0E00E947417A3E0B0E065
:1000FE000E947417A4E0B0E00E947417A5E0B0E06F
:10010E00E8E00E947417A6E0B0E0E4E00E947417E5
:10011E00A7E0B0E0E5E00E947417A8E0B0E0E0E0F0
:10012E000E947417A9E0B0E0E8E00E947417AAE0FC
:10013E00B0E0E5E00E947417ABE0B0E00E947417E7
:10014E00ACE0B0E0E0E00E947417ADE0B0E0E9E0B2
:10015E000E947417AEE0B0E0E4E00E947417AFE0C6
:10016E00B0E0E0E00E947417A0E1B0E0E1E00E9490
:10017E007417A1E1B0E0E0E00E947417A2E1B0E0D4
:10018E000E947417A3E1B0E00E947417A4E1B0E0DE
:10019E00E1E00E947417A5E1B0E0E0E00E94741760
:1001AE00A6E1B0E0E4E00E947417A7E1B0E0E5E05C
:1001BE000E947417A8E1B0E0E1E00E947417A9E173
:1001CE00B0E00E947417AAE1B0E00E947417ABE190
:1001DE00B0E0E5E00E947417ACE1B0E0E1E00E940F
:1001EE007417ADE1B0E0E2E00E947417AEE1B0E04A
:1001FE00E0E00E947417AFE1B0E00E947417A0E235
:10020E00B0E0E1E00E947417A1E2B0E0E2E00E94EB
:10021E007417A2E2B0E0E1E00E947417A3E2B0E02E
:10022E00E0E00E947417A4E2B0E0E1E00E947417CF
:10023E00A5E2B0E0E2E00E947417A6E2B0E0E5E0CD
:10024E000E947417A7E2B0E00E947417A8E2B0E013
:10025E00E1E00E947417A9E2B0E0E3E00E94741797
:10026E00AAE2B0E0E0E00E947417ABE2B0E0E5E095
:10027E000E947417ACE2B0E0E1E00E947417ADE2A8
:10028E00B0E0E3E00E947417AEE2B0E0E5E00E9459
:10029E007417AFE2B0E0E0E00E947417A0E3B0E0A4
:1002AE00E1E00E947417A1E3B0E0E4E00E9474174D
:1002BE00A2E3B0E0E0E00E947417A3E3B0E00E9476
:1002CE007417A4E3B0E0E1E00E947417A5E3B0E078
:1002DE00E4E00E947417A6E3B0E00E947417A7E34F
:1002EE00B0E0E5E00E947417A8E3B0E0E1E00E9400
:1002FE007417A9E3B0E0E4E00E947417AAE3B0E03B
:10030E00E5E00E947417ABE3B0E0E0E00E947417E2
:10031E00ACE3B0E0E1E00E947417ADE3B0E0E5E0DD
:10032E000E947417AEE3B0E0E3E00E947417AFE3EF
:10033E00B0E0E5E00E947417A0E4B0E0E1E00E94B6
:10034E007417A1E4B0E0E5E00E947417A2E4B0E0F7
:10035E00E4E00E947417A3E4B0E0E0E00E9474179A
:10036E00A4E4B0E0E1E00E947417A5E4B0E0E6E09A
:10037E000E947417A6E4B0E0E2E00E947417A7E4AE
:10038E00B0E0E5E00E947417A8E4B0E0E1E00E945E
:10039E007417A9E4B0E0E5E00E947417AAE4B0E097
:1003AE00E4E00E947417ABE4B0E0E0E00E94741742
:1003BE00ACE4B0E0E1E00E947417ADE4B0E0E6E03A
:1003CE000E947417AEE4B0E0E2E00E947417AFE44E
:1003DE00B0E0E5E00E947417E1E0E093A102E09343
:1003EE00AC02E093A202E9E0E093A302E1E0E09325
:1003FE00A402E9E0E093A502E1E0E093A002E0911F
:10040E006F02EF5FE0936F028BE18A95F1F7A09197
:10041E006F02A03219F4E0E0E0936F02A0919A020D
:10042E00AF3078F4F30131963F01E4E1F5E0E615E3
:10043E00F70539F4E0919A02EF5FE0939A02662491
:10044E007724A0919A02A23039F4A0916F02AC31B8
:10045E0019F4E1E1E0938602A0919A02A33071F4BF
:10046E00A0916F02A83119F4E1E1E0938602A09108
:10047E006F02AC3119F4EFE0E0938602A0919A027C
:10048E00A430A9F4A0916F02A43119F4E1E1E09334
:10049E008602A0916F02A83119F4EFE0E093860274
:1004AE00A0916F02AC3119F4E6E1E0938602A091BF
:1004BE009A02A530E1F4A0916F02A03119F4E1E1A6
:1004CE00E0938602A0916F02A43119F4EFE0E0935D
:1004DE008602A0916F02A83119F4E6E1E09386023C
:1004EE00A0916F02AC3119F4E6E1E0938602A0917F
:1004FE009A02A63019F5A0916F02AC3019F4E1E121
:10050E00E0938602A0916F02A03119F4EFE0E09320
:10051E008602A0916F02A43119F4E6E1E0938602FF
:10052E00A0916F02A83119F4E6E1E0938602A09142
:10053E006F02AC3119F4E0E0E0938602A0919A02CA
:10054E00A73019F5A0916F02A83019F4E1E1E093FC
:10055E008602A0916F02AC3019F4EFE0E0938602B0
:10056E00A0916F02A03119F4E6E1E0938602A0910A
:10057E006F02A43119F4E6E1E0938602A0916F02B6
:10058E00A83119F4E0E0E0938602A0919A02A83017
:10059E0019F5A0916F02A43019F4E1E1E0938602FF
:1005AE00A0916F02A83019F4EFE0E0938602A091BB
:1005BE006F02AC3019F4E6E1E0938602A0916F026F
:1005CE00A03119F4E6E1E0938602A0916F02A43106
:1005DE0019F4E0E0E0938602A0919A02A93019F591
:1005EE00E0916F02E03019F4E1E1E0938602A09110
:1005FE006F02A43019F4EFE0E0938602A0916F022F
:10060E00A83019F4E6E1E0938602A0916F02AC30B7
:10061E0019F4E6E1E0938602A0916F02A03119F47D
:10062E00E0E0E0938602A0919A02AA30E1F4E09114
:10063E006F02E03019F4EFE0E0938602A0916F02B2
:10064E00A43019F4E6E1E0938602A0916F02A8307F
:10065E0019F4E6E1E0938602A0916F02AC3019F432
:10066E00E0E0E0938602A0919A02AB30A9F4E0910B
:10067E006F02E03019F4E6E1E0938602A0916F027A
:10068E00A43019F4E6E1E0938602A0916F02A8303F
:10069E0019F4E0E0E0938602A0919A02AC3071F476
:1006AE00E0916F02E03019F4E6E1E0938602A0914A
:1006BE006F02A43019F4E0E0E0938602A0919A0252
:1006CE00AD3039F4E0916F02E03019F4E0E0E093E0
:1006DE008602A0919A02AF3011F00C9402140E947F
:1006EE00C91541F4C99B06C0C89B04C0A0918F02D6
:1006FE00A03009F002C0E1E001C0E0E0E09370023A
:10070E00CA9B09C00E94CE1531F4C89B04C0A091AB
:10071E008F02A03009F002C0E1E001C0E0E0E093FA
:10072E0071020E94C91549F40E94CE1531F4C89B7E
:10073E0004C0A0918F02A03009F002C0E1E001C018
:10074E00E0E0E0937202CA9B09C0C99B07C00E94F9
:10075E00D31521F4A0918F02A03009F002C0E1E080
:10076E0001C0E0E0E09373020E94C91549F4C99BF1
:10077E0007C00E94D31521F4A0918F02A03009F07A
:10078E0002C0E1E001C0E0E0E0937402CA9B0AC03F
:10079E000E94CE1539F40E94D31521F4A0918F0238
:1007AE00A03009F002C0E1E001C0E0E0E093750284
:1007BE000E94C91551F40E94CE1539F40E94D3152A
:1007CE0021F4A0918F02A03009F002C0E1E001C037
:1007DE00E0E0E0937602CA9B04C0C99B02C0C899B0
:1007EE0001C002C0E0E001C0E1E0E0937702A09119
:1007FE007702A13011F4E1E001C0E0E0E0938F0256
:10080E00989B08C0A0919402A03021F4A09195026B
:10081E00A03009F006C0E1E0E0938002E09394027C
:10082E0003C0E0E0E0938002989903C0E0E0E0931B
:10083E009402CD9B0BC0E1E0E0936A02E0916F025F
:10084E00E03019F4E1E0E0937F0203C0E0E0E093D2
:10085E006A02CE990AC0E1E0E0936B02A0916F02AA
:10086E00A43011F4E0937F0203C0E0E0E0936B024A
:10087E00A0916A02A130D1F5A0916C02A130B1F520
:10088E00E091AE02F091AF023196E093AE02F0939A
:10089E00AF02A091AE02B091AF02A431E5E0BE0767
:1008AE0051F4E091B002EF5FE093B002E0E0E0932C
:1008BE00AE02E093AF02A091B002AC3340F0E091F3
:1008CE00B102EF5FE093B102E0E0E093B002A091DD
:1008DE00B102A43158F0E0E0E093AE02E093AF0233
:1008EE00E093B002E093B102E0936C02A0916B0230
:1008FE00A13031F4E0E0E0936D02E1E0E0936C02B0
:10090E00A091AC02A630A1F4A0918502A03081F492
:10091E00A0918402A03061F4A0918302A03041F432
:10092E00A0918202A03021F4A0916C02A03009F0B7
:10093E0003C0E1E0E0936D02A0919702A03041F474
:10094E00A0917202A13021F4A0919502A13009F07C
:10095E0003C0E0E0E0938102A0919702A03041F441
:10096E00A0917602A13021F4A091AB02A03009F043
:10097E0003C0E1E0E093A102E091A102E030B9F5FD
:10098E00F40131964F01E0EDF7E0E815F90529F491
:10099E00F50131965F0188249924ECE3F0E0EA1525
:1009AE00FB0529F4E1E0E093A102AA24BB24A09167
:1009BE007002A130C1F0A0917102A130A1F0A091FE
:1009CE007202A13081F0A0917302A13061F0A0916A
:1009DE007402A13041F0A0917502A13021F0A091D6
:1009EE007602A13021F488249924AA24BB24A09154
:1009FE00A102A13011F00C945B06A0917002A130FF
:100A0E00A1F0A0917102A13081F0A0917202A130EB
:100A1E0061F0A0917302A13041F0A0917402A13057
:100A2E0021F0A0917502A13031F4E0E2FEE460E025
:100A3E0070E00E94D815A0917602A13011F40E94A8
:100A4E00E1150E94EB1529F4E0E0E093A6020E9466
:100A5E00F6150E94EB1511F40C945B06E0E0E093A2
:100A6E00A002E0916202F0916302609164027091C3
:100A7E006502E150F040604070400E94D815E09150
:100A8E006F02E03019F4EAE0E0938602A0916F0263
:100A9E00A43019F4EAE1E0938602A0916F02A83027
:100AAE0019F4EEE1E0938602A0916F02AC3019F4D6
:100ABE00EAE0E0938602A0916F02A03179F4E09112
:100ACE00A602E03021F4E091A702E0938602E091C5
:100ADE00A602E03019F0E0E2E0938602A0916F02E8
:100AEE00A43179F4A091A602A13021F4E091A802DC
:100AFE00E0938602A091A602A13019F0E0E2E09305
:100B0E008602A0916F02A83179F4A091A602A230BC
:100B1E0021F4E091A902E0938602A091A602A230F0
:100B2E0019F0E0E2E0938602A0916F02AC3179F405
:100B3E00A091A602A33021F4E091AA02E0938602CE
:100B4E00A091A602A33019F0E0E2E0938602A091F4
:100B5E007002A13021F5E091A602E03029F4E09177
:100B6E00A702EF5FE093A702A091A602A13029F49D
:100B7E00E091A802EF5FE093A802A091A602A23036
:100B8E0029F4E091A902EF5FE093A902A091A602D9
:100B9E00A33029F4E091AA02EF5FE093AA02A0919C
:100BAE007402A13041F5E091A602E03031F4E091FB
:100BBE00A7020E940016E093A702A091A602A13000
:100BCE0031F4E091A8020E940016E093A802A091D1
:100BDE00A602A23031F4E091A9020E940016E09321
:100BEE00A902A091A602A33031F4E091AA020E94BC
:100BFE000016E093AA02A0917102A13031F4E091A7
:100C0E00A6020E940016E093A602A0917302A130E4
:100C1E0029F4E091A602EF5FE093A602A091A6024E
:100C2E00AF3F19F4E3E0E093A602A091A602A43030
:100C3E0019F4E0E0E093A602A091A702AF3F19F4E9
:100C4E00E9E0E093A702A091A802AF3F19F4E9E012
:100C5E00E093A802A091A902AF3F19F4E9E0E09356
:100C6E00A902A091AA02AF3F19F4E9E0E093AA020B
:100C7E00A091A702AA3019F4E0E0E093A702A09198
:100C8E00A802AA3019F4E0E0E093A802A091A9020C
:100C9E00AA3019F4E0E0E093A902A091AA02AA30CA
:100CAE0019F4E0E0E093AA02A0917202A13059F487
:100CBE00A0916202B09163028091640290916502EC
:100CCE000E94891709F426C0E091A702A091A20202
:100CDE00EA1791F4E091A802A091A302EA1761F439
:100CEE00E091A902A091A402EA1731F4E091AA02C0
:100CFE00A091A502EA1709F00DC0E0E0E093A10271
:100D0E000E94E1150E94F615E0E0E093A602E1E0F4
:100D1E00E093A002A091A102A13049F4E0E0E0939B
:100D2E0097020E9405160E9409160E941916A0919C
:100D3E009502A03041F4A091AD02A03021F4A09113
:100D4E00AB02A03009F0ECC0A0919702A03041F4A4
:100D5E00A0916E02A03021F4A0917302A13009F08F
:100D6E0006C0E1E0E0936E02E0E0E0937302A09132
:100D7E009702A03009F5A0916E02A130E9F4A0917E
:100D8E007002A130C1F0A0917102A130A1F0A0912A
:100D9E007202A13081F0A0917302A13061F0A09196
:100DAE007402A13041F0A0917502A13021F0A09102
:100DBE007602A13009F401C005C0E0E0E0936E02B6
:100DCE000E940916A0916E02A13011F00C949707A3
:100DDE00E0E0E093A002A0916C02A130E1F4E0917A
:100DEE006F02E03019F4ECE0E0938602A0916F02FE
:100DFE00A43019F4E2E1E0938602A0916F02A830CC
:100E0E0019F4EAE0E0938602A0916F02AC3019F477
:100E1E00EEE1E0938602A0916D02A130E1F4E09143
:100E2E006F02E03019F4EEE0E0938602A0916F02BB
:100E3E00A43019F4ECE0E0938602A0916F02A83082
:100E4E0019F4E2E1E0938602A0916F02AC3019F43E
:100E5E00EEE1E0938602A0916B02A130E1F4A09145
:100E6E006F02A03119F4EAE1E0938602A0916F02BD
:100E7E00A43119F4EBE1E0938602A0916F02A83140
:100E8E0019F4E5E0E0938602A0916F02AC3119F4FB
:100E9E00ECE0E0938602A0916B02A03021F4A091C9
:100EAE006A02A03009F01CC0A0916F02A03119F4A3
:100EBE00E8E1E0938602A0916F02A43119F4ECE10F
:100ECE00E0938602A0916F02A83119F4E5E0E09359
:100EDE008602A0916F02AC3119F4EFE0E093860226
:100EEE00A0916A02A130E1F4A0916F02A03119F431
:100EFE00E8E1E0938602A0916F02A43119F4E1E0DB
:100F0E00E0938602A0916F02A83119F4E6E1E09316
:100F1E008602A0916F02AC3119F4E2E2E0938602F0
:100F2E00A091A002A13061F4A0919502A03041F4ED
:100F3E00A0917102A13021F4A0919702A03009F086
:100F4E0006C0E1E0E093AB02E0E0E0937102A09115
:100F5E00AB02A13039F4E0E0E093A0020E94051646
:100F6E00E0939702A091AB02A130C9F4A091AD021B
:100F7E00A030A9F4A0917002A13081F0A09172026C
:100F8E00A13061F0A0917302A13041F0A0917402E2
:100F9E00A13021F0A0917602A13009F401C00BC05E
:100FAE000E941916E0E0E09370020E9421160E9442
:100FBE002516E0937602A091AB02A13041F4A091E8
:100FCE007502A13021F4A091AD02A03009F006C047
:100FDE00E1E0E093AD02E0E0E0937502A091AB0298
:100FEE00A13061F4A0917502A13021F0A09172029E
:100FFE00A13021F4A091AD02A13009F007C0E0E0CC
:10100E00E093AD020E942116E0937502A091850235
:10101E00A030A1F4A0918402A03081F4A0918302AB
:10102E00A03061F4A0918202A03041F4A09181021F
:10103E00A03021F4A0918002A13009F005C0E0910A
:10104E00AC02EF5FE093AC02A091AD02A13021F4AF
:10105E00A0917002A13009F005C0E091AC02EF5FE3
:10106E00E093AC02A091AD02A13021F4A0917402E4
:10107E00A13009F006C0E091AC02F0E03197E093A8
:10108E00AC02E091AC02E03019F4E7E0E093AC0280
:10109E00A091AC02A83019F4E1E0E093AC02A0916B
:1010AE00AB02A13021F4A0916E02A03009F044C031
:1010BE00E0916F02E03021F4E091AC02E093860201
:1010CE00A0916F02A43019F4E0E2E0938602A091A1
:1010DE006F02A83019F4EEE0E0938602A0916F0241
:1010EE00AC3019F4E4E1E0938602A0916F02A031D6
:1010FE0019F4EFE0E0938602A0916F02A43119F487
:10110E00E2E2E0938602A0916F02A83119F4E4E1C5
:10111E00E0938602A0916F02AC3119F4E5E0E09302
:10112E008602E0E0E0937002E09371020E942116C5
:10113E000E942516E0937502A091AD02A13021F414
:10114E00A0919902A13009F003C0E1E2E09386027A
:10115E00A0918502A03024F4A0918402A4300CF05A
:10116E0003C0E2E0E0938502A0918502A03024F452
:10117E00A0918402A4300CF403C0E1E0E093850258
:10118E00A0918402A0301CF4E9E0E0938402A091C7
:10119E008302A0301CF4E5E0E0938302A09182026A
:1011AE00A0301CF4E9E0E0938202A0918002A1300D
:1011BE0021F4A0919502A03009F005C0E0918102C2
:1011CE00EE5FE0938102A0918102AC3321F4A091F5
:1011DE009502A03009F008C0E0918202EF5FE09323
:1011EE008202E0E0E0938102A0918202AA3021F413
:1011FE00A0919502A03009F008C0E0918302EF5F44
:10120E00E0938302E0E0E0938202A0918302A63095
:10121E0021F4A0919502A03009F008C0E09184025B
:10122E00EF5FE0938402E0E0E0938302A0918402FA
:10123E00AA3021F4A0919502A03009F008C0E091E7
:10124E008502EF5FE0938502E0E0E0938402A091D7
:10125E008402A43044F0A0918502A23024F0A09123
:10126E009502A03009F005C0E0E0E0938402E0931F
:10127E008502E0919502E03011F00C948D09A09159
:10128E007002A130D1F4A0919702A43121F0A09167
:10129E009302A03009F005C0E0919702EF5F0E9423
:1012AE002B16A0919702A43121F4A0919302A030A5
:1012BE0009F003C0E1E00E942B16A0917402A13048
:1012CE00D9F4A0919702A23024F4A0919302A030F9
:1012DE0009F003C0E4E10E942B16A0919702A23000
:1012EE0024F0A0919302A03009F006C0E09197027D
:1012FE000E9400160E942B16E0E0E0939302E0910C
:10130E007602E03019F0E0E0E0939702A0917502CA
:10131E00A13019F4E1E0E0939502A0917102A130A1
:10132E0031F4E09196020E940016E0939602A0918D
:10133E007302A13029F4E0919602EF5FE0939602DA
:10134E00A0919602AF3F19F4E3E0E0939602A091CC
:10135E009602A43019F4E0E0E0939602A091720296
:10136E00A13021F40E940516E0939602A0919702F7
:10137E00A03021F4A0919502A13009F074C0A09183
:10138E009602A03021F4A0917002A13009F005C0A0
:10139E00E0918502EF5FE0938502A0919602A03066
:1013AE0021F4A0917402A13009F006C0E0918502EB
:1013BE000E940016E0938502A0919602A13021F4BE
:1013CE00A0917002A13009F005C0E0918402EF5F98
:1013DE00E0938402A0919602A13021F4A0917402B0
:1013EE00A13009F006C0E09184020E940016E0933D
:1013FE008402A0919602A23021F4A0917002A13035
:10140E0009F005C0E0918302EF5FE0938302A091A3
:10141E009602A23021F4A0917402A13009F006C008
:10142E00E09183020E940016E0938302A09196023F
:10143E00A33021F4A0917002A13009F005C0E09113
:10144E008202EF5FE0938202A0919602A33021F414
:10145E00A0917402A13009F006C0E09182020E94B0
:10146E000016E0938202A0919502A13011F00C9427
:10147E008E0AA0918202AA3019F4E0E0E093820273
:10148E00A0918302A63019F4E0E0E0938302A091CC
:10149E008402AA3019F4E0E0E0938402A091850260
:1014AE00A33019F4E0E0E0938502A0918502A2300A
:1014BE0021F4A0918402A4300CF403C0E0E0E09388
:1014CE008502A0918202AF3F19F4E9E0E093820217
:1014DE00A0918302AF3F19F4E5E0E0938302A0915F
:1014EE008402AF3F21F4A0918502A2300CF003C01C
:1014FE00E9E0E0938402A0918402AF3F21F4A09131
:10150E008502A2300CF403C0E3E0E0938402E09184
:10151E009702E03029F4E0E0E0939002E09391022C
:10152E00E0919702E030E1F0A0919702B0E0A7FDC4
:10153E00BFEFEAE0F0E00E945517E0939002E091D1
:10154E009702F0E0E7FDFFEFBF01A0919002EAE005
:10155E00EA02F001DF01FB01EA1BFB0BE0939102B3
:10156E00E0919802A0919702EA1711F0E1E001C014
:10157E00E0E0E0939202E0919702E0939802A0914E
:10158E009702A13021F4A0919202A13009F010C06F
:10159E000E943116E09387020E943616E09388026D
:1015AE000E943B16E09389020E944016E0938A0245
:1015BE00A0919702A23021F4A0919202A13009F0DD
:1015CE0010C0A4E0B0E00E944516A5E0B0E00E9475
:1015DE004A16A6E0B0E00E944F16A7E0B0E00E94C7
:1015EE005416A0919702A33021F4A0919202A1303B
:1015FE0009F010C0A8E0B0E00E944516A9E0B0E0E6
:10160E000E944A16AAE0B0E00E944F16ABE0B0E08E
:10161E000E945416A0919702A43021F4A091920238
:10162E00A13009F010C0ACE0B0E00E944516ADE06C
:10163E00B0E00E944A16AEE0B0E00E944F16AFE056
:10164E00B0E00E945416A0919702A53021F4A0910B
:10165E009202A13009F010C0A0E1B0E00E94451640
:10166E00A1E1B0E00E944A16A2E1B0E00E944F163E
:10167E00A3E1B0E00E945416A0919702A63021F487
:10168E00A0919202A13009F010C0A4E1B0E00E9436
:10169E004516A5E1B0E00E944A16A6E1B0E00E9410
:1016AE004F16A7E1B0E00E945416A0919702A73002
:1016BE0021F4A0919202A13009F010C0A8E1B0E08F
:1016CE000E944516A9E1B0E00E944A16AAE1B0E0D8
:1016DE000E944F16ABE1B0E00E945416A091970203
:1016EE00A83021F4A0919202A13009F010C0ACE113
:1016FE00B0E00E944516ADE1B0E00E944A16AEE1A0
:10170E00B0E00E944F16AFE1B0E00E945416A091D7
:10171E009702A93021F4A0919202A13009F010C0D5
:10172E00A0E2B0E00E944516A1E2B0E00E944A1687
:10173E00A2E2B0E00E944F16A3E2B0E00E9454165F
:10174E00A0919702AA3021F4A0919202A13009F043
:10175E0010C0A4E2B0E00E944516A5E2B0E00E94DF
:10176E004A16A6E2B0E00E944F16A7E2B0E00E9431
:10177E005416A0919702AB3021F4A0919202A130A1
:10178E0009F010C0A8E2B0E00E944516A9E2B0E050
:10179E000E944A16AAE2B0E00E944F16ABE2B0E0F9
:1017AE000E945416A0919702AC3021F4A09192029F
:1017BE00A13009F010C0ACE2B0E00E944516ADE2D7
:1017CE00B0E00E944A16AEE2B0E00E944F16AFE2C1
:1017DE00B0E00E945416A0919702AD3021F4A09172
:1017EE009202A13009F010C0A0E3B0E00E944516AD
:1017FE00A1E3B0E00E944A16A2E3B0E00E944F16A9
:10180E00A3E3B0E00E945416A0919702AE3021F4EB
:10181E00A0919202A13009F010C0A4E3B0E00E94A2
:10182E004516A5E3B0E00E944A16A6E3B0E00E947A
:10183E004F16A7E3B0E00E945416A0919702AF3066
:10184E0021F4A0919202A13009F010C0A8E3B0E0FB
:10185E000E944516A9E3B0E00E944A16AAE3B0E042
:10186E000E944F16ABE3B0E00E945416A09197026F
:10187E00A03121F4A0919202A13009F010C0ACE386
:10188E00B0E00E944516ADE3B0E00E944A16AEE30A
:10189E00B0E00E944F16AFE3B0E00E945416A09144
:1018AE009702A13121F4A0919202A13009F010C04B
:1018BE00A0E4B0E00E944516A1E4B0E00E944A16F2
:1018CE00A2E4B0E00E944F16A3E4B0E00E945416CA
:1018DE00A0919702A23121F4A0919202A13009F0B9
:1018EE0010C0A4E4B0E00E944516A5E4B0E00E944A
:1018FE004A16A6E4B0E00E944F16A7E4B0E00E949C
:10190E005416A0919702A33121F4A0919202A13016
:10191E0009F010C0A8E4B0E00E944516A9E4B0E0BA
:10192E000E944A16AAE4B0E00E944F16ABE4B0E063
:10193E000E945416A0919702A43121F4A091920214
:10194E00A13009F010C0ACE4B0E00E944516ADE441
:10195E00B0E00E944A16AEE4B0E00E944F16AFE42B
:10196E00B0E00E945416A0919702A03021F0A091F1
:10197E009502A13009F0F3C0A0917002A13021F4BC
:10198E00A0919602A33009F005C0E0918A02EF5FA4
:10199E00E0938A02A0917402A13021F4A0919602E4
:1019AE00A33009F006C0E0918A020E940016E0936F
:1019BE008A02A0917002A13021F4A0919602A23069
:1019CE0009F005C0E0918902EF5FE0938902A091D2
:1019DE007402A13021F4A0919602A23009F006C043
:1019EE00E09189020E940016E0938902A091700294
:1019FE00A13021F4A0919602A13009F005C0E0912A
:101A0E008802EF5FE0938802A0917402A13021F466
:101A1E00A0919602A13009F006C0E09188020E94C2
:101A2E000016E0938802A0917002A13021F4A091DB
:101A3E009602A03009F005C0E0918702EF5FE093B7
:101A4E008702A0917402A13021F4A0919602A030D9
:101A5E0009F006C0E09187020E940016E09387020B
:101A6E00A0918A02AF3F19F4E9E0E0938A02A091B7
:101A7E008902AF3F19F4E5E0E0938902A091880254
:101A8E00AF3F21F4A0918702A23009F003C0E3E03A
:101A9E00E0938802A0918802AF3F21F4A0918702C3
:101AAE00A23009F403C0E9E0E0938802A091870216
:101ABE00AF3F21F4A0918802A4300CF403C0E1E002
:101ACE00E0938702A0918702AF3F21F4A091880294
:101ADE00A4300CF003C0E2E0E0938702A0918A02EA
:101AEE00AA3019F4E0E0E0938A02A0918902A630B0
:101AFE0019F4E0E0E0938902A0918802A43044F04A
:101B0E00A0918702A23021F4A0919602A13009F093
:101B1E0003C0E0E0E0938802A0918802AA3021F48D
:101B2E00A0918702A23009F403C0E0E0E09388029E
:101B3E00A0918702A23041F4A0918802A43024F033
:101B4E00A0919602A03009F003C0E0E0E093870276
:101B5E00A0918702A33019F4E0E0E0938702A091F0
:101B6E007202A13011F00C94500FA0919702A13087
:101B7E0091F4E0918702A0E0B0E00E945916A1E036
:101B8E00B0E00E945E16A2E0B0E00E946316A3E0F1
:101B9E00B0E00E947417A0919702A23091F4E091E8
:101BAE008702A4E0B0E00E945916A5E0B0E00E94C2
:101BBE005E16A6E0B0E00E946316A7E0B0E00E94B9
:101BCE007417A0919702A33091F4E0918702A8E0D8
:101BDE00B0E00E945916A9E0B0E00E945E16AAE09D
:101BEE00B0E00E946316ABE0B0E00E947417A091C3
:101BFE009702A43091F4E0918702ACE0B0E00E942D
:101C0E005916ADE0B0E00E945E16AEE0B0E00E9464
:101C1E006316AFE0B0E00E947417A0919702A53052
:101C2E0091F4E0918702A0E1B0E00E945916A1E183
:101C3E00B0E00E945E16A2E1B0E00E946316A3E13E
:101C4E00B0E00E947417A0919702A63091F4E09133
:101C5E008702A4E1B0E00E945916A5E1B0E00E940F
:101C6E005E16A6E1B0E00E946316A7E1B0E00E9406
:101C7E007417A0919702A73091F4E0918702A8E122
:101C8E00B0E00E945916A9E1B0E00E945E16AAE1EA
:101C9E00B0E00E946316ABE1B0E00E947417A09111
:101CAE009702A83091F4E0918702ACE1B0E00E9477
:101CBE005916ADE1B0E00E945E16AEE1B0E00E94B2
:101CCE006316AFE1B0E00E947417A0919702A9309D
:101CDE0079F4E0918702A0E2B0E0E4D7A1E2B0E0AF
:101CEE00E6D7A2E2B0E0E8D7A3E2B0E00E94741714
:101CFE00A0919702AA3079F4E0918702A4E2B0E0B5
:101D0E00D1D7A5E2B0E0D3D7A6E2B0E0D5D7A7E20F
:101D1E00B0E00E947417A0919702AB3079F4E09175
:101D2E008702A8E2B0E0BED7A9E2B0E0C0D7AAE22F
:101D3E00B0E0C2D7ABE2B0E00E947417A091970258
:101D4E00AC3079F4E0918702ACE2B0E0ABD7ADE213
:101D5E00B0E0ADD7AEE2B0E0AFD7AFE2B0E00E94F8
:101D6E007417A0919702AD3079F4E0918702A0E349
:101D7E00B0E098D7A1E3B0E09AD7A2E3B0E09CD749
:101D8E00A3E3B0E00E947417A0919702AE3079F4ED
:101D9E00E0918702A4E3B0E085D7A5E3B0E087D752
:101DAE00A6E3B0E089D7A7E3B0E00E947417A09134
:101DBE009702AF3079F4E0918702A8E3B0E072D7D2
:101DCE00A9E3B0E074D7AAE3B0E076D7ABE3B0E016
:101DDE000E947417A0919702A03179F4E0918702C6
:101DEE00ACE3B0E05FD7ADE3B0E061D7AEE3B0E017
:101DFE0063D7AFE3B0E00E947417A0919702A131B0
:101E0E0079F4E0918702A0E4B0E04CD7A1E4B0E011
:101E1E004ED7A2E4B0E050D7A3E4B0E00E9474170E
:101E2E00A0919702A23179F4E0918702A4E4B0E088
:101E3E0039D7A5E4B0E03BD7A6E4B0E03DD7A7E4A0
:101E4E00B0E00E947417A0919702A33179F4E0914B
:101E5E008702A8E4B0E026D7A9E4B0E028D7AAE428
:101E6E00B0E02AD7ABE4B0E00E947417A0919702BD
:101E7E00A43179F4E0918702ACE4B0E013D7ADE47D
:101E8E00B0E015D7AEE4B0E017D7AFE4B0E00E94F3
:101E9E007417E0918502E0938B02E0918402E09347
:101EAE008C02E0918302E0938D02E0918202EE5F5C
:101EBE00E0938E02A0918E02AA3041F4E0E0E0930E
:101ECE008E02E0918D02EF5FE0938D02A0918D0264
:101EDE00A63041F4E0E0E0938D02E0918C02EF5FDA
:101EEE00E0938C02A0918C02AA3041F4E0E0E093E2
:101EFE008C02E0918B02EF5FE0938B02A0918B023C
:101F0E00A23021F4A0918C02A43009F005C0E0E0CB
:101F1E00E0938B02E0938C029DD6D3D649F49FD6E4
:101F2E00D5D631F4A1D6D7D619F4A3D6D9D609F081
:101F3E0003C0E1E0E0939F02A8E0B0E0D6D661F4E2
:101F4E00A9E0B0E0D5D641F4AAE0B0E0D4D621F4B1
:101F5E00ABE0B0E0D3D609F003C0E1E0E0939F021E
:101F6E00A0E1B0E0C2D661F4A1E1B0E0C1D641F487
:101F7E00A2E1B0E0C0D621F4A3E1B0E0BFD609F0F3
:101F8E0003C0E1E0E0939F02A8E1B0E0AED661F4B9
:101F9E00A9E1B0E0ADD641F4AAE1B0E0ACD621F4AF
:101FAE00ABE1B0E0ABD609F003C0E1E0E0939F02F5
:101FBE00A0E2B0E09AD661F4A1E2B0E099D641F485
:101FCE00A2E2B0E098D621F4A3E2B0E097D609F0F1
:101FDE0003C0E1E0E0939F02A8E2B0E086D661F490
:101FEE00A9E2B0E085D641F4AAE2B0E084D621F4AD
:101FFE00ABE2B0E083D609F003C0E1E0E0939F02CC
:10200E00A0E3B0E072D661F4A1E3B0E071D641F482
:10201E00A2E3B0E070D621F4A3E3B0E06FD609F0EE
:10202E0003C0E1E0E0939F02A8E3B0E05ED661F466
:10203E00A9E3B0E05DD641F4AAE3B0E05CD621F4AA
:10204E00ABE3B0E05BD609F003C0E1E0E0939F02A2
:10205E00A0E4B0E04AD661F4A1E4B0E049D641F480
:10206E00A2E4B0E048D621F4A3E4B0E047D609F0EC
:10207E0003C0E1E0E0939F02A8E4B0E036D661F43D
:10208E00A9E4B0E035D641F4AAE4B0E034D621F4A8
:10209E00ABE4B0E033D609F003C0E1E0E0939F0279
:1020AE00A0919F02A13061F4A0916002B0916102F3
:1020BE00AC3BE2E0BE0721F0A0919502A03009F002
:1020CE000CC0E0916002F09161023196E0936002E3
:1020DE00F0936102E1E0E0939E02E0919F02E03016
:1020EE0029F4E0E0E0936002E0936102B3D509D6F3
:1020FE0049F4B5D50BD631F4B7D50DD619F4B9D5FB
:10210E000FD609F003C0E1E0E0939C02A4E0B0E03A
:10211E000CD661F4A5E0B0E00BD641F4A6E0B0E039
:10212E000AD621F4A7E0B0E009D609F003C0E1E039
:10213E00E0939C02A8E0B0E0F8D561F4A9E0B0E02D
:10214E00F7D541F4AAE0B0E0F6D521F4ABE0B0E06B
:10215E00F5D509F003C0E1E0E0939C02ACE0B0E0FD
:10216E00E4D561F4ADE0B0E0E3D541F4AEE0B0E02B
:10217E00E2D521F4AFE0B0E0E1D509F003C0E1E033
:10218E00E0939C02A0E1B0E0D0D561F4A1E1B0E013
:10219E00CFD541F4A2E1B0E0CED521F4A3E1B0E079
:1021AE00CDD509F003C0E1E0E0939C02A4E1B0E0DC
:1021BE00BCD561F4A5E1B0E0BBD541F4A6E1B0E039
:1021CE00BAD521F4A7E1B0E0B9D509F003C0E1E03A
:1021DE00E0939C02A8E1B0E0A8D561F4A9E1B0E0DB
:1021EE00A7D541F4AAE1B0E0A6D521F4ABE1B0E069
:1021FE00A5D509F003C0E1E0E0939C02ACE1B0E0AC
:10220E0094D561F4ADE1B0E093D541F4AEE1B0E028
:10221E0092D521F4AFE1B0E091D509F003C0E1E031
:10222E00E0939C02A0E2B0E080D561F4A1E2B0E0C0
:10223E007FD541F4A2E2B0E07ED521F4A3E2B0E076
:10224E007DD509F003C0E1E0E0939C02A4E2B0E08A
:10225E006CD561F4A5E2B0E06BD541F4A6E2B0E036
:10226E006AD521F4A7E2B0E069D509F003C0E1E038
:10227E00E0939C02A8E2B0E058D561F4A9E2B0E088
:10228E0057D541F4AAE2B0E056D521F4ABE2B0E066
:10229E0055D509F003C0E1E0E0939C02ACE2B0E05A
:1022AE0044D561F4ADE2B0E043D541F4AEE2B0E026
:1022BE0042D521F4AFE2B0E041D509F003C0E1E030
:1022CE00E0939C02A0E3B0E030D561F4A1E3B0E06E
:1022DE002FD541F4A2E3B0E02ED521F4A3E3B0E074
:1022EE002DD509F003C0E1E0E0939C02A4E3B0E039
:1022FE001CD561F4A5E3B0E01BD541F4A6E3B0E034
:10230E001AD521F4A7E3B0E019D509F003C0E1E036
:10231E00E0939C02A8E3B0E008D561F4A9E3B0E035
:10232E0007D541F4AAE3B0E006D521F4ABE3B0E063
:10233E0005D509F003C0E1E0E0939C02ACE3B0E008
:10234E00F4D461F4ADE3B0E0F3D441F4AEE3B0E025
:10235E00F2D421F4AFE3B0E0F1D409F003C0E1E030
:10236E00E0939C02A0E4B0E0E0D461F4A1E4B0E01C
:10237E00DFD441F4A2E4B0E0DED421F4A3E4B0E073
:10238E00DDD409F003C0E1E0E0939C02A4E4B0E0E8
:10239E00CCD461F4A5E4B0E0CBD441F4A6E4B0E033
:1023AE00CAD421F4A7E4B0E0C9D409F003C0E1E037
:1023BE00E0939C02A8E4B0E0B8D461F4A9E4B0E0E4
:1023CE00B7D441F4AAE4B0E0B6D421F4ABE4B0E063
:1023DE00B5D409F003C0E1E0E0939C02ACE4B0E0B8
:1023EE00A4D461F4ADE4B0E0A3D441F4AEE4B0E023
:1023FE00A2D421F4AFE4B0E0A1D409F003C0E1E02F
:10240E00E0939C02E0919C02E03019F4E0E0E0934E
:10241E009D02A0919C02A13021F4A0919D02A630B4
:10242E0009F414C0E0916602F091670260916802AF
:10243E0070916902EF5FFF4F6F4F7F4FE09366021F
:10244E00F09367026093680270936902A09166022E
:10245E00B09167028091680290916902A83EE3E014
:10246E00BE07E0E08E07E0E09E0771F4E0919D026A
:10247E00EF5FE0939D02E0E0E0936602E093670277
:10248E00E0936802E0936902A0919D02A03031F0C2
:10249E00A63021F0A0919502A03009F003C0E1E032
:1024AE00E0939E02A091A002A13011F00C94501363
:1024BE00E0919702E03011F00C945013F601319632
:1024CE006F01E8EEF3E0EC15FD0539F4E0919B02A7
:1024DE00EF5FE0939B02CC24DD24A0919B02AA30F7
:1024EE0019F4E0E0E0939B02A0919B02A13039F435
:1024FE00A0916F02AC3019F4EEE0E0938602A09149
:10250E009B02A23071F4A0916F02A83019F4EEE094
:10251E00E0938602A0916F02AC3019F4EAE0E093EA
:10252E008602A0919B02A330A9F4A0916F02A43061
:10253E0019F4EEE0E0938602A0916F02A83019F430
:10254E00EAE0E0938602A0916F02AC3019F4EBE062
:10255E00E0938602A0919B02A430E1F4E0916F0219
:10256E00E03019F4EEE0E0938602A0916F02A43001
:10257E0019F4EAE0E0938602A0916F02A83019F4F4
:10258E00EBE0E0938602A0916F02AC3019F4EAE022
:10259E00E0938602A0919B02A530E1F4E0916F02D8
:1025AE00E03019F4EAE0E0938602A0916F02A430C5
:1025BE0019F4EBE0E0938602A0916F02A83019F4B3
:1025CE00EAE0E0938602A0916F02AC3019F4EEE1DE
:1025DE00E0938602A0919B02A630A9F4E0916F02CF
:1025EE00E03019F4EBE0E0938602A0916F02A43084
:1025FE0019F4EAE0E0938602A0916F02A83019F474
:10260E00EEE1E0938602A0919B02A73071F4E09177
:10261E006F02E03019F4EAE0E0938602A0916F02B7
:10262E00A43019F4EEE1E0938602A0919B02A8304B
:10263E0039F4E0916F02E03019F4EEE1E093860296
:10264E00A0916F02A03121F4E0918502E093860201
:10265E00A0916F02A43119F4E091840272D3A0917B
:10266E006F02A83121F4E0918302E0938602A091DB
:10267E006F02AC3121F4E0918202E0938602989BC6
:10268E0004C0A0916F02AC3009F003C0E1E0E0930A
:10269E007F02E0919702E030E9F1CC24DD24E09155
:1026AE006F02E03019F4E9E1E0938602A0916F0227
:1026BE00A43011F4EAE145D3A0916F02A83021F4C1
:1026CE00E0919002E0938602A0916F02AC3019F473
:1026DE00E091910236D3A0916F02A03121F4E091E6
:1026EE008702E0938602A0916F02A43119F4E09163
:1026FE00880227D3A0916F02A83121F4E0918902BC
:10270E00E0938602A0916F02AC3121F4E0918A022F
:10271E00E0938602F20131962F01E8EEF3E0E41524
:10272E00F50521F4A0919902A03009F005C0E1E071
:10273E00E093990244245524E8EEF3E0E415F50500
:10274E0021F4A0919902A13009F005C0E0E0E093D8
:10275E00990244245524A0919502A13041F4A091F0
:10276E009602A03021F4A0919902A13009F007C081
:10277E00A0916F02A03119F4E1E2E0938602A091DC
:10278E009502A13041F4A0919602A13021F4A091BE
:10279E009902A13009F007C0A0916F02A43119F47B
:1027AE00E1E2E0938602A0919502A13041F4A0915E
:1027BE009602A23021F4A0919902A13009F007C02F
:1027CE00A0916F02A83119F4E1E2E0938602A09184
:1027DE009502A13041F4A0919602A33021F4A0916C
:1027EE009902A13009F007C0A0916F02AC3119F423
:1027FE00E1E2E0938602A091A102A13039F4A0910A
:10280E006F02AC3119F4E1E0E0937F02E0918602B1
:10281E00E03031F49CD2A1D2A6D2E0E0E0937E0269
:10282E00A0918602A13011F4A4D2B1D2A091860259
:10283E00A23011F48CD2B1D2A0918602A33019F439
:10284E0086D28BD2B9D2A0918602A43011F491D245
:10285E00BCD2A0918602A53011F4BDD2C3D2A091F4
:10286E008602A63029F4B7D27ED2E1E0E0937E0252
:10287E00A0918602A73019F46AD2B8D2BED2A09126
:10288E008602A83031F463D268D26DD2E1E0E093D3
:10289E007E02A0918602A93019F459D25ED2A2D23C
:1028AE00A0918602AA3031F452D2A0D25CD2E1E0DD
:1028BE00E0937E02A0918602AB3031F4A2D24DD2CB
:1028CE0052D2E1E0E0937E02A0918602AC3011F488
:1028DE0098D263D2A0918602AD3021F498D2E0E076
:1028EE00E0937E02A0918602AE3019F49CD235D2CE
:1028FE00A1D2A0918602AF3021F489D2E1E0E0931B
:10290E007E02A0918602A03151F4E1E0E0937802BC
:10291E00E0E0E093790298D2E1E0E0937E02A091AC
:10292E008602A13131F47FD261D21DD2E1E0E09373
:10293E007E02A0918602A23131F463D257D213D215
:10294E00E1E0E0937E02A0918602A33111F411D250
:10295E001ED2A0918602A43119F453D247D24DD281
:10296E00A0918602A53119F45ED2F7D146D2A0917C
:10297E008602A63129F445D26DD2E0E0E0937E02C4
:10298E00A0918602A73119F43CD2E7D153D2A0917F
:10299E008602A83129F4DBD157D2E1E0E0937E0222
:1029AE00A0918602A93111F416D21CD2A0918602F2
:1029BE00AA3129F426D24ED2E1E0E0937E02A09114
:1029CE008602AB3131F41DD2C8D1CDD1E0E0E09317
:1029DE007E02A0918602AC3131F425D2BED1C3D194
:1029EE00E0E0E0937E02A0918602AD3111F4AFD10A
:1029FE00D4D1A0918602AE3119F403D232D21AD2BA
:102A0E00A0918602AF3141F4FCD1E0E0E0937A026E
:102A1E00E1E0E0937B02F1D1A0918602A03219F49D
:102A2E00F0D11FD2C9D1A0918602A13219F4E9D1F9
:102A3E0018D2E3D1A0918602A23219F4E2D1D6D1F6
:102A4E00F9D1A0919E02A13021F4A091AC02A63042
:102A5E0008F002C0A99A01C0A998A0916D02A130F8
:102A6E0011F4DB9A01C0DB98A0916C02A13011F435
:102A7E00DC9A01C0DC98A0917802A13011F49598EF
:102A8E0001C0959AA0917902A13011F4929801C0DB
:102A9E00929AA0917A02A13011F4919801C0919A64
:102AAE00A0917B02A13011F4939801C0939AA0914A
:102ABE007C02A13011F4909801C0909AA0917D02F1
:102ACE00A13011F4979801C0979AA0917E02A1307F
:102ADE0011F4969801C0969AA0917F02A13011F43C
:102AEE00949801C0949AE0916F02E03011F4C39A69
:102AFE0001C0C398A0916F02A43011F4C59A01C011
:102B0E00C598A0916F02A83011F4C29A01C0C29864
:102B1E00A0916F02AC3011F4C09A01C0C098A09180
:102B2E006F02A03111F4C19A01C0C198A0916F0239
:102B3E00A43111F4C69A01C0C698A0916F02A831B3
:102B4E0011F4C79A01C0C798A0916F02AC3111F46D
:102B5E00C49A01C0C498E0E0E0939C02E1E2E093E5
:102B6E0086024FD17ED149D1E0E0E0937F02E1E0D1
:102B7E00E093A002E0E0E0939E02E0939F020C94AB
:102B8E000302FFCFA0E0CA99A1E0A0300895A0E013
:102B9E00C999A1E0A0300895A0E0C899A1E0A030A5
:102BAE000895E0936202F09363026093640270935F
:102BBE0065020895E0E0E0936202E0936302E09321
:102BCE006402E09365020895E0916202F09163025F
:102BDE0060916402709165020E9485170895E0E08D
:102BEE00E093A702E093A802E093A902E093AA0261
:102BFE000895F0E0E7FDFFEF31970895E0E0E093F0
:102C0E0095020895E0937002E0E0E0937102E09384
:102C1E007202E0937302E0937402E0937502E09304
:102C2E0076020895E0E0E093AB02E093AD02E0930C
:102C3E006E020895E0E0E09372020895E09373024D
:102C4E00E0E0E09374020895E0939702E1E0E093F0
:102C5E0093020895A0E0B0E00E9468170895A1E0E5
:102C6E00B0E00E9468170895A2E0B0E00E946817D5
:102C7E000895A3E0B0E00E94681708950E946817B7
:102C8E00E093870208950E946817E09388020895E2
:102C9E000E946817E093890208950E946817E093D6
:102CAE008A0208950E947417E091880208950E9486
:102CBE007417E091890208950E947417E0918A02B8
:102CCE000895AE2FE0918B02EA170895AE2FE09192
:102CDE008C02EA170895AE2FE0918D02EA1708953F
:102CEE00AE2FE0918E02EA1708950E946817E9CF81
:102CFE000E946817EBCF0E946817EDCF0E946817ED
:102D0E00EFCFAE2FE0918502EA170895AE2FE09136
:102D1E008402EA170895AE2FE0918302EA17089510
:102D2E00AE2FE0918202EA1708950E946817E9CF4C
:102D3E000E946817EBCF0E946817EDCF0E946817AC
:102D4E00EFCFE0938602E1E0E0937F020895E1E0A9
:102D5E00E0937802E09379020895E1E0E0937A023D
:102D6E00E0937B020895E1E0E0937C02E0937D0224
:102D7E000895E0E0E0937802E1E0E0937902E093D9
:102D8E007A02E0E0E0937B02E0937C020895E0E0BB
:102D9E00E0937D02E0937E020895E0E0E0937A02F4
:102DAE00E1E0E0937B02E0937C02E0E0E0937D02C1
:102DBE00E1E0E0937E020895E0E0E0937C02E09390
:102DCE007D02E1E0E0937E020895E1E0E0937D0272
:102DDE00E0937E020895E1E0E0937802E0E0E09374
:102DEE007902BBCFE0E0E0937C02EFCFE1E0E0932D
:102DFE007A02E0E0E0937B020895E0E0E0937C024B
:102E0E00C6CFE0E0E0937802E09379020895E1E026
:102E1E00E0937802E0E0E0937902E0937A02E1E059
:102E2E00E0937B02A0CFE0E0E0937802E1E0E09354
:102E3E0079020895E1E0E0937C02E0E0E0937D0208
:102E4E00E1E0E0937E020895E0E0E0937A02E09301
:102E5E007B0289CFE0E0E0937A02E1E0E0937B022F
:102E6E0082CFE0E0E0937A02E0937B020895F19541
:102E7E00E195F04008950024112490E1AA0FBB1FA4
:102E8E00001C111C0E1A1F0A18F40E0E1F1E01C074
:102E9E00A1609A9599F7FD01D001089504D0EBDF5A
:102EAE000EF4E5DF0895E894F7FF02C0E0DF6894C2
:102EBE00B7FF06C0A095B095119600F8039400FADE
:102ECE000895E199FECFFF93FFB7F894AEBBBFBB59
:102EDE00E09AEDB3FFBFFF910895E19B02C0A89564
:102EEE00FCCF9FB7F894AEBBBFBBE09A8DB3E8178B
:102EFE0019F0EDBBE29AE19A9FBF089530976040BA
:102F0E007040089500240A160B0608060906089557
:00000001FF
