:100000000C9477000C9400000C9400000C940000F9
:100010000C9400000C9400000C9400000C94000060
:100020000C9400000C9400000C9400000C94000050
:100030000C9400000C9400000C9400000C94000040
:100040000C9400000C9400000C9400000C94000030
:100050000C9400000C9400000C9400000C94000020
:100060000C9400000C9400000C9400000C94000010
:100070000C9400000C9400000C9400000C94000000
:100080000C9400000C9400000C9400000C940000F0
:100090000C9400000C9400000C9400000C940000E0
:1000A0000C9400000C9400000C9400000C940000D0
:1000B0000C9400000C9400000C9400000C940000C0
:1000C0000C9400000C9400000C9400000C940000B0
:1000D0000C9400000C9400000C9400000C940000A0
:1000E0000C94000080C00200710BE4000000F89442
:1000F000EE27EFBBF1E0F5BFE5BFE0937400E093BE
:100100007500F8E1A895A4B7A77FA4BFF09360009D
:10011000E09360008DE0A2E0BB27ED938A95E9F7BC
:1001200080E090E2A0E0B2E0ED930197E9F7E6EE1F
:10013000F0E085919591009761F0A591B5910590BA
:100140001590BF01F00105900D920197E1F7FB01B9
:10015000F0CF8BBF8CBFE0E0EEBBEFEFEDBFE1E295
:10016000EEBFC0E0DAE00C941801E881E03019F449
:10017000E0E30C949902A881A13019F4E1E30C9416
:100180009902A881A23019F4E2E30C949902A881A3
:10019000A33019F4E3E30C949902A881A43019F474
:1001A000E4E30C949902A881A53019F4E5E30C94DA
:1001B0009902A881A63019F4E6E30C949902A8816B
:1001C000A73019F4E7E30C949902A881A83019F438
:1001D000E8E30C949902A881A93019F4E9E30C949E
:1001E0009902A881AA3019F4E1E60C949902A88139
:1001F000AB3019F4E2E60C949902A881AC3019F402
:10020000E3E60C949902A881AD3019F4E4E60C946D
:100210009902A881AE3019F4E5E60C949902A88100
:10022000AF3019F4E6E60C949902EDE20C949902D1
:10023000E0E8E0936100E0E0E0936100E2B9E1B959
:10024000E5B9E4B9E8B9E7B9EBB9EAB9EEB9EDB99E
:10025000E1BBE0BBE4BBE3BBE0930201E09301013F
:10026000E0930501E0930401E0930801E0930701A6
:10027000E0930B01E0930A01E4BDE5BDE6BDE7BDF7
:10028000E8BDE0938000E0938100E0938500E09377
:100290008400E0938700E0938600E0938900E09378
:1002A0008800E0938B00E0938A00E0938D00E09358
:1002B0008C00E093B600E093B000E093B100E093CF
:1002C000B200E093B300E093B400E0939000E093B9
:1002D0009100E0939500E0939400E0939700E09301
:1002E0009600E0939900E0939800E0939B00E093E0
:1002F0009A00E0939D00E0939C00E093A000E093BF
:10030000A100E093A500E093A400E093A700E09390
:10031000A600E093A900E093A800E093AB00E0936F
:10032000AA00E093AD00E093AC00E0932001E093DD
:100330002101E0932501E0932401E0932701E0935C
:100340002601E0932901E0932801E0932B01E0933B
:100350002A01E0932D01E0932C01E0936900E093E2
:100360006A00EDBBE0936B00E0936C00E0936D00DE
:10037000E0936800E0936E00E0936F00E0937000FC
:10038000E0937100E0937200E0937300E0E8E0BF57
:10039000E0E0E0937B00E0EFEA93E9E0FAE0FA9333
:1003A000EA930E94F0024E2EE4E1EA930E946D026D
:1003B0004A92DBDEEA930E944402FFCFFFCFFFE0C8
:1003C000FA95F1F70895A4B1AF70A4B9299A2898C5
:1003D000F6DF2A9AF4DFA3B12A98F1DF2A9AEFDF39
:1003E0002A98A7FDF5CF0895A07FAB2BA5B92A9A2F
:1003F0000E94DF012A980E94DF0108952998A4B184
:10040000A76FA4B9B5B1BF70A881EEDFA881A2958E
:10041000EBDF299A0C9499022A9A0E94DF01E3B13A
:100420002A980E94DF01E07F08950E94DF01F4DF37
:10043000AE2FF2DF2998E295EA2B08950E94E3019E
:10044000E881F0E0EF58F44FE081A981EA0FEA93E8
:100450000E94FE0139806880229608950E94E3017F
:10046000E2E0EA930E94FE010E94E301ECE0EA93DD
:100470000E94FE010E94E301E1E0EA930E94FE0176
:10048000E0E06E2E3E2E0895EF93FF93A8816894CE
:10049000AA3019F0E894351430F06394E0E0EA9360
:1004A0006A92CCDF36F033948EDF289AA881AA9323
:1004B000A5DFFF91EF910C949902AA27BB27119712
:1004C000F1F708952998A4B1A76FA4B9B5B1BF7089
:1004D000A8810E94F401299A2CC02A982898588053
:1004E000E881E058E093730BE881E054E093740BEB
:1004F00022D021D020D0E1DFE0E2EA93E3DFDDDFAC
:10050000E8E21ED0E4E01CD0E5E81AD0A4B1AF7058
:10051000A4B9299A0E941502E53011F0E0E009C063
:100520000E94E301E6E0EA930E94FE010E942E028F
:10053000E1E0219608950E945D02E0E3EA93C2CFD4
:10054000EA930E94FE010C945D02EE271098089A2F
:1005500080EC93E00197F1F7089885E28A95F1F72E
:10056000009B08958BEC8A95F1F7009BE3958CE056
:1005700093E00197F1F70895089A85E08A95F1F7DD
:1005800008988DE18A95F1F7889400990894E79589
:1005900085ED8A95F1F70895E894089A85E08A95A3
:1005A000F1F770FD089883E28A95F1F7009903C08E
:1005B00070FF03C0089570FF089588EC8A95F1F7E5
:1005C00008988DE08A95F1F76894089568E079912C
:1005D000EE27E2DF26F477956A95D9F7E39508953B
:1005E0004F935F9311244427A881B981012C1124D2
:1005F000ACDFEE23F9F0EA81EA93E8DF51E0501531
:1006000098F4BADFE7FD08C0B7DFE7FD06C03FD0CA
:10061000892319F4152E01C0AFDF39D0892370E08A
:1006200009F071E0B9DF1EC0A7DFE7FF0BC0A4DF50
:10063000E7FF05C0E42F5F914F91239608956894DA
:1006400037D0EFCF99DFE7FF01C003C0501531F07D
:10065000152EE8942DD077279FDF04C0689428D00A
:1006600071E09ADF5395513454F286DFEE1FEE1F8E
:10067000E1701896EC93189743951120D9F259E040
:10068000EC911996EC9318975A95D1F7AFCFE52FC7
:10069000EA956E2FE695E695E695FF27EA0FFB1F94
:1006A000808191E0677019F0990F6A95FCCF0895E9
:1006B000EEDF1EF09095892301C0892B8083089579
:00000001FF
