:100000006628FF3FFF3FFF3F031383120C08013FA9
:10001000C10000300318013F0D07C20041088C00E9
:1000200042088D0001304202031D1828EA304102C7
:10003000031C1D288C018D018E0A0E080C3A031D2D
:1000400022288E0100300D02031D282800300C02EA
:10005000031C3B2800300D02031D30283C300C02ED
:1000600003183B280E08003A031D392801308F0081
:100070003B280130900001300D02031D4128A430BF
:100080000C02031C4D2801300D02031D4928E030ED
:100090000C0203184D28013091000F08013A031D8E
:1000A00053288616542886128F011108013A031D21
:1000B0005B2806165C28061291011008013A031D00
:1000C0006328061764280613900108000230031302
:1000D00083168500033086008312850186018C011A
:1000E0008D018E0192019301042087200D30CB00F9
:1000F000FF30CA00CB0B7D288028CA0B7D287A28C8
:10010000F330CA00CA0B8228000074288628031323
:100110008312120AC100410892004108643A031D8B
:1001200093289201930A1308233A031D98289301F8
:100130001D301302031C9E28013094001408013A5C
:10014000031DA4288617A528861394010800FF3FE5
:02400E00FA3F77
:00000001FF
