:0E0000000C94D2010C9400000C9400000C949F
:10000E0000000C9400000C9400000C9400000C9462
:10001E0000000C9400000C9400000C9400000C9452
:10002E0000000C9400000C9400000C9400000C9442
:10003E0000000C9400000C9400000C9400000C9432
:10004E0000000C9400000C9400000C9400000C9422
:10005E0000000C9400000C9400000C9400000C9412
:10006E0000000C9400000C9400000C9400000C9402
:10007E0000000C9400000C9400000C94000064002E
:10008E00C80090012003F8FFFCFFFEFFFFFF0100F8
:10009E0004003C000000A040000020402B2D2D2D20
:1000AE002D2D2D2D2D2D2D2D2D2D2D2D2D2D2D2B74
:1000BE00002F20534F4C4941522E20415553494E4B
:1000CE00494D4F202F002F2056414C44494B4C494F
:1000DE00532056312E00202F2B2D2D2D2D2D2D2D35
:1000EE002D2D2D2D2D2D2D2D2D2D2D2B0052415302
:1000FE00544120445331384232300A5445524D4F08
:10010E00444156494B4C49553A20005354415254A0
:10011E004156494D4F204B4C414944413A0A5445B2
:10012E004D502E20444156494B4C4953002B3E0016
:10013E002D2D3E003C2B003C2D2D002B2D00202084
:10014E002020534F4C49415249554D4F20202020DD
:10015E00002020202056414C44494B4C495320202E
:10016E002020200020202D3D504147522E204D456D
:10017E004E49553D2D00312E4B414D424152494F76
:10018E003A2000252B322E3166DF43004F464600C3
:10019E002D2D2D2D00322E4C41554B4F3A20202027
:1001AE002000332E534B4C454E4445533A202000ED
:1001BE00342E534F4C4941522E313A2000352E5396
:1001CE004F4C4941522E323A2000362E534F4C4955
:1001DE0041522E333A2000372E4E55535441545926
:1001EE004D4149002041554B535445534E494F20E4
:1001FE004E554D4552494F2000204C414953564FC4
:10020E00205445524D4F4D4554524F202000202032
:10021E002020202020204E4552412020202020202A
:10022E00202000202D3D4B414D424152494F20543C
:10023E0045524D2E3D2D2000312E555A53544154CA
:10024E005954413A00322E54454D50455241542E88
:10025E003A00202020204F4646002020202D2D2D14
:10026E002D00332E5445524D4F4D4554524F204E76
:10027E00523A002D2F0020202D3D4C41554B4F2042
:10028E005445524D2E3D2D202000312E54454D50BB
:10029E00455241542E3A00322E5445524D4F4D4543
:1002AE0054524F204E523A00202020202D3D534BC9
:1002BE004C454E4445533D2D0052455A494D4153F0
:1002CE003A002052414E4B494E495300204155545D
:1002DE004F4D41542E002F323535002D3D534F4C8E
:1002EE004941522E2031205445524D2E3D2D200095
:1002FE002D3D534F4C4941522E2032205445524DE4
:10030E002E3D2D20002D3D534F4C4941522E203372
:10031E00205445524D2E3D2D20002020202D3D4EA7
:10032E005553544154594D41493D2D202020004EE6
:10033E0045424149475441002D3D454B52414E4F98
:10034E0020415053564945542E3D2D2000415053C7
:10035E0056494554494D41533A002D4E414E0000E9
:10036E0080C001002D4E414E0000010089059C0009
:10037E000100A1059E000100A305A0000400E705F1
:10038E00A2000400EB05A6000200F2056E030100B8
:10039E00F60570030000F894EE27ECBBF1E0F5BF14
:1003AE00E5BFE0936C00F8E1F1BDE1BD8DE0A2E0A8
:1003BE00BB27ED938A95E9F780E090E1A0E0B1E0EC
:1003CE00ED930197E9F7E8E7F3E0859195910097B2
:1003DE0061F0A591B59105901590BF01F0010590C2
:1003EE000D920197E1F7FB01F0CF8BBFEFEFEDBF61
:1003FE00E0E1EEBFC0E0D5E00C94750325970E94B6
:10040E009B201091630024E0203004F131E000E0E5
:10041E00E22FA02F0E941219AE17BF071CF4330F44
:10042E000F5FF6CF131760F00E941719E1E0EC93FF
:10043E00A12FBB27E32FF0E00E941E191E2F04C030
:10044E000E941719E0E0EC932150DECFE985F0E031
:10045E00DE011496AE0FBF1FEC910E94A2202A96C9
:10046E000895E881E03021F4E1E0EA93C7DF94C01B
:10047E00A881A13021F4E0E0EA93C0DF8DC0A8810D
:10048E00A23021F4E0E09899E1E086C0A881A33083
:10049E0021F4E0E09A99E1E07FC0A881A43021F434
:1004AE00E0E09999E1E078C076C0E881E062E7B9D2
:1004BE008BE18A95F1F7369A349BFECF349AE5B1EB
:1004CE006BC0E881E03009F5E0912D050E942319FB
:1004DE00A09134050E942619BCF4E0913405EF5F1B
:1004EE00E09334050E942A193396DF01E09134051A
:1004FE00F0E0AE17BF0734F4E0913405F0E0339727
:10050E00E0933305E1E048C011C0A0913405A1305D
:10051E0068F0E0913405E150E0933405A091330585
:10052E00EA1710F4E0933305E1E036C034C0E881F9
:10053E00E03011F4E0E330C0A881A13011F4E1E322
:10054E002BC0A881A23011F4E2E326C0A881A3300B
:10055E0011F4E3E321C0A881A43011F4E4E31CC03C
:10056E00A881A53011F4E5E317C0A881A63011F4D7
:10057E00E6E312C0A881A73011F4E7E30DC0A8810D
:10058E00A83011F4E8E308C0A881A93011F4E9E31A
:10059E0003C0EDE201C0E0E021960895AA85A130E6
:1005AE0010F40C9472032597E1E0E983E0E0EA830E
:1005BE00EB83EC83E883EF850E942319A8810E94C8
:1005CE00261954F40E942E190E9433190E943A19CA
:1005DE00E881EF5FE883EFCFE889E030A1F525975A
:1005EE00EE85FF85688979890E943A19AB89A13019
:1005FE0021F4EBE2EA930E94B9170E943F190E9480
:10060E0044190E94491920F40E9444190E944F195E
:10061E00E0E0ED83EC89AD81AE1790F4EA89E0302D
:10062E0039F00E94541921F4EEE2EA930E94B917B0
:10063E000E945F190E946419ED81EF5FED83EACF8E
:10064E00E1E02A9649C0A889A13011F00C947103FB
:10065E0025970E948B190E943A19AB89A13049F453
:10066E00AC81AA2312F0EBE201C0EDE2EA930E9404
:10067E00B917AC81AA2352F40E942E19AFEFBFEF27
:10068E008FEF9FEF0E94B61F0E943A190E944419E5
:10069E000E94491920F40E9444190E944F19E0E06B
:1006AE00ED83EC89AD81AE1790F4EA89E03039F034
:1006BE000E94541921F4EEE2EA930E94B9170E94A7
:1006CE005F190E946419ED81EF5FED83EACFE1E0DF
:1006DE002A9602C02596E0E02C960895E0E0EBBB4A
:1006EE00EABBE8BBE1EFE7BBE0E0E5BBE8E7E4BB74
:1006FE00E0E0E2BBE1BBE3B9E2B9E0936200E09374
:10070E006100E0936500E0936400E0BFE3BFE2BFE9
:10071E00E1BFEFBDEEBDEDBDECBDE7BDE6BDEBBD92
:10072E00EABDE9BDE8BDE0937900E0937800E5BD50
:10073E00E4BDE3BDE0938B00E0938A00E093890073
:10074E00E0938800E0938100E0938000E0938700BF
:10075E00E0938600E0938500E0938400E0938300AD
:10076E00E0938200E0936A00EABFE9BFE7BFE0933F
:10077E007D00E0E8E8B9E0E0E0BDE0E2E7B9E3E8FB
:10078E00E6B90E949019C09AE4E1EA930E9400181B
:10079E00EAEAF0E00E949619EFEBF0E00E9496195B
:1007AE00E4EDF0E00E9496190E949A190E949F199A
:1007BE00E4E4F1E060E070E00E94A319E4EEF0E002
:1007CE000E9496190E949019E4E1E09337050E9469
:1007DE00AD192197E0E0E883A881A83078F40E9453
:1007EE00B8190E946320E33028F00E94B819E0E0A7
:1007FE000E947F20E881EF5FE883EECF0E94BD1953
:10080E00E53628F0A5E5B0E0E4E60E947F200E94E0
:10081E00C2190E94C91948F00E94C2190E94D0192B
:10082E0019F010F00C941C0408C0A0E5B0E0E0E054
:10083E00F0E060EA71E40E946F2021962297E0E0DA
:10084E00E983A981A83030F40E94D719E981EF5FBE
:10085E00E983F7CFE0EFEA93E9E3F5E0FA93EA9361
:10086E000E94331DE0933805A0913805A13070F039
:10087E000E94A3170E94DE19EBEFF0E00E9496197A
:10088E00E09138050E94E4190E949019E0E0E98396
:10089E00A981A83088F40E94EA190E946320E130F1
:1008AE0039F40E94EA19E2E00E947F200E94D719D3
:1008BE00E981EF5FE983ECCFE0E0E9830E94EF1975
:1008CE0010F00C94D2042197E0E0E883EA810E94B4
:1008DE00F419FA93EA93E9ECEA93E0E8EA93E3E099
:1008EE00EA930E940A17E03059F40E94A317E9E137
:1008FE00F1E00E949619E4E6F0E00E94FA19FBCFAF
:10090E00E0E0E983A981A83010F00C94CD040E9498
:10091E00EA190E946320E230A9F52297E1E0E8830C
:10092E00E0E0E983A981A930B0F4EC810E94F419CA
:10093E000E94FE196C91EB810E94041A0E94FE190E
:10094E000E946320E61719F0E0E0E88304C0E98115
:10095E00EF5FE983E7CFA881A13099F4EA81E03017
:10096E0059F4EB810E940A1AAC81A0830E940E1AE0
:10097E000E94131AEA8305C00E940E1AEFEF0E941E
:10098E007F202296E981EF5FE983BCCF2196E98132
:10099E00EF5FE98393CF2296AAE8B5E00E94171A7B
:1009AE00A0918A05B0918B05A43FE1E0BE0730F01F
:1009BE00E0E0E0938A05E0938B059394E1E09E16C8
:1009CE0020F1E0938C059A94E0913505EF5FE0936A
:1009DE00350500240414050458F4F20131972F0153
:1009EE00042C052829F4E1E0E09389050E941D1AE4
:1009FE00E0E0E71528F47A94772011F40E941D1A8E
:100A0E00E0E0E61508F46A9403C0E0E0E0938C059C
:100A1E002197E0E0E883A881A530B0F5E881EA935C
:100A2E0020DDE13059F40E942D1A38F4A881B0E08F
:100A3E00AE56BA4FEC91EF5FEC9322C00E942D1A86
:100A4E00A8F00E94341AA1E0A083E0913505EE5F74
:100A5E00E0933505EDE2F0E02F01EEE17E2EEFE0C2
:100A6E006E2E0E94BD19E093370504C00E94341A01
:100A7E00A0E0A0830E94391AEE56FA4FA0E0A083A0
:100A8E00E881EF5FE883C7CF2196A0918C05A13056
:100A9E0028F4A0919805A13008F46BC0E091970559
:100AAE00EF5FE0939705A0919705A33010F40C9497
:100ABE00C005A09198050E943C1A0E946320E13067
:100ACE0011F00C94AB052497E09198050E940A1A38
:100ADE00E0810E94F419FA93EA930E94C8160E94CC
:100AEE003F200E94401AE0E0F0E068EC72EC0E94B9
:100AFE00421F09F010F40C948D050E94401AE0E09C
:100B0E00F0E068E473E40E94421F08F00FC0E09129
:100B1E0098050E94431AEA0FFB1F0E94401A0E947A
:100B2E0044200E94491AA0E0A0830DC00E94491AD9
:100B3E00A081AA3040F4A0919805B0E0A756BA4F14
:100B4E00EC91EF5FEC9324960E94491AA081A0309D
:100B5E0011F0AA3029F4E0919805EF5FE093980523
:100B6E00A0919805A83028F0E0E0E0939705E09377
:100B7E009805A091A105A83018F0E4E0E093A10536
:100B8E00A091A105A43051F40E944F1AA0912C05FA
:100B9E00EA1710F4AC9A01C0AC9829C0A091A10537
:100BAE00A53051F40E944F1AA0912B05EA1710F4AC
:100BBE00AB9A01C0AB981BC0A091A105A63051F411
:100BCE000E944F1AA0912A05EA1710F4AE9A01C09E
:100BDE00AE980DC0A091A105A73049F40E944F1AFE
:100BEE00A0912905EA1710F4AD9A01C0AD98E091D5
:100BFE00A105EF5FE093A105A0918C05A13010F443
:100C0E000C942007E091A205EF5FE093A205E0911E
:100C1E00A305A091A205EA1710F00C942007E0E0BE
:100C2E00E093A2050E94541AE03011F00C942007B4
:100C3E000E94591AA091E705B091E8058091E90547
:100C4E009091EA050E945F1E7F936F93FF93EF933F
:100C5E000E94621AAF91BF918F919F910E94421F85
:100C6E0010F00C94DD060E94621A0E94671A0E9410
:100C7E00721A09F010F40C946A060E94621A0E940D
:100C8E00671A7F936F93FF93EF930E947F1AAF9132
:100C9E00BF918F919F910E94421F90F40E948E1AD5
:100CAE0070F0A0912A05A63F30F4E0912A05E65F88
:100CBE000E94A11A02C00E94AA1AE0932C0502C03B
:100CCE000E94AD1969C00E94621A0E94B01A0E9459
:100CDE00721A09F010F40C949D060E94621A0E947A
:100CEE00B01A7F936F93FF93EF930E947F1AAF9189
:100CFE00BF918F919F910E94421FA8F40E948E1A5D
:100D0E0019F010F00C949906A0912A05AA3030F033
:100D1E000E94BD1A3A970E94C21A02C00E94AA1AD5
:100D2E00E0932C0502C00E94CA1A36C00E94621AB5
:100D3E000E94D51A09F010F40C94BA060E948E1A6D
:100D4E0088F4A0912A05A23030F00E94BD1A329785
:100D5E000E94C21A05C0E0E0E0932A05E0932B053D
:100D6E00E0932C0519C00E94621A0E94D51AA0F4B5
:100D7E000E948E1A09F010F40C94D306A0912A0545
:100D8E00AE3F30F4E0912A05EE5F0E94A11A02C038
:100D9E000E94AA1AE0932C05E0912A05F0E0AFEF2D
:100DAE00B0E00E941E19E093290502C00E94CA1AE3
:100DBE002197E0E0E883A881A83098F4E881A4EABE
:100DCE00B5E00E94E01AEA0FFB1F0F01E881A4ECC8
:100DDE00B5E00E94E01A0E94E41AE881EF5FE88312
:100DEE00EACF21962197E0E0E883A881A83088F425
:100DFE00E881A4ECB5E00E94E01AEA0FFB1F0F0198
:100E0E00E8810E94431A0E94E41AE881EF5FE883AA
:100E1E00ECCFE0E09199E1E0E093E405E0E0929917
:100E2E00E1E0E093E505E0E09399E1E0E093E6058B
:100E3E002196E0913605EF5FE0933605A0913605D9
:100E4E00A43118F0E0E0E0933605E0913605A0916C
:100E5E003705EA1710F4C09A01C0C0986620A9F4AD
:100E6E00A0913705A13088F0E091EF05EF5FE09398
:100E7E00EF05A091EF05A93140F0E0E0E093EF051A
:100E8E00E0913705E150E0933705A0918905A13037
:100E9E0011F00C945808E091F005EF5FE093F00527
:100EAE00A091F005A13E10F40C943F08E0E0E09311
:100EBE00F005E091F105EF5FE093F105A091F105EA
:100ECE00AC3218F0E0E0E093F1050E94A317E09138
:100EDE00F105E03071F40E94EC1A0E94F21A0E94A1
:100EEE00DE190E94F21A0E949F190E949317EEE5D6
:100EFE00A9C0A091F105A13069F40E94DE190E94EB
:100F0E00F21A0E949F190E949317EBE3F1E00E94E0
:100F1E0096199BC0A091F105A23020F0A091F10589
:100F2E00A43108F00BC0E091F105F0E032970E9479
:100F3E00F61AEEE3F1E00E94961987C0A091F10532
:100F4E00A43159F4E2E10E94F61AECEBF0E00E94B3
:100F5E0096190E94FB1AE6E775C0A091F105A5311E
:100F6E0069F4E3E10E94F61A0E94F21A0E94FB1A3B
:100F7E000E94F21A0E94011BE6E764C0A091F105DF
:100F8E00A63161F40E94FB1A0E94F21A0E94011B04
:100F9E000E94F21A0E94071BE6E754C0A091F105C9
:100FAE00A73179F40E94011B0E94F21AE2E1EA9342
:100FBE00E3E0EA930E949317E2E4F1E00E949619AF
:100FCE0044C0A091F105A83120F0A091F105AA32FC
:100FDE0008F012C0E091F105F0E0A1E1B0E00E944E
:100FEE001E19E85EEA93E3E0EA930E949317E5E4A4
:100FFE00F1E00E94961929C0A091F105AA3279F468
:10100E000E94EC1AEEE5EA930E94B9170E949A1913
:10101E000E949317E9E4F1E00E94961916C0A09180
:10102E00F105AB3291F40E94DE19EEE5EA930E94CF
:10103E00B9170E94EC1A0E94F21A0E949A190E9485
:10104E009317EFE2EA930E94B917E1E0EA93EA936D
:10105E000E949317ECE4F1E00E949619E1E0EA9306
:10106E00E2E0EA930E949317EFE5F1E00E949619F1
:10107E00A0918E05A13081F0A0919005A13061F074
:10108E00A0919105A13041F0A0918D05A13021F0E4
:10109E00A0918F05A13019F4E0E0E09389050C943E
:1010AE00CB12A0913505A13010F00E94A317E0914C
:1010BE002E05E03011F00C947B09A0919105A13022
:1010CE0019F40E940D1B0FC0A0918D05A13019F4CB
:1010DE000E94111B08C0A0918F05A13021F4E09150
:1010EE0034050E94151BA0913505A13010F40C9407
:1010FE0079092297E0E0E883E8E00E941D1B0E9438
:10110E002A190E94231B14F00C9475090E94261BA9
:10111E0019F4E2E7F1E0D7C0A981A13039F5E4E88E
:10112E00F1E00E949619A0E0B0E00E946320E13049
:10113E0069F40E942F1BE0910905F0910A05609158
:10114E000B0570910C050E94381B0FC0A0E0B0E09B
:10115E000E946320E23019F4EAE9F1E002C0EEE900
:10116E00F1E0FA93EA930E94DF17B1C0A981A23091
:10117E0009F5E3EAF1E00E949619A1E0B0E00E94C1
:10118E006320E13039F40E942F1B0E94591A0E94ED
:10119E00381B0FC0A1E0B0E00E946320E23019F4CA
:1011AE00EAE9F1E002C0EEE9F1E0FA93EA930E9477
:1011BE00DF178DC0A981A33019F4E0EBF1E083C0F5
:1011CE00A981A43039F5EEEBF1E00E949619A2E068
:1011DE00B0E00E946320E13069F40E942F1BE09181
:1011EE001105F091120560911305709114050E947E
:1011FE00381B0FC0A2E0B0E00E946320E23019F469
:10120E00EAE9F1E002C0EEE9F1E0FA93EA930E9416
:10121E00DF175DC0A981A53039F5EBECF1E00E9436
:10122E009619A3E0B0E00E946320E13069F40E94B9
:10123E002F1BE0911505F091160560911705709121
:10124E0018050E94381B0FC0A3E0B0E00E94632077
:10125E00E23019F4EAE9F1E002C0EEE9F1E0FA93C6
:10126E00EA930E94DF1733C0A981A63039F5E8ED65
:10127E00F1E00E949619A4E0B0E00E946320E130F4
:10128E0069F40E942F1BE0911905F0911A056091E7
:10129E001B0570911C050E94381B0FC0A4E0B0E026
:1012AE000E946320E23019F4EAE9F1E002C0EEE9AF
:1012BE00F1E0FA93EA930E94DF1709C0A981A730E3
:1012CE0031F4E5EEF1E0FA93EA930E94DF17E8813C
:1012DE00EF5FE883E981EF5FE98311CF0E94451B41
:1012EE000E944B1B0C94CB12A0912E05A13011F035
:1012FE000C94330B2197E0E00E94561B19F40E94C8
:10130E000D1B31C1A0918D05A13019F40E94111B46
:10131E002AC1A0918F05A13041F4E0913405E0304F
:10132E0019F4E0E00E94151B1EC1A0918E05A1309C
:10133E0011F00C942A0AA0913405A130C1F40E9438
:10134E00C2190E94C91909F010F40C94B7090E9431
:10135E00C2190E945B1B0E94601BA0E5B0E004C096
:10136E00A0E5B0E00E94651B0E946F206BC0A091AB
:10137E003405A23019F0A33009F064C00E94B819E8
:10138E000E946320E13019F0E23009F05BC00E9448
:10139E006A1BE0810E942319E983A981A03014F40D
:1013AE000C941C0A0E946F1BA881A830A8F40E94FE
:1013BE00B8190E946320E13059F4E8810E940A1A9C
:1013CE000E94741BEA17FB0719F4E1E0E98304C0DD
:1013DE00E881EF5FE883E8CFE981E03009F50E940C
:1013EE00771B0E947A1BA881A93088F4ED810E9498
:1013FE00041ADF010E94391A0E947F1BDF010E942E
:10140E00391A0E94841BE881EF5FE883ECCFED81EF
:10141E000E94431A0E948B1BE1E0EB83239605C0CA
:10142E002296E981E150E983B8CFE881E03049F4B2
:10143E00AA810E943C1A0E94941B0E94991B0E9432
:10144E008B1B229690C0A0919005A13011F00C94A8
:10145E00BA0AA0913405A130C9F40E94C2190E94A3
:10146E00D01958F40E94621AADECBCEC8CEC9DE3E2
:10147E000E945F1EA0E5B0E006C0A0E5B0E0E0E08F
:10148E00F0E060EF71E40E946F206DC0A091340512
:10149E00A23019F0A33009F066C00E949D1B0E9475
:1014AE006320E13031F4EA810E940A1AE081EF5F95
:1014BE0001C0E0E0E983E9830E94EF1910F00C947B
:1014CE00AC0A0E946F1BA881A830A0F40E94B81924
:1014DE000E946320E13051F4E8810E940A1AA08133
:1014EE00EB81EA1719F4E1E0E98304C0E881EF5FCC
:1014FE00E883E9CFE981E03019F50E94771B0E945D
:10150E007A1BA881A93088F4ED810E94041ADF01AC
:10151E000E94391A0E947F1BDF010E94391A0E9415
:10152E00841BE881EF5FE883ECCFAD810E943C1A0B
:10153E000E94131A0E94A21B0E948B1B239605C0A9
:10154E002296E981EF5FE983B7CFE881E03051F46D
:10155E000E94A51B0E94AA1B0E94AD1B0E949019FF
:10156E000E94A3172296A0913505A13010F40C9479
:10157E00310B0E94B01B0E942A190E94231B14F0EB
:10158E000C942D0B0E94261B29F4E1E3F2E00E943D
:10159E00961955C0A981A13089F42A97E6E4F2E0A4
:1015AE000E949619FE01FA93EA93E1E9F1E0FA93AB
:1015BE00EA930E94621A0E94381B41C0A981A23090
:1015CE0021F5E3E5F2E00E949619AA810E943C1AE9
:1015DE000E946320E13041F40E942F1BE8890E9493
:1015EE00431A0E94B51B10C0AA810E943C1A0E9489
:1015FE006320E23019F4E0E6F2E002C0E8E6F2E041
:10160E00FA93EA930E94DF171AC0A981A330B9F4A6
:10161E00E0E7F2E00E949619AA810E943C1A0E940D
:10162E006320E13031F4EA810E940A1A0E94BA1B4B
:10163E0002C00E94C31BE09138050E94E419E881A4
:10164E00EF5FE883E981EF5FE98395CF0E94451B49
:10165E000E944B1B219698C7A0912E05A23011F027
:10166E000C94980C2197E1E00E94561B19F40E94ED
:10167E000D1BF6C0A0918D05A13019F40E94111B0F
:10168E00EFC0A0918F05A13041F4E0913405E03018
:10169E0019F4E0E00E94151BE3C0A0918E05A13065
:1016AE0011F00C94C40BA0913405A13019F0A230A6
:1016BE0009F062C00E94B8190E946320E13019F04F
:1016CE00E23009F059C00E946A1BE0810E94231982
:1016DE00E983A981A03014F40C94B60B0E946F1B01
:1016EE00A881A830A8F40E94B8190E946320E130A6
:1016FE0059F4E8810E940A1A0E94741BEA17FB072C
:10170E0019F4E1E0E98304C0E881EF5FE883E8CFF4
:10171E00E981E030F9F40E94771B0E947A1BA881C0
:10172E00A93088F4ED810E94041ADF010E94391A53
:10173E000E947F1BDF010E94391A0E94841BE881E0
:10174E00EF5FE883ECCFE1E00E94A21B0E948B1BAF
:10175E00239605C02296E981E150E983BACFE8814C
:10176E00E03049F4AA810E943C1A0E94941B0E9408
:10177E00991B0E948B1B229673C0A0919005A130DD
:10178E0011F00C94370CA0913405A13019F0A23051
:10179E0009F066C00E949D1B0E946320E13031F467
:1017AE00EA810E940A1AE081EF5F01C0E0E0E9835E
:1017BE00E9830E94EF1910F00C94290C0E946F1B04
:1017CE00A881A830A0F40E94B8190E946320E130CD
:1017DE0051F4E8810E940A1AA081EB81EA1719F4EC
:1017EE00E1E0E98304C0E881EF5FE883E9CFE981B6
:1017FE00E03019F50E94771B0E947A1BA881A93050
:10180E0088F4ED810E94041ADF010E94391A0E94A9
:10181E007F1BDF010E94391A0E94841BE881EF5F53
:10182E00E883ECCFAD810E943C1A0E94131A0E94ED
:10183E00A21B0E948B1B239605C02296E981EF5FA7
:10184E00E983B7CFE881E03051F40E94A51B0E94D6
:10185E00AA1B0E94AD1B0E9490190E94A3172296EC
:10186E00A0913505A13010F40C94960C0E94B01B7B
:10187E000E942A190E94231B14F00C94920C0E94B1
:10188E00261B29F4E4E8F2E00E9496193DC0A981D6
:10189E00A13011F50E94C61BAA810E943C1A0E941B
:1018AE006320E13041F40E942F1BE8890E94431A05
:1018BE000E94B51B10C0AA810E943C1A0E94632090
:1018CE00E23019F4E0E6F2E002C0E8E6F2E0FA9364
:1018DE00EA930E94DF1718C0A981A230A9F40E94D2
:1018EE00C91BAA810E943C1A0E946320E13031F488
:1018FE00EA810E940A1A0E94BA1B02C00E94C31BF0
:10190E00E09138050E94E419E881EF5FE883E981F0
:10191E00EF5FE983ADCF0E94451B0E944B1B2196C2
:10192E0033C6A0912E05A33011F00C94F30DA091A7
:10193E009105A13019F40E940D1BD2C0A0918D0506
:10194E00A13019F40E94111BCBC0A0918F05A130BC
:10195E0041F4E0913405E03019F4E0E00E94151BEB
:10196E00BFC0A0918E05A13011F00C94180DA0915E
:10197E003405A13071F40E94541AE13021F4A4E52B
:10198E00B0E0E0E003C0A4E5B0E0E1E00E947F201B
:10199E0047C0A0913405A23071F40E94541AE13070
:1019AE0049F4A0912905A13028F0E0912905E150D4
:1019BE00E093290535C0A0913405A33071F40E943F
:1019CE00541AE13049F4A0912A05A13028F0E09193
:1019DE002A05E150E0932A0523C0A0913405A430D6
:1019EE0071F40E94541AE13049F4A0912B05A130F4
:1019FE0028F0E0912B05E150E0932B0511C0A0914A
:101A0E003405A53069F40E94541AE13049F4A091CE
:101A1E002C05A13028F0E0912C05E150E0932C0527
:101A2E005FC0A0919005A13011F00C94770DA0919C
:101A3E003405A13071F40E94541AE13021F4A4E56A
:101A4E00B0E0E0E003C0A4E5B0E0E1E00E947F205A
:101A5E0047C0A0913405A23071F40E94541AE130AF
:101A6E0049F4A0912905AF3F28F4E0912905EF5FD5
:101A7E00E093290535C0A0913405A33071F40E947E
:101A8E00541AE13049F4A0912A05AF3F28F4E091B1
:101A9E002A05EF5FE0932A0523C0A0913405A430F8
:101AAE0071F40E94541AE13049F4A0912B05AF3F16
:101ABE0028F4E0912B05EF5FE0932B0511C0A09168
:101ACE003405A53069F40E94541AE13049F4A0910E
:101ADE002C05AF3F28F4E0912C05EF5FE0932C0529
:101AEE00A0913505A13010F40C94F20D2297E0E090
:101AFE00E883E6E00E941D1B0E942A190E94231B08
:101B0E0014F00C94EE0D0E94261B19F4E6EBF2E095
:101B1E0053C0A981A13091F4E7ECF2E00E9496192E
:101B2E000E94541AE13019F4E0EDF2E002C0EAED41
:101B3E00F2E0FA93EA930E94DF1742C0A981A23025
:101B4E0059F4E5EAF1E00E9496190E949A190E9452
:101B5E009F19E091290529C0A981A33059F4E0EC21
:101B6E00F1E00E9496190E949A190E949F19E09125
:101B7E002A051BC0A981A43059F4EDECF1E00E94B6
:101B8E0096190E949A190E949F19E0912B050DC07B
:101B9E00A981A530A9F4EAEDF1E00E9496190E9400
:101BAE009A190E949F19E0912C05F0E00E94871F60
:101BBE000E94A319E4EEF2E0FA93EA930E94DF1773
:101BCE00E881EF5FE883E981EF5FE98395CF0E94BB
:101BDE00451B0E944B1BD8C4A0912E05A43011F0BA
:101BEE000C94580F2197E2E00E94561B19F40E94A4
:101BFE000D1BF6C0A0918D05A13019F40E94111B8A
:101C0E00EFC0A0918F05A13041F4E0913405E03092
:101C1E0019F4E0E00E94151BE3C0A0918E05A130DF
:101C2E0011F00C94840EA0913405A13019F0A2305D
:101C3E0009F062C00E94B8190E946320E13019F0C9
:101C4E00E23009F059C00E946A1BE0810E942319FC
:101C5E00E983A981A03014F40C94760E0E946F1BB8
:101C6E00A881A830A8F40E94B8190E946320E13020
:101C7E0059F4E8810E940A1A0E94741BEA17FB07A6
:101C8E0019F4E1E0E98304C0E881EF5FE883E8CF6F
:101C9E00E981E030F9F40E94771B0E947A1BA8813B
:101CAE00A93088F4ED810E94041ADF010E94391ACE
:101CBE000E947F1BDF010E94391A0E94841BE8815B
:101CCE00EF5FE883ECCFE1E00E94A21B0E948B1B2A
:101CDE00239605C02296E981E150E983BACFE881C7
:101CEE00E03049F4AA810E943C1A0E94941B0E9483
:101CFE00991B0E948B1B229673C0A0919005A13058
:101D0E0011F00C94F70EA0913405A13019F0A23009
:101D1E0009F066C00E949D1B0E946320E13031F4E1
:101D2E00EA810E940A1AE081EF5F01C0E0E0E983D8
:101D3E00E9830E94EF1910F00C94E90E0E946F1BBC
:101D4E00A881A830A0F40E94B8190E946320E13047
:101D5E0051F4E8810E940A1AA081EB81EA1719F466
:101D6E00E1E0E98304C0E881EF5FE883E9CFE98130
:101D7E00E03019F50E94771B0E947A1BA881A930CA
:101D8E0088F4ED810E94041ADF010E94391A0E9424
:101D9E007F1BDF010E94391A0E94841BE881EF5FCE
:101DAE00E883ECCFAD810E943C1A0E94131A0E9468
:101DBE00A21B0E948B1B239605C02296E981EF5F22
:101DCE00E983B7CFE881E03051F40E94A51B0E9451
:101DDE00AA1B0E94AD1B0E9490190E94A317229667
:101DEE00A0913505A13010F40C94560F0E94B01B33
:101DFE000E942A190E94231B14F00C94520F0E9469
:101E0E00261B29F4E9EEF2E00E9496193DC0A98145
:101E1E00A13011F50E94C61BAA810E943C1A0E9495
:101E2E006320E13041F40E942F1BE8890E94431A7F
:101E3E000E94B51B10C0AA810E943C1A0E9463200A
:101E4E00E23019F4E0E6F2E002C0E8E6F2E0FA93DE
:101E5E00EA930E94DF1718C0A981A230A9F40E944C
:101E6E00C91BAA810E943C1A0E946320E13031F402
:101E7E00EA810E940A1A0E94BA1B02C00E94C31B6A
:101E8E00E09138050E94E419E881EF5FE883E9816B
:101E9E00EF5FE983ADCF0E94451B0E944B1B21963D
:101EAE0073C3A0912E05A53011F00C94BD1021978F
:101EBE00E3E00E94561B19F40E940D1BF6C0A09180
:101ECE008D05A13019F40E94111BEFC0A0918F0552
:101EDE00A13041F4E0913405E03019F4E0E00E94C5
:101EEE00151BE3C0A0918E05A13011F00C94E90FE3
:101EFE00A0913405A13019F0A23009F062C00E9401
:101F0E00B8190E946320E13019F0E23009F059C08F
:101F1E000E946A1BE0810E942319E983A981A030E7
:101F2E0014F40C94DB0F0E946F1BA881A830A8F448
:101F3E000E94B8190E946320E13059F4E8810E9492
:101F4E000A1A0E94741BEA17FB0719F4E1E0E983F1
:101F5E0004C0E881EF5FE883E8CFE981E030F9F46F
:101F6E000E94771B0E947A1BA881A93088F4ED810C
:101F7E000E94041ADF010E94391A0E947F1BDF01A2
:101F8E000E94391A0E94841BE881EF5FE883ECCF30
:101F9E00E1E00E94A21B0E948B1B239605C0229695
:101FAE00E981E150E983BACFE881E03049F4AA81B2
:101FBE000E943C1A0E94941B0E94991B0E948B1B2C
:101FCE00229673C0A0919005A13011F00C945C1074
:101FDE00A0913405A13019F0A23009F066C00E941C
:101FEE009D1B0E946320E13031F4EA810E940A1A9F
:101FFE00E081EF5F01C0E0E0E983E9830E94EF1921
:10200E0010F00C944E100E946F1BA881A830A0F403
:10201E000E94B8190E946320E13051F4E8810E94B9
:10202E000A1AA081EB81EA1719F4E1E0E98304C0F2
:10203E00E881EF5FE883E9CFE981E03019F50E948E
:10204E00771B0E947A1BA881A93088F4ED810E942B
:10205E00041ADF010E94391A0E947F1BDF010E94C1
:10206E00391A0E94841BE881EF5FE883ECCFAD81C3
:10207E000E943C1A0E94131A0E94A21B0E948B1BE4
:10208E00239605C02296E981EF5FE983B7CFE881F9
:10209E00E03051F40E94A51B0E94AA1B0E94AD1BAA
:1020AE000E9490190E94A3172296A0913505A13087
:1020BE0010F40C94BB100E94B01B0E942A190E94AF
:1020CE00231B14F00C94B7100E94261B29F4EEEF7C
:1020DE00F2E00E9496193DC0A981A13011F50E942F
:1020EE00C61BAA810E943C1A0E946320E13041F473
:1020FE000E942F1BE8890E94431A0E94B51B10C034
:10210E00AA810E943C1A0E946320E23019F4E0E694
:10211E00F2E002C0E8E6F2E0FA93EA930E94DF17DB
:10212E0018C0A981A230A9F40E94C91BAA810E94DD
:10213E003C1A0E946320E13031F4EA810E940A1AAF
:10214E000E94BA1B02C00E94C31BE09138050E9478
:10215E00E419E881EF5FE883E981EF5FE983ADCFB2
:10216E000E94451B0E944B1B21960EC2A0912E056C
:10217E00A63011F00C9422122197E4E00E94561B17
:10218E0019F40E940D1BF6C0A0918D05A13019F413
:10219E000E94111BEFC0A0918F05A13041F4E09178
:1021AE003405E03019F4E0E00E94151BE3C0A09165
:1021BE008E05A13011F00C944E11A0913405A13072
:1021CE0019F0A23009F062C00E94B8190E94632073
:1021DE00E13019F0E23009F059C00E946A1BE0812B
:1021EE000E942319E983A981A03014F40C944011A4
:1021FE000E946F1BA881A830A8F40E94B8190E94F3
:10220E006320E13059F4E8810E940A1A0E94741B7F
:10221E00EA17FB0719F4E1E0E98304C0E881EF5FF8
:10222E00E883E8CFE981E030F9F40E94771B0E9441
:10223E007A1BA881A93088F4ED810E94041ADF016F
:10224E000E94391A0E947F1BDF010E94391A0E94D8
:10225E00841BE881EF5FE883ECCFE1E00E94A21BD4
:10226E000E948B1B239605C02296E981E150E983DB
:10227E00BACFE881E03049F4AA810E943C1A0E944C
:10228E00941B0E94991B0E948B1B229673C0A091D7
:10229E009005A13011F00C94C111A0913405A1301C
:1022AE0019F0A23009F066C00E949D1B0E946320A7
:1022BE00E13031F4EA810E940A1AE081EF5F01C039
:1022CE00E0E0E983E9830E94EF1910F00C94B3115A
:1022DE000E946F1BA881A830A0F40E94B8190E941A
:1022EE006320E13051F4E8810E940A1AA081EB814B
:1022FE00EA1719F4E1E0E98304C0E881EF5FE883AF
:10230E00E9CFE981E03019F50E94771B0E947A1B14
:10231E00A881A93088F4ED810E94041ADF010E9481
:10232E00391A0E947F1BDF010E94391A0E94841BFA
:10233E00E881EF5FE883ECCFAD810E943C1A0E94EA
:10234E00131A0E94A21B0E948B1B239605C0229675
:10235E00E981EF5FE983B7CFE881E03051F40E9465
:10236E00A51B0E94AA1B0E94AD1B0E9490190E94E1
:10237E00A3172296A0913505A13010F40C942012CB
:10238E000E94B01B0E942A190E94231B14F00C9469
:10239E001C120E94261B29F4E3E1F3E00E94961919
:1023AE003DC0A981A13011F50E94C61BAA810E94D1
:1023BE003C1A0E946320E13041F40E942F1BE889F1
:1023CE000E94431A0E94B51B10C0AA810E943C1A9B
:1023DE000E946320E23019F4E0E6F2E002C0E8E683
:1023EE00F2E0FA93EA930E94DF1718C0A981A23097
:1023FE00A9F40E94C91BAA810E943C1A0E94632064
:10240E00E13031F4EA810E940A1A0E94BA1B02C01E
:10241E000E94C31BE09138050E94E419E881EF5F2A
:10242E00E883E981EF5FE983ADCF0E94451B0E94EF
:10243E004B1B2196A9C0A0912E05A73011F00C942C
:10244E00CB12E0912F05E03011F00C947812A09190
:10245E009105A13019F40E940D1B19C0A0918D0594
:10246E00A13019F40E94111B12C0A0918F05A1304A
:10247E0071F4E0913405E03021F4E0E0E0932E05B4
:10248E0004C0E0913405E0932F050E94CC1BA0916F
:10249E003505A13028F12297E0E0E883E1E00E94C3
:1024AE001D1B0E942A190E94231BB4F40E94261B96
:1024BE0019F4E8E2F3E005C0A981A13031F4EDE3AF
:1024CE00F3E0FA93EA930E94DF17E881EF5FE88367
:1024DE00E981EF5FE983E5CF0E94451B0E944B1B0C
:1024EE0053C0A0912F05A13011F00C94CB12A091E6
:1024FE009105A13061F40E94BD19E13038F00E94BF
:10250E00BD19E150A5E5B0E00E947F2019C0A09151
:10251E008D05A13061F40E94BD19E43138F40E949A
:10252E00BD19EF5FA5E5B0E00E947F2009C0A09124
:10253E008F05A13029F4E0E0E0932F050E94CC1B1B
:10254E00A0913505A13000F1E6E4F3E00E94961962
:10255E00EBE5F3E00E9496190E949A190E949F19CA
:10256E000E94BD19F0E00E94871F0E94A319E3E1AB
:10257E000E94F61AEBE2EA930E94B9170E94071B1B
:10258E00EDE2EA930E94B917A0913505A13028F02B
:10259E00E0913505E150E0933505E1E0F0E00E9471
:1025AE00FA190C94D304FFCF7B816A81F981E881FB
:1025BE0077FB770F67FD7160972F9E5781F078F04C
:1025CE00983190F4AA27BB27882708948795B7954A
:1025DE00A7959A95D1F7EA23FB23682305C0E894C3
:1025EE007727EE27FF2766276F77769508F46068C2
:1025FE0077F9A991B99189919991EA17FB07680723
:10260E00790797FB08950E94D21B0E9449200E94D1
:10261E00DB120E943F2019F40E94D21B09C0E6F77C
:10262E000E94D21BA0E0B0E080E89FE30E94581EFB
:10263E00249608951A930A93AA81BB8112960E943A
:10264E002220309729F1AA81BB8114960E94222064
:10265E008F01309761F00230E0E01E07C0F0F80104
:10266E0031978F01AA81BB811496ED93FC93AA81B9
:10267E00BB8112960E94171A3197AC81A083AA8152
:10268E00BB810E942220FF2312F00E94171A06C05F
:10269E00AA81BB81EFEFFFEFED93FC9319810881C7
:1026AE00FAC32497E0E0E883E983E0E8EA83EFE306
:1026BE00EB830E949B20EE85FF85EF3FAFEFFA077D
:1026CE0049F4E885F985FA93EA93E8E6F3E00E9487
:1026DE00D51BB1C0EF3FAFE7FA0749F4E885F9859E
:1026EE00FA93EA93E9E6F3E00E94D51BA4C0AB850A
:1026FE00A73010F0E6E0EB871B85E12F1150E0309C
:10270E0019F00E94D91BF9CFEC85FD856E857F856A
:10271E000E94902021F430E00E94D91B2EC03B85F0
:10272E000E94E51B09F010F40C94A8130E94D91B0B
:10273E000E94E51B28F00E94F01B0E94F51BF8CFAB
:10274E000DC00E94E51B40F40E94F01B0E94FE1B70
:10275E000E94021C3150F5CF0E94D91BEC85FD85DD
:10276E006E857F850E94071C0E94021C0E94E51B3D
:10277E0020F00E94F01B0E94F51B10E0EB85E11784
:10278E00A8F1AC81BD818E819F810E940E1C0E949A
:10279E00071C0E9449200E940A13EC83FD836E835E
:1027AE007F830E94F01B0E94FD1E0E94EC1D0E2FC7
:1027BE000E94121C0E94191CFF27662777270E9471
:1027CE00251EAC81BD818E819F810E94AF1E0E940D
:1027DE00F01B0E94601B0E94021CE12F1F5FE03065
:1027EE0069F60E94121CEEE2EC93C8CF0E941E1CEA
:1027FE00AA85A08330302CF40E94121CEDE2EC93DB
:10280E0031953A3054F00E941E1CBF01A32FEAE00E
:10281E000E94C91FE05DDB01EC930E941E1CBF01EC
:10282E00A32FEAE00E94F31FE05DDB01EC93A88585
:10283E00B985E0E0EC930E94A22060960895EF9790
:10284E0061970E94992010E0FE01E85AFF4F019017
:10285E00F081E02DE887F987FE01EA5AFF4F0190DB
:10286E00F081E02DEE83FF83AE81BF81E0E0F0E0EA
:10287E00ED93FC93DE01A45ABF4F0E94171A3197B5
:10288E00E4912E2FE03011F40C943B16E12FE03042
:10289E0039F4253211F411E002C00E94251CE3C167
:1028AE00E130C1F4253219F40E94251CDBC112E07F
:1028BE00E0E0ED8B00E02D3211F401E0D4C12B32BB
:1028CE0019F4EBE2ED8BCFC1203219F4E0E2ED8B7F
:1028DE00CAC102C0E23039F450E013E0203311F4E3
:1028EE000068C1C102C0E33091F4203310F02A33E6
:1028FE0008F007C0AAE05A9F502DE22FE0535E0F5A
:10290E00B2C140E02E3211F414E0ADC10FC0E4307C
:10291E0099F4203310F02A3308F008C00062AAE0C0
:10292E004A9F402DE22FE0534E0F9DC12C3619F4D5
:10293E00026015E098C104C0E53011F00C943A160F
:10294E00E22FE33659F40E942E1C0E94351C0E9481
:10295E002E1CA481AA930E943C1C84C1E53411F064
:10296E00E53609F404C0E63611F00C940815FE01A4
:10297E007696EE87FF870E94441C0E9426200E94B6
:10298E004B1C0E94501CAD85AA2322F0AD89AB32A0
:10299E0049F017C00E948B190E94B91D0E944B1C52
:1029AE00EDE2ED8B07FF05C0ED89EA930E943C1C1A
:1029BE0008C0EE85FF853196EE87FF873197AD898A
:1029CE00A08305FF46E0263661F40E948B190E9413
:1029DE0049204A93EB89FC89FA93EA930E943418B2
:1029EE000BC00E948B190E9449204A932A93EC89AE
:1029FE00FD89FA93EA9355DEFE0176960E94521CEB
:102A0E001EC0E33739F40E94501C0E945A1C0E94CB
:102A1E00521C0EC0E037C1F40E94501C0E945A1C7A
:102A2E00EE87FF87FA93EA930E9407191E2F08601C
:102A3E000F77403011F0411708F001C0142F40E01D
:102A4E00E0E0EC8B30E06EC0E43611F0E93611F4C4
:102A5E00046002C0E537A1F4EAE0EC8B01FF08C088
:102A6E00E0E0FAEC6AE97BE30E945F1C1AE023C007
:102A7E00E0E1F7E260E070E00E945F1C15E01BC031
:102A8E00E83511F4086004C0E83711F00C943916DB
:102A9E00E0E1EC8B01FF08C0E0E0F0E060E070E107
:102AAE000E945F1C18E007C0E0E0F0E160E070E01B
:102ABE000E945F1C14E0403011F00F7701C041E01E
:102ACE0001FF08C00E94501C0E94441C14960E94D4
:102ADE0026200FC002FF07C00E94501C0E945A1CE5
:102AEE000E94871F06C00E94501C0E945A1C662717
:102AFE007727EA87FB876C877D8702FF12C0AD853B
:102B0E00AA2342F40E948B190E946B1F0E944B1C39
:102B1E00EDE2ED8BED89E03019F01F5F4F5F01C0E4
:102B2E000B7F342F00FD14C0151710F4351708F065
:102B3E000FC007FF08C002FF04C00B7F2D89115084
:102B4E0001C020E301C020E20E94251C5150ECCFB1
:102B5E00141790F4006102FF06C00E94641C09F075
:102B6E00515011504150E0E3EA930E943C1C50300A
:102B7E0009F051504150ECCF312FEC89E030B9F4CF
:102B8E003030A1F003FF06C0EE85FF852591EE875C
:102B9E00FF8705C0AE85BF852D91AE87BF870E948A
:102BAE00251C503009F051503150EACF51C00E94CF
:102BBE00781C0E94CE1F2E2F2A3030F003FF02C049
:102BCE00295C01C0295A01C0205D04FD21C02133BA
:102BDE0060F4A889B9898A899B89A130E0E0BE0793
:102BEE00E0E08E07E0E09E0709F40BC0431740F4C7
:102BFE00531710F000FF01C010C020E207FF08C0FD
:102C0E0020E3006102FF04C00E94641C09F05150D1
:102C1E000E94251C503009F0515031500E94781CF2
:102C2E000E94FF1F0E944B1CEC89A889B9898A89D2
:102C3E009B89FF27662777270E94CE1F0E945F1C65
:102C4E00E889F9896A897B890E94902009F0AFCFC3
:102C5E0000FF08C0503031F05150E0E2EA930E947C
:102C6E003C1CF8CF10E006CEAE81BF810E94222020
:102C7E000E94A020EF966F960895FF92F82E269749
:102C8E000E949B200E94811C309719F4EFEFFFEFFA
:102C9E0025C0DE0116960E94621F8D010E94811CC6
:102CAE00EE83FF83E0E0E887E987DE011A960E9453
:102CBE00621F0E942220FA93EA931A930A93E1E28A
:102CCE00F3E1FA93EA93FE013A96FA93EA93B7DDAB
:102CDE009F01AE81BF81E0E0EC93F9010E94A2203A
:102CEE002A96FF9008951A930E94E31CE03019F47F
:102CFE00E0E00C94ED17E981FA81309789F0E5E573
:102D0E00EA930E94291D10E0A981BA81ED91A98351
:102D1E00BA83EA930E94291D1F5F1830A8F304C0DE
:102D2E00ECECEA930E94291DE1E00C94ED170E9451
:102D3E009B20EC81FD810E94881C11F4E0E01DC0F7
:102D4E00EEEBEA930E94291D10E020E035E03F9360
:102D5E002F932F5F3F4F0E94241DAF91BF91EC9395
:102D6E001F5F1930A0F3E0E0F5E0FA93EA93E9E093
:102D7E00EA930E94A31D0E94911F0E94A2202696F4
:102D8E0008951A930E948E1C21F40E94961C0C9496
:102D9E00ED17A0910405B0E0E5E00E94731FE3700B
:102DAE001E2FE981FA810E94881C21F40E94961C34
:102DBE000C94ED17E4E4EA930E94291DE12FACE890
:102DCE00B0E00E949B1C0E94FA190E948E1C21F4F6
:102DDE000E94961C0C94ED170E94E31CE12FA4E9AF
:102DEE00B0E00E949B1CA0910005B0910105EA2362
:102DFE00FB230E94A31CA0E0B0E080E89DE30E94AC
:102E0E00AF1E0C94ED17EB81FC810E94881C11F40F
:102E1E00E0E041C0E881E295E07FEE0FEF61E883EC
:102E2E00EEE4EA930E94291DE981EA930E94291D8E
:102E3E00EA81EA930E94291DE881EA930E94291DE6
:102E4E00EB81FC81FA93EA9372DFE03011F4E0E05B
:102E5E0022C0A0910305EA81EA1751F4A091020560
:102E6E00E981EA1729F4A0910405E881EA1711F027
:102E7E00E0E011C0EB81FC810E94881C11F4E0E0BF
:102E8E000AC0E8E4EA930E94291DEFE0F0E00E94F8
:102E9E00FA190E94E31C25960895FFE0FA95F1F7C2
:102EAE000895A2B1AF70A2B9199A1898F6DF1A9ABE
:102EBE00F4DFA1B11A98F1DF1A9AEFDF1A98A7FD85
:102ECE00F5CF0895A07FAB2BA3B91A9A0E94541781
:102EDE001A980E94541708951998A2B1A76FA2B913
:102EEE00B3B1BF70A881EEDFA881A295EBDF199A6E
:102EFE000C9432181A9A0E945417E1B11A980E9433
:102F0E005417E07F08950E945417F4DFAE2FF2DFBE
:102F1E001998E295EA2B08950E9458170E94391AC3
:102F2E00EE50FA4FE081A981EA0FEA930E947317DF
:102F3E008980B880229608950E945817E2E0EA939D
:102F4E000E9473170E945817ECE0EA930E947317C1
:102F5E000E945817E1E0EA930E947317E0E0BE2E3C
:102F6E008E2E0895EF93FF93A8816894AA3019F0DE
:102F7E00E8948A1430F0B394E0E0EA93BA92CCDF8E
:102F8E0036F083948EDF189AA881AA93A5DFFF915D
:102F9E00EF910C9432181A93A981BA81ED91A983FD
:102FAE00BA831E2FE03019F01A93DCDFF5CF0EC076
:102FBE001A93E981FA813196E983FA833197E49184
:102FCE001E2FE03019F01A93CDDFF3CF1881239620
:102FDE000895AA27BB271197F1F708951998A2B162
:102FEE00A76FA2B9B3B1BF70A8810E946917199AD1
:102FFE0032C01A981898A880E881E058E093F4053A
:10300E00E881E054E093F5050E94A81C0E94A81CDC
:10301E000E94A81CDEDFE0E2EA93E0DFDADFE8E2FE
:10302E000E94AE1CE4E00E94AE1CE5E80E94AE1CBD
:10303E00A2B1AF70A2B9199A0E948A17E53011F0A9
:10304E00E0E009C00E945817E6E0EA930E94731769
:10305E000E94A317E1E0219608952497E0E0E8830B
:10306E00E983EA83EFE3EB831A930A93EB85FC85FE
:10307E00EF3FAFEFFA0749F4EE81FF81FA93EA933F
:10308E00E2E7F3E00E94D51BA2C0EF3FAFE7FA07DD
:10309E0049F4EE81FF81FA93EA93E3E7F3E00E94AD
:1030AE00D51B95C0AC85AA2362F4E985FA856B859C
:1030BE007C850E94B91D0E94B31C0E94B81CEDE2D3
:1030CE00EC93A885A73010F0E6E0E8871885E12F8D
:1030DE001150E03039F00E94BF1C0E940E1C0E945D
:1030EE00C41CF5CF0E94C91C0E945F1E0E94B31C17
:1030FE0010E0E0E0F0E060E87FE30E94C41C0E9474
:10310E00C91C0E94421F40F00E94BF1C0E94FE1B61
:10311E000E94C41C1F5FF3CF103029F40E94B81C0C
:10312E00E0E3EC9329C0E12F1150E03029F10E9429
:10313E00BF1C0E940E1C0E94071C0E9449200E9468
:10314E000A130E94C41C0E94C91C0E94FD1E0E94EC
:10315E00EC1D0E2F0E94B81C0E94191CF0E00E945C
:10316E00BF1C0E94A31C0E94AF1E0E94D21C0E9474
:10317E00601B0E94B31CD7CFE885E03021F10E947E
:10318E00B81CEEE2EC93E885E150E887EF5FD9F0EA
:10319E000E94D21C0E94FE1B0E94B31CE985FA8578
:1031AE006B857C850E94EC1D0E2F0E94B81C0E9420
:1031BE00191CF0E00E94D21C0E94A31C0E94601BEE
:1031CE000E94B31CE0CFAE81BF81E0E0EC93198189
:1031DE0008812D960895E991F991A991B991CD01A2
:1031EE0005900D920020E1F7FC010895A991B99187
:1031FE00EE27FF276D91662311F03196FBCF0895D0
:10320E00AA27BB27E991F9910590002011F011969C
:10321E00FBCFFD010895B0E0F0E0E7FDFFEF08956C
:10322E00E22FF0E0DE011496AE0FBF1F08950E944C
:10323E005420EA1BFB0B0895F0E031970895B0E09F
:10324E00AE17BF070895E0913305F0E00895E981C8
:10325E00FA816B817C810895AAE0B0E080E090E075
:10326E000E94961F0895E983FA836B837C830895E9
:10327E00A981BA818B819C810895EE81FF81688539
:10328E007985EACFDF01CB01E2DF0E949420089519
:10329E00E150F04060407040E6CFAC89BB27EA8930
:1032AE00F0E0AE1BBF0BED81F0E0EA17FB070895CF
:1032BE00EE81FF81688579850895DADF0E94CE1F41
:1032CE00E883EA930E949E02EA930E94B917A881AE
:1032DE00BB27EEDF0E948C1F0E94961FC9DF0E9443
:1032EE00661FA983BA838B839C83AE81BF81888539
:1032FE009985EAE0F0E060E070E00E94CE1FEE8378
:10330E00FF83688779870895EA85FB856C857D85BF
:10331E000895E8EEF3E0FA93EA930C94D71CFA932F
:10332E00EA930C94DF17E0E0EA93E3E0EA93089562
:10333E00E0E0EA93EA9308950E944920E0E0F0E08D
:10334E0060E070E00E9449200C94D502E0E0E0932A
:10335E002905EFEFE0932A05E0932B05E0932C056A
:10336E000895A881B0E0A050B0400895A5E5B0E062
:10337E000E9463200895A0E5B0E00E945B20DF016B
:10338E00CB010895E0E0F0E060E271E40E94421F9C
:10339E000895E0E0F0E060EF71E40E94421F0895AE
:1033AE00E981F0E0EF57FA4FAFEFA0830895E0E028
:1033BE00EA93E1E0EA930C949317EA930E949E023B
:1033CE00EA930C94B917A981B0E0A050B0400895CB
:1033DE00E0913805A981AE170895A9E0EA9FF001A2
:1033EE00E75CFA4F0895FA93EA930C94D71CDF0129
:1033FE00E981F0E0AE0FBF1F0895A9E0EA9FF0014A
:10340E00E85FFF4F0895F0E0EF57FA4F0895AB8154
:10341E00B0E0A050B0400895E1E00E947F200895F2
:10342E00ED91FD913196FE93EE930895E0E0E093D9
:10343E002E05E0932F05E0933005E0933105E093E0
:10344E003205E0933305E09334050895E881F0E00A
:10345E00EE56FA4FA081AA300895E881F0E0E357C6
:10346E00FA4F0895E881F0E00895B0E0A050B04022
:10347E0008950E943A200895A9E0B5E0F0E00E9478
:10348E007C1F0895E0919805F0E0E756FA4F0895F5
:10349E00E091A105EA930C945C02A4E5B0E00E94D1
:1034AE0063200895E0910D05F0910E0560910F05D2
:1034BE00709110050895A0E5B0E00E945B2008957C
:1034CE00A0910905B0910A0580910B0590910C050C
:1034DE000E94581E0895DF01CB01E091EB05F0919B
:1034EE00EC056091ED057091EE050E94421F089566
:1034FE00A091EB05B091EC058091ED059091EE0554
:10350E00E0E0F0E060E070E40E94AF1E0895E0910C
:10351E000905F0910A0560910B0570910C05A091BB
:10352E00C405B091C5058091C6059091C7050E944E
:10353E00421F0895E0932A05E0912A05E0932B059A
:10354E00E0912A050895EFEFE0932A05E0932B050D
:10355E000895A0910905B0910A0580910B059091EF
:10356E000C050E944E200E94581E0895AAE2B5E056
:10357E00EC91F0E00895EC93E0912A05E0932B0591
:10358E00E0912A050895EFEFE0932905E0E0E0933E
:10359E002A05E0932B05E0932C050895A0910905CB
:1035AE00B0910A0580910B0590910C050E94421F67
:1035BE000895F0E00E947C1F0895AE0FBF1F0E9479
:1035CE002620D0010E942C200895E0E0EA93E2E04C
:1035DE00EA930C949317EFE2EA930C94B917EA93DB
:1035EE00E0E0EA930C949317E3E1EA93E1E0EA93C7
:1035FE000C949317E3E1EA93E2E0EA930C949317A9
:10360E00E3E1EA93E3E0EA930C949317E0E0EA93A4
:10361E000C946802E1E0EA930C946802E0932E05A4
:10362E00E0E0E0933405E09333050895E0932D0533
:10363E00E0913305E98308953496A98100CEE0E048
:10364E00EA93E981EA930E949317E981E0300895A5
:10365E002A97FE01FA93EA93E1E9F1E0FA93EA93ED
:10366E0008950E94492084E00E9444162896FE0187
:10367E00FA93EA930E94D2172A960895E3E1EA9309
:10368E00A0913405BB27DFCDAE1BBF0BAA930E94C2
:10369E009317ECE3EA930E94B91722960895E883F4
:1036AE00A0919105A1300895EDECFCEC6CEC7DE35E
:1036BE0008950E944E200E94581E0895E0E0F0E00A
:1036CE0060E271E408952297E0E0E883EA819BCE00
:1036DE002297E0E0E983E8830895A081EB819BCDFA
:1036EE002197ED8190CEAC81A083E0E0E883089530
:1036FE00EA0FFB1FBF01EC8170CEAE0FBF1FEC9126
:10370E00DB010E947F200895AE0FBF1FE0E0F0E0C6
:10371E0060E070E00E942C200895E0E00E947F207F
:10372E00EA8171CEAFEFA083EA81A6CE2297E0E0C8
:10373E00E883AA819ACEEB83ED819ECE0E94A317D9
:10374E00E2EFF1E0ECCDE7E0F2E0E9CDECE1F2E022
:10375E00E6CD2297E0E0E883E4E068CFAE0FBF1F2E
:10376E000E9426207ECFE081EA930E949E02EF5FA8
:10377E00EA930E94B9172FCFE1E8F2E0D0CDE8E945
:10378E00F2E0CDCDE5EAF2E0CACDE0E0E09334051B
:10379E00E093330508950E9435200895FA93EA9335
:1037AE000C94F218AC81BD818E819F8187DF0E94BF
:1037BE00AF1EEC83FD836E837F830895EC81FD81C4
:1037CE006E817F81AC85BD858E859F850E94421F4F
:1037DE000895AC85BD858E859F85089565DF0E9411
:1037EE00AF1EEC87FD876E877F873F5F089566DF8C
:1037FE000E94AF1E0895EC87FD876E877F87089520
:10380E00A0E0B0E080E09FE30E945F1E08954CDFD1
:10381E000E94AF1E0895A885B9851196A887B9870D
:10382E0011970895E02FE05DEC93E02F0895E88561
:10383E00F9853196E887F987319708952A93EF81B4
:10384E00F885FA93EA93EB85FC8509950895FE01B8
:10385E00E65AFF4F0190F081E02D08953497DE0176
:10386E00A65ABF4FED93FC930895EF81F885FA9316
:10387E00EA93EB85FC8509950895DE01A65ABF4FA4
:10388E000D90BC91A02D0895EA87FB876C877D87EC
:10389E000895DDDFE3CFEE87FF87FA93EA930E9468
:1038AE00FD181E2F0895E9DF14960E942220089518
:1038BE00E88BF98B6A8B7B8B08950B7FED89EA93EE
:1038CE00FE01E95AFF4F0190F081E02DFA93EA9341
:1038DE00FE01E55AFF4F0190F081E02D0995503021
:1038EE000895E889F9896A897B89AA85BB858C85C3
:1038FE009D850895DE011C960E94621F0E94222063
:10390E000895FA93EA930E947A16E0300895E981B9
:10391E00FA81FA93EA930E949E16E0300895E0E051
:10392E00FCE36CE176EC0895F0E0EE0FFF1FEA0F7A
:10393E00FB1F0E94312008950E94871F0E94251EA2
:10394E0008950E94F017E0E3EA930C94F517EA93BA
:10395E000E9473170C94F017E987FA876B877C87A0
:10396E000895AE81BF811196AE83BF8311970895DE
:10397E00AA81BB818C819D810895EA83FB836C8330
:10398E007D830895EA81FB816C817D81A985BA854D
:10399E008B859C850895A985BA858B859C85089510
:1039AE00E991F991309639F080ED97E00197F1F7B2
:1039BE00A8953197C9F70895EE279098889A80ECCC
:1039CE0093E00197F1F7889885E28A95F1F7809B4D
:1039DE0008958BEC8A95F1F7809BE3958CE093E04C
:1039EE000197F1F70895889A85E08A95F1F78898FE
:1039FE008DE18A95F1F7889480990894E79585ED85
:103A0E008A95F1F70895E894889A85E08A95F1F7FA
:103A1E0070FD889883E28A95F1F7809903C070FF54
:103A2E0003C0089570FF089588EC8A95F1F7889881
:103A3E008DE08A95F1F76894089568E0D4DF6A9571
:103A4E00E9F7089568E07991EE27DDDF26F47795A2
:103A5E006A95D9F7E39508954F935F931124442700
:103A6E00A881B981012C1124A7DFEE23F9F0EA8198
:103A7E00EA93E8DF51E0501598F4B5DFE7FD08C092
:103A8E00B2DFE7FD06C03FD0892319F4152E01C021
:103A9E00AADF39D0892370E009F071E0B4DF1EC0CF
:103AAE00A2DFE7FF0BC09FDFE7FF05C0E42F5F91AA
:103ABE004F9123960895689437D0EFCF94DFE7FFA8
:103ACE0001C003C0501531F0152EE8942DD0772784
:103ADE009ADF04C0689428D071E095DF5395513475
:103AEE0054F281DFEE1FEE1FE1701896EC931897DB
:103AFE0043951120D9F259E0EC911996EC93189751
:103B0E005A95D1F7AFCFE52FEA956E2FE695E6954C
:103B1E00E695FF27EA0FFB1F808191E0677019F091
:103B2E00990F6A95FCCF0895EEDF1EF090958923CC
:103B3E0001C0892B80830895EE278881882381F028
:103B4E0068E1A981BA8198E0FD917F2F7E27779554
:103B5E0008F4E627E795F6959A95B9F78A9599F7B9
:103B6E002396089530976040704009F0705808957C
:103B7E00552342F4503811F4E0FF04C03196691F0A
:103B8E00791F6BF050E8572711F45F93CFC05F3F5A
:103B9E0031F0660F000C57956795752F08955F935A
:103BAE0000200AF0CFC0C8C050E8192E1522880F89
:103BBE00991F9527550F879550E8072E0522660FFA
:103BCE00771F7527550F67950895689401C0E8947F
:103BDE005F93F2DF703818F07F3F08F4A7C056E10C
:103BEE00571BAAF4519558300EF4593030F0EFEFC0
:103BFE00FFEF6FEF7FE777F91AC077275523B9F0FC
:103C0E00EE0FFF1F661F771F5A95D1F710C077274B
:103C1E00583028F0EF2FF62F672F5850F9CF552335
:103C2E0031F076956795F795E7955A95D1F700207F
:103C3E000AF44AD15F910895689401C0E8943097D0
:103C4E0060407040B1F0002426F0772312F4009407
:103C5E003BD1172E7EE1112032F07A95EE0FFF1F29
:103C6E00661F111CF9CFEF2FF62F612D5F938ADFA0
:103C7E005F9108954F93AF01FD01DA01AB01BC01D5
:103C8E00CA01402D012C142E4F910895EA0FFB1FEF
:103C9E00681F0895E095F0956095EF5FFF4F6F4FA9
:103CAE0008955F9381DF903871F150E8152604C0B6
:103CBE005F937ADF903839F1703821F1572F591B05
:103CCE002BF112F4D7DFFACF583118F0AA27BB2701
:103CDE008827583028F0AB2FB82F88275850F9CFA7
:103CEE00552329F08695B795A7955A95D9F7502D56
:103CFE00512572F0CBDF38F46795F795E7957395FC
:103D0E0013F420C0B7DF3EDF5F910895D8F7FBCFE5
:103D1E00EA1BFB0B680B51F010F40094BBDF66231B
:103D2E0092F3EE0FFF1F661F7A95CBF7EE27FF2754
:103D3E00662777275F910895EFEFFFEF6FE77FEF2D
:103D4E005F910895EFEFFFEF6FE77FE75F910895C3
:103D5E005F932ADF703851F3903841F301240894B1
:103D6E00791F23F41CF300203AF3ECCF0F921F932C
:103D7E002F933F934F93112722279927689FA001D6
:103D8E008F9F302D410D591F6B9F300D411D591FB7
:103D9E008E9F27D0BF9F25D06A9F23D0BE9F1DD058
:103DAE00AF9F1BD0AE9F110D291F391F491F591FE1
:103DBE00E32FF42F652F522F4F913F912F911F918B
:103DCE000F9066232AF0550FEE1FFF1F661F02C0CD
:103DDE0073954BF2CDDE5F910895100D211D391FA5
:103DEE0002C0200D311D491F591F08955F93DCDE5F
:103DFE00703821F411200AF49FCFA4CF903809F423
:103E0E0095CF01240894970B1BF4D4F30020F3CF25
:103E1E00792F1F932F933F934F931124112722270E
:103E2E0033274427552790E2AE17BF078607410771
:103E3E0030F0AE1BBF0B860B410B089401C088946B
:103E4E00551F221F331F111CAA1FBB1F881F441F83
:103E5E009A9551F7F901612D4F913F912F911F9135
:103E6E00662332F0550FEE1FFF1F661F7A9543F241
:103E7E007FDE5F91089599239AF0772342F097178A
:103E8E0048F029F4AE17BF07860720F031F098945A
:103E9E008894089598940894089518948894089591
:103EAE007723C2F7971798F3A9F7EA17FB07680766
:103EBE0088F399F3ECCF0024AF0DB01D0895AE1B1F
:103ECE00BF0B860B970B0895F09560957095E19555
:103EDE00FF4F6F4F7F4F0895EE230E2EFD0121F001
:103EEE00F595E7950A94E1F70895EE0FFF1FEE0F93
:103EFE00FF1F0895FE2FFF0FFF0B6F2F7F2F0895CB
:103F0E006F2F660F660B762F08958B2F880F880BF9
:103F1E00982F0895EE23E1E009F0EE2708957A9F99
:103F2E00702D6B9F700DF89F700DE99F700D6A9F3D
:103F3E00602D710DFB9F600D711DE89F600D711D51
:103F4E008827FA9FF02D610D781FEB9FF00D611DF4
:103F5E00781FEA9FE02DF10D681F781F089558D045
:103F6E00DEDF0EF4B1DF0895002498E0AA0F001CE6
:103F7E000E1A10F40E0E01C0A1609A95B9F7EA2F31
:103F8E00A02D089539D0F0DF0EF4E19508953F93FA
:103F9E004F935F93002411244427552730E2AA0F34
:103FAE00BB1F881F991F001C111C441F551F0E1A82
:103FBE001F0A460B570B28F40E0E1F1E461F571FC7
:103FCE0001C0A1603A9559F7FD01BC01D001CA01AB
:103FDE005F914F913F910895E894A7FF02C0A1957C
:103FEE006894E7FDE195C0DFEA2F0EF4E1950895A0
:103FFE00CEDFFD01BC010895E894E7FF02C0E19514
:10400E006894A7FF04C0A19500F8039400FA0895E0
:10401E00E89477FF02C058DF689497FF0BC0002426
:10402E00A095B095809590951196801D901D00F8E5
:10403E00039400FA0895ED91FC9111970895ED9176
:10404E00FD916D917C9113970895ED93FD936D9372
:10405E007C9308950590F491E02D0895E881F981FF
:10406E006A817B810895A881B9818A819B81089597
:10407E00E883F9836A837B830895A083B183828367
:10408E00938308957A936A93FA93EA930895182E78
:10409E00862F612D192E972F712D1B2EBF2FF12DCF
:1040AE001A2EAE2FE12D0895129602D0BF0112974F
:1040BE00119602D0FE2F1197E199FECFFF93FFB715
:1040CE00F894AEBBBFBBE09AEDB3FFBFFF9108956E
:1040DE0007D012960F01FB0103D0F001129708953D
:1040EE0007D01196EF93EF2F03D0EF91119708950C
:1040FE00E19B02C0A895FCCF9FB7F894AEBBBFBBA7
:10410E00E09A8DB3E81719F0EDBBE29AE19A9FBFE2
:10411E0008953097604070400895AE17BF07860728
:10412E00970708955A934A933A932A931A930A93A8
:10413E0008955D814C813B812A8119810881089502
:00000001FF
