:0A0000000C9438000C9400000C94DE
:10000A0000000C9400000C9400000C9400000C9466
:10001A0000000C9400000C9400000C9400000C9456
:10002A0000000C9468000C9400000C9487000C9457
:10003A0000000C9400000C9400000C9400000C9436
:10004A0000000C9400000C9400001027E8036400E0
:10005A000A00010000100001100001000000010068
:10006A00020066000000F894EE27ECBBF1E0FBBF4B
:10007A00EBBFE5BFF8E1F1BDE1BD8DE0A2E0BB2732
:10008A00ED938A95E9F780E094E0A0E6ED93019775
:10009A00E9F7E8E6F0E085919591009761F0A5917E
:1000AA00B59105901590BF01F00105900D92019749
:1000BA00E1F7FB01F0CFEFE5EDBFE4E0EEBFC0E60C
:1000CA00D1E00C94B800EA93FA93EFB7EA931A9343
:1000DA000A931BB10CB1E12FEC7189F4E52DF0E024
:1000EA00E05AFE4F00835394E8E0E51509F45524DD
:1000FA007394E8E0E71519F47724689420F80991D5
:10010A00199112C0EA93FA93EFB7EA93882061F043
:10011A008A94E92DF0E0E859FE4FE081ECB9939416
:10012A00E8E0E91509F49924E991EFBFF991E99119
:10013A001895E8E0E815E9F3F894882011F45D9938
:10014A000DC0E62DF0E0E859FE4FA881A083639424
:10015A00E8E0E61509F46624839402C0E881ECB964
:10016A00789421960895E0E0EBBBEABBE8BBEFEF99
:10017A00E7BBE0E0E5BBE4BBE2BBE1BBE3BFE2BF58
:10018A00ECBFEFBDEEBDEDBDECBDE7BDE6BDEBBD21
:10019A00EABDE9BDE8BDE2BDE5BDE4BDE3BDE5BF3D
:1001AA00E4BFE9BFEBB9E8EDEAB9E6E8E0BDE0E0B3
:1001BA00E0BDE1E1E9B9E0E8E8B9E0E0E0BFE8E1A3
:1001CA00E1BDE8E0E1BD7894C89B02C0E1E301C06B
:1001DA00E0E3EA93AEDFC99B02C0E1E301C0E0E3DA
:1001EA00EA93A7DFCA9B02C0E1E301C0E0E3EA9316
:1001FA00A0DFCB9B02C0E1E301C0E0E3EA9399DF11
:10020A00CC9B02C0E1E301C0E0E3EA9392DFCD9B1D
:10021A0002C0E1E301C0E0E3EA938BDFCE9B02C0B8
:10022A00E1E301C0E0E3EA9384DFCF9B02C0E1E3AC
:10023A0001C0E0E3EA937DDFA0916001A13311F4EC
:10024A00C79A01C0C798A0916101A13311F4C69A57
:10025A0001C0C698A0916201A13311F4C59A01C0E8
:10026A00C598A0916301A13311F4C49A01C0C4983E
:10027A00A0916401A13311F4C39A01C0C398A0915B
:10028A006501A13311F4C29A01C0C298A091660116
:10029A00A13311F4C19A01C0C198A0916701A13399
:1002AA0011F4C09A01C0C098E1E0F0E0FA93EA9331
:1002BA000E94610189CFFFCFE991F991309639F017
:1002CA0080ED97E00197F1F7A8953197C9F708955E
:00000001FF
