:0C00000012C0FECFFDCFFCCFFBCFFACF2B
:10000C00F9CFF8CFF7CFF6CFF5CFF4CFF3CFF2CFC0
:10001C00F1CFF0CFEFCFEECFEDCFF894EE27ECBBD6
:10002C00F1E0FBBFEBBFE5BFF8E1F1BDE1BD8DE059
:10003C00A2E0BB27ED938A95E9F780E094E0A0E677
:10004C00ED930197E9F7EFE5EDBFE4E0EEBFC0E615
:10005C00D1E000C0E0E0E8BBB898B998BA98BB987A
:10006C00BC98BD98BE98BF9AE5BBA098A198A298E1
:10007C00A398A498A598A698A798E2BB889A899863
:10008C008A988B9A8C988D9A8E988F98E3BFE2BF42
:10009C00EFBDEEBDEDBDECBDE7BDE6BDEBBDEABD14
:1000AC00E9BDE8BDE2BDE5BDE4BDE3BDE5BFE9BF2B
:1000BC00E0E8E8B9E0E0E0BF21E0EAE0F0E0FA9344
:1000CC00EA932AD03F5F363009F430E0013009F46E
:1000DC0021E0113009F420E0213011F4303009F026
:1000EC0002C041E001C040E0213011F4333009F08E
:1000FC0002C051E001C050E0413019F4939AC79A04
:10010C0001C09398C798513011F4909A01C09098FF
:10011C0010E000E0D2CFFFCFE991F991309639F0A1
:10012C0080ED97E00197F1F7A8953197C9F70895FD
:00000001FF
