:100000000C942A000C9400000C9400000C94000046
:100010000C9400000C9400000C9400000C94000060
:100020000C9400000C9400000C9400000C94000050
:100030000C9400000C9400000C9400000C94000040
:100040000C9400000C9400000C9400000C94000030
:100050000C940000F894EE27ECBBF1E0FBBFEBBF83
:10006000E5BFF8E1F1BDE1BD8DE0A2E0BB27ED9376
:100070008A95E9F780E094E0A0E6ED930197E9F72F
:10008000EFE5EDBFE4E0EEBFC0E6D1E00C94480040
:10009000E0E0EBBBEEE1EABBE0E0E8BBEEE1E7BBB2
:1000A000E0E0E5BBEFEFE4BBE0E0E2BBE8E1E1BBB1
:1000B000E0E0E3BFE2BFECBFEFBDEEBDEDBDECBDE8
:1000C000E7BDE6BDEBBDEABDE9BDE8BDE2BDE5BD0E
:1000D000E4BDE3BDE5BFE4BFE9BFE0E8E8B9E0E0C7
:1000E000E0BFE8E8FCE24F01D6D0552029F4C6D0A5
:1000F000DBD0BFD211D5F9CFC1D00E949D1509D058
:10010000CAD029D40E9453157ED4B3D205D5F4CFDA
:10011000FFCF0E94EC15E0936C01E0E0E0936D01ED
:10012000E0936E01E0936F01E0937001869B09C03C
:10013000859B07C00E94F21521F4A0917101A030A7
:1001400009F004C00E94F715E0936A01869B09C07C
:100150000E94FB1531F4879B04C0A0917101A0306F
:1001600009F004C00E94F715E0936B01869B0AC05A
:100170000E94FB1539F40E94F21521F4A09171013F
:10018000A03009F004C00E94F715E0936C010E94B2
:10019000001649F40E94FB1531F4879B04C0A0911E
:1001A0007101A03009F004C00E94F715E0936D01C1
:1001B0000E94001651F40E94FB1539F40E94F215BA
:1001C00021F4A0917101A03009F004C00E94F7153C
:1001D000E0936E010E94001649F4859B07C00E94BF
:1001E000F21521F4A0917101A03009F004C00E9421
:1001F000F715E0936F010E94001641F4859B06C03D
:10020000879B04C0A0917101A03009F004C00E9436
:10021000F715E0937001869B04C0859B02C0879907
:1002200001C003C0E0E0E0937101E0E0E0937201FF
:10023000E0937301E0937401A0E08399A1E0A03002
:1002400029F4A0E08499A1E0A03009F003C0E1E026
:10025000E0937201839B05C0A0E08499A1E0A030E7
:1002600009F003C0E1E0E0937301839B02C084992D
:1002700001C003C0E1E0E09374010895E0916001E2
:10028000EF5FE0936001A0916001AF3118F0E0E012
:10029000E09360010895F401F695E7955F01F4019C
:1002A0000E94E2166F010895E0917801F0917901C2
:1002B0003196E0937801F0937901A0917801B091A3
:1002C0007901A815B90550F0E0917A01EF5FE0934C
:1002D0007A01E0E0E0937801E0937901A0917A015E
:1002E000A13039F4A0916001AC3119F4E1E1E0935F
:1002F0006101A0917A01A23071F4A0916001A8314E
:1003000019F4E1E1E0936101A0916001AC3119F4CD
:10031000EFE0E0936101A0917A01A330A9F4A091EC
:100320006001A43119F4E1E1E0936101A091600161
:10033000A83119F4EFE0E0936101A0916001AC31C4
:1003400019F4E6E1E0936101A0917A01A430E1F4AF
:10035000A0916001A03119F4E1E1E0936101A09165
:100360006001A43119F4EFE0E0936101A091600114
:10037000A83119F4E6E1E0936101A0916001AC318C
:1003800019F4E6E1E0936101A0917A01A53019F535
:10039000A0916001AC3019F4E1E1E0936101A0911A
:1003A0006001A03119F4EFE0E0936101A0916001D8
:1003B000A43119F4E6E1E0936101A0916001A83154
:1003C00019F4E6E1E0936101A0916001AC3119F408
:1003D000E0E0E0936101A0917A01A63019F5A091C7
:1003E0006001A83019F4E1E1E0936101A09160019E
:1003F000AC3019F4EFE0E0936101A0916001A0310D
:1004000019F4E6E1E0936101A0916001A43119F4CF
:10041000E6E1E0936101A0916001A83119F4E0E008
:10042000E0936101A0917A01A73019F5A0916001D4
:10043000A43019F4E1E1E0936101A0916001A830DA
:1004400019F4EFE0E0936101A0916001AC3019F480
:10045000E6E1E0936101A0916001A03119F4E6E1C9
:10046000E0936101A0916001A43119F4E0E0E09310
:100470006101A0917A01A83019F5E0916001E030A6
:1004800019F4E1E1E0936101A0916001A43019F455
:10049000EFE0E0936101A0916001A83019F4E6E17A
:1004A000E0936101A0916001AC3019F4E6E1E093C2
:1004B0006101A0916001A03119F4E0E0E0936101D5
:1004C000A0917A01AA3019F5E0916001E03019F4A9
:1004D000E1E1E0936101A0916001A43019F4EFE043
:1004E000E0936101A0916001A83019F4E6E1E09386
:1004F0006101A0916001AC3019F4E6E1E093610183
:10050000A0916001A03119F4E0E0E0936101A091B5
:100510007A01AC3019F5E0916001E03019F4E1E1C5
:10052000E0936101A0916001A43019F4EFE0E09341
:100530006101A0916001A83019F4E6E1E093610146
:10054000A0916001AC3019F4E6E1E0936101A09163
:100550006001A03119F4E0E0E0936101A0917A011B
:10056000AE3019F5E0916001E03019F4E1E1E0937B
:100570006101A0916001A43019F4EFE0E093610102
:10058000A0916001A83019F4E6E1E0936101A09127
:100590006001AC3019F4E6E1E0936101A0916001E3
:1005A000A03119F4E0E0E0936101A0917A01AF304D
:1005B000E1F4E0916001E03019F4EFE0E0936101D3
:1005C000A0916001A43019F4E6E1E0936101A091EB
:1005D0006001A83019F4E6E1E0936101A0916001A7
:1005E000AC3019F4E0E0E0936101A0917A01A03110
:1005F000A9F4E0916001E03019F4E6E1E0936101D3
:10060000A0916001A43019F4E6E1E0936101A091AA
:100610006001A83019F4E0E0E0936101A0917A0153
:10062000A13171F4E0916001E03019F4E6E1E0936A
:100630006101A0916001A43019F4E0E0E093610150
:10064000A0917A01A23139F4E0916001E03019F40F
:10065000E0E0E0936101A0917A01A43149F4E1E086
:100660005E2EE0E0E0937801E0937901E0937A0177
:100670000895E0916101E03049F40E9405160E945E
:100680000B160E941116E0E0E0936801A091610151
:10069000A13021F40E9417160E942516A091610135
:1006A000A23021F40E9405160E942B16A091610130
:1006B000A33031F40E9405160E940B160E943A16D0
:1006C000A0916101A43021F40E9417160E944316E4
:1006D000A0916101A53021F40E9449160E94501694
:1006E000A0916101A63039F40E9449160E941116AA
:1006F000E1E0E0936801A0916101A73031F40E942C
:1007000005160E9454160E945B16A0916101A83044
:1007100049F40E9405160E940B160E941116E1E092
:10072000E0936801A0916101A93031F40E9405169F
:100730000E940B160E945016A0916101AA3049F444
:100740000E9405160E9454160E941116E1E0E093E3
:100750006801A0916101AB3049F40E945F160E94CC
:100760000B160E941116E1E0E0936801A09161016F
:10077000AC3021F40E945F160E942B16A0916101FB
:10078000AD3029F40E946516E0E0E0936801A09185
:100790006101AE3031F40E9471160E940B160E9466
:1007A0007816A0916101AF3029F40E946516E1E04E
:1007B000E0936801A0916101A03159F4E1E0E09378
:1007C0006201E0E0E09363010E948216E1E0E093C1
:1007D0006801A0916101A13149F40E9471160E9443
:1007E00054160E941116E1E0E0936801A0916101A6
:1007F000A23149F40E945F160E9454160E941116FD
:10080000E1E0E0936801A0916101A33121F40E942D
:1008100017160E942516A0916101A43131F40E949F
:100820005F160E9454160E945B16A0916101A531CB
:1008300031F40E9471160E940B160E945B16A09163
:100840006101A63139F40E945F160E948816E0E02B
:10085000E0936801A0916101A73131F40E945F1615
:100860000E940B160E947816A0916101A83139F4FC
:100870000E9405160E948216E1E0E0936801A091B3
:100880006101A93121F40E9449160E945016A091DD
:100890006101AA3139F40E945F160E948816E1E0D6
:1008A000E0936801A0916101AB3149F40E945F16A9
:1008B0000E940B16E1E0E09366010E942516A091CC
:1008C0006101AC3149F40E9471160E940B160E941E
:1008D0001116E0E0E0936801A0916101AD3121F4CF
:1008E0000E9405160E942B16A0916101AE3131F4D1
:1008F0000E945F160E948F160E947816A0916101D7
:10090000AF3151F40E945F16E0E0E0936401E1E052
:10091000E09365010E945B16A0916101A03231F461
:100920000E945F160E948F160E943A16A0916101E4
:10093000A13231F40E945F160E948F160E945B164E
:10094000A0916101A23231F40E945F160E945416F8
:100950000E9478160895A0917001A13029F4E0E07A
:10096000E093700144247724442039F4772009F47B
:1009700078D1E1E0E71509F435D3E1E0E41519F4A5
:10098000772009F47FD4E0917B01E030D9F5A09184
:100990006A01A13039F4E0E0E41511F4E71509F03B
:1009A00001C07394A0916E01A13059F4E0E0E41508
:1009B00019F4E1E0E71509F004C0E72D0E9495164F
:1009C0007E2EA0916D01A13039F4E0E0E41511F420
:1009D000E71509F001C04394A0916B01A13059F4CF
:1009E000E1E0E41519F4E0E0E71509F004C0E42DB6
:1009F0000E9495164E2E0E94EC15E0936D01E0E0EA
:100A0000E0936E010895A0927D01B0927E01A091C5
:100A10007B01A13011F00C948B05E0917F01F091E6
:100A200080013196E0937F01F0938001E0917D0198
:100A3000F0917E01A0917F01B0918001AE17BF07B8
:100A400028F0E0E0E0937F01E0938001E0917D01F8
:100A5000F0917E01F695E795E0938101F093820194
:100A6000A0917F01B09180010E94F416E0937C0177
:100A7000E03011F00C948B05ECEFE61539F4E091C1
:100A80006001E03019F4E1E2E0936101EDEFE61579
:100A900039F4A0916001A43019F4E1E2E09361011E
:100AA000EEEFE61539F4A0916001A83019F4E1E207
:100AB000E0936101EFEFE61539F4A0916001AC30ED
:100AC00019F4E1E2E0936101662039F4A09160013C
:100AD000A03119F4E1E2E0936101E1E0E61539F4B7
:100AE000A0916001A43119F4E1E2E0936101E2E038
:100AF000E61539F4A0916001A83119F4E1E2E09320
:100B00006101E3E0E61539F4A0916001AC3119F41C
:100B1000E1E2E09361010895A0916201A13011F436
:100B2000AE9801C0AE9AA0916301A13011F4A898CB
:100B300001C0A89AA0916401A13011F4AA9801C043
:100B4000AA9AA0916501A13011F4AC9801C0AC9AA9
:100B5000A0916601A13011F4AD9801C0AD9AA091A9
:100B60006701A13011F4AF9801C0AF9AA09168015C
:100B7000A13011F4A99801C0A99AA0916901A130EE
:100B800011F4AB9801C0AB9AE8E2E09361010E94D6
:100B90005F160E948F160E945B16E0E0E0936901E9
:100BA000D998DC98DB98DA98E0916001E03021F484
:100BB000D998DC98DB9ADA98A0916001A43021F4EE
:100BC000D99ADC9ADB98DA98A0916001A83021F4D8
:100BD000D99ADC9ADB9ADA98A0916001AC3021F4C2
:100BE000D998DC9ADB98DA98A0916001A03121F4C1
:100BF000D998DC9ADB9ADA98A0916001A43121F4AB
:100C0000D99ADC98DB98DA98A0916001A83121F498
:100C1000D99ADC98DB9ADA98A0916001AC3121F482
:100C2000D998DC98DB98DA9AA0918B01A13011F465
:100C3000C19A01C0C198A0918C01A13011F4C29A4F
:100C400001C0C298A0918E01A13011F4C39A01C0D5
:100C5000C398A0918D01A13011F4C49A01C0C49829
:100C60000895A0916F01A13021F4A0917B01A030E3
:100C700009F003C00E949A166624A0916F01A1306A
:100C800021F0A0916C01A13021F4A0917B01A13051
:100C900009F003C0E0E0E0937B01E0E0E0936F0146
:100CA000A0917B01A13011F00C94E806E093830140
:100CB000E0938401E0938501A0916B01A13039F4A8
:100CC000E62D0E9495166E2EE0E0E0936B01A09158
:100CD0006D01A13009F46394E0E06E1614F4E3E0D2
:100CE0006E2EE3E0E6150CF466246620D9F4A0919C
:100CF0006A01A13041F4E0918701E65FE09387014A
:100D0000E0E0E0936A01A0916E01A13059F4E09116
:100D10008701F0E0E7FDFFEF3A97E0938701E0E01D
:100D2000E0936E01E1E0E615C9F4A0916A01A130FB
:100D300041F4E0918701EF5FE0938701E0E0E09309
:100D40006A01A0916E01A13049F4E09187010E94EF
:100D50009516E0938701E0E0E0936E01E2E0E6158E
:100D6000D9F4A0916A01A13041F4E0918601E65FD7
:100D7000E0938601E0E0E0936A01A0916E01A1306A
:100D800059F4E0918601F0E0E7FDFFEF3A97E09338
:100D90008601E0E0E0936E01E3E0E615C9F4A0917E
:100DA0006A01A13041F4E0918601EF5FE093860192
:100DB000E0E0E0936A01A0916E01A13049F4E09176
:100DC00086010E949516E0938601E0E0E0936E01B3
:100DD000E0918901F0918A013196E0938901F093C5
:100DE0008A01A0918901B0918A01AA15BB0550F032
:100DF000E0E0E0938901E0938A01E0918801EF5FF0
:100E0000E0938801A0918801AA3018F0E0E0E09317
:100E10008801A0918801A13039F4A0916001AC3023
:100E200019F4EEE0E0936101A0918801A23071F421
:100E3000A0916001A83019F4EEE0E0936101A09167
:100E40006001AC3019F4EAE0E0936101A0918801FF
:100E5000A330A9F4A0916001A43019F4EEE0E0936E
:100E60006101A0916001A83019F4EAE0E09361010A
:100E7000A0916001AC3019F4EBE0E0936101A09126
:100E80008801A430E1F4E0916001E03019F4EEE073
:100E9000E0936101A0916001A43019F4EAE0E093CD
:100EA0006101A0916001A83019F4EBE0E0936101C9
:100EB000A0916001AC3019F4EAE0E0936101A091E7
:100EC0008801A530E1F4E0916001E03019F4EAE036
:100ED000E0936101A0916001A43019F4EBE0E0938C
:100EE0006101A0916001A83019F4EAE0E09361018A
:100EF000A0916001AC3019F4EEE1E0936101A091A2
:100F00008801A630A9F4E0916001E03019F4EBE02B
:100F1000E0936101A0916001A43019F4EAE0E0934C
:100F20006101A0916001A83019F4EEE1E093610144
:100F3000A0918801A73071F4E0916001E03019F4CC
:100F4000EAE0E0936101A0916001A43019F4EEE1C0
:100F5000E0936101A0918801A83039F4E09160012B
:100F6000E03019F4EEE1E0936101A0916001AC3052
:100F700029F40E94A116AA16BB0608F403C0E1E0FA
:100F8000E0936901A0916001A03121F40E94A616AE
:100F9000E0936101A0916001A43169F4E1E0E09384
:100FA0006901E0918701F0E0E7FDFFEFBF010E94DA
:100FB000A6160E94B016A0916001A83121F40E94EB
:100FC000BB16E0936101A0916001AC3151F4E09156
:100FD0008601F0E0E7FDFFEFBF010E94BB160E9413
:100FE000B0160895A0916F01A13021F4A0917B016A
:100FF000A03009F004C00E949A16EFEF6E2EA09167
:101000006F01A13021F0A0916C01A13021F4A091D9
:101010007B01A13009F007C0E0E0E0937B01E093A1
:101020006F01E0936C01A0917B01A13011F00C9451
:10103000D608A0916B01A13039F4E62D0E949516D7
:101040006E2EE0E0E0936B01A0916D01A13021F4E0
:101050006394E0E0E0936D01EEEFE61511F4E3E058
:101060006E2EE4E0E61511F4EFEF6E2EEFEFE615CD
:10107000F1F4A0916A01A13029F4EAEEF8EDE81547
:10108000F90508F404C0F401E05FF84D4F01A091A8
:101090006E01A13029F4E0E1F7E2E815F90508F066
:1010A00004C0E0E1F7E28E1A9F0A0E94C51666208E
:1010B000F1F4A0916A01A13029F4E2E1FCEFE81516
:1010C000F90508F404C0F401E851FC4F4F01A09168
:1010D0006E01A13029F4E8EEF3E0E815F90508F017
:1010E00004C0E8EEF3E08E1A9F0A0E94C516E1E004
:1010F000E615F1F4A0916A01A13029F4E6E9FFEFC9
:10110000E815F90508F404C0F401EC59FF4F4F014C
:10111000A0916E01A13029F4E4E6F0E0E815F905AC
:1011200008F004C0E4E6F0E08E1A9F0A0E94C5169B
:10113000E2E0E615E1F4A0916A01A13029F4E0EFC4
:10114000FFEFE815F90508F403C0F4013A964F01E2
:10115000A0916E01A13029F4EAE0F0E0E815F9056C
:1011600008F003C0F4013A974F010E94C516E3E06E
:10117000E615E1F4A0916A01A13029F4E9EFFFEF4F
:10118000E815F90508F403C0F40131964F01A09168
:101190006E01A13029F4E2E0F0E0E815F90508F06D
:1011A00003C0F40131974F010E94C516E091600120
:1011B000E03019F4E5E0E0936101A0916001A43012
:1011C00019F4EFE0E0936101A0916001A83051F4BF
:1011D000E1E0E0936201E09365010E941116E1E015
:1011E000E0936901A0916001AC3029F4D401E0E101
:1011F000F7E20E94CB16A0916001A03169F4D401FE
:10120000E0E1F7E20E94F416A0E1B7E20E94D016F6
:10121000E8EEF3E00E94CB16A0916001A43169F4DE
:10122000D401E8EEF3E00E94F416A8EEB3E00E94C9
:10123000D016E4E6F0E00E94CB16A0916001A83140
:1012400069F4D401E4E6F0E00E94F416A4E6B0E00C
:101250000E94D016EAE0F0E00E94CB16A091600157
:10126000AC3179F4D401EAE0F0E00E94F416AAE08F
:10127000B0E00E94E716DF01F401EA1BFB0BE093EC
:1012800061010895E0917601F09177013196E09344
:101290007601F0937701A0917601B0917701AC15BA
:1012A000BD0550F0E0E0E0937601E0937701E09136
:1012B0007501EF5FE0937501A0917401A13021F4F5
:1012C000A0917501AD3109F003C0E0E0E093750134
:1012D000A0917301A13021F4A0917501AB3109F007
:1012E00003C0E0E0E0937501A0917201A13021F408
:1012F000A0917501AF3109F003C0E0E0E093750102
:10130000A0917201A13029F0A0917401A13009F0DF
:10131000B9C2A0917501A13039F4A0916001AC313E
:1013200019F4ECE0E0936101A0917501A23071F431
:10133000A0916001A83119F4ECE0E0936101A09163
:101340006001AC3119F4E7E1E0936101A09175010E
:10135000A330A9F4A0916001A43119F4ECE0E0936A
:101360006101A0916001A83119F4E7E1E093610106
:10137000A0916001AC3119F4E2E2E0936101A09127
:101380007501A430E1F4A0916001A03119F4ECE002
:10139000E0936101A0916001A43119F4E7E1E093C9
:1013A0006101A0916001A83119F4E2E2E0936101CA
:1013B000A0916001AC3119F4EEE0E0936101A091DD
:1013C0007501A53019F5A0916001AC3019F4ECE07D
:1013D000E0936101A0916001A03119F4E7E1E0938D
:1013E0006101A0916001A43119F4E2E2E09361018E
:1013F000A0916001A83119F4EEE0E0936101A091A1
:101400006001AC3119F4EFE0E0936101A091750146
:10141000A63051F5A0916001A83019F4ECE0E093FA
:101420006101A0916001AC3019F4E7E1E093610142
:10143000A0916001A03119F4E2E2E0936101A09172
:101440006001A43119F4EEE0E0936101A091600124
:10145000A83119F4EFE0E0936101A0916001AC3193
:1014600019F4E2E2E0936101A0917501A73089F5DA
:10147000A0916001A43019F4ECE0E0936101A09127
:101480006001A83019F4E7E1E0936101A0916001E7
:10149000AC3019F4E2E2E0936101A0916001A03167
:1014A00019F4EEE0E0936101A0916001A43119F418
:1014B000EFE0E0936101A0916001A83119F4E2E24C
:1014C000E0936101A0916001AC3119F4E5E0E09393
:1014D0006101A0917501A830C1F5E0916001E03093
:1014E00019F4ECE0E0936101A0916001A43019F4DB
:1014F000E7E1E0936101A0916001A83019F4E2E214
:10150000E0936101A0916001AC3019F4EEE0E0934A
:101510006101A0916001A03119F4EFE0E093610155
:10152000A0916001A43119F4E2E2E0936101A0917D
:101530006001A83119F4E5E0E0936101A091600138
:10154000AC3119F4EAE0E0936101A0917501A93092
:10155000C1F5E0916001E03019F4E7E1E093610149
:10156000A0916001A43019F4E2E2E0936101A0913E
:101570006001A83019F4EEE0E0936101A0916001F0
:10158000AC3019F4EFE0E0936101A0916001A0316B
:1015900019F4E2E2E0936101A0916001A43119F431
:1015A000E5E0E0936101A0916001A83119F4EAE05F
:1015B000E0936101A0916001AC3119F4EAE1E0939C
:1015C0006101A0917501AA30C1F5E0916001E030A0
:1015D00019F4E2E2E0936101A0916001A43019F4F2
:1015E000EEE0E0936101A0916001A83019F4EFE012
:1015F000E0936101A0916001AC3019F4E2E2E09364
:101600006101A0916001A03119F4E5E0E09361016E
:10161000A0916001A43119F4EAE0E0936101A09186
:101620006001A83119F4EAE1E0936101A091600141
:10163000AC3119F4E7E1E0936101A0917501AB30A1
:10164000C1F5E0916001E03019F4EEE0E093610152
:10165000A0916001A43019F4EFE0E0936101A09142
:101660006001A83019F4E2E2E0936101A091600109
:10167000AC3019F4E5E0E0936101A0916001A03184
:1016800019F4EAE0E0936101A0916001A43119F43A
:10169000EAE1E0936101A0916001A83119F4E7E16A
:1016A000E0936101A0916001AC3119F4EEE1E093A7
:1016B0006101A0917501AC30C1F5E0916001E030AD
:1016C00019F4EFE0E0936101A0916001A43019F4F6
:1016D000E2E2E0936101A0916001A83019F4E5E035
:1016E000E0936101A0916001AC3019F4EAE0E0936D
:1016F0006101A0916001A03119F4EAE1E093610178
:10170000A0916001A43119F4E7E1E0936101A09197
:101710006001A83119F4EEE1E0936101A09160014C
:10172000AC3119F4E4E1E0936101A0917501AD30B1
:10173000C1F5E0916001E03019F4E2E2E09361016B
:10174000A0916001A43019F4E5E0E0936101A0915B
:101750006001A83019F4EAE0E0936101A091600112
:10176000AC3019F4EAE1E0936101A0916001A0318D
:1017700019F4E7E1E0936101A0916001A43119F44B
:10178000EEE1E0936101A0916001A83119F4E4E178
:10179000E0936101A0916001AC3119F4EBE1E093B9
:1017A0006101A0917501AE30C1F5E0916001E030BA
:1017B00019F4E5E0E0936101A0916001A43019F40F
:1017C000EAE0E0936101A0916001A83019F4EAE138
:1017D000E0936101A0916001AC3019F4E7E1E0937E
:1017E0006101A0916001A03119F4EEE1E093610183
:1017F000A0916001A43119F4E4E1E0936101A091AA
:101800006001A83119F4EBE1E0936101A09160015E
:10181000AC3119F4E5E0E0936101A0917501AF30BE
:1018200089F5E0916001E03019F4EAE0E0936101AC
:10183000A0916001A43019F4EAE1E0936101A09164
:101840006001A83019F4E7E1E0936101A091600123
:10185000AC3019F4EEE1E0936101A0916001A03198
:1018600019F4E4E1E0936101A0916001A43119F45D
:10187000EBE1E0936101A0916001A83119F4E5E08A
:10188000E0936101A0917401A13011F00C945F0EFE
:10189000A0917501A03189F5E0916001E03019F463
:1018A000EAE1E0936101A0916001A43019F4E7E15D
:1018B000E0936101A0916001A83019F4EEE1E0939A
:1018C0006101A0916001AC3019F4E4E1E0936101A1
:1018D000A0916001A03119F4EBE1E0936101A091C6
:1018E0006001A43119F4E5E0E0936101A091600189
:1018F000AC3119F4E8E1E0936101A0917501A131E7
:1019000089F5E0916001E03019F4E7E1E0936101CD
:10191000A0916001A43019F4EEE1E0936101A0917F
:101920006001A83019F4E4E1E0936101A091600145
:10193000AC3019F4EBE1E0936101A0916001A031BA
:1019400019F4E5E0E0936101A0916001A83119F478
:10195000E8E1E0936101A0916001AC3119F4E3E1A9
:10196000E0936101A0917501A23189F5E0916001D8
:10197000E03019F4EEE1E0936101A0916001A43040
:1019800019F4E4E1E0936101A0916001A83019F439
:10199000EBE1E0936101A0916001AC3019F4E5E066
:1019A000E0936101A0916001A43119F4E8E1E093B2
:1019B0006101A0916001A83119F4E3E1E0936101B4
:1019C000A0916001AC3119F4E6E1E0936101A091CE
:1019D0007501A33189F5E0916001E03019F4E4E18B
:1019E000E0936101A0916001A43019F4EBE1E09370
:1019F0006101A0916001A83019F4E5E0E093610174
:101A0000A0916001A03119F4E8E1E0936101A09197
:101A10006001A43119F4E3E1E0936101A091600158
:101A2000A83119F4E6E1E0936101A0916001AC31C5
:101A300019F4E2E2E0936101A0917501A43189F506
:101A4000E0916001E03019F4EBE1E0936101A091D5
:101A50006001A43019F4E5E0E0936101A091600118
:101A6000AC3019F4E8E1E0936101A0916001A0318C
:101A700019F4E3E1E0936101A0916001A43119F44C
:101A8000E6E1E0936101A0916001A83119F4E2E27E
:101A9000E0936101A0916001AC3119F4EAE0E093B8
:101AA0006101A0917501A53189F5E0916001E030F7
:101AB00019F4E5E0E0936101A0916001A83019F408
:101AC000E8E1E0936101A0916001AC3019F4E3E139
:101AD000E0936101A0916001A03119F4E6E1E09387
:101AE0006101A0916001A43119F4E2E2E093610187
:101AF000A0916001A83119F4EAE0E0936101A0919E
:101B00006001AC3119F4E5E0E0936101A091750149
:101B1000A63151F5A0916001A43019F4E8E1E093F9
:101B20006101A0916001A83019F4E3E1E093610143
:101B3000A0916001AC3019F4E6E1E0936101A0915D
:101B40006001A03119F4E2E2E0936101A09160012B
:101B5000A43119F4EAE0E0936101A0916001A83199
:101B600019F4E5E0E0936101A0917501A73151F509
:101B7000E0916001E03019F4E8E1E0936101A091A7
:101B80006001A43019F4E3E1E0936101A0916001E8
:101B9000A83019F4E6E1E0936101A0916001AC3056
:101BA00019F4E2E2E0936101A0916001A03119F41F
:101BB000EAE0E0936101A0916001A43119F4E5E04D
:101BC000E0936101A0917501A83119F5E0916001E0
:101BD000E03019F4E3E1E0936101A0916001A430E9
:101BE00019F4E6E1E0936101A0916001A83019F4D5
:101BF000E2E2E0936101A0916001AC3019F4EAE007
:101C0000E0936101A0916001A03119F4E5E0E09357
:101C10006101A0917501A931E1F4E0916001E0302A
:101C200019F4E6E1E0936101A0916001A43019F498
:101C3000E2E2E0936101A0916001A83019F4EAE0CA
:101C4000E0936101A0916001AC3019F4E5E0E0930C
:101C50006101A0917501AA31A9F4E0916001E03021
:101C600019F4E2E2E0936101A0916001A43019F45B
:101C7000EAE0E0936101A0916001A83019F4E5E089
:101C8000E0936101A0917501AB3171F4E0916001C5
:101C9000E03019F4EAE0E0936101A0916001A43022
:101CA00019F4E5E0E0936101A0917501AB3139F4DD
:101CB000E0916001E03019F4E5E0E0936101A0916A
:101CC0007201A13011F00C94B810A0917501A031EF
:101CD00089F5E0916001E03019F4EAE1E0936101F7
:101CE000A0916001A43019F4E7E1E0936101A091B3
:101CF0006001A83019F4EEE1E0936101A091600168
:101D0000AC3019F4E4E1E0936101A0916001A031ED
:101D100019F4EBE1E0936101A0916001A43119F4A1
:101D2000E5E0E0936101A0916001AC3119F4EAE1D2
:101D3000E0936101A0917501A13189F5E091600105
:101D4000E03019F4E7E1E0936101A0916001A43073
:101D500019F4EEE1E0936101A0916001A83019F45B
:101D6000E4E1E0936101A0916001AC3019F4EBE192
:101D7000E0936101A0916001A03119F4E5E0E093E6
:101D80006101A0916001A83119F4EAE1E0936101D9
:101D9000A0916001AC3119F4ECE1E0936101A091F4
:101DA0007501A23189F5E0916001E03019F4EEE1AE
:101DB000E0936101A0916001A43019F4E4E1E093A3
:101DC0006101A0916001A83019F4EBE1E093610199
:101DD000A0916001AC3019F4E5E0E0936101A091BD
:101DE0006001A43119F4EAE1E0936101A09160017E
:101DF000A83119F4ECE1E0936101A0916001AC31EC
:101E000019F4E5E0E0936101A0917501A33189F532
:101E1000E0916001E03019F4E4E1E0936101A09108
:101E20006001A43019F4EBE1E0936101A09160013D
:101E3000A83019F4E5E0E0936101A0916001A031C0
:101E400019F4EAE1E0936101A0916001A43119F471
:101E5000ECE1E0936101A0916001A83119F4E5E0A3
:101E6000E0936101A0916001AC3119F4EDE0E093E1
:101E70006101A0917501A43189F5E0916001E03024
:101E800019F4EBE1E0936101A0916001A43019F431
:101E9000E5E0E0936101A0916001AC3019F4EAE162
:101EA000E0936101A0916001A03119F4ECE1E093AD
:101EB0006101A0916001A43119F4E5E0E0936101B2
:101EC000A0916001A83119F4EDE0E0936101A091C7
:101ED0006001AC3119F4E3E1E0936101A091750177
:101EE000A53189F5E0916001E03019F4E5E0E09377
:101EF0006101A0916001A83019F4EAE1E093610169
:101F0000A0916001AC3019F4ECE1E0936101A09183
:101F10006001A03119F4E5E0E0936101A091600156
:101F2000A43119F4EDE0E0936101A0916001A831C2
:101F300019F4E3E1E0936101A0916001AC3119F47F
:101F4000EAE0E0936101A0917501A63189F5A091C5
:101F50006001A43019F4EAE1E0936101A09160010D
:101F6000A83019F4ECE1E0936101A0916001AC307C
:101F700019F4E5E0E0936101A0916001A03119F44A
:101F8000EDE0E0936101A0916001A43119F4E3E177
:101F9000E0936101A0916001A83119F4EAE0E093B7
:101FA0006101A0916001AC3119F4E5E0E0936101B9
:101FB000A0917501A73189F5E0916001E03019F435
:101FC000EAE1E0936101A0916001A43019F4ECE131
:101FD000E0936101A0916001A83019F4E5E0E0937D
:101FE0006101A0916001AC3019F4EDE0E093610172
:101FF000A0916001A03119F4E3E1E0936101A091A7
:102000006001A43119F4EAE0E0936101A09160015C
:10201000A83119F4E5E0E0936101A0917501A831C0
:1020200051F5E0916001E03019F4ECE1E0936101D9
:10203000A0916001A43019F4E5E0E0936101A09162
:102040006001A83019F4EDE0E0936101A091600116
:10205000AC3019F4E3E1E0936101A0916001A0319B
:1020600019F4EAE0E0936101A0916001A43119F450
:10207000E5E0E0936101A0917501A93119F5E091C6
:102080006001E03019F4E5E0E0936101A0916001A6
:10209000A43019F4EDE0E0936101A0916001A83053
:1020A00019F4E3E1E0936101A0916001AC3019F40F
:1020B000EAE0E0936101A0916001A03119F4E5E04C
:1020C000E0936101A0917501AA31E1F4E091600112
:1020D000E03019F4EDE0E0936101A0916001A430DB
:1020E00019F4E3E1E0936101A0916001A83019F4D3
:1020F000EAE0E0936101A0916001AC3019F4E5E001
:10210000E0936101A0917501AB31A9F4E091600108
:10211000E03019F4E3E1E0936101A0916001A430A3
:1021200019F4EAE0E0936101A0916001A83019F48C
:10213000E5E0E0936101A0917501AC3171F4E091AB
:102140006001E03019F4EAE0E0936101A0916001E0
:10215000A43019F4E5E0E0936101A0917501AD317F
:1021600039F4E0916001E03019F4E5E0E0936101B9
:10217000E0917301E03011F40C945215A0917501B7
:10218000A13039F4A0916001AC3119F4ECE0E09396
:102190006101A0917501A23071F4A0916001A83194
:1021A00019F4ECE0E0936101A0916001AC3119F405
:1021B000E7E1E0936101A0917501A330A9F4A0913A
:1021C0006001A43119F4ECE0E0936101A091600199
:1021D000A83119F4E7E1E0936101A0916001AC310D
:1021E00019F4E2E2E0936101A0917501A430E1F4F9
:1021F000A0916001A03119F4ECE0E0936101A0919D
:102200006001A43119F4E7E1E0936101A09160015C
:10221000A83119F4E2E2E0936101A0916001AC31D0
:1022200019F4EEE0E0936101A0917501A53019F574
:10223000A0916001AC3019F4ECE0E0936101A09151
:102240006001A03119F4E7E1E0936101A091600120
:10225000A43119F4E2E2E0936101A0916001A83198
:1022600019F4EEE0E0936101A0916001AC3119F442
:10227000EFE0E0936101A0917501A63051F5A091C6
:102280006001A83019F4ECE0E0936101A0916001D5
:10229000AC3019F4E7E1E0936101A0916001A03155
:1022A00019F4E2E2E0936101A0916001A43119F414
:1022B000EEE0E0936101A0916001A83119F4EFE034
:1022C000E0936101A0916001AC3119F4E2E2E09386
:1022D0006101A0917501A73089F5A0916001A4303A
:1022E00019F4ECE0E0936101A0916001A83019F4C9
:1022F000E7E1E0936101A0916001AC3019F4E2E202
:10230000E0936101A0916001A03119F4EEE0E09347
:102310006101A0916001A43119F4EFE0E093610143
:10232000A0916001A83119F4E2E2E0936101A0916B
:102330006001AC3119F4E5E0E0936101A091750111
:10234000A830C1F5E0916001E03019F4ECE0E093D1
:102350006101A0916001A43019F4E7E1E09361010B
:10236000A0916001A83019F4E2E2E0936101A0912C
:102370006001AC3019F4EEE0E0936101A0916001DE
:10238000A03119F4EFE0E0936101A0916001A43164
:1023900019F4E2E2E0936101A0916001A83119F41F
:1023A000E5E0E0936101A0916001AC3119F4EAE04D
:1023B000E0936101A0917501A930C1F5E091600140
:1023C000E03019F4E7E1E0936101A0916001A430ED
:1023D00019F4E2E2E0936101A0916001A83019F4E0
:1023E000EEE0E0936101A0916001AC3019F4EFE000
:1023F000E0936101A0916001A03119F4E2E2E09361
:102400006101A0916001A43119F4E5E0E09361015C
:10241000A0916001A83119F4EAE0E0936101A09174
:102420006001AC3119F4EAE1E0936101A09175011A
:10243000AA30C1F5E0916001E03019F4E2E2E093E6
:102440006101A0916001A43019F4EEE0E093610114
:10245000A0916001A83019F4EFE0E0936101A09130
:102460006001AC3019F4E2E2E0936101A0916001F7
:10247000A03119F4E5E0E0936101A0916001A4317D
:1024800019F4EAE0E0936101A0916001A83119F428
:10249000EAE1E0936101A0916001AC3119F4E7E158
:1024A000E0936101A0917501AB30C1F5E09160014D
:1024B000E03019F4EEE0E0936101A0916001A430F6
:1024C00019F4EFE0E0936101A0916001A83019F4E4
:1024D000E2E2E0936101A0916001AC3019F4E5E023
:1024E000E0936101A0916001A03119F4EAE0E0936A
:1024F0006101A0916001A43119F4EAE1E093610166
:10250000A0916001A83119F4E7E1E0936101A09185
:102510006001AC3119F4EEE1E0936101A091750125
:10252000AC30C1F5E0916001E03019F4EFE0E093E8
:102530006101A0916001A43019F4E2E2E09361012D
:10254000A0916001A83019F4E5E0E0936101A09149
:102550006001AC3019F4EAE0E0936101A091600100
:10256000A03119F4EAE1E0936101A0916001A43186
:1025700019F4E7E1E0936101A0916001A83119F439
:10258000EEE1E0936101A0916001AC3119F4E4E166
:10259000E0936101A0917501AD30C1F5E09160015A
:1025A000E03019F4E2E2E0936101A0916001A4300F
:1025B00019F4E5E0E0936101A0916001A83019F4FD
:1025C000EAE0E0936101A0916001AC3019F4EAE126
:1025D000E0936101A0916001A03119F4E7E1E0937B
:1025E0006101A0916001A43119F4EEE1E093610171
:1025F000A0916001A83119F4E4E1E0936101A09198
:102600006001AC3119F4EAE0E0936101A091750139
:10261000AE30C1F5E0916001E03019F4E5E0E093FF
:102620006101A0916001A43019F4EAE0E093610136
:10263000A0916001A83019F4EAE1E0936101A09152
:102640006001AC3019F4E7E1E0936101A091600111
:10265000A03119F4EEE1E0936101A0916001A43191
:1026600019F4E4E1E0936101A0916001A83119F44B
:10267000EAE0E0936101A0916001AC3119F4EBE173
:10268000E0936101A0917501AF30C1F5E091600167
:10269000E03019F4EAE0E0936101A0916001A43018
:1026A00019F4EAE1E0936101A0916001A83019F406
:1026B000E7E1E0936101A0916001AC3019F4EEE133
:1026C000E0936101A0916001A03119F4E4E1E0938D
:1026D0006101A0916001A43119F4EAE0E093610185
:1026E000A0916001A83119F4EBE1E0936101A091A0
:1026F0006001AC3119F4E5E0E0936101A09175014E
:10270000A03189F5E0916001E03019F4EAE1E0934D
:102710006101A0916001A43019F4E7E1E093610147
:10272000A0916001A83019F4EEE1E0936101A0915D
:102730006001AC3019F4E4E1E0936101A091600123
:10274000A03119F4EAE0E0936101A0916001A431A5
:1027500019F4EBE1E0936101A0916001A83119F453
:10276000E5E0E0936101A0917501A13189F5E09167
:102770006001E03019F4E7E1E0936101A0916001AC
:10278000A43019F4EEE1E0936101A0916001A8305A
:1027900019F4E4E1E0936101A0916001AC3019F417
:1027A000EAE0E0936101A0916001A03119F4EBE14E
:1027B000E0936101A0916001A43119F4E5E0E09398
:1027C0006101A0916001AC3119F4E8E1E09361018D
:1027D000A0917501A23189F5E0916001E03019F412
:1027E000EEE1E0936101A0916001A43019F4E4E10D
:1027F000E0936101A0916001A83019F4EAE0E09350
:102800006101A0916001AC3019F4EBE1E09361014A
:10281000A0916001A03119F4E5E0E0936101A0917D
:102820006001A83119F4E8E1E0936101A091600131
:10283000AC3119F4ECE1E0936101A0917501A33191
:1028400089F5E0916001E03019F4E4E1E093610181
:10285000A0916001A43019F4EAE0E0936101A09135
:102860006001A83019F4EBE1E0936101A0916001EF
:10287000AC3019F4E5E0E0936101A0916001A4316E
:1028800019F4E8E1E0936101A0916001A83119F425
:10289000ECE1E0936101A0916001AC3119F4E5E055
:1028A000E0936101A0917501A33189F5E091600188
:1028B000E03019F4EAE0E0936101A0916001A430F6
:1028C00019F4EBE1E0936101A0916001A83019F4E3
:1028D000E5E0E0936101A0916001A03119F4E8E125
:1028E000E0936101A0916001A43119F4ECE1E0935F
:1028F0006101A0916001A83119F4E5E0E093610164
:10290000A0916001AC3119F4EFE0E0936101A09176
:102910007501A43151F5E0916001E03019F4EBE16B
:10292000E0936101A0916001A43019F4E5E0E09327
:102930006101A0916001AC3019F4E8E1E09361011C
:10294000A0916001A03119F4ECE1E0936101A09144
:102950006001A43119F4E5E0E0936101A091600108
:10296000A83119F4EFE0E0936101A0917501A53160
:1029700019F5E0916001E03019F4E5E0E0936101C0
:10298000A0916001A83019F4E8E1E0936101A09101
:102990006001AC3019F4ECE1E0936101A0916001B9
:1029A000A03119F4E5E0E0936101A0916001A43148
:1029B00019F4EFE0E0936101A0917501A631E1F413
:1029C000A0916001A43019F4E8E1E0936101A091C5
:1029D0006001A83019F4ECE1E0936101A09160017D
:1029E000AC3019F4E5E0E0936101A0916001A03101
:1029F00019F4EFE0E0936101A0917501A731E1F4D2
:102A0000E0916001E03019F4E8E1E0936101A09108
:102A10006001A43019F4ECE1E0936101A091600140
:102A2000A83019F4E5E0E0936101A0916001AC30B9
:102A300019F4EFE0E0936101A0917501A831A9F4C8
:102A4000E0916001E03019F4ECE1E0936101A091C4
:102A50006001A43019F4E5E0E0936101A091600108
:102A6000A83019F4EFE0E0936101A0917501A9315C
:102A700071F4E0916001E03019F4E5E0E093610168
:102A8000A0916001A43019F4EFE0E0936101A091FE
:102A90007501A93139F4E0916001E03019F4EFE0FB
:102AA000E09361010895E0918301F09184013196F2
:102AB000E0938301F093840144D1A815B90550F047
:102AC000E0E0E0938301E0938401E0918501EF5F12
:102AD000E0938501A0918501AC3344F0E0E0E09300
:102AE0008501E0918601EF5FE0938601A091860168
:102AF000AC3344F0E0E0E0938601E0918701EF5FC2
:102B0000E0938701A0918601A03044F4EBE3E093C9
:102B10008601E091870109D1E0938701A0918701A7
:102B2000A8311CF0E0E0E0938701A0918701A0307C
:102B30001CF4E7E1E0938701089522970E941A1799
:102B4000F5010E94E2168F01F5010E94E216A3E052
:102B5000B0E00E94E7169F01F5010E94E216A5E091
:102B6000B0E00E94E716AF01F5010E94E216A7E06F
:102B7000B0E00E94E716EE83FF83E3D0A217B3070D
:102B800020F4DFD00A171B0708F005C011D1E1E0DF
:102B9000E0938B011BC0D5D04A175B0730F4EE8160
:102BA000FF81CFD0AE17BF0708F00BC0E0E0E09385
:102BB0008B01E0938E01E1E0E0938C01E0938D01C5
:102BC00007C0E0E0E0938B01F3D0E0E0E0938E01FA
:102BD0000E94211728960895E0E0E0936A01E093AF
:102BE0006B010895A0E08799A1E0A0300895E1E08D
:102BF000E09371010895A0E08599A1E0A0300895C7
:102C0000A0E08699A1E0A0300895E1E0E0936201A0
:102C1000E09363010895E1E0E0936401E0936501CE
:102C20000895E1E0E0936601E09367010895E0E034
:102C3000E0936201E1E0E0936301E0936401E0E08E
:102C4000E0936501E09366010895E0E0E093670199
:102C5000E09368010895E0E0E0936401E1E0E0932F
:102C60006501E0936601E0E0E0936701E1E0E09355
:102C700068010895E0E0E0936601E0936701E1E018
:102C8000E09368010895E1E0E0936701E093680153
:102C90000895E1E0E0936201E0E0E0936301BBCFDF
:102CA000E0E0E0936601EFCFE1E0E0936401E0E073
:102CB000E09365010895E0E0E0936601C6CFE0E0AF
:102CC000E0936201E09363010895E1E0E093620123
:102CD000E0E0E0936301E0936401E1E0E0936501EB
:102CE000A0CFE0E0E0936201E1E0E09363010895AA
:102CF000E1E0E0936601E0E0E0936701E1E0E0936A
:102D000068010895E0E0E0936401E093650189CFF4
:102D1000E0E0E0936401E1E0E093650182CFE0E070
:102D2000E0936401E09365010895F0E0E7FDFFEFB3
:102D300031970895E1E0E0937B01E0E0E0936F01DB
:102D40000895A0918301B09184010895A091870115
:102D5000B0E0A7FDBFEFEAE0F0E00E94071708959A
:102D6000AAE0B0E00E94EF16DF01FB01EA1BFB0BBB
:102D7000E09361010895A0918601B0E0A7FDBFEF47
:102D8000EAE0F0E00E9407170895E0E0E0936A01AE
:102D9000E0936E0108950E94F416E0936101089596
:102DA0000E94E716DF01F401EA1BFB0BDF01089527
:102DB000E0E0E0938C01E0938D010895F195E195B9
:102DC000F0400895F695E795F695E7950895FA9FF2
:102DD000F02DEB9FF00DEA9FE02DF10D08951CD032
:102DE000F6DF0EF4EBDF08950024112490E1AA0F22
:102DF000BB1F001C111C0E1A1F0A18F40E0E1F1EFA
:102E000001C0A1609A9599F7FD01D001089504D001
:102E1000EBDF0EF4D3DF0895E894F7FF02C0CEDFB6
:102E20006894B7FF06C0A095B095119600F803947A
:102E300000FA08955A934A933A932A931A930A935D
:102E400008955D814C813B812A8119810881089513
:00000001FF
