:100000000C9469040C9400000C9400000C94000003
:100010000C9400000C9400000C9400000C94000060
:100020000C9400000C9400000C9400000C94060842
:100030000C9400000C9400000C9400000C94000040
:100040000C9400000C9400000C9400000C94000030
:100050000C9400002B2D2D2D2D2D2D2D2D2D2D2DE6
:100060002D2D2D2D2D2D2D2B007C2042415A4E590A
:1000700043494F5320564152505520207C007C204C
:1000800056414C44494B4C49532056312E00207C5C
:100090002B2D2D2D2D2D2D2D2D2D2D2D2D2D2D2D92
:1000A0002D2D2D2B002B3E002D2D3E003C2B003CFA
:1000B0002D2D002B2D002020202020003A00202074
:1000C000202032004B4F4441530054454953494E80
:1000D000474153004E4554454953494E474153000B
:1000E0002D3D3D3D3D3D555A52414B5441533D3DC3
:1000F0003D3D3D2D00495645534B495445204B4FFE
:1001000044413A20002D3D3D3D3D3D3D3D3D3D3D81
:100110003D3D3D3D3D3D3D3D2D0020202D3D50418F
:1001200047522E204D454E49553D2D00312E4C4114
:10013000494B41533A2000322E444154413A203237
:100140003000332E534B414D42454A494D41490001
:10015000342E4E5553544154594D414900202020CE
:1001600020202D3D4C41494B41533D2D2020202046
:1001700020002020202020205245444147554F5444
:10018000493F0020202020202020205E0020202029
:100190002020202020205E00202020202020202041
:1001A0002020205E00202020202020202020202031
:1001B000205E00285A49454D4F53204C41494B4140
:1001C0005329002856415341524F53204C41494B2B
:1001D00041532900202D3D4E555354415459544903
:1001E00020444154413D2D20005341562E44494561
:1001F0004E413A205049524D41442E202000534157
:10020000562E4449454E413A20414E545241442EC7
:100210002020005341562E4449454E413A20545225
:1002200045434941442E20005341562E4449454EF2
:10023000413A204B4554564952542E2000534156C2
:100240002E4449454E413A2050454E4B5441442E90
:1002500020005341562E4449454E413A20534553C0
:100260005441442E2020005341562E4449454E41CE
:100270003A2053454B4D41442E2020003F3F3F2024
:10028000202020202020202020202020202020206E
:1002900000444154413A20320020202020202052A6
:1002A00045444147554F54493F20202020002020FD
:1002B0002020202020205E20202020202020202000
:1002C0002020002020202020202020205E20202010
:1002D000202020202020200020202020202020203E
:1002E0002020205E202020202020202000202020F0
:1002F0002020202020202020205E202020202020C0
:10030000200020202020202020202020202020200D
:100310005E202020202000202020202020202020BF
:100320002020202020205E202020200020202020AF
:100330002020202020202020202020207C20202061
:100340000020202D3D534B414D42454A494D4149E6
:100350003D2D00312E45494C494E4953204C4149D1
:100360004B415300322E56454C594B55204C414978
:100370004B415300332E4B414C454455204C414991
:100380004B415300342E504F524349554E4B554C20
:100390004500202D3D45494C494E4953204C41498B
:1003A0004B41533D2D00312E5049524D41442E209A
:1003B0004C41494B415300322E414E545241442E40
:1003C000204C41494B415300332E5452454349413F
:1003D000442E204C41494B415300342E4B4554563A
:1003E00049525441442E204C41494B415300352E33
:1003F00050454E4B5441442E204C41494B415300F3
:10040000362E5345535441442E204C41494B4153C1
:1004100000372E53454B4D41442E204C41494B4112
:10042000530020202D3D5049524D414449454E49ED
:10043000533D2D0020202D3D414E5452414449450D
:100440004E49533D2D0020202D3D545245434941F6
:100450004449454E49533D2D00202D3D4B455456B2
:10046000495254414449454E49533D2D0020202DC9
:100470003D50454E4B54414449454E49533D2D0056
:1004800020202D3D53455354414449454E49533D49
:100490002D0020202D3D53454B4D414449454E49AB
:1004A000533D2D0020280053454329005455534304
:1004B000494100202D3D4C41494B4F204B4549546B
:1004C000494D41533D2D2000202020202020202078
:1004D000202020202020205E0020202020202020FE
:1004E0002020202020202020205E002020202020EE
:1004F0002020202020202020202020205E002020DE
:1005000020202020205452494E54493F20202020B2
:10051000202000202D3D56454C594B55204C41493B
:100520004B41533D2D00312E56454C594B55204BD8
:1005300045545649525441442E00322E56454C598A
:100540004B552050454E4B5441442E00332E5645BA
:100550004C594B552053455354414449454E2E0068
:10056000342E56454C594B552053454B4D41442E46
:1005700000352E4B414441204255532056454C599D
:100580004B4F533F002D3D56454C2E204B45545666
:1005900049525441442E3D2D00202D3D56454C2EB0
:1005A0002050454E4B5441442E3D2D0020202D3DE2
:1005B00056454C2E205345535441442E3D2D00208A
:1005C000202D3D56454C2E2053454B4D41442E3D4C
:1005D0002D0020202D3D56454C594B55204441546B
:1005E0004F533D2D202000312E203200322E20325C
:1005F00000332E203200202D3D4B414C45445520E8
:100600004C41494B41533D2D00312E4752554F44EB
:100610005A494F20323520442E00322E4752554F32
:10062000445A494F20323620442E00202D3D475257
:10063000554F445A494F20323520442E3D2D00203D
:100640002D3D4752554F445A494F20323620442EB3
:100650003D2D0020202D3D504F524349554E4B55C6
:100660004C453D2D202000312E53454B4D414449F2
:10067000454E49530020202D3D53454B4D414449A3
:10068000454E49533D2D2020002020202D3D4E5524
:1006900053544154594D41493D2D20202000312EC5
:1006A000454B52414E4F2041505356494554494DB8
:1006B0002E00322E56414C59544920534B414D4245
:1006C000454A494D2E00332E56415341524F532037
:1006D0004C41494B415300342E4C41494B4F20541F
:1006E000494B534C494E494D415300352E56414CD0
:1006F00044494B4C494F204B4F44415300362E56F2
:10070000414C44494B4C494F20495356414441497F
:10071000002D3D454B52414E4F20415053564945C7
:10072000542E3D2D200041505356494554494D41CA
:10073000533A002020202020202056414C59544973
:10074000202020202020200020202020534B414D1D
:1007500042454A494D55533F20202020002020206B
:1007600020204E4520202020205441495020202088
:10077000200020202020205E5E202020202020201D
:1007800020202020203C002020202020202020206D
:100790002020205E5E5E5E2020203C005452494EA8
:1007A000414D4920534B414D42454A494D41493AFB
:1007B0000042202F20004200202D3D56415341523F
:1007C0004F53204C41494B41533D2D200050414453
:1007D000455449533A200049534A554E47544153D2
:1007E00000494A554E475441530020202D3D54495D
:1007F0004B534C494E494D41533D2D20202B004C2D
:1008000041494B4F2054494B534C494E494D41535C
:100810002020200053454B554E44454D4953205010
:100820004552202020202020005341564149544564
:100830003A2000205345432E20202D002020202048
:10084000202D3D4B4F4441533D2D20202020202082
:1008500000312E49534A554E475449204B4F44418D
:100860003F2020202000322E4B4F4441533A20207D
:10087000202020002A2A2A2A202020002020202090
:1008800020202020205245444147554F54493F00E5
:10089000312E20494A554E475449204B4F44413F41
:1008A00000202020202D3D495356414441493D2DF3
:1008B000202020202B00312E205641525055204917
:1008C00053454A2E3A20000080C002008502C80825
:1008D0000000F894EE27ECBBF1E0FBBFEBBFE5BFF7
:1008E000F8E1F1BDE1BD8DE0A2E0BB27ED938A9573
:1008F000E9F780E098E0A0E6ED930197E9F7EAECEC
:10090000F8E085919591009761F0A591B5910590DA
:100910001590BF01F00105900D920197E1F7FB01E1
:10092000F0CFEFE5EDBFE8E0EEBFC0E6D2E00C941B
:100930002F09A981A13141F4E881E03011F4AB988D
:1009400001C0AB9AE1E060C3A981A23141F4E88122
:10095000E03011F4AC9801C0AC9AE1E055C3A98134
:10096000A33141F4E881E03011F4AD9801C0AD9AB3
:10097000E1E04AC3A981A43141F4E881E03011F4F7
:10098000959801C0959AE1E03FC3A981A53141F452
:10099000E881E03011F4949801C0949AE1E034C306
:1009A000A981A63141F4E881E03011F4979801C0A3
:1009B000979AE1E029C3E0E027C3E881E03021F421
:1009C000E0E08199E1E01DC0A881A13021F4E0E0E0
:1009D0008099E1E016C0A881A23021F4E0E082997C
:1009E000E1E00FC0A881A33021F4E0E08399E1E0C9
:1009F00008C0A881A43021F4E0E08699E1E001C0BC
:100A0000E0E0219608952E970E94722CEE89FF89CE
:100A1000E053F84FEE8BFF8BAE89BF890E94D12542
:100A2000AE89BF890E94DA25AE89BF890E94E1257F
:100A3000EA8BFB8BAE89BF890E94FD25E88BF98B81
:100A40000E940626AA89BB890E940D26EC87FD8795
:100A5000AC85BD850E941226AC85BD85AE1BBF0B43
:100A6000AE87BF87599721F40C30E0E01E0720F4D1
:100A7000AE85BF85589729F4EE85FF853196EE87C0
:100A8000FF87AE85BF850E941B26EA87FB87AA8564
:100A9000BB85559718F47E96EA87FB87EA85FB8528
:100AA0003796FF93EF93EA85FB85A889B989EA0F0A
:100AB000FB1FBF01EA85FB850E942026AF91BF91F5
:100AC0000E942F26EA85E987EA85FB853197E8872A
:100AD000EA85FB853297EF83EA85FB853397EE83C2
:100AE000AE81A03268F00E9434267F97EE83AD89F4
:100AF000A43029F4AC89EA1711F4E4E056C009C027
:100B0000AD89A33031F4EE81AC89EA1711F4E4E049
:100B10004CC0AF81A03268F0EF810E943726EF838E
:100B2000AD89A43029F4AC89EA1711F4E5E03DC0A1
:100B300009C0AD89A33031F4EF81AC89EA1711F413
:100B4000E5E033C0A885A03268F0E8850E9437262A
:100B5000E887AD89A43029F4AC89EA1711F4E6E0FE
:100B600024C009C0AD89A33031F4E885AC89EA1707
:100B700011F4E6E01AC0A985A03268F0E9850E9468
:100B80003726E987AD89A43029F4AC89EA1711F436
:100B9000E7E00BC009C0AD89A33031F4E985AC8929
:100BA000EA1711F4E7E001C0E0E00E94792C6896B2
:100BB0000895EA81FB81E053F84FEA83FB83309785
:100BC00069F0A981AC3051F4A881A93111F4E1E0B8
:100BD00006C0A881AA3111F4E1E001C0E0E024964A
:100BE0000895AA81A83041F4A981A83028F4A881E9
:100BF000A73011F4E1E01DC11BC10E943A26A8896B
:100C0000B9890E94DA25A889B9890E94E1250E9444
:100C10004626EC87FD870E940626AE85BF850E948A
:100C20000D260E944B26A885B9850E942F26AA85ED
:100C3000BB85599721F40C30E0E01E0720F4AA850B
:100C4000BB85589729F4EA85FB853196EA87FB87AF
:100C5000AA85BB850E941B26EE83FF83AE81BF81E0
:100C6000559718F47E96EE83FF83EE81FF813796C9
:100C7000FF93EF930E945026EA0FFB1FBF010E94D3
:100C800050260E942026AF91BF910E94552610F059
:100C9000E4E052C0E3E050C00E943A26A889B98936
:100CA0000E94DA25A889B9890E94E1250E9446267A
:100CB000EC87FD870E940626AE85BF850E940D2623
:100CC0000E944B26A885B9850E942F26AA85BB8540
:100CD000599721F40C30E0E01E0720F4AA85BB856B
:100CE000589729F4EA85FB853196EA87FB87AA8520
:100CF000BB850E941B26EE83FF83AE81BF81559783
:100D000018F47E96EE83FF83EE81FF813796FF9382
:100D1000EF930E945026EA0FFB1FBF010E9450264E
:100D20000E942026AF91BF910E94552620F0EE81AF
:100D3000FF817F9701C0EE810E94792C6296089511
:100D4000E981FA81E053F84FE983FA83A881A13061
:100D500061F0A33051F0A53041F0A73031F0A83058
:100D600021F0AA3011F0AC3011F4EFE162C0A8819B
:100D7000A43031F0A63021F0A93011F0AB3011F4DD
:100D8000EEE157C0A881A230D9F42297EB81FC8113
:100D90000E948F2BE883F983A881B981E4E00E9447
:100DA000C62BE883F983EB81FC81A881B981EA171E
:100DB000FB0719F4EDE122963CC0ECE1229639C024
:100DC00037C0AA81A330B9F4A981A93131F4A8812F
:100DD000A73011F4E1E02DC00DC0A981AA3150F077
:100DE0000E945B2614F0E1E024C0A881A73011F432
:100DF000E1E01FC01DC0AA81A43010F0AA3008F0A5
:100E000002C0E1E016C0AA81AA3091F4A981A931FB
:100E100021F4A881A73061F009C0A981AA3130F07E
:100E20000E945B262CF4A881A73011F0E1E001C0FC
:100E3000E0E0239608951A9310E01431C8F5239743
:100E40000E946A26AE0FBF1F0E94442CE8830E94B6
:100E50006A260E947A260E946A260E948126AA811A
:100E6000A130D0F0A881A83168F4A981AC3348F052
:100E70000E946A260E9488260E948E260E9495263D
:100E8000C3C009C00E946A260E9488260E948E263E
:100E90000E949526B9C009C00E946A260E94882631
:100EA0000E948E260E949526AFC023961F5FC5CF55
:100EB000EFEF1881A9C0A981AE3010F00C9403089F
:100EC000A881A43110F00C9403082697E0E0E88391
:100ED000E983EA83ED83EE81AD81EA1710F40C9487
:100EE00000082497EFEFE983EA83EB83EF83E0E0E8
:100EF000E887A885A43110F00C94F20723970E948C
:100F00009F260E94AF26E8830E949F260E947A2691
:100F10000E949F260E948126A881A83110F00C947F
:100F2000E507A981AC3310F00C94DC07AA81A1304D
:100F3000D0F1EF81A881EA1768F4EC81AE1730F0A8
:100F4000EA1739F4ED81A981AE1718F4E8810E94FF
:100F5000B42628C0EF81A881EA1721F5E885A98188
:100F6000EA1700F5EC81A881AE1720F4E8810E9411
:100F7000B42618C0EC81A881EA17A1F4ED81A981FB
:100F8000AE1720F4E8810E94B4260CC0ED81A9813F
:100F9000EA1741F40E949F260E94BE260E94C426A2
:100FA0000E94CB2608C00E949F260E94BE260E9457
:100FB000C4260E94CB2608C00E949F260E94BE26FF
:100FC0000E94C4260E94CB2608C00E949F260E9431
:100FD000BE260E94C4260E94CB262396E885EF5F9A
:100FE000E88787CFA881A13031F4E981EC83EA81D9
:100FF000ED83EB81EE832496ED81EF5FED836BCF84
:10100000EB81269601C0EFEF22960895AA93EA930A
:10101000EFB7EA93E0916C02EF5FE0936C02A0916E
:101020006C02A43618F0E0E0E0936C02E0916C02F0
:10103000A0916D02EA1710F4DF9A01C0DF98E991E0
:10104000EFBFE991A9911895E881E03009F5E091A9
:1010500063020E94D226A0916A020E94D526BCF4A7
:10106000E0916A02EF5FE0936A020E94D92633960C
:10107000DF01E0916A02F0E0AE17BF0734F4E091BF
:101080006A02F0E03397E0936902E1E048C011C0E2
:10109000A0916A02A13068F0E0916A02E150E09309
:1010A0006A02A0916902EA1710F4E0936902E1E094
:1010B00036C034C0E881E03011F4E0E330C0A881EC
:1010C000A13011F4E1E32BC0A881A23011F4E2E3D6
:1010D00026C0A881A33011F4E3E321C0A881A43085
:1010E00011F4E4E31CC0A881A53011F4E5E317C0B6
:1010F000A881A63011F4E6E312C0A881A73011F44C
:10110000E7E30DC0A881A83011F4E8E308C0A88186
:10111000A93011F4E9E303C0EDE201C0E0E021965B
:101120000895AA85A13010F40C942C092597E1E0CC
:10113000E983E0E0EA83EB83EC83E883EF850E94B8
:10114000D226A8810E94D52654F40E94DD260E9452
:10115000E2260E94E926E881EF5FE883EFCFE88985
:10116000E03091F52597EE85FF85688979890E94A1
:10117000E926AB89A13021F4EBE2EA930E943F25F6
:101180000E94EE260E94F3260E94F82620F40E9478
:10119000F3260E94FE26E0E0ED83EC89AD81AE17D8
:1011A00080F4EA89E03029F00E94032711F40E94BC
:1011B0000E270E9412270E941727ED81EF5FED8313
:1011C000ECCFE1E02A9649C0A889A13011F00C9437
:1011D0002B092597EA85FB856C857D850E94E9268C
:1011E000AB89A13049F4AC81AA2312F0EBE201C033
:1011F000EDE2EA930E943F25AC81AA2352F40E94BB
:10120000DD26AFEFBFEF8FEF9FEF0E94D12B0E9443
:10121000E9260E94F3260E94F82620F40E94F32675
:101220000E94FE26E0E0ED83EC89AD81AE1780F4EC
:10123000EA89E03029F00E94032711F40E940E276A
:101240000E9412270E941727ED81EF5FED83ECCFFC
:10125000E1E02A9602C02596E0E02C960895E0E0B1
:10126000EBBBE0E8EABBE0E0E8BBE7BBE5BBE8E3FB
:10127000E4BBE0E0E2BBE0EBE1BBE2E0E3BFE0E0E7
:10128000E2BFECBFEFBDEEBDEDBDECBDE7BDE6BD21
:10129000EBBDEABDE9BDE8BDE2BDE5BDE4BDE3BD32
:1012A000E5BFE4BFE1E0E9BFE0E8E8B9E0E0E0BFC6
:1012B0000E943E2778940E943E27E4E1EA930E9430
:1012C0008725EBE0E1BDEEE10E944627E4E5F0E092
:1012D0000E944F27E9E6F0E00E944F27EEE7F0E09A
:1012E0000E944F270E9453270E945827E3EAF2E00A
:1012F00060E070E00E945C27EEE8F0E00E944F277B
:101300000E9466270E946C27E53628F0AFE4B3E020
:10131000E4E60E94582C0E947127EF3F29F4A0E0D8
:10132000B0E0E6E10E94582C0E947627E23020F4DB
:101330000E947B27E23048F0A1E0B0E0E0E00E94AC
:10134000582CA2E0B0E00E94582CA4E0B0E00E942B
:10135000402CE031A7E2FA0720F40E948027E23017
:1013600038F00E948527A6E0B0E0E0E00E94582C0B
:101370000E948C27EE3114F4E33E2CF4A3E0B0E09D
:10138000E0E00E94582CE1E0EA1508F4AA240E944B
:101390009127EBE0F0E00E949A27E1E0E0936E02F3
:1013A000A0E7B2E0ED91FD913196FE93EE93A0910E
:1013B0007002B0917102A43FE1E0BE0750F0E0E09E
:1013C000E0937002E0937102E0916202EF5FE093BC
:1013D0006202A0916202A13010F40C94140BE1E0BF
:1013E000E0937202E0916202E150E0936202A09108
:1013F0007302A13011F40C940F0B21970E949127D6
:10140000FE0134960E949A27E3E0EA930E944F245B
:101410008E2EE881EB1511F40C940D0BB880E09141
:101420006B02EF5FE0936B020E947627E130F9F4E4
:101430000E947B27E03071F40E94AC27E13049F430
:10144000E7E16E1630F463940E94B127E1E00E9458
:10145000582C0DC00E94AC27E03049F4E0E0E615BE
:1014600030F46A940E94B127E0E00E94582C662074
:10147000D1F49920B9F4EEE1EB1599F4AA2089F49E
:101480000E948C27E03069F0E1E0E81529F40E9421
:101490008C27BE0EE1E0AE2E6A929A92BA920E941A
:1014A000962401C0AA24BB2011F00C94CA0A2697E6
:1014B0000E94B927A8DAEB830E94B9277ADBEA8376
:1014C0004A927A928A928DDBE9838882AB81A4303A
:1014D00011F4E7E040C0AB81A53011F4E8E03BC077
:1014E000AB81A63011F4E9E036C0AB81A73011F42E
:1014F000EAE031C0AA81A13011F4EBE02CC0AA814E
:10150000A23011F4ECE027C0A981A13011F4EDE084
:1015100022C0A881A13011F4E0E01DC0A881A23052
:1015200011F4E1E018C0A881A33011F4E2E013C087
:10153000A881A43011F4E3E00EC0A881A53011F415
:10154000E4E009C0A881A63011F4E5E004C0A88158
:10155000A73011F4E6E0EC83E0E0ED83AD81A43147
:10156000C0F40E94C0270E94AF266E1671F40E943C
:10157000C0270E94D0279E1641F40E94C0270E94D7
:10158000D627E0937402F0937502ED81EF5FED834F
:10159000E5CF2696A0917402B09175020E94692C45
:1015A00070F40E947127EA93E1E0EA93C2D9A4E7BC
:1015B000B2E0ED91FD913197FE93EE9306C00E944B
:1015C0007127EA93E0E0EA93B4D900240C140D04E7
:1015D00070F4F60131976F010C2C0D2841F4E1E015
:1015E000E0936E020E94DD27E0E0E0936F02A0919D
:1015F0006002A13048F0E0916002E150E0936002A7
:10160000E03011F40E94DD27A0916102A13028F0A2
:10161000E0916102E150E0936102219605C0E09102
:101620006B02EF5FE0936B022197E0E0E883A88113
:10163000A530A0F5E881EA93C0D9E13059F40E94C1
:10164000ED2738F40E94F427A558BD4FEC91EF5FC9
:10165000EC9320C00E94ED2798F00E94F727A1E0AC
:10166000A083E0916B02EE5FE0936B02EDE2F0E0AD
:101670006F01EEE1E0936002EFE00E94462704C0B4
:101680000E94F727A0E0A083E881F0E0E558FD4F35
:10169000A0E0A083E881EF5FE883C9CF2196E091C5
:1016A0006102E030A9F4A0916D02A13088F0E091D0
:1016B0008002EF5FE0938002A0918002A93140F0A8
:1016C000E0E0E0938002E0916D02E150E0936D0272
:1016D000A0916E02A13011F00C94910CE091810266
:1016E000EF5FE0938102A0918102A13E10F40C947F
:1016F000780CE0E0E0938102E0918202EF5FE093FA
:101700008202A0918202AC3218F0E0E0E093820203
:101710000E942725E0918202E03061F40E94FC27BC
:101720000E9402280E9406280E9458270E94132522
:10173000EEE5A5C0A0918202A13059F40E940628CE
:101740000E9458270E941325E5EAF0E00E944F27E7
:1017500099C0A0918202A23020F0A0918202A4310F
:1017600008F00BC0E0918202F0E032970E940D2851
:10177000E8EAF0E00E944F2785C0A0918202A431E0
:1017800059F4E2E10E940D28E6E6F0E00E944F27BE
:101790000E941228E6E773C0A0918202A53169F485
:1017A000E3E10E940D280E9402280E9412280E9454
:1017B00002280E941828E6E762C0A0918202A631A2
:1017C00061F40E9412280E9402280E9418280E9498
:1017D00002280E941E28E6E752C0A0918202A7318B
:1017E00079F40E9418280E940228E2E1EA93E3E0DB
:1017F000EA930E941325ECEAF0E00E944F2742C0D2
:10180000A0918202A83120F0A0918202AA3208F0B1
:1018100014C0E0918202F0E0A1E1B0E00E94392C16
:10182000EA1BFB0BE85EEA93E3E0EA930E941325D0
:10183000EFEAF0E00E944F2725C0A0918202AA3271
:1018400069F40E94FC270E9424280E9453270E94CA
:101850001325E3EBF0E00E944F2714C0A091820211
:10186000AB3281F40E9428280E9424280E94FC2781
:101870000E9402280E9453270E941325ECE7EA9356
:101880000E943F25E1E00E942E28E6EBF0E00E9456
:101890004F270E9433280E9438280E943D280E942A
:1018A00033280E9440280E943D280E9433280E942D
:1018B0004528E6EBF0E00E944F27E1E00E944A282D
:1018C000EEEBF0E00E944F270E9453270E9458271A
:1018D0000E944F280E9454280E9433280E945728B3
:1018E0000E9454280E9433280E945C280E9461288C
:1018F000A0917702A13081F0A0917902A13061F02E
:10190000A0917A02A13041F0A0917602A13021F09D
:10191000A0917802A13019F4E0E0E0936E020C94FB
:101920003A240E948027E13021F4A0916F02A03078
:1019300009F033C1A0916B02A13010F00E9427255D
:10194000A0917702A13051F4A0916402A13028F057
:10195000E0916402E150E0936402BDC0A09179027D
:10196000A13051F4A0916402A33028F4E091640204
:10197000EF5FE0936402AFC0A0917A02A13089F5D5
:10198000E0916402E03059F40E946428A83EE3E04C
:10199000BE0720F00E9469280E946E2821C0A091F5
:1019A0006402A13049F40E947528A436E0E0BE0725
:1019B00010F00E94852813C0A0916402A23031F477
:1019C0000E948D2810F00E949E2809C0A0916402F8
:1019D000A33031F40E94A62810F00E94B728229666
:1019E0007AC0A0917602A130E1F5E0916402E03086
:1019F00049F40E946428A832E3E2BE0710F40E9472
:101A0000BF282EC0A0916402A13051F40E94752815
:101A1000A438E3E0BE0710F40E94C728229620C035
:101A2000A0916402A23051F40E94CF280E94E128C4
:101A3000A881AA3510F40E94EE2811C0A09164027A
:101A4000A33071F40E94CF280E94E1286881772793
:101A50000E94F4270E94F52810F40E940429219680
:101A60003AC0A0917802A130B1F5E0E0E0936402C1
:101A7000A4E0B0E00E94402C0E946428EA17FB0713
:101A8000A1F4E1E0E0936F020E940B290E94272558
:101A9000E7E00E942E28E4ECF0E00E944F27E5E00A
:101AA0000E944A28EAECF0E010C00E9427250E941C
:101AB0000B29E7E00E942E28E4ECF0E00E944F277B
:101AC000E4E00E944A28E4EDF0E0FA93EA930E94F1
:101AD00066250E946627A0916B02A13010F40C9439
:101AE000CB0D2297E0EEF0E00E944F270E942828BD
:101AF000E5EFF0E00E944F27EEE00E944A280E94A6
:101B00006928E883F983E0916402E03029F40E94B7
:101B10001129EA93CFDA01C0EAE2EA930E943F2555
:101B20000E9411290E941829A0916402A13029F471
:101B30000E942329EA93BEDA01C0EAE2EA930E94F6
:101B40003F250E9423290E942A29A0916402A230E5
:101B500029F40E943529EA93ADDA01C0EAE2EA935A
:101B60000E943F250E9435290E943C29A0916402D1
:101B7000A33021F4E881EA939DDA01C0EAE2EA9316
:101B80000E943F250E9453270E941325E5E0F1E0C3
:101B90000E944F2722960C943A24A0916B02A13008
:101BA00010F00E942725E0916402E03011F00C94BF
:101BB0004E0EA0917A02A13019F40E94472911C05B
:101BC000A0917602A13019F40E944B290AC0A0917D
:101BD0007802A13031F4E0916A02E09364020E943D
:101BE0004F29A0916B02A13010F40C944C0E0E946E
:101BF00055290E94D9260E945F2914F00C94480EA2
:101C00000E94622919F4EAE1F1E037C0A981A1300C
:101C100089F4ECE2F1E00E944F270E9433280E94F1
:101C200038280E943D280E9433280E944028EAEB71
:101C3000F0E023C0A981A230A9F4E7E3F1E00E941B
:101C40004F270E9433280E944F280E9454280E9448
:101C500033280E9457280E9454280E9433280E944B
:101C60005C280FC0A981A33019F4E2E4F1E005C0BB
:101C7000A981A43031F4E0E5F1E0FA93EA930E94FF
:101C80006625E881EF5FE883E981EF5FE983B1CF03
:101C90000E946B290E9471290C943A24A09164023D
:101CA000A13011F00C94760FE0916502E03051F50F
:101CB000A0917A02A13041F4A0916A02A23018F4F6
:101CC000E2E0E0936A021DC0A0917602A13041F4E7
:101CD000A0916A02A13018F0E0E0E0936A0211C01E
:101CE000A0917802A13069F4E0916A02E03021F419
:101CF000E0E0E093640203C0E1E0E09365020E944B
:101D00004F2988C0A0917A02A13081F5A091650287
:101D1000A13041F40E947C293A97FF2312F0E6EFAC
:101D20006E0E23C0A0916502A23041F4E62D0E9400
:101D3000D226FF2312F0EFEF6E0E17C0A0916502BE
:101D4000A33041F40E947F293A97FF2312F0E6EF77
:101D50009E0E0BC0A0916502A43039F4E92D0E94BB
:101D6000D226FF2312F0EFEF9E0E54C0A091760210
:101D7000A13071F5A0916502A13041F40E947C2947
:101D80003A96789714F4EAE06E0E21C0A0916502AD
:101D9000A23039F40E947C29319678970CF4639430
:101DA00016C0A0916502A33041F40E947F293A96A3
:101DB000FC9714F4EAE09E0E0AC0A0916502A430DC
:101DC00031F40E947F293196FC970CF4939422C041
:101DD000A0917702A13051F4A0916502A23028F0C1
:101DE000E0916502E150E093650214C0A091790290
:101DF000A13051F4A0916502A43028F4E09165026D
:101E0000EF5FE093650206C0A0917802A13011F463
:101E10000E948229A0916B02A13010F40C94740FDF
:101E2000E7E0E0936302EDE5F1E00E944F270E94B6
:101E300086290E9433280E9438280E943D280E944B
:101E400033280E9440280E943D28A0916502A130BD
:101E500008F0BB240E9433280E9445280E94612874
:101E6000E0916502E03039F4E2E7F1E00E944F27AB
:101E70000E94892924C0A0916502A13019F4E3E8E9
:101E8000F1E014C0A0916502A23019F4EDE8F1E090
:101E90000DC0A0916502A33019F4E8E9F1E006C095
:101EA000A0916502A43031F4E5EAF1E0FA93EA93F7
:101EB0000E9466256A929A92BA920E9496240E9483
:101EC0007627E13089F40E9453270E9413250E944F
:101ED0007B27E03019F4E3EBF1E002C0E3ECF1E042
:101EE000FA93EA930E9466250C943A24A091640226
:101EF000A23011F00C940E11E0916502E03011F562
:101F0000A0917602A13021F4E0E0E0936A0219C0CA
:101F1000A0917A02A13021F4E3E0E0936A0211C0BB
:101F2000A0917802A13069F4E0916A02E03021F4D6
:101F3000E0E0E093640203C0E1E0E09365020E9408
:101F40004F29C4C0A0917602A13011F00C94F10F7A
:101F5000A0916502A13031F4EAE55E1610F4EAE0E2
:101F60005E0E3EC0A0916502A23029F4E3E65E1643
:101F700008F4539435C0A0916502A33031F4E2E037
:101F8000E41510F0EAE04E0E2BC0A0916502A430DB
:101F900029F4ECE04E1608F4439422C0A0916502A7
:101FA000A53061F40E9494290E949B29A72DB0E0DE
:101FB000EA17FB0714F0EAE07E0E12C0A09165025A
:101FC000A63031F40E9494297E1608F4739408C058
:101FD000A0916502A73021F4E7E08E1608F48394FF
:101FE0006EC0A0917A02A13011F00C943D10A09126
:101FF0006502A13031F4EAE05E1610F0E6EF5E0E05
:102000003BC0A0916502A23031F4E0E0E51510F488
:10201000EFEF5E0E31C0A0916502A33031F4EAE02B
:10202000E41510F4E6EF4E0E27C0A0916502A4302F
:1020300031F4E1E0E41510F4EFEF4E0E1DC0A09175
:102040006502A53031F4EAE0E71510F4E6EF7E0E04
:1020500013C0A0916502A63031F4E1E0E71510F459
:10206000EFEF7E0E09C0A0916502A73029F4E1E0F0
:10207000E81510F4EFEF8E0E22C0A0917702A13088
:1020800051F4A0916502A23028F0E0916502E15080
:10209000E093650214C0A0917902A13051F4A0919F
:1020A0006502A73028F4E0916502EF5FE0936502D6
:1020B00006C0A0917802A13011F40E9482290E94EA
:1020C0009429E71518F40E9494297E2EA0916B02A2
:1020D000A13010F40C940C11E4EDF1E00E944F27B4
:1020E000E1E0E81519F4E9EEF1E026C0E2E0E815D8
:1020F00019F4EEEFF1E020C0E3E0E81519F4E3E1B4
:10210000F2E01AC0E4E0E81519F4E8E2F2E014C0E5
:10211000E5E0E81519F4EDE3F2E00EC0E6E0E815BD
:1021200019F4E2E5F2E008C0E7E0E81519F4E7E6A3
:10213000F2E002C0ECE7F2E0FA93EA930E9466252F
:10214000E1E9F2E00E944F270E9453270E9458279E
:102150000E944F280E9454280E9433280E9457282A
:102160000E9454280E9433280E945C280E94612803
:10217000E0916502E03019F40E949E2947C0A091C9
:102180006502A13019F4EEEAF2E032C0A0916502D6
:10219000A23019F4E3ECF2E02BC0A0916502A33069
:1021A00019F4E8EDF2E024C0A0916502A43019F41E
:1021B000EDEEF2E01DC0A0916502A53019F4E2E059
:1021C000F3E016C0A0916502A63019F4E7E1F3E050
:1021D0000FC0A0916502A73079F4E0E10E944A287F
:1021E0000E9424280E9453270E941325ECE2F3E06A
:1021F000FA93EA930E9466257A924A925A920E9432
:10220000C424E3E0EA938A920E945D24E09165028F
:10221000E03011F40E9489290C943A24A0916402C0
:10222000A33011F00C94F51FE0916502E03011F03D
:102230000C947311A0917A02A13019F40E944729DD
:1022400019C0A0917602A13019F40E944B2912C046
:10225000A0917802A13071F4E0916A02E03021F49B
:10226000E0E0E093640204C0E0916A02E09365025A
:102270000E944F29A0916B02A13098F10E9455292C
:102280000E94D9260E945F2944F50E94622919F410
:10229000E1E4F3E017C0A981A13019F4E3E5F3E02C
:1022A00011C0A981A23019F4E4E6F3E00BC0A981C2
:1022B000A33019F4E4E7F3E005C0A981A43031F4B8
:1022C000E4E8F3E0FA93EA930E946625E881EF5F81
:1022D000E883E981EF5FE983D3CF0E946B290E94F5
:1022E00071290C94F41FA0916502A13011F00C9497
:1022F0006615E0916602E03011F00C94ED11A091AA
:102300007A02A13019F40E94472917C0A0917602E1
:10231000A13019F40E944B2910C0A0917802A1307D
:1023200061F4E0916A02E03021F4E0E0E0936502BC
:1023300002C00E94A1290E944F29A0916B02A130E6
:1023400010F40C94EC112297E0E0E883E8E00E949E
:10235000A6290E94D9260E945F29D4F50E946229ED
:1023600019F4E2E9F3E029C0A981A13019F4E6EA01
:10237000F3E023C0A981A23019F4E7EBF3E01DC01C
:10238000A981A33019F4E8ECF3E017C0A981A430C7
:1023900019F4EAEDF3E011C0A981A53019F4EEEECD
:1023A000F3E00BC0A981A63019F4E0E0F4E005C029
:1023B000A981A73031F4E1E1F4E0FA93EA930E94B5
:1023C0006625E881EF5FE883E981EF5FE983C1CFAC
:1023D0000E946B290E94712977C3A0916602A130E7
:1023E00020F0A0916602A83008F06CC3E09167026B
:1023F000E03011F00C94D312A0917A02A13019F4BC
:102400000E94472934C0A0917602A13019F40E949D
:102410004B292DC0A0917802A13049F5E0916A02C4
:10242000E03021F4E0E0E09366021FC0A0916A0270
:10243000A130D8F021970E94AC29EA93E0916A027A
:102440000E94D2260E94AF29A881AF3F49F40E9482
:10245000AC29EA930E941B07E883EF5FE0936702D1
:10246000E881EF5FE093670221960E944F29A091D7
:102470006B02A13010F40C94D2122297E0E0E883B2
:10248000E5E10E94A6290E94D9260E945F2914F046
:102490000C94CE120E946229A9F5A0916602A13087
:1024A00019F4E2E2F4E029C0A0916602A23019F426
:1024B000E4E3F4E022C0A0916602A33019F4E6E45C
:1024C000F4E01BC0A0916602A43019F4E9E5F4E041
:1024D00014C0A0916602A53019F4EDE6F4E00DC039
:1024E000A0916602A63019F4E0E8F4E006C0A091DD
:1024F0006602A73031F4E2E9F4E0FA93EA930E942D
:10250000662545C0A981A13010F40C94C712A531ED
:10251000F0F521970E94AC290E94B4290E94AF29AE
:102520000E9433280E9434260E94B7290E94BA29AB
:10253000A881AF3F29F10E9433280E94AC290E9454
:10254000BD290E94AF260E94CD290E94CF290E945A
:10255000AC290E94BD290E94D0270E94CD290E944B
:10256000D4290E9453270E9458270E94AC290E9418
:10257000BD290E94D6270E94B729E7EAF4E002C0ED
:10258000ECEAF4E0FA93EA930E9466252196E8814A
:10259000EF5FE883E981EF5FE98375CF0E946B29E4
:1025A0000E9471298EC2A0916702A53110F00C948F
:1025B0005F15A0917A02A13011F00C94AB13E09159
:1025C0006802E030A1F4E0916A02E03011F4E2E048
:1025D0000BC0A0916A02A13011F4E2E005C0A09105
:1025E0006A02A23019F4E3E0E0936A02B3C0A0915A
:1025F0006802A130A1F40E94AC290E94D7290E9450
:10260000E1290E949B29FF234AF00E94AC290E94E5
:10261000D7290E94E129EA500E94582C9BC0A09122
:102620006802A230A1F40E94AC290E94D7290E941E
:10263000E1290E94D226FF234AF00E94AC290E9481
:10264000D7290E94E129E1500E94582C83C0A09113
:102650006802A330A1F40E94AC290E94D7290E94ED
:10266000E8290E949B29FF234AF00E94AC290E947E
:10267000D7290E94E829EA500E94582C6BC0A091EB
:102680006802A430A1F40E94AC290E94D7290E94BC
:10269000E8290E94D226FF234AF00E94AC290E941A
:1026A000D7290E94E829E1500E94582C53C0A091DC
:1026B0006802A530B9F40E94AC290E94D7290E9473
:1026C000EF290E94D6270E94F6295CF40E94AC29CB
:1026D0000E94D7290E94EF290E94FC29E4560E94FB
:1026E000582C38C0A0916802A630B9F40E94AC29D9
:1026F0000E94D7290E94EF290E94D6270E94022A11
:102700005CF40E94AC290E94D7290E94EF290E9404
:10271000FC29EA500E94582C1DC0A0916802A730E5
:10272000C9F40E94AC290E94D7290E94EF290E9477
:10273000FC290E94D226DF010E94692C5CF40E94D1
:10274000AC290E94D7290E94EF290E94FC29E15060
:102750000E94582C1EC1A0917602A13011F00C9459
:102760007A14E0916802E030A1F4A0916A02A130ED
:1027700011F4E0E00BC0A0916A02A23011F4E0E095
:1027800005C0A0916A02A33019F4E2E0E0936A0266
:10279000B0C0A0916802A130A1F40E94AC290E94AF
:1027A000D7290E94E1290E94072A78974CF40E94B9
:1027B000AC290E94D7290E94E129E65F0E94582C8B
:1027C00098C0A0916802A230A1F40E94AC290E9496
:1027D000D7290E94E1290E940A2A78974CF40E9486
:1027E000AC290E94D7290E94E129EF5F0E94582C52
:1027F00080C0A0916802A330A1F40E94AC290E947D
:10280000D7290E94E8290E94072AFC974CF40E94CD
:10281000AC290E94D7290E94E829E65F0E94582C23
:1028200068C0A0916802A430A1F40E94AC290E9463
:10283000D7290E94E8290E940A2AFC974CF40E949A
:10284000AC290E94D7290E94E829EF5F0E94582CEA
:1028500050C0A0916802A530B9F40E94AC290E9432
:10286000D7290E94EF290E94D6270E940D2A5CF4E6
:102870000E94AC290E94D7290E94EF290E94FC29BE
:10288000EC590E94582C35C0A0916802A630B9F4CA
:102890000E94AC290E94D7290E94EF290E94D627C6
:1028A0000E94132A5CF40E94AC290E94D7290E943E
:1028B000EF290E94FC29E65F0E94582C1AC0A091C3
:1028C0006802A730B1F40E94AC290E94D7290E9467
:1028D000EF290E94D6270E94182A5CF40E94AC2996
:1028E0000E94D7290E94EF290E94FC29EF5F0E94D5
:1028F000582C4FC0A0917702A13039F4A091680202
:10290000A23010F00E941D2A44C0A0917902A1308B
:1029100059F4A0916802A13030F0A0916802A7306C
:1029200010F40E94232A35C0A0917802A13089F5C5
:10293000E0916802E03041F5E0916A02E03001F197
:10294000A0916A02A23021F4E1E0E09368021BC08A
:10295000A0916A02A330B9F40E94AC290E94D72941
:102960000E94EF290E94292A0E94D7290E94EF295C
:102970000E942F2A0E94D7290E94EF290E94CB266D
:10298000E0E0E093670203C0E0E0E09368020E94A9
:102990004F29A0916B02A13010F40C945E150E9497
:1029A000362A0E94AC290E94D7290E94E129E831E9
:1029B00040F40E94AC290E94D7290E94E829EC33F8
:1029C000B0F0E09166020E94D2260E94D7290E94B0
:1029D000EF290E94292A0E94D7290E94EF290E94EC
:1029E0002F2A0E94D7290E94EF290E94CB260E94FD
:1029F00086290E9433280E94AC290E94D7290E9470
:102A0000E1290E94CD290E940E270E9433280E94AE
:102A1000AC290E94D7290E94E8290E94CD290E9452
:102A2000D4290E9453270E9458270E94AC290E9453
:102A3000D7290E94EF290E94D6270E94B7290E9419
:102A4000392AA0916802A13019F40E94402A36C0A8
:102A5000A0916802A23019F40E94432A2FC0A091CD
:102A60006802A33019F40E94462A28C0A091680287
:102A7000A43019F40E94492A21C0A0916802A5300F
:102A800019F40E944C2A1AC0A0916802A63019F4C9
:102A90000E944F2A13C0A0916802A73019F40E9427
:102AA000522A0CC0E0916802E03041F40E949E2955
:102AB0000E94552A0E946B290E94582A02C00E9437
:102AC000612A02C00E94652A0C94F41FA09165023D
:102AD000A23011F00C943F19E0916602E03011F041
:102AE0000C94D215A0917A02A13019F40E944729C2
:102AF00017C0A0917602A13019F40E944B2910C092
:102B0000A0917802A13061F4E0916A02E03021F4F2
:102B1000E0E0E093650202C00E94A1290E944F29D3
:102B2000A0916B02A130E8F12297E0E0E883E6E0B3
:102B30000E94A6290E94D9260E945F2974F50E944E
:102B4000622919F4E3E1F5E01DC0A981A13019F46F
:102B5000E6E2F5E017C0A981A23019F4EAE3F5E056
:102B600011C0A981A33019F4ECE4F5E00BC0A981F0
:102B7000A43019F4E0E6F5E005C0A981A53031F4F0
:102B8000E1E7F5E0FA93EA930E946625E881EF5FBA
:102B9000E883E981EF5FE983CDCF0E946B290E9432
:102BA00071296CC3A0916602A13020F0A091660249
:102BB000A53008F0E5C2E0916702E03011F00C9416
:102BC0007B16A0917A02A13019F40E94472917C000
:102BD000A0917602A13019F40E944B2910C0A09157
:102BE0007802A13061F4E0916A02E03021F4E0E083
:102BF000E093660202C00E94692A0E944F29A091B8
:102C00006B02A13010F40C947A160E946E2A0E9476
:102C1000D9260E945F2914F00C9476160E9462292E
:102C200001F5A0916602A13019F4E5E8F5E014C0C1
:102C3000A0916602A23019F4E9E9F5E00DC0A09177
:102C40006602A33019F4ECEAF5E006C0A091660232
:102C5000A43031F4EFEBF5E0FA93EA930E94662595
:102C60003EC0A981A130D8F1A531C8F52197E091E6
:102C70006602EA5F0E94B4290E94AF290E943328AD
:102C80000E9434260E94B7290E94BA29A881AF3F2A
:102C9000F9F00E9433280E94732A0E94AF260E94F6
:102CA000CD290E94CF290E94732A0E94D0270E941A
:102CB000CD290E94D4290E9453270E9458270E94A0
:102CC000732A0E94D6270E94B729E7EAF4E002C0DF
:102CD000ECEAF4E0FA93EA930E9466252196E881F3
:102CE000EF5FE883E981EF5FE98391CF0E946B2971
:102CF0000E94712944C2A0916702A53110F00C9482
:102D0000BD18A0917A02A13011F00C943717E09110
:102D10006802E030A1F4E0916A02E03011F4E2E0F0
:102D20000BC0A0916A02A13011F4E2E005C0A091AD
:102D30006A02A23019F4E3E0E0936A0297C0A0911E
:102D40006802A13081F40E94782A0E94E1290E9441
:102D50009B29FF233AF00E94782A0E94E129EA5039
:102D60000E94582C83C0A0916802A23081F40E9476
:102D7000782A0E94E1290E94D226FF233AF00E947D
:102D8000782A0E94E129E1500E94582C6FC0A0913E
:102D90006802A33081F40E94782A0E94E8290E94E8
:102DA0009B29FF233AF00E94782A0E94E829EA50E2
:102DB0000E94582C5BC0A0916802A43081F40E944C
:102DC000782A0E94E8290E94D226FF233AF00E9426
:102DD000782A0E94E829E1500E94582C47C0A0910F
:102DE0006802A53099F40E94782A0E94EF290E9477
:102DF000D6270E94F6294CF40E94782A0E94EF29D7
:102E00000E94FC29E4560E94582C30C0A091680210
:102E1000A63099F40E94782A0E94EF290E94D627B2
:102E20000E94022A4CF40E94782A0E94EF290E94F4
:102E3000FC29EA500E94582C19C0A0916802A730C2
:102E4000A9F40E94782A0E94EF290E94FC290E947E
:102E5000D226DF010E94692C4CF40E94782A0E943D
:102E6000EF290E94FC29E1500E94582CFCC0A0913F
:102E70007602A13011F00C94EA17E0916802E0307C
:102E8000A1F4A0916A02A13011F4E0E00BC0A0917E
:102E90006A02A23011F4E0E005C0A0916A02A330FA
:102EA00019F4E2E0E0936A0294C0A0916802A130B4
:102EB00081F40E94782A0E94E1290E94072A7897CB
:102EC0003CF40E94782A0E94E129E65F0E94582C77
:102ED00080C0A0916802A23081F40E94782A0E94EA
:102EE000E1290E940A2A78973CF40E94782A0E94DD
:102EF000E129EF5F0E94582C6CC0A0916802A330BA
:102F000081F40E94782A0E94E8290E94072AFC97EF
:102F10003CF40E94782A0E94E829E65F0E94582C1F
:102F200058C0A0916802A43081F40E94782A0E94BF
:102F3000E8290E940A2AFC973CF40E94782A0E9401
:102F4000E829EF5F0E94582C44C0A0916802A53088
:102F500099F40E94782A0E94EF290E94D6270E94A5
:102F60000D2A4CF40E94782A0E94EF290E94FC2925
:102F7000EC590E94582C2DC0A0916802A63099F4FB
:102F80000E94782A0E94EF290E94D6270E94132AC5
:102F90004CF40E94782A0E94EF290E94FC29E65FE7
:102FA0000E94582C16C0A0916802A73091F40E948C
:102FB000782A0E94EF290E94D6270E94182A4CF4F2
:102FC0000E94782A0E94EF290E94FC29EF5F0E944C
:102FD000582C49C0A0917702A13039F4A091680221
:102FE000A23010F00E941D2A3EC0A0917902A130AB
:102FF00059F4A0916802A13030F0A0916802A73086
:1030000010F40E94232A2FC0A0917802A13059F514
:10301000E0916802E03011F5E0916A02E030D1F011
:10302000A0916A02A23021F4E1E0E093680215C0A9
:10303000A0916A02A33089F40E94782A0E94EF29A5
:103040000E947D2A0E94EF290E94832A0E94EF2974
:103050000E94CB26E0E0E093670203C0E0E0E0934B
:1030600068020E944F29A0916B02A13010F40C94C9
:10307000BC180E94362A0E94782A0E94E129E83171
:1030800040F40E94AC290E94D7290E94E829EC3321
:1030900090F0E0916602F0E036960E94D7290E94F7
:1030A000EF290E947D2A0E94EF290E94832A0E9414
:1030B000EF290E94CB260E9486290E9433280E9475
:1030C000782A0E94E1290E94CD290E940E270E94A1
:1030D00033280E94782A0E94E8290E94CD290E9464
:1030E000D4290E9453270E9458270E94782A0E94C0
:1030F000EF290E94D6270E94B7290E94392AA09161
:103100006802A13019F40E94402A36C0A0916802DA
:10311000A23019F40E94432A2FC0A0916802A33064
:1031200019F40E94462A28C0A0916802A43019F41C
:103130000E94492A21C0A0916802A53019F40E947A
:103140004C2A1AC0A0916802A63019F40E944F2A96
:1031500013C0A0916802A73019F40E94522A0CC033
:10316000E0916802E03041F40E949E290E94552AB5
:103170000E946B290E94582A02C00E94612A7EC0C8
:10318000A0916602A53011F00C943C19A091780230
:10319000A13011F40E94652AA0916B02A13010F4B5
:1031A0000C943B19E2EDF5E00E944F27E7EEF5E0C5
:1031B0000E944F270E9453270E9458270E944F28A1
:1031C0000E9454280E9433280E948A2A0E948F2A33
:1031D0000E9454280E9433280E948A2A0E94952A1D
:1031E000E9E8F2E00E944F27ECEEF5E00E944F275D
:1031F0000E9453270E945827E52D0E940A2A0E9408
:10320000B7290E9454280E943328E52D0E940A2ADB
:10321000FA93EA930E948F2A0E9454280E9433282E
:10322000E52D0E940A2AFA93EA930E94952AE9E87A
:10323000F2E00E944F27E1EFF5E00E944F270E9445
:1032400053270E9458270E949B2A0E94B7290E9458
:1032500054280E9433280E949B2AFA93EA930E94E2
:103260008F2A0E9454280E9433280E949B2AFA9396
:10327000EA930E94952A02C00E94652AB5C6A091D1
:103280006502A33011F00C94CD1CE0916602E03091
:1032900011F00C949919A0917A02A13019F40E94AE
:1032A000472917C0A0917602A13019F40E944B293A
:1032B00010C0A0917802A13061F4E0916A02E03080
:1032C00021F4E0E0E093650202C00E94A1290E947F
:1032D0004F29A0916B02A13058F12297E0E0E883DA
:1032E000E3E00E94A6290E94D9260E945F29E4F407
:1032F0000E94622919F4E6EFF5E00BC0A981A13024
:1033000019F4E9E0F6E005C0A981A23031F4EAE160
:10331000F6E0FA93EA930E946625E881EF5FE8837E
:10332000E981EF5FE983DFCF0E946B290E94712959
:1033300033C3A0916602A13020F0A0916602A330B1
:1033400008F02AC3E0916702E03011F00C943E1AB5
:10335000A0917A02A13019F40E94472917C0A091C8
:103360007602A13019F40E944B2910C0A091780276
:10337000A13061F4E0916A02E03021F4E0E0E093F2
:10338000660202C00E94692A0E944F29A0916B0226
:10339000A13010F40C943D1A0E946E2A0E94D92686
:1033A0000E945F2914F00C94391A0E94622991F44A
:1033B000A0916602A13019F4EBE2F6E006C0A091FC
:1033C0006602A23031F4EFE3F6E0FA93EA930E944A
:1033D000662548C0A981A13010F40C94321AA53199
:1033E00010F00C94321A2197E0916602E65F0E9479
:1033F000B4290E94AF290E9433280E9434260E94DB
:10340000B7290E94BA29A881AF3F29F10E94332829
:103410000E949F2A0E94BD290E94AF260E94CD29AA
:103420000E94CF290E949F2A0E94BD290E94D02776
:103430000E94CD290E94D4290E9453270E94582718
:103440000E949F2A0E94BD290E94D6270E94B72968
:10345000E7EAF4E002C0ECEAF4E0FA93EA930E94AF
:1034600066252196E881EF5FE883E981EF5FE983D4
:1034700095CF0E946B290E9471298EC2A09167028C
:10348000A53110F00C94CA1CA0917A02A13011F061
:103490000C94161BE0916802E030A1F4E0916A02FE
:1034A000E03011F4E2E00BC0A0916A02A13011F407
:1034B000E2E005C0A0916A02A23019F4E3E0E093D3
:1034C0006A02B3C0A0916802A130A1F40E949F2AB1
:1034D0000E94D7290E94E1290E949B29FF234AF0DC
:1034E0000E949F2A0E94D7290E94E129EA500E9447
:1034F000582C9BC0A0916802A230A1F40E949F2A80
:103500000E94D7290E94E1290E94D226FF234AF077
:103510000E949F2A0E94D7290E94E129E1500E941F
:10352000582C83C0A0916802A330A1F40E949F2A66
:103530000E94D7290E94E8290E949B29FF234AF074
:103540000E949F2A0E94D7290E94E829EA500E94DF
:10355000582C6BC0A0916802A430A1F40E949F2A4D
:103560000E94D7290E94E8290E94D226FF234AF010
:103570000E949F2A0E94D7290E94E829E1500E94B8
:10358000582C53C0A0916802A530B9F40E949F2A1C
:103590000E94D7290E94EF290E94D6270E94F6296F
:1035A0005CF40E949F2A0E94D7290E94EF290E9462
:1035B000FC29E4560E94582C38C0A0916802A6301D
:1035C000B9F40E949F2A0E94D7290E94EF290E94E5
:1035D000D6270E94022A5CF40E949F2A0E94D729C3
:1035E0000E94EF290E94FC29EA500E94582C1DC01D
:1035F000A0916802A730C9F40E949F2A0E94D7298F
:103600000E94EF290E94FC290E94D226DF010E941D
:10361000692C5CF40E949F2A0E94D7290E94EF29FE
:103620000E94FC29E1500E94582C1EC1A0917602F4
:10363000A13011F00C94E51BE0916802E030A1F498
:10364000A0916A02A13011F4E0E00BC0A0916A02DF
:10365000A23011F4E0E005C0A0916A02A33019F491
:10366000E2E0E0936A02B0C0A0916802A130A1F448
:103670000E949F2A0E94D7290E94E1290E94072ABE
:1036800078974CF40E949F2A0E94D7290E94E12932
:10369000E65F0E94582C98C0A0916802A230A1F465
:1036A0000E949F2A0E94D7290E94E1290E940A2A8B
:1036B00078974CF40E949F2A0E94D7290E94E12902
:1036C000EF5F0E94582C80C0A0916802A330A1F443
:1036D0000E949F2A0E94D7290E94E8290E94072A57
:1036E000FC974CF40E949F2A0E94D7290E94E82947
:1036F000E65F0E94582C68C0A0916802A430A1F433
:103700000E949F2A0E94D7290E94E8290E940A2A23
:10371000FC974CF40E949F2A0E94D7290E94E82916
:10372000EF5F0E94582C50C0A0916802A530B9F4F8
:103730000E949F2A0E94D7290E94EF290E94D62723
:103740000E940D2A5CF40E949F2A0E94D7290E94A1
:10375000EF290E94FC29EC590E94582C35C0A091F9
:103760006802A630B9F40E949F2A0E94D7290E94BD
:10377000EF290E94D6270E94132A5CF40E949F2AF8
:103780000E94D7290E94EF290E94FC29E65F0E942F
:10379000582C1AC0A0916802A730B1F40E949F2A49
:1037A0000E94D7290E94EF290E94D6270E94182A3A
:1037B0005CF40E949F2A0E94D7290E94EF290E9450
:1037C000FC29EF5F0E94582C4FC0A0917702A130D6
:1037D00039F4A0916802A23010F00E941D2A44C062
:1037E000A0917902A13059F4A0916802A13030F083
:1037F000A0916802A73010F40E94232A35C0A0913E
:103800007802A13089F5E0916802E03041F5E0915D
:103810006A02E03001F1A0916A02A23021F4E1E0F5
:10382000E09368021BC0A0916A02A330B9F40E9421
:103830009F2A0E94D7290E94EF290E94A22A0E9453
:10384000D7290E94EF290E94A82A0E94D7290E9406
:10385000EF290E94CB26E0E0E093670203C0E0E09E
:10386000E09368020E944F29A0916B02A13010F4EE
:103870000C94C91C0E94362A0E949F2A0E94D729B4
:103880000E94E129E83140F40E94AC290E94D72926
:103890000E94E829EC33B0F0E09166020E94072A0A
:1038A0000E94D7290E94EF290E94A22A0E94D729AC
:1038B0000E94EF290E94A82A0E94D7290E94EF297E
:1038C0000E94CB260E9486290E9433280E949F2AAC
:1038D0000E94D7290E94E1290E94CD290E940E272B
:1038E0000E9433280E949F2A0E94D7290E94E8291B
:1038F0000E94CD290E94D4290E9453270E94582754
:103900000E949F2A0E94D7290E94EF290E94D62751
:103910000E94B7290E94392AA0916802A13019F4A7
:103920000E94402A36C0A0916802A23019F40E9479
:10393000432A2FC0A0916802A33019F40E94462A9E
:1039400028C0A0916802A43019F40E94492A21C01D
:10395000A0916802A53019F40E944C2A1AC0A091C7
:103960006802A63019F40E944F2A13C0A091680281
:10397000A73019F40E94522A0CC0E0916802E0308E
:1039800041F40E949E290E94552A0E946B290E94A0
:10399000582A02C00E94612A27C3A0916502A43060
:1039A00011F00C94F41FE0916602E03011F00C94D9
:1039B000211DA0917A02A13019F40E94472917C055
:1039C000A0917602A13019F40E944B2910C0A09159
:1039D0007802A13061F4E0916A02E03021F4E0E085
:1039E000E093650202C00E94A1290E944F29A09184
:1039F0006B02A13028F12297E0E0E883E2E00E9428
:103A0000A6290E94D9260E945F29B4F40E94622947
:103A100019F4E3E5F6E005C0A981A13031F4E7E649
:103A2000F6E0FA93EA930E946625E881EF5FE88367
:103A3000E981EF5FE983E5CF0E946B290E9471293C
:103A4000D3C2A0916602A13011F00C94F41FE09152
:103A50006702E03011F00C94B01DA0917A02A13001
:103A600019F40E94472917C0A0917602A13019F4D9
:103A70000E944B2910C0A0917802A13061F4E0911E
:103A80006A02E03021F4E0E0E093660202C00E94A6
:103A9000692A0E944F29A0916B02A13010F40C9466
:103AA000AF1D0E946E2A0E94D9260E945F2914F041
:103AB0000C94AB1D0E94622949F4A0916602A130CA
:103AC00021F4E5E7F6E00E944F273EC0A981A1302E
:103AD000D8F1A531C8F52197EDE00E94B4290E94E4
:103AE000AF290E9433280E9434260E94B7290E94E1
:103AF000BA29A881AF3F09F10E9433280E94AF2A5A
:103B00000E94E1290E94CD290E94CF290E94AF2A5C
:103B10000E94E8290E94CD290E94D4290E9453279F
:103B20000E9458270E94AF2A0E94EF290E94D627A0
:103B30000E94B729E7EAF4E002C0ECEAF4E0FA9365
:103B4000EA930E9466252196E881EF5FE883E98188
:103B5000EF5FE983A8CF0E946B290E94712944C2BC
:103B6000A0916702A53110F00C94F21FA0917A0287
:103B7000A13011F00C946C1EE0916802E030A1F4C9
:103B8000E0916A02E03011F4E2E00BC0A0916A0219
:103B9000A13011F4E2E005C0A0916A02A23019F44C
:103BA000E3E0E0936A0297C0A0916802A13081F43B
:103BB0000E94B42A0E94E1290E949B29FF233AF027
:103BC0000E94B42A0E94E129EA500E94582C83C026
:103BD000A0916802A23081F40E94B42A0E94E129D7
:103BE0000E94D226FF233AF00E94B42A0E94E129C3
:103BF000E1500E94582C6FC0A0916802A33081F45C
:103C00000E94B42A0E94E8290E949B29FF233AF0CF
:103C10000E94B42A0E94E829EA500E94582C5BC0F6
:103C2000A0916802A43081F40E94B42A0E94E8297D
:103C30000E94D226FF233AF00E94B42A0E94E8296B
:103C4000E1500E94582C47C0A0916802A53099F419
:103C50000E94B42A0E94EF290E94D6270E94F629CA
:103C60004CF40E94B42A0E94EF290E94FC29E456D9
:103C70000E94582C30C0A0916802A63099F40E948E
:103C8000B42A0E94EF290E94D6270E94022A4CF4EF
:103C90000E94B42A0E94EF290E94FC29EA500E9447
:103CA000582C19C0A0916802A730A9F40E94B42A28
:103CB0000E94EF290E94FC290E94D226DF010E9467
:103CC000692C4CF40E94B42A0E94EF290E94FC291E
:103CD000E1500E94582CFCC0A0917602A13011F056
:103CE0000C941F1FE0916802E030A1F4A0916A02D9
:103CF000A13011F4E0E00BC0A0916A02A23011F4EF
:103D0000E0E005C0A0916A02A33019F4E2E0E0937C
:103D10006A0294C0A0916802A13081F40E94B42A82
:103D20000E94E1290E94072A78973CF40E94B42A55
:103D30000E94E129E65F0E94582C80C0A091680291
:103D4000A23081F40E94B42A0E94E1290E940A2A2A
:103D500078973CF40E94B42A0E94E129EF5F0E9408
:103D6000582C6CC0A0916802A33081F40E94B42A40
:103D70000E94E8290E94072AFC973CF40E94B42A7A
:103D80000E94E829E65F0E94582C58C0A091680262
:103D9000A43081F40E94B42A0E94E8290E940A2AD1
:103DA000FC973CF40E94B42A0E94E829EF5F0E942D
:103DB000582C44C0A0916802A53099F40E94B42AFE
:103DC0000E94EF290E94D6270E940D2A4CF40E94DF
:103DD000B42A0E94EF290E94FC29EC590E94582C19
:103DE0002DC0A0916802A63099F40E94B42A0E94C6
:103DF000EF290E94D6270E94132A4CF40E94B42A6D
:103E00000E94EF290E94FC29E65F0E94582C16C0F0
:103E1000A0916802A73091F40E94B42A0E94EF2971
:103E20000E94D6270E94182A4CF40E94B42A0E94AD
:103E3000EF290E94FC29EF5F0E94582C49C0A091F5
:103E40007702A13039F4A0916802A23010F00E94EC
:103E50001D2A3EC0A0917902A13059F4A0916802B8
:103E6000A13030F0A0916802A73010F40E94232AFC
:103E70002FC0A0917802A13059F5E0916802E0309E
:103E800011F5E0916A02E030D1F0A0916A02A2300F
:103E900021F4E1E0E093680215C0A0916A02A3302A
:103EA00089F40E94B42A0E94EF290E94B92A0E9434
:103EB000EF290E94BF2A0E94EF290E94CB26E0E052
:103EC000E093670203C0E0E0E09368020E944F299C
:103ED000A0916B02A13010F40C94F11F0E94362ABD
:103EE0000E94B42A0E94E129E83140F40E94AC29E2
:103EF0000E94D7290E94E829EC3390F0A3E1B3E0B7
:103F0000E09167020E94D2260E94EF290E94B92AFE
:103F10000E94EF290E94BF2A0E94EF290E94CB260F
:103F20000E9486290E9433280E94B42A0E94E12917
:103F30000E94CD290E940E270E9433280E94B42A95
:103F40000E94E8290E94CD290E94D4290E9453276B
:103F50000E9458270E94B42A0E94EF290E94D62767
:103F60000E94B7290E94392AA0916802A13019F451
:103F70000E94402A36C0A0916802A23019F40E9423
:103F8000432A2FC0A0916802A33019F40E94462A48
:103F900028C0A0916802A43019F40E94492A21C0C7
:103FA000A0916802A53019F40E944C2A1AC0A09171
:103FB0006802A63019F40E944F2A13C0A09168022B
:103FC000A73019F40E94522A0CC0E0916802E03038
:103FD00041F40E949E290E94552A0E946B290E944A
:103FE000582A02C00E94612A45C4A0916402A430EC
:103FF00011F00C943A24E0916502E03011F00C9439
:104000006B20A0917A02A13019F40E94472919C0AF
:10401000A0917602A13019F40E944B2912C0A09100
:104020007802A13071F4E0916A02E03021F4E0E01E
:10403000E093640204C0E0916A02E09365020E948A
:104040004F29A0916B02A13010F40C946A202297A2
:10405000E0E0E883E7E00E94A6290E94D9260E94BA
:104060005F29A4F50E94622919F4E9E8F6E023C06B
:10407000A981A13019F4EEE9F6E01DC0A981A230B2
:1040800019F4E2EBF6E017C0A981A33019F4E6ECCD
:10409000F6E011C0A981A43019F4E7EDF6E00BC0F9
:1040A000A981A53019F4EBEEF6E005C0A981A63090
:1040B00031F4EDEFF6E0FA93EA930E946625E88189
:1040C000EF5FE883E981EF5FE983C7CF0E946B2947
:1040D0000E947129CFC3A0916502A13011F00C9408
:1040E000BD20A0917A02A13061F40E946C27E130DA
:1040F00038F00E946C27E150AFE4B3E00E94582CE6
:1041000016C0A0917602A13061F40E946C27E436BB
:1041100038F40E946C27EF5FAFE4B3E00E94582CA4
:1041200006C0A0917802A13011F40E948229A091CA
:104130006B02A13008F1E1E1F7E00E944F27E6E2CF
:10414000F7E00E944F270E9453270E9458270E94A1
:104150006C270E94CD29E5E2EA930E943F25E3E126
:104160000E940D28EBE2EA930E943F250E941E2840
:10417000EDE2EA930E943F257DC3A0916502A23043
:1041800011F00C948521E0916602E03011F00C945E
:104190000D21A0917702A13021F4E0E0E0936702C5
:1041A0001EC0A0917902A13021F4E1E0E093670202
:1041B00016C0A0917802A13091F4E0916702E0303E
:1041C00021F4E0E0E093650203C0E1E0E0936602E1
:1041D000E0E0E0936702E09368020E944F29A0911B
:1041E0006B02A130C8F0E3E3F7E00E944F27E8E458
:1041F000F7E00E944F27EDE5F7E00E944F27E0919E
:104200006702E03019F4E2E7F7E002C0E7E8F7E020
:10421000FA93EA930E94662577C0A0916802A330C2
:10422000E8F0E0E0E0936802E0916702EF5FE0937E
:104230006702A0916702A43188F0E0E0E093670292
:10424000E0916602EF5FE0936602A0916602AF30F4
:1042500028F0E0E0E09365020E94652AA0916B02DD
:10426000A130D8F00E9427250E942828ECE9F7E029
:104270000E944F27E4E00E944A28E1EBF7E00E9409
:104280004F270E94C62AE8E4F3E060E070E00E9455
:104290005C27E6EBF7E00E944F27A0916602A13071
:1042A00098F122970E94AC29ACE3B0E00E949E2BCB
:1042B000E95FFF4F0E94CB2A0E94EF290E94D02A7B
:1042C0000E94292AA4E1B0E00E94CC2BA3E0B0E038
:1042D0000E94CC2B0E94CB2A0E94D62A0E94D62A6A
:1042E0000E94D02AEA0FFB1F3196E883F9830E94CF
:1042F000FC270E94C62AEC81FD81662777270E9451
:104300005C270E94232A2296B5C2A0916502A330A1
:1043100011F00C94ED21A0917A02A13041F4E091CA
:104320006602E03019F4E1E0E09366022AC0A09151
:104330007602A13041F4E0916602E03019F0E0E04D
:10434000E09366021EC0A0917802A130D1F4E09102
:104350006602E03019F40E94822913C00E94762779
:10436000E03051F4A1E0B0E0E1E00E94582C0E945E
:10437000AC27A2E0B0E003C0A1E0B0E0E0E00E9422
:10438000582CA0916B02A13038F1E8EBF7E00E94C5
:104390004F27EDECF7E00E944F270E947627E03090
:1043A00019F4E7EDF7E002C0E1EEF7E0FA93EA93E3
:1043B0000E946625E0916602E03021F4E3E1EA9391
:1043C000E0E003C0E3E1EA93E1E0EA930E94132511
:1043D000ECE3EA930E943F254DC2A0916502A43010
:1043E00011F00C945722A0917A02A13099F40E9406
:1043F0008C27AE2FECEEEA173CF40E948C27E1509C
:104400000E94582CEF5F05C0A3E0B0E0ECEE0E94E4
:10441000582C1BC0A0917602A13089F40E948C27F1
:10442000E4313CF40E948C27EF5F0E94582CE1504D
:1044300005C0A3E0B0E0E4E10E94582C06C0A091C2
:104440007802A13011F40E948229A0916B02A13060
:1044500068F1EAEEF7E00E944F27EFEFF7E00E94E5
:104460004F27E4E1F8E00E944F27E9E2F8E00E94DC
:104470004F27E1E0EA93E2E0EA93E1E0EA93E0E04B
:10448000EA93E0E0F0E060E070E00E94342C0E94EB
:104490008C27F0E0E7FDFFEF0E94942B0E94342C64
:1044A0000E949108E3E3F8E00E944F27E3C1A09146
:1044B0006502A53011F00C94F423A0917702A1308D
:1044C00051F4A0916602A23028F0E0916602E1501A
:1044D000E0936602E5C0A0917902A13051F4A09169
:1044E0006602A43028F4E0916602EF5FE093660272
:1044F000D7C0A0917A02A130F1F5E0916602E030D8
:1045000049F40E944729A0916A02A23011F40E9446
:10451000472930C0A0916602A13059F40E94642856
:10452000A83EE3E0BE0720F00E9469280E946E28A2
:1045300021C0A0916602A23049F40E947528A436D9
:10454000E0E0BE0710F00E94852813C0A09166022B
:10455000A33031F40E948D2810F00E949E2809C0DB
:10456000A0916602A43031F40E94A62810F00E94A7
:10457000B728229695C0A0917602A13011F00C9434
:104580000A23E0916602E03049F40E944B29A09191
:104590006A02A23011F40E944B293BC0A09166022E
:1045A000A13049F40E946428A832E3E2BE0710F467
:1045B0000E94BF282EC0A0916602A23051F40E9432
:1045C0007528A438E3E0BE0710F40E94C72822969D
:1045D00020C0A0916602A33051F40E94CF280E940F
:1045E000E128A881AA3510F40E94EE2811C0A091FC
:1045F0006602A43071F40E94CF280E94E1286881ED
:1046000077270E94F4270E94F52810F40E940429BD
:10461000219646C0A0917802A13011F00C9450234D
:10462000E0916A02E03019F40E94822939C0A09119
:104630006A02A130C9F40E948027E13041F4A6E06B
:10464000B0E0E0E00E94582C0E9485270AC0A6E056
:10465000B0E0E1E00E94582C0E948527E1E0E09361
:104660006F020E944F291CC0A0916A02A330C1F4BE
:10467000E0916602E03021F4E1E0E09366020EC0D2
:10468000E0E0E09366020E946928A4E0B0E00E94A6
:10469000502CE1E0E0936F020E944F290E940B2909
:1046A000A0916B02A13010F40C94F323ECE3F8E03A
:1046B0000E944F270E948027E13011F00C94E823DC
:1046C000E4E0E0936302E1E5F8E00E944F27E6E6CC
:1046D000F8E00E944F27E0916602E03049F4E4E7F9
:1046E000F8E00E944F27ECE7F8E00E944F276FC0E8
:1046F0002297EDE00E944A280E946928E883F98306
:10470000A0916602A13031F40E941129EA930E941F
:104710005A0801C0EAE2EA930E943F250E9411294B
:104720000E941829A0916602A23031F40E94232928
:10473000EA930E945A0801C0EAE2EA930E943F25E8
:104740000E9423290E942A29A0916602A33031F4F5
:104750000E943529EA930E945A0801C0EAE2EA93CE
:104760000E943F250E9435290E943C29A0916602A3
:10477000A43029F4E881EA930E945A0801C0EAE2D1
:10478000EA930E943F250E9453270E941325A0917F
:104790006602A13019F4EAECF4E014C0A0916602BC
:1047A000A23019F4E9ECF4E00DC0A0916602A33048
:1047B00019F4E8ECF4E006C0A0916602A43031F4EC
:1047C000E9EDF4E0FA93EA930E946625229607C089
:1047D000E2E0E0936302E0E9F8E00E944F270E94E4
:1047E0006B290E94582A46C0A0916502A63011F09C
:1047F0000C943A24A0917A02A13059F40E947127B6
:10480000E23130F00E947127E1500E94582CEF5F96
:1048100015C0A0917602A13059F40E947127E631AB
:1048200030F40E947127EF5F0E94582CE15006C0BF
:10483000A0917802A13011F40E948229A0916B020C
:10484000A130C0F0E1EAF8E00E944F27E6EBF8E083
:104850000E944F270E9433280E9471270E94CD2971
:10486000E4E8F7E00E944F270E941E28EDE2EA9359
:104870000E943F25A0916B02A13028F0E0916B02CD
:10488000E150E0936B02E0E0E0937202E1E0F0E0DF
:10489000FA93EA930E94722B0C94D009FFCF1A93DB
:1048A0000E94DC2A0E94E62A0E94EC2A1E2F0E9407
:1048B000342BE12F18810C9425250E94DC2AE881F5
:1048C0000E94F02A0C942525EA81E370EA83E981AD
:1048D000E03019F0EA81E061EA83E881E03019F024
:1048E000EA81E068EA830E94F52AE7E00E94FB2A59
:1048F0000E94F02A0C9475250E94F52AE0E0EA93C4
:104900000E94592B0E94E62A0E94002BA881B9819F
:10491000EC930E94002BAA81BB81EC930E94EC2AAD
:10492000EA930E94BC25AC81BD8129C00E94F52A72
:10493000E0E00E94072B0E940E2B0E94FB2AEA93C4
:104940000E94C8250E94F02A0C9475250E94F52A21
:10495000E4E0EA930E94592B0E94E62A0E94002B71
:10496000AC81BD81EC930E94002BAA81BB81EC93AA
:104970000E94EC2AEA930E94BC25A881B981EC939D
:104980000E94342B269608950E94F52AE4E00E94A6
:10499000FB2AEA930E94C8250E940E2B0E94072B37
:1049A0000E94F02A0C947525FFE0FA95F1F708951E
:1049B000A7B3AF70A7BBC19AC098F6DFC29AF4DF65
:1049C000A6B3C298F1DFC29AEFDFC298A7FDF5CF78
:1049D0000895A07FAB2BA8BBC29A0E94D424C29892
:1049E0000E94D4240895C198A7B3A76FA7BBB8B3FA
:1049F000BF70A881EEDFA881A295EBDFC19A0C946D
:104A0000BA25C29A0E94D424E6B3C2980E94D42444
:104A1000E07F08950E94D424F4DFAE2FF2DFC19826
:104A2000E295EA2B08950E94D824E881F0E0EB5744
:104A3000FD4FE081A981EA0FEA930E94F324E98106
:104A4000E0938902E881E0938A02229608950E9409
:104A5000D824E2E0EA930E94F3240E94D824ECE0F8
:104A6000EA930E94F3240E94D824E1E0EA930E9492
:104A7000F324E0E0E0938A02E09389020895EF9343
:104A8000FF93A8816894AA3039F0E894E0918B02F2
:104A9000A0918902AE1760F0E0918A02EF5FE09387
:104AA0008A02E0E0EA93E0918A02EA93BCDF56F0E2
:104AB000E0918902EF5FE09389027ADFC09AA881D2
:104AC000AA9391DFFF91EF910C94BA251A93E98193
:104AD000FA813196E983FA833197E4911E2FE03011
:104AE00019F01A93CCDFF3CF188123960895AA27E3
:104AF000BB271197F1F70895C198A7B3A76FA7BB7C
:104B0000B8B3BF70A8810E94E924C19A33C0C2988B
:104B1000C098E881E0938B02E058E0938702E88137
:104B2000E054E09388020E94152B0E94152B0E94EE
:104B3000152BDDDFE0E2EA93DFDFD9DFE8E20E9458
:104B40001B2BE4E00E941B2BE5E80E941B2BA7B364
:104B5000AF70A7BBC19A0E940A25E53011F0E0E0D2
:104B600009C00E94D824E6E0EA930E94F3240E9440
:104B70002725E1E021960895E881E295EF70AE2FB8
:104B8000AA0FAA0FEA0FEE0FA991AF70EA0F0895CE
:104B9000A991EE27AA5012F0E05FFCCFA65FEA0FC2
:104BA0000895E3E1F0E00E94D62BA3E1B0E00E947B
:104BB0009E2B08950E94392CEA1BFB0B31968F0126
:104BC0000895E4E6F0E00E94D62B31969F01A3E021
:104BD000A29FF001A39FF00D0E948F2B3C97AF0185
:104BE000A8E0A29FF001A39FF00D3596DF01E9E157
:104BF000F0E00E94D62B35970895E5E00E94C62B81
:104C00000E948F2BE41BF50B3A970895ABE0A09F11
:104C1000F001A19FF00D74960895EA0FFB1FE41BAD
:104C2000F50B0895EEE1F0E00E94D62BAEE1B0E086
:104C30000E949E2B0895ECE2F0E0EA1BFB0B089526
:104C4000AE0FBF1FE7E0F0E00E94D62BA7E0B0E078
:104C50000E949E2BDF01FB01EA1BFB0B0895AE1B9C
:104C6000BF0BAA87BB870895EE81F0E00895F0E0BE
:104C70007F9708952A970E94722CE889F989E0535A
:104C8000F84FE88BF98BA889B9898BCFEE87FF871E
:104C9000A889B989B2CFE887F987A885B985C2CF35
:104CA000EE81FF81AC85BD850895AE1BBF0BAE8341
:104CB000BF839097089569817727E881F0E0A7E0A6
:104CC000B0E00E94392CEA1BFB0BDB01AE0FBF1FCB
:104CD00090970895EC81ACE3EA9FF001E95FFF4F04
:104CE000DF01E12FF0E0BD01A3E0B0E00E949E2BC8
:104CF000DB010895AE0FBF1F11960E94442CE9837B
:104D00000895AE0FBF1F12960E94442CEA830895A7
:104D1000AE0FBF1FE0E00E94582CDCCFAE0FBF1FCC
:104D20001196E0E00E94582CD5CFAE0FBF1F12960F
:104D3000E0E00E94582CE12F239618810895EE851B
:104D4000ACE3EA9FF001E95FFF4FDF01EB85F0E0A4
:104D5000BD01A3E0B0E00E949E2BDB010895AE0FE1
:104D6000BF1F0E94442C0895EC83E981ED83EA8102
:104D7000EE83E1E0EB83EB85EA870895AE0FBF1F7A
:104D8000E0E00E94582CDBCFAE0FBF1F1196E0E091
:104D90000E94582CD4CFAE0FBF1F1296E0E00E94A5
:104DA000582C0895F0E031970895B0E0AE17BF0792
:104DB0000895E0916902F0E00895E981FA816B813C
:104DC0007C810895AAE0B0E080E090E00E94A62BEC
:104DD0000895E983FA836B837C830895A981BA815E
:104DE0008B819C810895EE81FF8168857985EACF6A
:104DF000DF01CB01E2DF0E946D2C0895E150F0400D
:104E000060407040E6CFAC89BB27EA89F0E0AE1B7A
:104E1000BF0BED81F0E0EA17FB070895EEE2EA939D
:104E20000C943F25EE81FF81688579850895D6DF52
:104E30000E94EE2BE883EA930E945A08EA930E94AC
:104E40003F25A881BB27EEDF0E94992B0E94A62B4D
:104E5000C5DF0E947E2BA983BA838B839C83AE819E
:104E6000BF8188859985EAE0F0E060E070E00E940B
:104E7000EE2BEE83FF836887798708950E94202BAD
:104E8000E0E0EA93EA93EA930C946424E0936102ED
:104E9000AFE4B3E00E94442CE0936D020895FA93CE
:104EA000EA930C946625E0E0EA93E3E0EA93089540
:104EB000E0E0EA93EA9308950E94342CE0E0F0E009
:104EC00060E070E00E94342C0C949108ECEDF5E069
:104ED000FA93EA930C94722BAFE4B3E00E94442C53
:104EE0000895A0E0B0E00E94442C0895A1E0B0E055
:104EF0000E94442C0895A2E0B0E00E94442C089542
:104F0000A6E0B0E00E94442C0895A4E0B0E0E0E008
:104F1000F0E00E94502C0895A3E0B0E00E94442CE1
:104F20000895E6E0F0E0FA93EA93E9E0F0E0FA931E
:104F3000EA930895FA93EA930E947C24E7E0F0E074
:104F4000FA93EA93E4E0F0E0FA93EA93E5E0F0E024
:104F5000FA93EA930C94A6244A927A928A920C9439
:104F6000E1066A929A92BA920E949624A2E0B0E078
:104F70000895E52DF0E0FA93EA934A927A92089523
:104F8000EC81ACE3EA9FF001E95FFF4FDF01ED81C7
:104F9000F0E0BD01A3E0B0E00E949E2BDB0108958C
:104FA000AE0FBF1F11960E94442C0895AE0FBF1F75
:104FB00012960E94442CF0E00895E0E0E093640231
:104FC000E0936502E0936602E0936702E093680273
:104FD000E0936902E0936A020895E881F0E0E55801
:104FE000FD4FA081A4310895A881B0E00895E88123
:104FF000F0E0EA58FD4F0895E0E0EA93E2E0EA933A
:105000000C941325ECE7EA930C943F25E0E0EA9337
:10501000E1E0EA930E941325F5CFEA93E0E0EA93FA
:105020000C941325E3E1EA93E1E0EA930C94132551
:10503000E3E1EA93E2E0EA930C941325E3E1EA93D7
:10504000E3E0EA930C941325EEE5EA930C943F25F4
:10505000E0E0EA93E1E0EA930C941325EA93E1E0BF
:10506000EA930C941325E0E0EA93E2E0EA9320CF80
:10507000E62DF0E00E94942B1FCFECEBF0E00FCF79
:10508000E92DF0E00E94942B17CFEB2DF0E00E9469
:10509000942B12CFEA93E2E0EA930C941325E52DCA
:1050A000F0E00E94942B08CFECE8F0E0F8CEE42D7D
:1050B000F0E00E94942B00CFE72DF0E00E94942BAB
:1050C000FBCEE7EBF0E0EBCEA0918302B09184023F
:1050D0000895E0918302F09184020895E85EF34020
:1050E000E0938302F093840208952297EDDFE8EEC7
:1050F000F3E00E94D62BA8EEB3E00E949E2BE4DFE3
:10510000AE1BBF0BA883B9830895E3DFE456F040DC
:10511000E0938302F093840208952297D5DFE4E6BA
:10512000F0E00E94D62BA4E6B0E00E949E2BCCDFDC
:10513000AE1BBF0BA883B9831A970895CADFEA5044
:10514000F040E0938302F093840208952297BCDF3D
:10515000EAE0F0E00E94D62BAAE0B0E00E949E2B8D
:10516000B3DFAE1BBF0BA883B98311970895B1DFDE
:10517000E150F040E0938302F09384020895A9DFA8
:10518000E851FC4FE0938302F09384020895A1DF7D
:10519000EC59FF4FE0938302F09384020895219726
:1051A00093DFE8EEF3E00E94D62BA8EEB3E00E9476
:1051B0009E2B8ADF0E94392CEA1BE88368817727BF
:1051C00013CFE4E6F0E00E94E92BA4E6B0E00E94F1
:1051D000CC2BDF01FB01EA1BE88308957ADF3A96C6
:1051E000E0938302F09384020895EAE0F0E00E94E5
:1051F000E92BAAE0B0E00E94CC2BDF01FB01EA1B07
:10520000E883A881A930089564DF3196E093830292
:10521000F09384020895E0E0E0938302E093840237
:105220000895A881B981E8EEF3E00E94D62B089595
:10523000A8EEB3E00E949E2BA881B981AE1BBF0BE4
:10524000A883B9830895A881B981E4E6F0E00E94BB
:10525000D62B0895A4E6B0E00E949E2BA881B981C8
:10526000AE1BBF0BA883B9830895A881B981EAE07A
:10527000F0E00E94D62B0895AAE0B0E00E949E2B99
:10528000A881B981AE1BBF0BA883B9830895E0E064
:10529000EA930C942408E1E0EA930C942408E0E0FB
:1052A000E0936A02E093690208952297E0E0E883C0
:1052B000E5E0E0936302E0916902E98308953496A2
:1052C000A98173CDE0E0EA93E981EA930E94132576
:1052D000E981E0300895E3E1EA93A0916A02BB27F7
:1052E00068CDAE1BBF0BAA930E941325ECE3EA9393
:1052F0000E943F2522960895E62DF0E00895E92DBD
:10530000F0E00895E0E0E0936502C9CFEEE2F1E05D
:10531000C6CDE3E1EA93E0916A02EA930E94132585
:10532000ECE3EA930C943F25E52DF0E0FA93EA9341
:105330004A920C94A006F0E03A970895E9E9F2E069
:10534000AECDE0916A02E09366020895E0936302B5
:10535000E0916902E9830895E091660223CDEA9322
:105360000E945B07E8830895EA93EB811BCD0E94BE
:10537000942BA2CDE5E2F2E092CDACE3B0E00E9446
:105380009E2BE95FFF4FDF01EC81F0E0BD01A3E060
:10539000B0E00E949E2BDB010895F0E0E8CFEAE345
:1053A000EA930E943F255FCEE4EAF4E078CDACE3D7
:1053B000B0E00E949E2BE95FFF4FDF01E0916702A2
:1053C000F1CCBD01A3E0B0E00E949E2BDB01C7CC75
:1053D000BD01A3E0B0E00E949E2BDB01E1CDBD0149
:1053E000A3E0B0E00E949E2BDB010895E456F0405C
:1053F000DF010E94692C0895AE0FBF1F12960E9414
:10540000442C08953A97DF010E94692C0895F0E03A
:105410003A960895F0E031960895EC59FF4FE03048
:10542000A1E0FA0708953A96E030A1E0FA0708955E
:105430003196E030A1E0FA070895E0916802E1506A
:10544000E09368020895E0916802EF5FE0936802DC
:105450000895AE0FBF1FE0E00E94582C7DCFAE0F25
:10546000BF1F1196E0E00E94582C76CFE3EBF4E0EA
:1054700016CDE9E2EA930E943F25EAEBF0E00FCD7A
:10548000E3E8F1E00CCDEDE8F1E009CDE8E9F1E089
:1054900006CDE5EAF1E003CDE8ECF4E000CDE9ED7E
:1054A000F4E0FDCCEBEEF4E0FACCEEEFF4E0F7CC78
:1054B000AE1BBF0BAA930E941325ECE3EA930C9456
:1054C0003F25E0E0E0936702EACEE0E0E093660289
:1054D000E6CEE0916A02E093670208952297E0E049
:1054E000E883E4E133CFE0916602F0E0369645CF01
:1054F000E0916602F0E036965ACFAE0FBF1FE0E0B3
:105500000E94582CF5CFAE0FBF1F1196E0E00E940D
:10551000582CEECFE52DF0E0FA93EA9308950E941F
:10552000FD05FF2766277727C7CC0E944C06FF277B
:1055300066277727C1CCE52DF0E032960895E091FB
:10554000660265CFAE0FBF1FE0E00E94582CF7CF78
:10555000AE0FBF1F1196E0E00E94582CF0CFA3E1E0
:10556000B3E0EC81F0E00895A3E1B3E0E0916702DD
:1055700019CCAE0FBF1FE0E00E94582CF5CFAE0F44
:10558000BF1F1196E0E00E94582CEECFE0E0EA93B6
:10559000E4E0EA938DCCDF01E0916702F0E008954A
:1055A000AE0FBF1FE0916802F0E00895AE0FBF1F7D
:1055B000E0916702F0E008950E94252BE0EDEA9368
:1055C0000E94592BE981EA930C94592B0E94252BB8
:1055D000E1EDEA930C94592BE0E0EA930C943E2B16
:1055E000EA930E94592B0C94342B0E94252BE0ED5A
:1055F000EA930C94592BEA930E94592BEA8108955F
:10560000E1E0EA930E943E2BEA930C94BC25EA93D6
:105610000E94592BE881EA930C94C825EA930E94D2
:10562000592BE981EA930C94C8250E947725E0E381
:10563000EA930C947C25EA930E94F3240C9477253A
:10564000AE98AF98A69AA79815C0A798A698EE27E7
:1056500000009F9B08959E9B089504D0A79A02D0B6
:10566000A69AE1E06DE007C0A79AA69A03D0A69893
:10567000F9DFA7986BE16A95F1F7089578E0A698AD
:10568000F1DF9E9BFECFEEDF88949F990894A69A47
:10569000F1DFEE1F7A9599F77991772311F4A798A6
:1056A00001C0A79ADFDFA698E5DFA69ADBDFA798FF
:1056B000D9CFE99178E0EE0F10F4A79801C0A79A2E
:1056C000D9DFA698CFDF9E9BFECFCCDFA69A7A9536
:1056D00091F7A798C7DFA698CDDFE1E09F99EE2765
:1056E000A69A0895E991F991309639F080ED97E006
:1056F0000197F1F7A8953197C9F70895AE1BBF0B35
:10570000860B970B0895F195E195F0400895F0957B
:1057100060957095E195FF4F6F4F7F4F0895F69517
:10572000E795F695E79508956F2F660F660B762F30
:1057300008958B2F880F880B982F0895FA9FF02DCE
:10574000EB9FF00DEA9FE02DF10D08957A9F702DEB
:105750006B9F700DF89F700DE99F700D6A9F602D13
:10576000710DFB9F600D711DE89F600D711D8827F5
:10577000FA9FF02D610D781FEB9FF00D611D781FD2
:10578000EA9FE02DF10D681F781F08956E2F6A9F24
:10579000F0016B9FF00D089546D0D0DF0EF4B3DF1B
:1057A00008954FD0D3DF0EF4B2DF08950024112402
:1057B00090E1AA0FBB1F001C111C0E1A1F0A18F43F
:1057C0000E0E1F1E01C0A1609A9599F7FD01D00130
:1057D000089529D0EBDF0EF496DF08953F934F93A1
:1057E0005F93002411244427552730E2AA0FBB1FE2
:1057F000881F991F001C111C441F551F0E1A1F0AD9
:10580000460B570B28F40E0E1F1E461F571F01C0D4
:10581000A1603A9559F7FD01BC01D001CA015F9121
:105820004F913F910895E894F7FF02C06CDF6894B0
:10583000B7FF06C0A095B095119600F8039400FA42
:105840000895E89477FF02C062DF689497FF0BC069
:105850000024A095B095809590951196801D901D7F
:1058600000F8039400FA08957A936A93FA93EA93FE
:1058700008951B2EBF2FF12D1A2EAE2FE12D089566
:10588000119602D0FE2F1197E199FECFFF93FFB73B
:10589000F894AEBBBFBBE09AEDB3FFBFFF91089594
:1058A00007D01196EF93EF2F03D0EF911197089542
:1058B000E19B02C0A895FCCF9FB7F894AEBBBFBBDD
:1058C000E09A8DB3E81719F0EDBBE29AE19A9FBF19
:1058D000089500240A160B060895AE17BF07860721
:1058E000970708955A934A933A932A931A930A93DF
:1058F00008955D814C813B812A8119810881089539
:00000001FF
