:100000006528FF3FFF3FFF3F003003138312861830
:100010000130C4004408013A031D38280D080C02C1
:10002000031C36280E08003A031D352801308E00C7
:1000300016081202031D262815081102031D262882
:1000400014081002031D262813080F02031C2D2874
:100050008F01900191019201352813088F00140837
:100060009000150891001608920037288C0A3A284B
:100070008E018C0116081202031D48281508110272
:10008000031D482814081002031D482813080F02F6
:10009000031863280F08C0001008C1001108C2002F
:1000A0001208C300C00A0319C10A0319C20A0319BE
:1000B000C30A40088F00410890004208910043089D
:1000C00092000615642806110800031383168501A3
:1000D000023086008312850186013C309300940132
:1000E000950196010A308D00403093007E309400D7
:1000F000053095000030960040308F007E30900033
:100100000530910000309200042097200D30CB0084
:10011000FF30CA00CB0B8D289028CA0B8D288A2867
:10012000F330CA00CA0B92280000842896280313D3
:1001300083121708C83A031D9E289701970A643056
:1001400017020318A428061264301702031CA928FA
:1001500006160800FF3FFF3FFF3FFF3FFF3FFF3F07
:02400E00FA3F77
:00000001FF
